:020000041000EA
:1000000000B5324B212058609868022188439860DF
:10001000D860186158612E4B002199600221596106
:100020000121F02299502B49196001219960352056
:1000300000F044F80222904214D00621196600F024
:1000400034F8196E01211966002018661A6600F04E
:100050002CF8196E196E196E052000F02FF8012189
:100060000842F9D1002199601B49196000215960AB
:100070001A491B48016001219960EB211966A021F2
:10008000196600F012F800219960164914480160C1
:100090000121996001BC002800D000471248134993
:1000A000086003C880F30888084703B5996A0420EC
:1000B0000142FBD001200142F8D103BD02B5186610
:1000C0001866FFF7F2FF186E186E02BD00000240BE
:1000D000000000180000070000035F00212200005C
:1000E000F4000018222000A00001001008ED00E03C
:1000F00000000000000000000000000074B24E7A12
:1001000000000420E3010010C3010010E903001007
:10011000C1010010C1010010C1010010C101001097
:10012000C1010010C1010010C10100104503001001
:10013000C1010010C1010010C9030010D503001057
:10014000CD010010CD010010CD010010CD01001037
:10015000CD010010CD010010CD010010CD01001027
:10016000CD010010CD010010CD010010CD01001017
:10017000CD010010CD010010CD010010CD01001007
:10018000CD010010CD010010CD010010CD010010F7
:10019000CD010010CD010010CD010010CD010010E7
:1001A000CD010010CD010010CD010010CD010010D7
:1001B000CD010010CD010010CD010010CD010010C7
:1001C00000BE00BE00BE00BE00BE00BE00F03FF894
:1001D000103800BE00202049086006C881F3088856
:1001E00010471E48006800282DD10CA40ECC002911
:1001F00002D000F010F8F9E719491A4A002000E08F
:1002000001C19142FCD1184988471849884700BE6E
:10021000FDE701C901C29A42FBD37047D4A801107F
:10022000C0000020F40F002014B8011000000420CA
:100230000000042014B80110001004200010042055
:100240000000000070470A4810F048F90047EFF33B
:100250000580C0B27047000008ED00E0000000D04B
:1002600000100020FCB20020CD020010E1DE0010E2
:1002700057560000F8B5C046F8BC08BC9E4670470B
:10028000F8B5C04610B5064C2378002B07D1054BB6
:10029000002B02D0044800E000BF0123237010BDF2
:1002A000F81500200000000084020010044B10B577
:1002B000002B03D00349044800E000BF10BDC04636
:1002C00000000000FC15002084020010164B002BDB
:1002D00000D1144B9D46402292029A1A9246002168
:1002E0008B460F461348144A121A12F053F90F4B5B
:1002F000002B00D098470E4B002B00D098470020D1
:10030000002104000D000D48002802D00C480DF01B
:10031000EAFD11F0C1FC200029000AF007F80DF0F9
:10032000DFFDC046000008000000042000000000BF
:100330008DA2001000100020FCB20020E7DE0010AB
:10034000000000007046C0082CD3EFF309808169DB
:1003500002390978002929D101B50FC8B8470CBC6A
:1003600003C29E461E4B06CB91421ED0083B1A602C
:10037000002909D0EFF3098020388863F0C0444693
:100380004D4656465F46F0C0906B1030F0C8A04610
:10039000A946B246BB4680F309882038F0C802203F
:1003A000C0430047EFF30880D1E770470D4A136858
:1003B0009942FAD801B5890053589C460FC8E047C6
:1003C0000CBC10609E46704701B509F025FA03BCCD
:1003D0008E46C7E701B509F0DDF903BC8E46C1E7DB
:1003E0000404002064840110102304E0202302E0B0
:1003F000302300E040239C46F0B404AE7546E80884
:1004000001D3EFF309860E4F0FCE0FC70FBC0FC7F6
:100410004046494652465B460FC71DCE3100A60AEC
:1004200000D304316E0900D248311FC7EFF30980B1
:100430006946EFF3148663C7604601490DF028F85A
:100440006CB2002001480421014B1847100600201F
:10045000ED04011002B471464908490009564900EB
:100460008E4402BC7047C04602B471464908490038
:10047000095C49008E4402BC7047C0460022430814
:100480008B4274D303098B425FD3030A8B4244D35C
:10049000030B8B4228D3030C8B420DD3FF2209029E
:1004A00012BA030C8B4202D31212090265D0030B5D
:1004B0008B4219D300E0090AC30B8B4201D3CB0353
:1004C000C01A5241830B8B4201D38B03C01A524195
:1004D000430B8B4201D34B03C01A5241030B8B4297
:1004E00001D30B03C01A5241C30A8B4201D3CB0282
:1004F000C01A5241830A8B4201D38B02C01A524167
:10050000430A8B4201D34B02C01A5241030A8B4269
:1005100001D30B02C01A5241CDD2C3098B4201D381
:10052000CB01C01A524183098B4201D38B01C01AFF
:10053000524143098B4201D34B01C01A5241030976
:100540008B4201D30B01C01A5241C3088B4201D325
:10055000CB00C01A524183088B4201D38B00C01AD2
:10056000524143088B4201D34B00C01A5241411AF9
:1005700000D20146524110467047FFE701B5002006
:1005800000F0F0F802BDC0460029F7D076E77047CA
:1005900003460B437FD4002243088B4274D30309E4
:1005A0008B425FD3030A8B4244D3030B8B4228D385
:1005B000030C8B420DD3FF22090212BA030C8B42AB
:1005C00002D31212090265D0030B8B4219D300E04B
:1005D000090AC30B8B4201D3CB03C01A5241830BD0
:1005E0008B4201D38B03C01A5241430B8B4201D380
:1005F0004B03C01A5241030B8B4201D30B03C01AA9
:100600005241C30A8B4201D3CB02C01A5241830A22
:100610008B4201D38B02C01A5241430A8B4201D351
:100620004B02C01A5241030A8B4201D30B02C01A7B
:100630005241CDD2C3098B4201D3CB01C01A5241E2
:1006400083098B4201D38B01C01A524143098B426B
:1006500001D34B01C01A524103098B4201D30B0154
:10066000C01A5241C3088B4201D3CB00C01A524179
:1006700083088B4201D38B00C01A524143088B423E
:1006800001D34B00C01A5241411A00D201465241D7
:10069000104670475DE0CA0F00D04942031000D3F6
:1006A0004042534000229C4603098B422DD3030A4B
:1006B0008B4212D3FC22890112BA030A8B420CD35B
:1006C000890192118B4208D3890192118B4204D384
:1006D00089013AD0921100E08909C3098B4201D304
:1006E000CB01C01A524183098B4201D38B01C01A3E
:1006F000524143098B4201D34B01C01A52410309B5
:100700008B4201D30B01C01A5241C3088B4201D363
:10071000CB00C01A524183088B4201D38B00C01A10
:100720005241D9D243088B4201D34B00C01A5241E7
:10073000411A00D20146634652415B10104601D374
:100740004042002B00D54942704763465B1000D3FE
:10075000404201B5002000F005F802BD0029F8D0A4
:1007600016E770477047C046D0400B1CD1409C46EE
:10077000203AD3401843524263469340184370478F
:100780009140031C90409C46203A934019435242AA
:100790006346D340194370478446101C62468C461A
:1007A000191C634600E0C0461FB501F04FFA00284F
:1007B00001D40021C8421FBD10B501F0A7F9404285
:1007C000013010BD10B501F041FA002801DB002016
:1007D00010BD012010BDC04610B501F037FA002849
:1007E00001DD002010BD012010BDC04610B501F094
:1007F000C9F9002801DC002010BD012010BDC04651
:1008000010B501F0BFF9002801DA002010BD012069
:1008100010BDC0461C2101231B04984201D3000CCB
:1008200010391B0A984201D3000A08391B09984263
:1008300001D30009043902A2105C40187047C04679
:100840000403020201010101000000000000000099
:10085000002B15D1002A13D1002906DB01DC00286A
:1008600006D00020C043410802E080210906002094
:1008700007B4024801A14018029003BDE9FEFFFF42
:1008800003B4684601B5029800F06AF9019B9E46E0
:1008900002B00CBC7047C046002B11D1002A0FD10A
:1008A000002900D1002802D00021C943081C07B448
:1008B000024802A14018029003BDC046A9FEFFFFF6
:1008C00003B4684601B5029800F088F8019B9E4683
:1008D00002B00CBC7047C046F0B5CE464746150482
:1008E0002D0C2E0080B50704140C3F0C9946030C08
:1008F0007E435D43674363437F19340CE4199C4690
:10090000A54203D980235B029846C4444B46434327
:100910005143250C36046544360C2404A4195B1994
:10092000591820000CBC90469946F0BD70B50022C5
:100930000C4B04000D00FFF763FF002804D12000DA
:10094000290001F0C1FF70BD064B002220002900E4
:1009500001F056FC01F0B8FF80231B069C46604462
:10096000F1E7C0460000E04170B505000C00002230
:10097000002328002100FFF725FF002804D12800CC
:10098000210000F00DF870BD80231B06E11828003F
:1009900000F006F802000B00002150429941F2E7F6
:1009A00070B500220B4B0D00040001F0B7F9FFF702
:1009B000BDFF060001F0F8FF0022074B01F0AEF981
:1009C00002000B002000290001F01AFCFFF7AEFF27
:1009D000310070BD0000F03D0000F041F0B54F4621
:1009E0004646D646C0B5040082B00D0091469846F2
:1009F0008B422FD82CD04146484602F0DDF8290022
:100A00000600200002F0D8F8331A9C46203B9A4694
:100A100000D576E04B46524693401F004B46624657
:100A200093401E00AF4228D825D05346A41BBD4199
:100A3000002B00DA7BE000220023009201930123C7
:100A4000524693400193012362469340009318E07D
:100A50008242D0D900220023009201930A9B002BEE
:100A600001D01C605D600098019902B01CBC9046EA
:100A70009946A246F0BDA342D7D900220023009296
:100A800001936346002BE9D0FB0798464146720864
:100A90000A437B0866460EE0AB4201D1A2420CD865
:100AA000A41A9D41012024196D410021013E241802
:100AB0004D41002E06D0AB42EED9013E24196D41C6
:100AC000002EF8D100980199534600196941002B76
:100AD00023DB2B005246D3402A006446E2401C0030
:100AE00053461500002B2DDB26005746BE40330031
:100AF00026006746BE403200801A9941009001915D
:100B0000ACE7624620239B1A4A46DA40614613004E
:100B100042468A4017001F4380E7624620239B1A03
:100B20002A0066469A402300F3401343D4E7624606
:100B3000202300219B1A0022009101920122DA4019
:100B4000019280E72023624626009B1ADE402F0098
:100B5000B0466646B74046463B003343C8E7C0460A
:100B6000F0B583B016001F000090019102F030F83C
:100B700004000D0002000B0030003900FFF7ACFE4E
:100B8000009A019B121A8B41089920000A604B6061
:100B9000290003B0F0BDC046F8B557464E4645465D
:100BA000DE464402E0B546008846640A360EC70FAA
:100BB000002E63D0FF2E24D08023E400DB041C43EE
:100BC000002399469B467F3E434642465D02D20F34
:100BD0005B006D0A1B0E9046924665D0FF2B55D0E8
:100BE00080220021ED00D2047F3B1543F61A4346D4
:100BF0004A467B400F2A00D98DE06D48920082580A
:100C00009746002C54D108239946063BFF269B4665
:100C1000DAE70025534602291BD0032900D1BFE0A3
:100C2000012928D030007F30002820DD6A0704D059
:100C30000F222A40042A00D004352A0103D53000AF
:100C40005C4A80301540FE2803DCAC01640AC2B265
:100C500001E0FF2200246402D205600ADB07104392
:100C600018433CBC90469946A246AB46F8BD0122CB
:100C7000101A1B287CDD00220024ECE7002C1DD17B
:100C800004239946033B00269B469DE7FF3E002D2B
:100C900020D1022143464A467B400A430F2AD8D836
:100CA0004548920082589746002D19D10121F1E75D
:100CB0000C239946093BFF269B4685E72000FFF75A
:100CC000A9FD7626431F9C4000237642361A99469A
:100CD0009B4679E74A4603231A439146032186E758
:100CE0002800FFF797FD431F36189D4076360021F8
:100CF0007DE780240023E403FF22ACE70025802366
:100D0000DB031C4228D01D4226D12B435C02640A1F
:100D10004346FF229FE762016C01A24224D21B21BD
:100D20000025013E012710006D005200002801DB64
:100D3000944201D8121B3D4301390029F3D114001C
:100D4000621E944125436DE7BA4659462500534635
:100D5000022900D061E77CE78023DB031C436402A7
:100D6000640A3B00FF2276E7121B1A210125D9E70E
:100D70009E362A00B5402C00C240651EAC4114438B
:100D8000620704D00F222240042A00D004346201FA
:100D900003D4A401640A00225DE7012200245AE77B
:100DA0008024E4032C436402640AFF2253E7C04614
:100DB00068780110FFFFFFF7A878011070B50028D0
:100DC0003DD0C317C5185D40C40F2800FFF722FDB2
:100DD0009E22121A962A07DCD2B2082833DD083880
:100DE00085406802400A23E0992A0BDD052329008B
:100DF0001B1AD94003001B339D402B005D1EAB41E5
:100E000019430D00052801DD431F9D402B000F49AC
:100E10000B406E0709D00F263540042D05D0043352
:100E20005D0102D59F220B40121A9B01580AD2B2D3
:100E30004002D205400AE4071043204370BD00245D
:100E400000220020F4E76802400AF1E7FFFFFFFB01
:100E500070B5041E34D0FFF7DDFC9E22121A962ACC
:100E600007DCD2B208282EDD083884406002400A30
:100E700021E0992A09DD030021001B3399404B1E14
:100E8000994105231B1ADC400C43052801DD431F53
:100E90009C4023000D490B40650709D00F252C40CD
:100EA000042C05D004335C0102D59F220B40121A9A
:100EB0009B01580AD2B24002D205400A104370BDCD
:100EC00000220020F7E76002400AF4E7FFFFFFFB83
:100ED000F0B54F464646D6460C000903C0B5490A50
:100EE000470F5E0039431F03DB0F9C4665007B0AFA
:100EF000570F1F436D0DE40F760DA146C000B84695
:100F0000D200AB1B64457BD0002B5FDD002E00D0F0
:100F1000A4E03E00164300D112E15E1E002E00D078
:100F20009EE1871A4346B84280410125C91A4042D2
:100F3000091A0B0200D431E149024E0A002E00D1F9
:100F40006EE13000FFF766FC0300083B1F2B00DD5D
:100F500061E120223900D21A9E40D1409F400E43C9
:100F60009D4200DD51E15D1B6B1C1F2B00DD7CE110
:100F70002021C91A3D0030008F408840DD40791E95
:100F80008F41310007222843D940002507433A40CA
:100F9000002A09D00F233B40042B05D03B1DBB4248
:100FA000BF417F42C9191F000B0200D426E26A1C10
:100FB000C64B55056D0D9A4200D106E1C44AFF08A3
:100FC0000A40530752023B43120B8EE0002B00D025
:100FD000B8E06B1C5B055B0D012B00DC30E1871A70
:100FE0004346B842B641CB1A76429E1B330200D527
:100FF0004CE13B003343A1D100220024002570E0E6
:10100000002B00DCE5E0002E00D183E0AF4EB542BE
:1010100060D0802636043743B846382B00DC3EE1EA
:10102000434613431F007A1E97413F188742804171
:10103000404209180B0200D4B0E0A44B01359D4298
:1010400000D1C3E0A24A7B080A4001210F401F43A0
:101050005108D30707221F433A4099E79B4EB542F8
:1010600038D0802636043743B846382B00DDDCE024
:101070001F2B00DC30E11E004746203EF740BC46F7
:10108000202B04D04026F31A46469E4032431700D8
:1010900063467A1E97411F43CCE0002B00D104E247
:1010A0004346134300D159E14B07C008184380233E
:1010B000C9081B03194208D04546ED081D4204D15A
:1010C0004346D008590708432900420FC9007F4D05
:1010D0001143C0004B07CA087C49C00803438D4236
:1010E00068D012036D05120B6D0D0021120318005C
:1010F000130B0A0D12051A43764B2D0513402B4393
:101100005B00E4075B08234319001CBC904699462A
:10111000A246F0BD3E00164312D05E1E002E00D047
:1011200000E1871887428041414440420918012567
:101130000B0233D5022585E7644633004146100093
:101140001D00C7E7002D00D0DAE00C000443F3D007
:101150005C1C00D19FE15D4CA64200D12FE1DB4336
:10116000382B00DD66E11F2B00DD83E12024050024
:10117000E41A0F00DD40D940A0404346A7405B1A67
:10118000441EA04198462F433843171ABA42924151
:1011900043465242991A64463500CAE607223A404D
:1011A000002A00D0F6E64B07CA084849FF083B432F
:1011B0008D4296D11900114300D19EE1802109038F
:1011C0000A431203120B414D8FE715000022002342
:1011D0008BE7002B00D0C7E06B1C5F057F0D012F54
:1011E00000DCF1E0394DAB4200D1B9E085180A00CE
:1011F000854289414244494251180722CF076D0870
:101200002F4349083A401D00C2E607223049ED1A33
:1012100031403A40BCE63E002838864000279FE631
:101220003800FFF7F7FA20308EE6434613431F00DD
:101230007A1E9741C71BB84280414042091A78E69E
:101240000E003B0006431343002D61D1002E00D059
:10125000F4E0002B00D11BE164463900100039E7AF
:101260001A4FBB427AD03300FFE630001F3DE84002
:10127000202B03D04021CB1A9E4037437B1E9F4139
:10128000072207433A400021002589E7171A434601
:10129000BA42B641591A76428E1B64464EE61F2B5F
:1012A00000DDADE020264746F61AB740B9461700E4
:1012B000B246DF404E463E4337005646B240561EC9
:1012C000B24117434246DA408918AEE6FF070000F4
:1012D000FFFF7FFFFFFF0F8020264746F61AB7402B
:1012E000B9461700B246DF404E463E4337005646E9
:1012F000B240561EB24117434246DA40891A99E776
:101300007F4CA6425BD0802424045B42214327E724
:10131000002E0CD1002B00D1CBE064463900100028
:10132000774DD7E6764FBB4218D0330075E6002BD9
:1013300014D04B07C00818438023C9081B03194267
:1013400007D0FC081C4204D17907D0080843E146C5
:1013500021004C46420FC9001143C000684DB9E658
:101360001D0000220023C0E6002D5BD10D000543C7
:1013700000D1E2E65D1C00D1B0E0614DAE421FD06D
:10138000DB43382B71DC1F2B00DD96E020250F009E
:10139000ED1AAF40B9460700AA46DF404D463D432F
:1013A0002F005546A840D940451EA8418844074310
:1013B000BF18974292415142414435003AE6644693
:1013C00035004146100085E60B000343002D00D098
:1013D00063E6002BF5D04346134300D17AE6871825
:1013E0008742804107224144404209183A400B029B
:1013F00000D4D5E6434B01351940C9E5380069E60C
:101400001E004746203EF740BC46202B04D0402615
:10141000F31A46469E403243170063467A1E9741B0
:101420001F4302E6364DAE42CAD080252D045B42F2
:101430002943A6E70843411E8841A6E6002B00D1B8
:1014400048E6871A4346B842B641CB1A76429E1BFD
:1014500033024BD5171A4346BA429241591A5242A7
:10146000891A072264463A4092E501430F00791E2B
:101470008F419DE71C000F00203CE740202B03D04C
:101480004024E31A99400843411E884138437CE6D2
:101490000022002425E6171A4346BA429241591AFF
:1014A0005242891A6446350043E541461000144D06
:1014B00010E680220024120380E61D000F00203D6C
:1014C000EF40BC46202B03D04025EB1A994008433F
:1014D00007006346781E87411F4369E787189742D4
:1014E0009B4141445B42C9183500A3E53B003343AF
:1014F000CED0072231003A4052E600231A00F4E52C
:10150000FF070000FFFF7FFFF0B55746DE464E465F
:101510004546E0B5834607000E03480085B0924675
:101520001C00360B400DCD0F002800D19DE0954BDF
:10153000984239D08023F6001B041E43924A7B0F49
:1015400033439946944603006344009300230026E6
:10155000FF00029323031B0B98466300E40F5246DF
:101560005B0D019400D1B3E086498B4200D19EE02F
:101570004246D100802212040A435146490F1143CA
:101580008B46814952468C4600996344CB1A002110
:10159000D20000932B0063409A460F2E00D905E13C
:1015A0007A4BB6009B599F465B463343994600D021
:1015B000B8E002230826002700900293CAE7CB4632
:1015C0003A0002990195019B9A46022927D00329E6
:1015D00000D180E2012944D06D49009B8C466344D0
:1015E0001C00002C38DD530700D013E2D2085B4604
:1015F000DB0109D55946674B19408B468021C9004C
:101600008C46009B63441C00634B9C4207DC5B469A
:1016100064055F075B0217431B0B620D02E00023AA
:101620000027584A00211B031C0B0B0D1B052343ED
:1016300014055A4A380013401C4353466400DB0724
:1016400064081C43210005B03CBC90469946A24664
:10165000AB46F0BD0122524201231B1B382B00DC9C
:10166000ADE1002200230027DCE75B4633439946C7
:101670005ED0002E00D18AE13000FFF7CBF80300E6
:101680000B3B1C2B00DD7BE11D22D31A5A460100C7
:10169000DA4008398E4013005F46334399468F4045
:1016A0003F4B00261B1A00930023029352E741464A
:1016B00053460B433B499B468C46009B6344009337
:1016C0005B46002B3BD1022300221E43022161E72F
:1016D000434613439B4637D04346002B00D162E17B
:1016E0004046FFF797F803000B3B1C2B00DD53E14E
:1016F00002004146083A914088461D21CB1A5146C6
:10170000D9400B0041460B439B46534693401A0079
:10171000009B25499C46604403008C46634400932B
:10172000002137E70323B14600900C26029311E70E
:101730000023009301330426002702930AE70323C2
:10174000C3461E43032125E701331E430022012126
:1017500020E700239A46802300271B03094A61E7FC
:10176000802349461B03194200D1E2E05946194241
:1017700000D0DEE00B431B0317001B0BA246014AFF
:1017800050E7C046FF07000001FCFFFFE8780110AA
:10179000FF030000FFFFFFFEFE070000FFFF0F80BA
:1017A0000DFCFFFF01F8FFFFF3030000D94500D94E
:1017B000CBE000D1C6E03C0048460027009B013B3F
:1017C00000935B46160E1B021E4313029846330419
:1017D0001B0C9946310C0191FEF7D6FE4A46424356
:1017E0000B04210C050019438A4207D98919013DD0
:1017F0008E4203D88A4201D9851E8919881A019917
:10180000FEF7C2FE09048C464A4621046446424360
:10181000090C030021438A4204D98919013B8E42F5
:1018200000D8F1E02D041D43AB464346891A4246D9
:10183000280C12041D0C5B46140C22001B041B0C0C
:101840005A4303946B434443029568431B19150C98
:10185000EB189C4203D980246402A44660441C0C0B
:1018600015041B042D0C20185D19814277D373D009
:101870000C1AA24A7D1BAF42BF419446009B7F4297
:101880006344E01B1C00864200D1DBE00199FEF7B7
:101890007BFE4A4642430B04290C070019438A4247
:1018A00007D98919013F8E4203D88A4201D9871E80
:1018B0008919881A0199FEF767FE09044A46894684
:1018C00029044D464243090C030029438A4207D9A3
:1018D0008919013B8E4203D88A4201D9831E891996
:1018E0003F04891A3A00039F1A43380013041B0C63
:1018F000584381460298150C6F434343454348467D
:10190000000C8446DB1963449F4203D980204002C7
:101910008446654448461F0C00041B04000C7D19D6
:101920001818A94200D284E000D17FE001231A43B5
:1019300057E680234A461B0313431B031B0BAA468F
:101940006F4A6FE6BA4200D935E74B46DC075808C4
:101950007B081C43FF0734E70024AF4289D2474489
:101960004745A4415B466442A4196418013BA64262
:101970001ED2A0426DD800D1B6E0241A9B4678E76B
:1019800003005A46283B9A400027914688E658466D
:10199000FEF740FF203072E603005246283B9A4093
:1019A00093460022B4E65046FEF734FF20309AE614
:1019B000A642E2D1B845DCD9341A9B4659E71F2B21
:1019C00065DC504C0099A4465C46614408008C409C
:1019D00011008240D940501E82410C4314435A46A4
:1019E000DA401300620709D00F222240042A05D0F2
:1019F0002200141D9442894149425B181A0262D5A3
:101A00000122002300270DE68A4200D80AE7831E40
:101A1000891907E70F231340042B00D1E6E5171DB2
:101A20009742924153429B44FA08E0E5002800D1D6
:101A3000D7E57118531EB14227D3A94215D358D008
:101A40001A0073E7002B00DC04E6012300229B440C
:101A5000CDE502234744474589415B429C464942C4
:101A600089190C19E344241A03E743465F004745EC
:101A70009B41B8465B429E19023A8919A94200D09F
:101A800054E7404500D051E7ABE51A00F6E71F21C7
:101A90005F4649420C1BE740202B07D01A49009BA8
:101AA0008C46634418005B4683401A43501E8241B3
:101AB0003A4307270023174009D00F210023114084
:101AC0001400042995D122005F075B021B0BD2088A
:101AD00017430022A6E5802359461B030B431B0333
:101AE00017001B0B064A9DE5BD42B2D89B46002459
:101AF000BFE68045B9D31A00C3E7C046FF03000024
:101B0000FF0700001E0400003E040000F0B54F4631
:101B10004646D6468446C0B58046194E18030F0384
:101B20004D00000B5C0082463F0B6D0DC90F9146C6
:101B3000640DDB0F0120B5420AD0B44203D0A542A8
:101B400001D157450CD01CBC90469946A246F0BD29
:101B500066463E43F7D1AC42F5D154461443F2D128
:101B60000120C845EFD1994207D0002DEBD1634643
:101B70001F433800471EB841E5E70020E3E7C046B1
:101B8000FF070000F0B54F464646D6464D00C0B5AB
:101B90000E03C90F8A462C491F035C008046360B92
:101BA0006D0D91463F0B640DDB0F8D421ED08C42B4
:101BB00016D0002D1ED130438446002C01D13A436B
:101BC00023D06246002A1AD09A4529D051460220D5
:101BD0000139084001381CBC90469946A246F0BD28
:101BE00039001143E5D002204042F4E73043FAD1F6
:101BF000AC420FD0002C0FD13A43E7D00CE00122C9
:101C0000013B934318000130E5E763460020002BB9
:101C1000E1D0DBE73A43E6D19A45D7D1A542D5DCFE
:101C2000A54205DBBE42D1D808D00020BE42D2D2A8
:101C300050460123013898430130CCE7C845C5D848
:101C40000020C845F4D3C6E7FF070000F0B54F46B3
:101C50004646D6464D00C0B50E03C90F8A462E49EA
:101C60001F035C008046360B6D0D91463F0B640DE3
:101C7000DB0F8D4218D08C4211D0002D18D130438B
:101C80008446002C1ED13A431CD163460020002B11
:101C900030D0514602200139084001382AE039008D
:101CA0001143EAD0022025E03043FBD1AC4226D0DC
:101CB000002C26D13A4324D1514602200139084054
:101CC000013817E06246002A0FD09A45E1D1A542BB
:101CD00005DBBE42DDD819D00020BE420AD25046F4
:101CE000012301389843013004E00122013B934372
:101CF000180001301CBC90469946A246F0BD3A43FC
:101D0000D0D19A45C5D1A542C3DCE0E7C845C0D8CB
:101D10000020C845E3D3EDE7FF070000F0B55746C4
:101D2000DE464E464546E0B5834606000F034800B2
:101D300087B092461D003F0B400DCC0F002800D10C
:101D40006FE0DE4B984238D08023FF001B041F4316
:101D5000730F3B430193DA4B0027994600239B46C0
:101D6000F60081442B0369001B0B52469846490D2F
:101D7000ED0F002900D185E0D04B994200D173E0EE
:101D80004346DA0080231B0413435246CC48520FCB
:101D900084461343524600206144D2008944210006
:101DA000694000918C46012149448A460F2F00D991
:101DB00090E0C449BF00CF59BF465B463B43019307
:101DC00000D06AE102230827002681469B46C9E726
:101DD00032005846019B61460091022800D175E00F
:101DE000032800D1FEE1012800D02CE100230027C8
:101DF000002600253F032A0D3F0BB34812053A4346
:101E000002401B051343009A5B00D1075B080B439C
:101E10003000190007B03CBC90469946A246AB463C
:101E2000F0BD5B463B43019300D12FE1002F00D171
:101E3000A5E13800FEF7EEFC03000B3B1C2B00DD98
:101E400096E11D22D31A5A460100DA405E4608394F
:101E50008F4013008E403B4301939C4B00271B1A7D
:101E6000994600239B467DE7414653460B439349E1
:101E70008C46E144002B00D01AE1022202201743D5
:101E800000228CE7134300D10DE14346002B00D123
:101E900081E14046FEF7BEFC02000B3A1C2A00DD41
:101EA00072E10100434608398B4098461D239A1A77
:101EB0005346D3401A004346134352468A4049468C
:101EC000081A824989468144002068E77B4B002735
:101ED00000268EE7140C1204120C1100370C360485
:101EE000350C794328008C462E00604360448346BD
:101EF00056432100300C80465846794340440291B5
:101F0000844506D98846802149028C46E0444146F2
:101F100002913604010C360C00048B4681191E0C0C
:101F20001B041B0C0391190079438C462800754350
:101F30006544A8465843050C45447743A94203D954
:101F4000802149028C466744290C8C4639000004E4
:101F5000000C2D042D186144AB44059159460491A1
:101F600001990F043F0C080C39005143424390463D
:101F700002008C46090C8B4662437C4344445C441B
:101F8000A04503D98021490288464244210C884655
:101F900061460904090C8C46390059434343704398
:101FA0007E430F0CF6182404BE19644442448C4648
:101FB000B34203D980235B0298464044029B6146AA
:101FC0009846049B370443449B46AB45AD416B4266
:101FD0000D0405992D0C8C467F196744FD18A84601
:101FE0005D462D19A542A44193466442A446C344CC
:101FF000DC448F42BF4198459B4193459241A445A3
:10200000A4415B427F421F43360C52426442BF19D7
:102010002243BF18624638184302D20D0399134376
:102020006A020A43501E82416146ED0D2A434E0268
:102030003243D90100D4B3E00126500832400243B4
:10204000DE0732435B08224C5444002C62DD51070A
:1020500009D00F201040042805D0101D9042924155
:1020600052429B180200D90104D580241948E4008B
:10207000034054441848844200DD27E75E075B02B2
:10208000D2081F0B630516435B0DB2E60023994689
:102090000133042700269B4664E60323019781460B
:1020A0000C279B465EE6012201201743002276E6BC
:1020B000032303201F43434671E6C046FF07000089
:1020C00001FCFFFF28790110FFFF0F800DFCFFFFCF
:1020D000FF030000FFFFFFFEFE0700000023802734
:1020E00000933F030026434B83E6019B3200A44646
:1020F000584670E6AC466EE6802701993F033942A8
:102100002DD03B422BD11F433F033F0B00951600C0
:10211000384B6EE601252D1B382D00DD66E61F2DA0
:1021200040DC35481C005044160082408440EE409C
:10213000501E824134431443EB40620709D00F2202
:102140002240042A05D02200141D944280414042BE
:102150001B181A023ED501230027002649E68027D6
:10216000019B3F031F433F033F0B0094214B40E67D
:1021700003005A46283B9A40002601926DE65846D5
:10218000FEF748FB203057E603005246283B9A40B2
:102190001300002293E65046FEF73CFB20307BE61E
:1021A000CA4650E71F201E004042041BE640202D77
:1021B00003D0124C5444A3401A43501E8241324370
:1021C00007260027164009D00F20002310401400D6
:1021D0000428B9D122005E075B021F0BD208164308
:1021E000002306E680273F031F433F033F0B1600F3
:1021F000004BFEE5FF0700001E0400003E04000047
:10220000F8B557464E464546DE460C000903E0B594
:10221000490A460F5F0031431E03DB0F760A9B46D7
:10222000530F3343C84E6500C000E40FD2006D0D5C
:10223000A24681467F0D9C469046B74200D1B9E048
:102240005B46012673409B46EE1BA34500D183E00D
:10225000002E63DD002F00D0B1E06346134300D1B0
:1022600023E1731E002B00D0BAE1861A6346B04208
:1022700080410125C91A4042091A0B0200D447E1E6
:1022800049024B0A98464346002B00D189E140465B
:10229000FEF7C0FA0300083B1F2B00DD7CE1202283
:1022A0003000D21A4146D040994002009E400A4375
:1022B0009D4200DD6AE15D1B6B1C1F2B00DD94E17C
:1022C000202110003500C91A8E40DA408840DD40D8
:1022D000711E8E411100072228430025064332401B
:1022E000002A09D00F233340042B05D0331DB342FD
:1022F000B641764289191E000B0200D43DE26A1CE9
:10230000914B55056D0D9A4200D119E18F4AF6089F
:102310000A40570752023743120B9BE0002E00D0B1
:10232000C5E06E1C7605760D012E00DC48E167469F
:10233000861ACB1BB042BF417F42B8461F004346BE
:10234000FF1A3B00B8461B0200D55FE137439AD124
:1023500000220024002579E0002E00DCFAE0002FA6
:1023600000D18DE0784B9D4267D0802367461B04E7
:102370001F43BC46382E00DC52E1634613435A1E0D
:1023800093411E1886428041404209180B0200D436
:10239000BEE06D4B01359D4200D1D2E06B4A73081F
:1023A0000A4001210E401E435108D30707221E4355
:1023B000324095E71E00164300D045E740E7624BE8
:1023C0009D423AD0802367461B041F43BC46382EEB
:1023D00000DDEBE01F2E00DC3AE133006746203BD6
:1023E000DF403B00202E05D04027BF1B6646BE4085
:1023F000324390464646721E96413343DAE0002B44
:1024000000D114E26346134300D168E180234E07F4
:10241000C008C9081B030643194208D06046C0081B
:10242000184204D163460100D2085E071643F30048
:102430009946C900720F444D11434B46DE08424B8A
:102440004F073743CA089D4200D16EE012036D0565
:10245000120B6D0D00211203130B0A0D12051A4306
:102460003B4B2D0513402B435B00E4075B082343E4
:10247000380019003CBC90469946A246AB46F8BDD0
:102480006346134311D0731E002B00D007E186185A
:102490008642804161444042091801250B0237D52C
:1024A00002257BE73E00614691463500C5E75C4664
:1024B000002D00D0E1E00B000343F3D0731C00D1EA
:1024C000ACE1214B9F4200D13AE1F343382B00DDD0
:1024D0006FE11F2B00DD8CE120250E00ED1AAE40D0
:1024E000B0460600AA46DE40454635432E00554616
:1024F000D940A8406346451EA8415B1A9C4630431C
:10250000161AB242924163465242991A3D00B4E60D
:1025100007223240002A00D0E4E60B4BF6084F07B2
:102520003743CA089D4200D090E73B00134300D1D7
:10253000A6E180231B031A431203120B024D89E705
:1025400015000022002785E7FF070000FFFF7FFF3F
:10255000FFFF0F80002E00D0C7E06B1C5E05760DDC
:10256000012E00DCF0E0C84DAB4200D1B9E0851887
:102570000A00854289416244494251180722CE0728
:102580006D082E43490832401D00A9E6BF49ED1AE7
:10259000114007223240A3E632002838824000264C
:1025A00086E63000FEF736F9203073E663461343C3
:1025B0005A1E9341C61AB04280414042091A5CE655
:1025C0000E00674606431743002D5ED1002E00D053
:1025D000F3E0002F00D11EE15C46614691462CE7F6
:1025E000A94FBE427BD01E00F1E610001F3DE8401F
:1025F000202B03D04021CB1A9A401643731E9E41D4
:102600000722064332400021002583E7161A63465D
:10261000B2428041591A40420B1A98465C4632E653
:102620001F2E00DDABE02027BB1B9A4663465746B2
:10263000BB40994613004F46F3401F433B005746AB
:10264000BA40571EBA4113436246F240891898E6D1
:102650002027BB1B9A4663465746BB40994613004A
:102660004F46F3401F433B005746BA40571EBA41FE
:1026700013436246F240891A9CE7834B9F425FD026
:1026800080252D047342294320E7002E0CD1002F12
:1026900000D1D0E05C46614691467B4DCDE67A4F55
:1026A000BE421CD01E0065E6002F18D0C0084E07A1
:1026B00006438020C9080003014208D06346DC08B5
:1026C000044204D12100DA46D2085E071643F30023
:1026D000994601245346C900720F11431C406A4DAC
:1026E000ABE61D0000220027B4E6002D59D10B00F7
:1026F000034300D1D6E6731C00D1B2E0624B9F4287
:102700001ED0F343382B6FDC1F2B00DD97E0202514
:102710000E00ED1AAE40B0460600AA46DE40454621
:1027200035432E005546A840D940451EA8418C444B
:102730000643B61896429241514261443D0025E657
:102740003D006146914678E60B000343002D00D022
:1027500055E6002BF5D06346134300D16DE686188D
:102760008642804161444042091800220B0200D495
:10277000D0E6464B01351940B2E5B1465DE633007F
:102780006746203BDF403B00202E05D04027BF1B83
:102790006646BE40324390464646721E96413343DB
:1027A000EFE5394B9F42CBD080252D04734229435E
:1027B000A8E70843411E8841A2E6002F00D13CE66D
:1027C0006346861ACF1AB0429B415B42FB1A984679
:1027D0001B024ED5161A6346B2429241591A524212
:1027E000891A5C4600227BE501430E00711E8E4172
:1027F0009FE71D000E00203DEE40B046202B04D088
:102800004025EB1A99400843814648464346411EFD
:102810008841184374E60022002417E6161A63461E
:10282000B2429241591A5242891A3D0025E5614649
:102830009146154D01E680220024120379E61D0021
:102840000E00203DEE40B046202B04D04025EB1A70
:102850009940084381464E464346711E8E411E43B1
:1028600067E7861896429B4161445B42C9183D0068
:102870008CE547463743CED007224146324049E6F1
:1028800000273A00E6E5C046FF070000FFFF7FFF94
:1028900070B50C4E0D031C0349005B002D0B490D58
:1028A000240B5B0DB14208D0064900208B4203D1B6
:1028B00014432000441EA04170BD05430120002D9B
:1028C000FAD1F1E7FF07000030B5144D0A034B00C1
:1028D000120B5B0DC90F0024AB4211DD104CA3425B
:1028E00010DC8024640322430E4CE41A1F2C0CDD00
:1028F0000D48C31ADA4013005C42002900D11C00C5
:10290000200030BD094BCC18FAE7094DE040AC4639
:1029100063449A4013000343EEE7C046FE03000001
:102920001D0400003304000013040000FFFFFF7FBC
:10293000EDFBFFFF70B500282DD0C317C5185D4013
:10294000C40F2800FDF766FF154B1B1A5B055B0DD6
:102950000A2815DD0B38854000222D032D0B0021A0
:1029600010002D030A0D2D0B12052A430D4D1B05DA
:102970002A4013435B00E4075B082343190070BD42
:1029800002002900153291400A000B21081AC540A7
:102990002D032D0BE3E70024002300250022DEE7B2
:1029A0001E040000FFFF0F8010B5041E25D0FDF7A8
:1029B00031FF144B1B1A5B055B0D0A2812DD0B3827
:1029C000844000222403240B0021100024030A0D5C
:1029D000240B120522430C4C1B05224013435B00C1
:1029E000590810BD02002100153291400A000B2148
:1029F000081AC4402403240BE6E700230024002225
:102A0000E2E7C0461E040000FFFF0F804100090EF0
:102A10004B1C70B5DBB24602750AC40F012B14DDE6
:102A2000E0239B006D07360BCB1800210A0D280010
:102A300012051C4D32435B052A405B0813435B00C3
:102A4000E4075B082343190070BD002914D1002D51
:102A50001ED02800FDF7DEFE0A281CDC0B232A000E
:102A60001B1ADA40030015339D400F4B12031B1A4B
:102A70005B05160B5B0DD8E7002D06D0320B8026C8
:102A800036036D071643094BCFE7084B0026CCE70A
:102A900000230026C9E703002A000B3B9A400025CB
:102AA000E3E7C046FFFF0F8089030000FF07000037
:102AB000F0B54C00640D0B03621C5B0A460F520517
:102AC000C90F1E43C500520D012A29DD374BE718F7
:102AD000FE2F1CDC002F3BDD8001431E98410722A6
:102AE000F3006D0F03432B431A40002A04D00F223A
:102AF0001A40042A00D004338022D2041A4024D081
:102B00000137FAB2FF2F02D09B01580A01E0FF22E1
:102B100000204002D205400AC90710430843F0BD17
:102B20003543002C04D1002D0AD100220020F0E70B
:102B3000002DECD08020C0033043FF22E9E70024C1
:102B400000235B02580AE2B2E3E7DB083C00F8E747
:102B50003B001733F3DB80231B0433431E26F61B95
:102B60001F2E14DD02225242D71B1A00FA40170012
:102B7000202E04D00E4A94466444A3401D432B00EB
:102B80005D1EAB4107223B431A400027ADE7094ACF
:102B90002800A218954093406C1EA541F0400722E2
:102BA0002B4303431A4000279FE7C04680FCFFFFEA
:102BB000A2FCFFFF82FCFFFF10B5002903D1FDF747
:102BC00029FE203002E0081CFDF724FE10BDC0469F
:102BD000F0B54E465746DE464546E0B50F000021AB
:102BE00083B006008946002F06DA390000274642E6
:102BF0008F41012149428946002B07DA4946C943E2
:102C0000100089461900002342428B4134003D00E8
:102C100092469846BB4269D866D041465046FFF777
:102C2000CBFF834639003000FFF7C6FF5B461B1A17
:102C30009C46203B9B4600D575E051465846814056
:102C40000B005146604681400A00BB4261D85ED00D
:102C500034003D005946A41A9D41002900DA7AE06B
:102C60000021002001260090019159468E400196D6
:102C7000614601268E4061460096002950D0D90752
:102C800056085F080E4363460EE0AF4201D1A642EC
:102C90000CD8A41BBD41012124196D410022013B28
:102CA00064185541002B06D0AF42EED9013B2419E0
:102CB0006D41002BF8D1009801995B4600196941DC
:102CC000002B3DDB2E00DE4063462C00DC405B46E3
:102CD000002B4BDB34005D46AC4023006446A6402D
:102CE0003200801A994103E0B24296D900200021B7
:102CF0004B46002B04D003000C0000215842A14198
:102D000003B03CBC90469946A246AB46F0BDB142EA
:102D10009ED9002100200090019161460029AED18A
:102D200000980199E4E72023624651469B1AD94056
:102D30004046009161468840030000990B4380E7BC
:102D4000624620239B1A2A009A40260013006246FE
:102D5000D6401E43B8E7614620260127761A002098
:102D60000021F74000900191019781E767462023F9
:102D700062463500BC409B1ADD4023002B43ADE783
:102D8000024670B50A4392072AD11E4DEE0104C8CF
:102D900008C9541B9443344017D0D0B2D9B2401A5A
:102DA0002106014310D190B299B2401A2104014387
:102DB0000AD110021902000A090A401A210201432D
:102DC00002D1100E190E401A70BD9A42DFD010BA0F
:102DD00019BA884201D9012070BD0020C04370BDDE
:102DE00002780B7801300131002A09D09A4207D1CC
:102DF00002780B7801300131002A01D09A42EFD0DD
:082E0000D01A70BD01010101AF
:102E0800074A80211300490010680842FCD080223C
:102E180052009968114201D1D968FAE77047C04653
:042E280000C00440A2
:102E2C0070B505000C00081E07D00FF0F1FE2B68E2
:0C2E3C0002005B6821002800984770BD70
:102E480002000A3A03000020962A0DD8282B0AD03F
:102E580001201E2B07D00220142B04D003200A2B9C
:102E680001D0024B186880B27047C046F429002090
:102E780003000520112B09D009D802300C2B05D0EE
:102E880001380F2B02D002300A2B07D170470320DC
:102E98001E2BFBD004D80130142BF7D00220F5E705
:0E2EA80001203C2BF2D00020502BEFD0F6E79B
:102EB80003000A3B10B5962B00D92820FFF7D8FF4E
:102EC8000C235843014B0021C05810BD047C01104D
:102ED80010B5040005F0F4F903000120002B0DD112
:102EE800FA21074B89009A6A5218996A8A42FCD8D3
:102EF800200005F0E5F9431E9841C0B210BDC04658
:042F08000040054040
:102F0C0000231800034A590001338852302BFAD1A0
:082F1C007047C0469C2E002006
:102F2400F8B5154CC0222100144801F0B7FA144D2D
:102F34002870002802D100232B70F8BD2100302016
:102F44000024104E4F780A78CB783F02D7198A783C
:102F54001B02D21812B23FB2BF18FB0F4200DB199A
:102F6400B21A5B1060320138E4181380043100286F
:102F7400E8D1002CDFD0E0E7C52F00203C2600205C
:082F8400C42F00209C2E002048
:102F8C00F7B50F4C0700238801910E4E0E4DBF2B49
:102F9C0007D9C02231000D4801F0F8FA00232B802C
:102FAC00238068462B8821885A00B7525A1C808887
:102FBC0092B2520002330431B0522B802180F7BD03
:102FCC00FC2E0020022F0020C22F00203C260020C7
:102FDC0070B5042405002600E01CC0B2331B01218F
:102FEC009D4200D00021013C05F042F9002CF3D1A8
:022FFC0070BDA6
:0C2FFE0010B5FFF722FFFFF7EAFF10BD3F
:10300C0010B50CF0C5F9E0210A4AC90113680B4050
:10301C0009490B60F9231B021361084B1A68012341
:10302C005340074A1340074A13600822064B1A60A4
:10303C0010BDC04600C0044000D0044008C004408D
:0C304C000F00000F08D0044000E004401A
:1030580030B5802418230020064964008A6822427B
:10306800FCD1CA68044D013B5219101800B2002B5C
:0C307800F4D130BD00C0044017FDFFFF84
:1030840010B5602186B0104802F02EF80F4B104C9A
:103094009A6A104B01211A6080235B0005930E4B42
:1030A4000E4A04930E4B009203930A230293083BA7
:1030B4000193200001F0F0FD0A4A0B4920000AF0B8
:1030C4000BFF06B010BDC046681500200040054047
:1030D4003C2600208C2E00201111000080BB000033
:0C30E400B87B000000020020CD4F00105F
:1030F000F0B5060085B02820032E02D8464B72009A
:10310000D05A464B1880FFF7D7FE454F386079609C
:1031100000200BF0BDFA434B5C681B68C01AA1414C
:1031200002930394404C414B1860596021001800F1
:103130000EF0D0FC23683E4900936368A2683D48C6
:103140000FF0CEFC3C4D3B4928000FF05FFD3B49A2
:1031500028000FF033FD28000FF060FD384A394990
:1031600040190FF0BDFC28000FF058FD39687A684F
:103170002A4B40191B8800910192320032490FF00E
:10318000AFFC324E29003000FFF750FE300003F054
:1031900099FA224B1888FFF732FF00200BF078FADB
:1031A000204B1A685B68801A9941204B186059605F
:1031B000210018000EF08EFC23681D4900936368FF
:1031C000A2681C480FF08CFC1A4928000FF01EFD65
:1031D0001A4928000FF0F2FC28000FF01FFD184AD2
:1031E000184940190FF07CFC28000FF017FD3968D2
:1031F0007A680A4B40191B8800910192144A1549BC
:1032000012680FF06DFC29003000FFF70FFE300050
:1032100003F058FA05B0F0BD68790110942E002033
:1032200008020020F0150020682E00206010002009
:103230002B7A01100E3200200A3100203D7A011055
:10324000427B01103F7A0110807A0110541C00204B
:08325000040200209F7A011026
:10325800F7B5060000200F000BF016FA02000B006D
:10326800334934480C684D68121BAB41324C02603C
:10327800436021000EF02AFC2368304D00936368F8
:10328800A2682F4928000FF027FC2E4C29002000A7
:103298000FF0B8FC2C4920000FF08CFC20000FF038
:1032A800B9FC2A4A2A4900190FF016FC20000FF031
:1032B800B1FC284D00192A686B68274900920193D0
:1032C80032003B000FF008FC21002448FFF7AAFD5C
:1032D800224803F0F3F93000390064220023FDF797
:1032E800F7FA0B0000211E4C02000091200002F0AA
:1032F800ADFD2A686B6830003900801A9941642254
:103308000023FDF7E5FA0B000121020000912000DF
:1033180002F09CFD2868696864220023FDF7D8FA4A
:103328000B00022102000091200002F08FFDF7BD82
:10333800F015002060100020682E00200E320020BA
:103348002B7A01100A3100203D7A01101D7B0110F3
:103358003F7A011000100020007A0110541C002050
:0433680068150020C4
:10336C000023F0B51A0085B080216D4802F022FCD4
:10337C006C4E03906C4C002800D0A2E00BF082F94C
:10338C0022686368801A9941684D30607160290029
:10339C0030000EF099FB2B68654F00936B68AA68A0
:1033AC00644938000FF096FB634D390028000FF08C
:1033BC0027FC624928000FF0FBFB28000FF028FCCB
:1033CC005F49604A40190FF085FB28000FF020FC84
:1033DC005D4940190FF014FC290000255B4F3800A3
:1033EC00FFF71EFD380003F067F9594900224C48DD
:1033FC0002F07AFA12230095564A494802F012FA62
:10340C0029000322464802F0E5FA2A002900444824
:10341C0002F0CAFA2A000121414802F0DBFA01222B
:10342C003F48110002F0C0FA2A0002213C4802F089
:10343C00D1FA012202213A4802F0B6FA464B18683A
:10344C005968FFF703FF28000BF01CF9226863682A
:10345C00801A9941354C30607160210030000EF0BB
:10346C0033FB2368324D00936368A268314928000E
:10347C000FF030FB304C290020000FF0C1FB2F491E
:10348C0020000FF095FB20000FF0C2FB2D4A2C49B9
:10349C0000190FF01FFB20000FF0BAFB039B001963
:1034AC002E4A002B00D12E4A2E490FF013FB274D2C
:1034BC0021002800FFF7B4FC280003F0FDF805B04C
:1034CC00F0BD00200BF0DEF822686368801A994189
:1034DC00164D30607160290030000EF0F5FA2B6843
:1034EC00134F00936B68AA68124938000FF0F2FA78
:1034FC00114D390028000FF083FB104928000FF004
:10350C0057FB28000FF084FB0D490E4A40190FF0B1
:10351C00E1FA28000FF07CFB134940195AE7C0462A
:10352C006815002060100020F0150020682E002087
:10353C000E3200202B7A01100A3100203D7A011046
:10354C003F7A0110047B01107B790110541C002080
:10355C00E8D1FFFF00205FA0080200207079011065
:0C356C0075790110C57901109E790110DD
:1035780037B500211A2004F043FE02210A2004F086
:103588003FFE02210B2004F03BFE0221082004F03C
:1035980037FE0121032004F033FE0121072004F047
:1035A8002FFE0121062004F02BFE0121052004F046
:1035B80027FE0121042004F023FE0121022004F04B
:1035C8001FFE0121022004F055FE0021032004F013
:1035D80051FE0021072004F04DFE0021042004F0D4
:1035E80049FE0021052004F045FE0021062004F0D4
:1035F80041FE00200BF048F802000B001A491B4856
:103608000C684D68121BAB41194C026043602100E5
:103618000EF05CFA2368174D00936368A268164998
:1036280028000FF059FA154C290020000FF0EAFA8B
:10363800134920000FF0BEFA20000FF0EBFA114AF0
:10364800114900190FF048FA20000FF0E3FA0F496A
:1036580000190FF0D7FA0E4D21002800FFF7E2FB02
:10366800280003F02BF837BDF0150020601000206B
:10367800682E00200E3200202B7A01100A3100201B
:103688003D7A0110327B01103F7A0110147A011043
:04369800541C00209E
:10369C0037B5FFF741FC294B1B78002B3FD001229B
:1036AC000020274B1A60274B18600AF0EBFF020032
:1036BC000B00254925480C684D68121BAB41244C66
:1036CC000260436021000EF0FFF92368214D009346
:1036DC006368A268204928000FF0FCF91F4C2900F0
:1036EC0020000FF08DFA1E4920000FF061FA200027
:1036FC000FF08EFA1B4A1C4900190FF0EBF9200051
:10370C000FF086FA194900190FF07AFA184D2100BA
:10371C002800FFF785FB280002F0CEFF37BDFFF72E
:10372C0095FC0625134B1C88041B24B22100200099
:10373C00013DFFF725FC002DF8D1EFE7C42F002049
:10374C0014160020B02C0020F01500206010002072
:10375C00682E00200E3200202B7A01100A31002036
:10376C003D7A01105C7B01103F7A0110F67A011052
:08377C00541C0020922E0020D5
:103784007FB5374E029003913468364D002C56D1E4
:103794002100022004F070FD0121032004F06CFDDF
:1037A40022002800012102F003F92200280002214E
:1037B40002F0FEF801222100280002F0F9F80123AA
:1037C400200033600AF062FF02000B0026492748FC
:1037D4000C684D68121BAB41254C0260436021000C
:1037E4000EF076F92368234D00936368A26822499A
:1037F40028000FF073F9214C290020000FF004FA7F
:103804001F4920000FF0D8F920000FF005FA1D4AD7
:103814001D4900190FF062F920000FF0FDF91B4952
:1038240000190FF0F1F91A4D21002800FFF7FCFAF6
:10383400280002F045FF0822164B1A607FBD164986
:103844006422086849680023FDF744F8029A039B40
:1038540012184B4100212800009102F0F9FAEDE71B
:103864001816002068150020F015002060100020B4
:10387400682E00200E3200202B7A01100A3100201D
:103884003D7A0110537B01103F7A0110F17A011047
:0C389400541C002000F00440080200203A
:1038A000F7B5444E3368002B72D00022424C110011
:1038B000200002F07FF8414F6422386879680023C5
:1038C000FDF70AF8002502000B000095200002F029
:1038D000C1FA386879683A4B01271A685B68801A20
:1038E000994164220023FCF7F7FF00970B000200C8
:1038F000200002F0AFFA20003A00390002F05AF836
:103900003A002000022102F055F82900032004F0BB
:10391000B5FC3900022004F0B1FC280035600AF043
:10392000B7FE02000B00274927480C684D68121BA0
:10393000AB41264C0260436021000EF0CBF82368B7
:10394000234D00936368A268224928000FF0C8F84D
:10395000214C290020000FF059F9204920000FF0D8
:103960002DF920000FF05AF91D4A1E4900190FF0D9
:10397000B7F820000FF052F91B4900190FF046F973
:103980001A4D21002800FFF751FA280002F09AFE94
:1039900000231A001649580001334252302BFAD145
:1039A000144B1A80144B1A80FFF72EFA0822134B7F
:1039B0001A60F7BD181600206815002008020020C4
:1039C00000100020F015002060100020682E00205C
:1039D0000E3200202B7A01100A3100203D7A0110AE
:1039E0003A7B01103F7A01107B7A0110541C0020B1
:1039F0009C2E0020FE2E0020FC2E002000E0044023
:103A00007C4B37B51B68012B3AD100200AF040FEF1
:103A100002000B00784979480C684D68121BAB41D5
:103A2000774C0260436021000EF054F82368754D16
:103A300000936368A268744928000FF051F8734C32
:103A4000290020000FF0E2F8714920000FF0B6F8CD
:103A500020000FF0E3F86F4A6F4900190FF040F8AB
:103A600020000FF0DBF86D4900190FF0CFF86C4D16
:103A700021002800FFF7DAF9280002F023FE37BD05
:103A80000A20FFF729FA00284CD10AF001FE0200B3
:103A90000B00594959480C684D68121BAB41584CF2
:103AA0000260436021000EF015F82368554D009325
:103AB0006368A268544928000FF012F8534C29009B
:103AC00020000FF0A3F8524920000FF077F82000F3
:103AD0000FF0A4F84F4A504900190FF001F82000E8
:103AE0000FF09CF84F4900190FF090F84C4D210051
:103AF0002800FFF79BF9280002F0E4FD0A20FFF7F9
:103B0000EBF90028FAD0484B1A680132032A6FDC1F
:103B10001A60186880B2FFF7EBFA444B18685968CE
:103B2000FFF79AFB0B20FFF7D7F900284CD10AF0DA
:103B3000AFFD02000B00304930480C684D68121B85
:103B4000AB412F4C0260436021000DF0C3FF23689E
:103B50002C4D00936368A2682B4928000EF0C0FF2B
:103B60002A4C290020000FF051F8294920000FF0BD
:103B700025F820000FF052F8264A274900190EF0C8
:103B8000AFFF20000FF04AF8294900190FF03EF866
:103B9000234D21002800FFF749F9280002F092FD8B
:103BA0000B20FFF799F90028FAD01F4B1A68013A49
:103BB00000D503221A60186880B2FFF799FA1B4BF0
:103BC00018685968FFF748FB0820FFF785F90028B7
:103BD00000D054E7174B002118601748FFF7D2FDBB
:103BE0000820FFF779F90028FAD0FFF759FE46E7D9
:103BF00000228DE7C4280020F0150020601000206E
:103C0000682E00200E3200202B7A01100A3100208D
:103C10003D7A01104A7B01103F7A0110C67A0110EB
:103C2000541C0020D57A0110040200200802002054
:0C3C3000E27A011018160020F049020092
:103C3C00F0B5B14B93B01B780493002B00D185E108
:103C4C0000242600AD4B089400229B5E099403933C
:103C5C00AB4B1B681193AB4B00255D5FAA4B00224D
:103C6C009B5E0793A94B1F68A94B00229B5E059393
:103C7C00099B5A00A74BD35E0693039B002B00DBDA
:103C8C00D2E0069B002B00DAF4E00398FDF790F8E5
:103C9C00069B1090002B5AD1FEF7B2FE0A900B91A6
:103CAC000798FDF785F8FEF7ABFE9B4A0C900D913B
:103CBC000A980B99994BFEF72BF80C9A0D9BFEF773
:103CCC0099FA00220023FCF777FD00282FD0089BDF
:103CDC00002B03D06A468E4B928A1A80002E00D19C
:103CEC007DE16A46884B928B1A80002C03D0874B5F
:103CFC001F60002E05D06A46824B92891D807F4B37
:103D0C001A80002200200021854B1A60854B186018
:103D1C005960834B7E4C1B68002B00D0ADE0238098
:103D2C00FFF7B8FD13B0F0BD069B0393A0E77E4AE6
:103D3C007E4B0A980B99FDF7EBFF0C9A0D9BFEF747
:103D4C0059FA00220023FCF74BFD0028BFD1069B3B
:103D5C00039A981A00B2FDF72BF8011C1098FCF787
:103D6C0015FF0790381CFEF74BFE0022704BFDF739
:103D7C00A9F8060028000F00FDF71AF8FEF740FE20
:103D8C0002000B0030003900FDF79CF80400079886
:103D9C000D00FEF735FE02000B0020002900FEF797
:103DAC0029FAFEF77FFEFEF72BFE02000B00002027
:103DBC006049FDF7A3FBFCF7D1FD01235E4A5B4292
:103DCC0012184B411400002B0CD15C4B9C4209D8AF
:103DDC00059B9A005A4BD050059B01331BB205939F
:103DEC00049B08930025049C079F099B049E0133A8
:103DFC000993039B0793099B302B95D1089B002BB0
:103E0C0003D06A46424B928A1A806A463E4B92898C
:103E1C001A80002C01D03D4B1F606A46394B128B27
:103E2C001D80364B1A8074E7119B012B22D1069B07
:103E3C00039A13431BB2002B1CD1089B002B03D0FD
:103E4C006A46334B928A1A80002E0FD06A462E4B4C
:103E5C00928B1A80002C04D02C4B1F60002E00D1AA
:103E6C004FE7284B00221D80244B49E7002C00D142
:103E7C0047E7F1E701352DB2B7E70022A35E002B2F
:103E8C002FDD04F085F92F4B1B68C01A052828D9A3
:103E9C000023E25E002000230021294F9A420ADD14
:103EAC009D007D5901330E95ED170F950E9D0F9EBC
:103EBC0040197141F2E7D317FCF7C4FC194D060009
:103ECC002B680F00C31ADA179B1853400A2B01DD1D
:103EDC00FFF752FC0023238004F05AF9194BC0C59C
:103EEC0018600122064B1A6004F052F9164B186048
:103EFC00FFF712F816E7C046C42F00209A2E0020B8
:103F0C00B02C0020002F0020982E00207C290020AF
:103F1C00962E00209C2E0020CDCCCCCCCCCCFC3FC3
:103F2C001416002058100020295C8FC2F528004080
:103F3C000000F03F804F5241DFB1FFFFBE4504004F
:103F4C00F42800201C1600202016002004F020F974
:103F5C00254B1B68C01A3228CAD9049A234B0498E3
:103F6C001A606A46224B128A1A800AF08BFB0200F6
:103F7C000B00204920480C684D68121BAB411F4CAC
:103F8C000260436021000DF09FFD23681C4D0093DF
:103F9C006368A2681B4928000EF09CFD1A4C29008E
:103FAC0020000EF02DFE194920000EF001FE20001D
:103FBC000EF02EFE164A174900190EF08BFD20004C
:103FCC000EF026FE144900190EF01AFE134D2100B6
:103FDC002800FEF725FF280002F06EFBA0E6002C5F
:103FEC0000D18EE683E6C046201600201416002071
:103FFC00962E0020F015002060100020682E002066
:10400C000E3200202B7A01100A3100203D7A01106B
:10401C00107B01103F7A01107B7A0110541C002098
:10402C0010B5FFF7E7FC054B1B68002B02D1FFF71F
:10403C002FFB10BDFFF7FCFDFBE7C046141600205C
:10404C00F7B5E1217D48490202F094FB7B4802F070
:10405C00E7FB0028FAD06421784804F064F877482C
:10406C0002F02AFB00200AF00DFB754E754F3368E9
:10407C007468C01AA141744C386079602100380012
:10408C000DF022FD2368714900936368A2687048A3
:10409C000EF020FD6F4D6E4928000EF0B1FD6E49FB
:1040AC0028000EF085FD28000EF0B2FD6B4A401979
:1040BC006B490EF00FFD28000EF0AAFD694A6A4B01
:1040CC0040196A490EF006FD29005C48FEF7A8FE6F
:1040DC005A4802F0F1FAFFF749FA654B186880B2BA
:1040EC00FFF700F8FEF78CFFFFF73AF900200AF013
:1040FC00C9FA32687368801A994138607960210076
:10410C0038000DF0E1FC2368504900936368A26805
:10411C004F480EF0DFFC28004D490EF071FD4E4962
:10412C0028000EF045FD28000EF072FD4B4A401998
:10413C004B490EF0CFFC28000EF06AFD4D4940199A
:10414C000EF05EFD29003D48FEF76AFE3B4802F08A
:10415C00B3FAFEF7D5FE00200AF094FA32687368C1
:10416C00801A994138607960210038000DF0ACFC60
:10417C002368364900936368A26835480EF0AAFCA0
:10418C00280033490EF03CFD334928000EF010FD99
:10419C0028000EF03DFD314A401931490EF09AFCD1
:1041AC0028000EF035FD344940190EF029FD290088
:1041BC002248FEF735FE214802F07EFAFA20400034
:1041CC0003F0F6FFFEF71AFEFEF740FF2B4B1880AC
:1041DC00FFF760FB00200AF055FA32687368801A0A
:1041EC00994138607960210038000DF06DFC23682E
:1041FC00164900936368A26815480EF06BFC280002
:10420C0013490EF0FDFC144928000EF0D1FC2800D7
:10421C000EF0FEFC114A401911490EF05BFC28000F
:10422C000EF0F6FC164940190EF0EAFC2900034882
:10423C00FEF7F6FD014802F03FFAF7BD541C0020D2
:10424C00F015002060100020682E00202B7A011041
:10425C000E3200200A3100203D7A01102C7B011017
:10426C003F7A0110697B0110667B01106D7B011098
:10427C0004020020A27B0110BA7B0110922E0020B8
:04428C00DC7B0110C6
:02429000704775
:02429200704773
:02429400704771
:0242960070476F
:0E4298000023994201D10300C633180070477D
:0442A600022070473B
:0842AC00004870470A7E011072
:0842B40000487047F47D011081
:0842BC0010B50368984710BD1E
:0A42C40010B503680800984710BD0C
:0A42CE0010B50C220EF0CDF810BD63
:1042D80010B50400024B036006F012FF200010BD69
:0442E800907C0110B5
:1042EC0010B50400FFF7F2FF200038210AF046F861
:0442FC00200010BDD1
:1043000010B50400024B036006F0FEFE200010BD55
:04431000787C0110A4
:1043140010B50400FFF7F2FF200034210AF032F850
:04432400200010BDA8
:10432800F8B504000F0015001E0002F087FE0423F4
:10433800FF212B70FA88237911409C46002099426E
:1043480013D36379634499420FDA797801290CD140
:1043580080239B009A4208D1FF22BB88134204D1D4
:104368001B12012B02D0022B10D0F8BDFA78012ABB
:1043780006D0812AF9D1143434602B701800F4E780
:104388008634FF34346028701000EEE7F878C2B243
:10439800812A10D004D80138032814D90020E4E772
:1043A800832A0ED00BD31C34842AF7D1012334601E
:1043B8002B700220D9E7163434602970DEE71834F0
:1043C800F4E71A34F2E78634FF3434600023EFE769
:1043D80010B582684368006851104018D20701D5AB
:0843E8000268D358984710BD8C
:1043F000CB6810B5C360002B01D05B68984710BD37
:0E440000C36810B5002B01D09B68984710BD13
:10441000F0B589B004000F00002602F013FE012F52
:1044200034D102F0DBFD2300C03302931978543BF2
:1044300003931A88174B04AD0793174B0095059308
:104440003B000696049407F0DBFD2800FFF7D8FF39
:1044500002F0C4FD2300C1331978573B1A880D4B75
:10446000EB600E4B009505933B000696049407F015
:10447000C7FD2800FFF7C4FF02F0B0FD029A039BBE
:1044800011781B88626F07F0E3FF3E00300009B02F
:10449000F0BDC046A07C01105F4E0010B950001066
:1044A00070B5040015000E0090B002F0BDFD02A82A
:1044B00006F01EFE0D9520003D2501220C960026DB
:1044C0000E4B02A9029301AB0E936D440FABA430C7
:1044D0001A700B942E7007F023F8200002F0ABFD49
:1044E000074B31001A6802A806F056FE2C7802A885
:1044F000FFF7F2FE200010B070BDC046907C0110A6
:04450000C47C011066
:10450400F7B505002E00883600911700019302F0DC
:1045140089FD300006F0A6FE0400B84200D93C0034
:1045240030002200009906F0A7FE019B28001C60C1
:0645340002F07FFDF7BD5F
:10453A0013B50400406A030099331A780023022A4B
:10454A0003D001203534237016BD0193E26A01AB12
:10455A00A16AFFF7D2FF019BA26AD218A262226B5C
:10456A001168CB181360E36A01995B1A2100E362B0
:10457A0034310978002902D11268002A02D10020B8
:0C458A008342E1D1012035342070DDE7D0
:1045980070B504000E008EB0150002F041FD01A8B0
:1045A80006F0A2FD20000B9600260D4B01A90C95E4
:1045B8009C300DAD01930A942E7006F0ADFF2000DB
:1045C80002F035FD074B31001A6801A806F0E0FD3E
:1045D8002C7801A8FFF790FE20000EB070BDC046F1
:0845E800787C0110C47C011075
:1045F000F0B50400B9B0BF22002108A80DF0CAFF31
:10460000227908A8931CDBB20193230060331B7846
:1046100008AE02932300C2331D88613B1B7837002C
:1046200003932300C4331B88511C9C462300C033D2
:104630001B78C9B2069323006C331B8804932300B4
:10464000C1331B78079323006A331B88F2720593EA
:10465000BF4BFA7403800300BF209870042308A89E
:10466000FF3383808020F0714E3830722A387072A8
:104670000330B0720920B381033BFF3B707402200A
:10468000B3730426B34AFF307A83B34A3B77BE74D0
:10469000F882FA830222BE1CF2776A4608AFFE1C3B
:1046A0001779F17709AEF777AC4F08AA119708AFE1
:1046B00038852B27BF186A46127A3A7013AF3D70BF
:1046C0002D2708AABF182D0A3D70A54D3627149531
:1046D0000325BF183D7039279086BF1809223A700C
:1046E0003A2708AABF1824223A703B2708AABF1805
:1046F0003D7017AF3D703D27BF183B703E27BF1878
:1047000002223D7018AD2A70964D08AFF587964E7F
:10471000BD1D964FEE870AADEF87492508AAAD1853
:104720006A46167B08AA2E704A256646AD182E707A
:1047300065464B262D0AB61835704E258C4EAD18A1
:104740002E808C4E1CAD2E805225AD18288004255D
:10475000AC3880180570572080180922009202702A
:104760001EA80570592008AA80180170824E1FA843
:10477000078020A8068062208018017063218918B4
:104780000B7021A90B70652189180B706621022519
:1047900089180D7069210720891808706A2124265C
:1047A00089180E706B2189180B7023A90B706E216C
:1047B00089186A46107A0B7025A90870752108AA15
:1047C00089180D7076210E3589180D707721E06DEE
:1047D00089180B7026A90870792184468918000A67
:1047E000087061467A20E940801801707B218918A1
:1047F000092205200A7027A908707D2108AA8918B6
:104800006A46127E5D4E0A707E2108AA89180B70D6
:104810007F2189186A46127C24960A70049928AA76
:10482000090A1170812108AA89180B70544929AA14
:104830001180862208A9521813708B225218110079
:1048400009220A7004222BA90A708D2208A9521885
:1048500011006A46127931960A702CA90F80464FD2
:104860002DA90F80962708AABF186A463900177924
:1048700008AA0F709727BF183B709927BF183B7085
:104880009A272EA9BF180B70022239009D270A70A3
:1048900008AABF18390007270F709E27BF182422C7
:1048A0003A709F2708AABF183B7030AF3870A12715
:1048B000BF183B70A227BF186A46117B32AE317019
:1048C000A92608AAB61802223270AA2608AAB61883
:1048D0003570AB2608AAB6183370AD26A16D33AA81
:1048E0001170A16D08AA0D0AB6183570AE25AF2655
:1048F0000A0C08A96D1876182A70320009253B7039
:10490000157034AA1070B12208A952186946097F9F
:1049100035A81170B22208A952181370B322521888
:104920006946097D1170059A08A9120A0270B5221C
:1049300052181349137036AA1180BA22200008A910
:1049400052181370C630BF220DF092FD39B0F0BD81
:10495000090200000A240000013D00000C240201AD
:10496000092406020C2400000204000001020000D9
:104970000924000003050000090400000B240201C3
:044980000725000007
:10498400F7B503000500663364351F88224A2B8877
:104994000400934203D9214A01379B182B8023003A
:1049A400260061331B78623601933378002B15D1CE
:1049B400230098331B78022B0DD1019B5B005F43CE
:1049C400230078331800019306F04CFCB8420CD253
:1049D400636D013363650123337005E02000783093
:1049E40006F0AEFC0028E3D1F7BD216F3A00019830
:1049F40006F042FC02F0F0FA2300C133226F19786A
:104A04003B0007F0C5FD0023683433702B882288EF
:104A14009B182B80E8E7C046E703000018FCFFFF63
:104A240010B5040002F00CFB230062331B78002B4A
:0A4A340002D02000FFF7A4FF10BD20
:104A3E00F7B504002600783600911700019302F0B6
:104A4E00ECFA300006F041FC0500B84200D93D00FA
:104A5E002A000099300006F040FC019B20001D60EA
:0C4A6E00FFF7D9FF200002F0DFFAF7BDCF
:104A7A0037B50400406A0025030098331B78022BDF
:104A8A0003D00120303425703EBD01ABE26AA16A31
:104A9A000195FFF7CFFF019AE36AA16A9B1A8A1868
:104AAA00E362A2622800002BEED10120303420708C
:024ABA00EAE729
:104ABC0070B504000D00884205D0FFF79BFC29005F
:0A4ACC002000FFF78FFC200070BDF2
:104AD800F0B58BB01F0010AB1B78040005930023C2
:104AE8000361802300262500C382DB184383FC3B37
:104AF8008383634B20350993624B03910492310001
:104B0800082206730675068307A806930DF03EFD76
:104B18002800FFF771FC06A92800FFF765FC06A826
:104B2800FFF76AFC584B594D0822310007A8099332
:104B380006950DF02BFD200006A93030FFF7BAFFCF
:104B480006A8FFF759FC504B0822310007A8099323
:104B580006950DF01BFD200006A94030FFF7AAFFBF
:104B680006A8FFF749FC039B6A46E3652300127D0C
:104B78006133A765266566651A706A46127C0193DB
:104B8800013B1A70FA21012238009A709E80890030
:104B98000293FBF76FFC2300FA21663318800500A7
:104BA80089003800FBF7ECFC2300683319804F1E9E
:104BB800B941059B364A5F0023009446ADB26D1893
:104BC800FA217D436A33ADB21D80039B890063449B
:104BD8001800FBF74FFC2700049B6C375B0043432E
:104BE80028003B8009F0B0FB030045199D4202D024
:104BF8001E700133FAE720673D88280009F0A4FBFE
:104C08000022030045199D4202D01A700133FAE7C9
:104C1800FA21119B019A5D00A36D60676B431078C0
:104C280089005843FBF726FC01002000783006F085
:104C3800F4FAFA21E36D89005D43029B1878684312
:104C4800FBF718FC01002000883006F0E6FA230084
:104C5800012298331A705A70029B1A780323012A8A
:104C680000D100232200C2321380019B1A7803234B
:104C7800012A00D10023C43423800BB0F0BDC04604
:104C8800B87C011095420010AC7C011097420010CE
:044C9800E70300002E
:104C9C00F0B585B01F000AAB160004CB00251B78BD
:104CAC000400039303234371174B8560083303609F
:104CBC00C562C563C56429007830029206F0C3FA58
:104CCC0020002900883006F0BEFA20009C3006F047
:104CDC00FDFB2000A43006F0F9FB2000AC3009F0FD
:104CEC0031FD0C9B3A000193039B31000093200093
:104CFC00029BFFF7EBFE02F06BF9210002F022F9A8
:0C4D0C00200005B0F0BDC046B87D0110CD
:104D1800C36810B5002B05D1FD2204495200044890
:104D280008F0E8FC1B68984710BDC046A17D01103B
:044D3800AC7D01103D
:104D3C0070B50E000500140002F07EF9B2792979E5
:104D4C008A4242D36B795B189A423EDA002C3CD1F2
:104D5C003378012B18D03289531E012B33D8C3233F
:104D6C0086215B00EB5CFF31685C1B0203431BB2CA
:104D7C00FF20012A01D00138FF38B48818402412D2
:104D8C00012C03D0022C0AD001241CE0F678012E51
:104D9C0019D1287528002030FFF7B8FFF4E7F47814
:104DAC00012CF1D180B2E882FCF74CF8061C688B20
:104DBC00FCF748F8011C301CFBF7E8FE28612800C2
:0E4DCC002030FFF7A3FF200070BD0024FBE79E
:104DDC00C36810B5002B05D1FD22044952000448CC
:104DEC0008F086FC1B68984710BDC046A17D0110D9
:044DFC00AC7D011079
:104E000070B504000D0002F01DF9230099331E78DF
:104E10001D70AE4222D0022E08D12000A43006F030
:104E200068FB200031004030FFF7D8FF2600AC3689
:104E3000022D0DD12000A43006F05BFB20000021E4
:104E40004030FFF7CBFF0221300009F08BFC05E07A
:0E4E5000012DF8D10221300009F089FC70BD5F
:104E5E00F8B504002500C03502F0EDF826002978DB
:104E6E00200002F0EFF888360700300006F02DFA29
:104E7E00B8420CD2236D0133236502F0A8F823004B
:104E8E006C3329781B88626F07F0DBFAF8BD3A00A5
:104E9E00616F300006F021FA2000A43006F022FBEC
:104EAE00E36C002BE9D0200001214030FFF78FFF8B
:024EBE00E3E728
:104EC00070B504000D0002F0BDF8230098331E7881
:104ED0001D70AE4222D0022E08D120009C3006F078
:104EE00008FB200031003030FFF778FF2600AC3699
:104EF000022D0DD120009C3006F0FBFA200000218D
:104F00003030FFF76BFF0121300009F02BFC05E08A
:0E4F1000012DF8D12900300009F029FC70BDF8
:104F1E0070B5040002F081F8237B002B09D1012526
:104F2E00200029002573FFF764FF29002000FFF7FA
:0A4F3E00C0FF200002F078F870BDFB
:104F4800030070B50D0004006A331A880121280097
:104F580006F073FA2300C0331870543B1A880121F5
:104F6800280006F063FA2300C1331870280006F001
:104F7800F9F9002804D196220549064808F0BAFB39
:104F88002000FFF731FB2000FFF7C5FF70BDC046CA
:084F98000A7D0110177D0110D4
:104FA00070B5040002F040F8237B002B09D00025E7
:104FB000200029002573FFF723FF29002000FFF7B9
:0A4FC0007FFF200002F037F870BDFB
:104FCC0010B504001A4B08330360FFF7E3FF01F040
:104FDC00FFFF07F0C1FC206F002801D009F0DFF9BA
:104FEC00606F002801D009F0DAF92000AC3009F02C
:104FFC00BDFB2000A43006F0BEFA20009C3006F069
:10500C00BAFA2000883006F0FDF82000783006F05F
:10501C00F9F820004030FFF7EDF920003030FFF7B1
:10502C00E9F920002030FFF7E5F9200010BDC0465B
:04503C00B87D01102A
:1050400010B50400FFF7C2FFC4212000490009F099
:065050009BF9200010BDD9
:1050560070B504000D0001F0F2FF237B002B09D090
:10506600042D07D001212000FFF7C7FE01212000F3
:06507600FFF723FF70BDEF
:10507C0070B50E000500140001F0DEFF012E09D101
:10508C00012C06D8013C6142614128000131FFF737
:10509C00B1FE70BD022EFCD1012CFAD8013C61424C
:0C50AC00614128000131FFF705FFF2E729
:1050B80010B5040001F0C2FF2300C13319782000A5
:1050C80001F0CBFF2000FFF759FC20009C3006F0D0
:1050D8000CFAE36B002B04D0200001213030FFF7DD
:0450E80079FE10BD80
:1050EC0070B504000D00052200210DF04DFA601D75
:1050FC00042200210DF048FA23007D331D70054B6E
:10510C002200E3660023683220001370537013757D
:08511C0070BDC04640787D0122
:10512400174B10B599420AD813001A339B00C318C1
:105134005960012A02D100237C30037010BD114B49
:10514400114CCB18A3420AD813001A339B00C3187E
:1051540049085960012AF1D17C304023EDE70B4B1B
:105164000B4CCB18A342E9D813001A339B00C31885
:1051740089085960012AE1D17C308023DDE7C046EB
:1051840080C3C9017F3C36FE7FC3C901FF786CFC34
:04519400FF5962025B
:10519800F0B587B01C000EAB1B7815000393030015
:1051A800002900D08AE068331B7864221A339B00F8
:1051B800C01800234068FBF78BFB06000F000D9B0F
:1051C8004A4AD917C9075B0819430D9BD80700231A
:1051D800FBF73AFB32003B00FBF77AFB4900C00FB4
:1051E80008430200C317B6185F41142C03D804D132
:1051F8003F4B9D4201D914243D4D0D2C03D304D1BE
:105208003C4B9D4201D20D243A4D32003B00280010
:105218002100FBF73DFB0F2204900E2802D95A28E3
:1052280007D95A22002330003900FBF751FB05004B
:105238000C002800210032003B00FBF729FB10007E
:1052480019002D4A0023FBF743FB3B003200FBF714
:105258001FFB039B05000400002B39D163425C410E
:10526800264B64421C40244BE418049BE801DB01F4
:1052780021000593FBF784F90023214A0193059B3C
:1052880000959B1818180C9B13C3039B002B21D166
:10529800009A019B30003900FBF71AFB2200039BA0
:1052A800FBF7F6FA320004000D003B00049803995E
:1052B800FBF70EFB0019694107B0F0BD69331B7895
:1052C80064221A339B00C01840680023002172E74B
:1052D800094CCAE70023084A05980199FBF7F8FA30
:1052E800009B019CC0186141E6E7C04600CA9A3B92
:1052F80000046BF4005847F840420F00C1BDF0FFAE
:0453080000FEFFFFA5
:10530C00F0B585B01C000A9B150000930B9B0C9EFE
:10531C000193019A009B1343052C54D83FD14B4A5F
:10532C00954250D8002B00D181E0012303932A0031
:10533C00230000980199FBF7A9FA06220290052890
:10534C0006D9E123029ADB009A4208D9E122D20065
:10535C00002300980199FBF799FA05000C002A002C
:10536C00230000980199FBF791FA10001900384AB4
:10537C000023FBF7ABFA23002A00FBF787FA0700A0
:10538C007B1E9F41334B7F421F40039B0137012BF8
:10539C0052D1002333607360039BB3603EE0002C5A
:1053AC0007D12D4A95420AD82C4D002B3CD00394A2
:1053BC00BDE7032CB6D802D1294A9542B2D8002BAE
:1053CC0004D00023B2E7214D0524ABE72A002300CB
:1053DC0024481421FBF75AFA072802D1002900D1DE
:1053EC00013800230290039323002A000298002125
:1053FC00FBF76CFA039B00900191012B1FD0012746
:10540C000020C0013900FBF7B9F8029B164ADB01FA
:10541C009B181818039B83C6002B01D00095019490
:10542C000098019905B0F0BDE120C000D9E7012337
:10543C00039303330293D7E701230393E1E700239C
:10544C0033607360039BB360EAE7C04600C11A3D4A
:10545C0040420F003F420F007FF0FA0280F0FA0248
:0C546C00FFD5117E00046BF400FEFFFF72
:10547800F8B506981E00030007991500089F0B430E
:10548800032E45D812D12E4A954241D8002B43D13C
:1054980033002A002B481421FBF7FAF9C30710D56B
:1054A80001300400FE280FD9FE240DE0002EEDD1B6
:1054B800254A9542EAD8254D002BF5D02CE0052049
:1054C800EEE706240528ECD12A003300200000214D
:1054D800FBF7FEF9142903D80FD11D4B984206D9C2
:1054E800023C2A00330020000021FBF7F1F90023D9
:1054F800E4B23C607B60BB60F8BD0D29F7D802D1EF
:10550800144B9842F3D80234EBE700200100F3E78C
:105518000B4D0326002BD2D02A003300FBF7B8F935
:105528000400190010001343EFD1A21FF82AE3D892
:10553800E4B23C607B60BB6001201900DCE7C04638
:1055480000D6117E002375EE7FF0FA0280F0FA0291
:0855580000046BF4FF5747F853
:10556000F0B50E684F6801253F4C6D42A4197D418E
:10557000002D0AD13D48844207D8700EFB01034339
:105580000720F2014B600A60F0BD0125384C6D42E6
:10559000A4197D41002D0AD13648844207D8B00EA7
:1055A000BB010343B2014B600A600620ECE7012512
:1055B000314C6D42A4197D41002D0AD12F488442FF
:1055C00007D8F00E7B01034372014B600A6005208F
:1055D000DAE701252A4C6D42A4197D41002D0AD13C
:1055E0002848844207D8300F3B01034332014B6007
:1055F0000A600420C8E70125234C6D42A4197D41AF
:10560000002D0AD12148844207D8700FFB000343C4
:10561000F2004B600A600320B6E701251C4C6D4286
:10562000A4197D41002D0AD11A48844207D8B00F31
:10563000BB000343B2004B600A600220A4E70125CF
:10564000154C6D42A4197D41002D0AD113488442A6
:1056500007D832003B0092197B4101200A604B6061
:1056600092E7002090E7C04680E5F9FF7F1A060028
:1056700000CBF3FFFF340C000096E7FFFF69180032
:10568000002CCFFFFFD3300000589EFFFFA7610022
:1056900000B03CFFFF4FC300006079FEFF9F860112
:1056A000F0B50E684F6801253F4C6D42A4197D414D
:1056B000002D0AD13D48844207D8700EFB010343F8
:1056C0000720F2014B600A60F0BD0125384C6D42A5
:1056D000A4197D41002D0AD13648844207D8B00E66
:1056E000BB010343B2014B600A600620ECE70125D1
:1056F000314C6D42A4197D41002D0AD12F488442BE
:1057000007D8F00E7B01034372014B600A6005204D
:10571000DAE701252A4C6D42A4197D41002D0AD1FA
:105720002848844207D8300F3B01034332014B60C5
:105730000A600420C8E70125234C6D42A4197D416D
:10574000002D0AD12148844207D8700FFB00034383
:10575000F2004B600A600320B6E701251C4C6D4245
:10576000A4197D41002D0AD11A48844207D8B00FF0
:10577000BB000343B2004B600A600220A4E701258E
:10578000154C6D42A4197D41002D0AD11348844265
:1057900007D832003B0092197B4101200A604B6020
:1057A00092E7002090E7C04668D7E3FF97281C00E7
:1057B000D0AEC7FF2F513800A05D8FFF5FA27000F1
:1057C00040BB1EFFBF44E10080763DFE7F89C201E1
:1057D00000ED7AFCFF12850300DAF5F8FF250A07D1
:1057E00010B511221021024800F07EFE10BDC04607
:0457F000742A0020F7
:1057F400F8B50D001E000C4C7D3001782000170018
:1058040000F0C8FC2900200000F0D7FC3500AB1BD9
:105814009F4205DD2978200000F0CFFC0135F6E732
:0C582400200000F0BEFCF8BD742A00203B
:10583000F0B58BB00492059310AB1E78050007AF4E
:10584000002E3BD103003100029668331B781C33D5
:105850009B00C3185B6800970193049A059B28007E
:10586000FFF79AFC142008F073FDBB6804001A0AC5
:105870000270079A43709103890F8170110AC170F9
:1058800002710F207A681B0B110C834301400B43FC
:105890006371130AA371E271002E1ED12300082246
:1058A0001A212800FFF7A6FF049A059BAA65EB655D
:1058B0000121200008F068FD0BB0F0BD0023029329
:1058C000030069331B7801211C339B00C3185B68FC
:1058D00000970193049A059BC1E7012EE8D12300AC
:1058E000082222212800FFF785FF049A059B2A66DB
:0458F0006B66DDE71F
:1058F400002313B51C329200821851600093826D0C
:10590400C36D0400FFF792FF012320000093226E71
:08591400636EFFF78BFF13BD6A
:10591C0070B50E001500094C7D300178200000F0A8
:10592C0035FC3100200000F044FC2900200000F080
:10593C0040FC200000F031FC70BDC046742A0020F1
:10594C0010B5002904D12022B131FFF7E1FF10BDC1
:0A595C000129FCD18022B031F7E7E9
:1059680070B50E007D3005000F4C0178200000F066
:105978000FFC3100200000F01EFC200000F00FFC9E
:10598800297800230122200000F01BFD00252000BB
:1059980000F023FC002804D0200000F02AFCC5B247
:0C59A800F5E7280070BDC046742A0020FE
:1059B40070B50E00032115000400FFF7D3FF012387
:1059C400B3405BB21A000243D2B2012D01D1984315
:0C59D400C2B203212000FFF79FFF70BD4E
:1059E000103170B5CCB2210015000600FFF7BCFFE6
:1059F000FC220240022D03D0032D01D0012D00D145
:0C5A00002A4330002100FFF789FF70BD31
:105A0C00F8B50D001035EDB20F002900160004009A
:105A1C00FFF7A4FF0200002E08D1DF231A40290053
:105A2C002000E419FFF774FF6672F8BD012EF6D161
:085A3C0020200243D2B2F2E780
