:020000041000EA
:1000000000B5324B212058609868022188439860DF
:10001000D860186158612E4B002199600221596106
:100020000121F02299502B49196001219960352056
:1000300000F044F80222904214D00621196600F024
:1000400034F8196E01211966002018661A6600F04E
:100050002CF8196E196E196E052000F02FF8012189
:100060000842F9D1002199601B49196000215960AB
:100070001A491B48016001219960EB211966A021F2
:10008000196600F012F800219960164914480160C1
:100090000121996001BC002800D000471248134993
:1000A000086003C880F30888084703B5996A0420EC
:1000B0000142FBD001200142F8D103BD02B5186610
:1000C0001866FFF7F2FF186E186E02BD00000240BE
:1000D000000000180000070000035F00212200005C
:1000E000F4000018222000A00001001008ED00E03C
:1000F00000000000000000000000000074B24E7A12
:1001000000000420E3010010C3010010E903001007
:10011000C1010010C1010010C1010010C101001097
:10012000C1010010C1010010C10100104503001001
:10013000C1010010C1010010C9030010D503001057
:10014000CD010010CD010010CD010010CD01001037
:10015000CD010010CD010010CD010010CD01001027
:10016000CD010010CD010010CD010010CD01001017
:10017000CD010010CD010010CD010010CD01001007
:10018000CD010010CD010010CD010010CD010010F7
:10019000CD010010CD010010CD010010CD010010E7
:1001A000CD010010CD010010CD010010CD010010D7
:1001B000CD010010CD010010CD010010CD010010C7
:1001C00000BE00BE00BE00BE00BE00BE00F03FF894
:1001D000103800BE00202049086006C881F3088856
:1001E00010471E48006800282DD10CA40ECC002911
:1001F00002D000F010F8F9E719491A4A002000E08F
:1002000001C19142FCD1184988471849884700BE6E
:10021000FDE701C901C29A42FBD3704724CA01100D
:10022000C0000020F40F002064D901100000042059
:100230000000042064D901100010042000100420E4
:100240000000000070470A4812F05AF80047EFF328
:100250000580C0B27047000008ED00E0000000D04B
:1002600000100020DCC00020CD02001019FB00109F
:1002700057560000F8B5C046F8BC08BC9E4670470B
:10028000F8B5C04610B5064C2378002B07D1054BB6
:10029000002B02D0044800E000BF0123237010BDF2
:1002A000F81500200000000084020010044B10B577
:1002B000002B03D00349044800E000BF10BDC04636
:1002C00000000000FC15002084020010164B002BDB
:1002D00000D1144B9D46402292029A1A9246002168
:1002E0008B460F461348144A121A14F069F80F4B44
:1002F000002B00D098470E4B002B00D098470020D1
:10030000002104000D000D48002802D00C480FF019
:1003100006FC13F0D3FB200029000BF0F5FD0FF0D5
:10032000FBFBC046000008000000042000000000A5
:1003300069BE001000100020DCC000201FFB001070
:10034000000000007046C0082CD3EFF309808169DB
:1003500002390978002929D101B50FC8B8470CBC6A
:1003600003C29E461E4B06CB91421ED0083B1A602C
:10037000002909D0EFF3098020388863F0C0444693
:100380004D4656465F46F0C0906B1030F0C8A04610
:10039000A946B246BB4680F309882038F0C802203F
:1003A000C0430047EFF30880D1E770470D4A136858
:1003B0009942FAD801B5890053589C460FC8E047C6
:1003C0000CBC10609E46704701B50BF013F803BCDF
:1003D0008E46C7E701B50AF0CBFF03BC8E46C1E7E6
:1003E000080400203CA50110102304E0202302E0B3
:1003F000302300E040239C46F0B404AE7546E80884
:1004000001D3EFF309860E4F0FCE0FC70FBC0FC7F6
:100410004046494652465B460FC71DCE3100A60AEC
:1004200000D304316E0900D248311FC7EFF30980B1
:100430006946EFF3148663C7604601490EF038FE43
:100440004CC0002001480421014B18471006002031
:100450001123011002B471464908490009564900A8
:100460008E4402BC7047C04602B471464908490038
:10047000095C49008E4402BC7047C0460022430814
:100480008B4274D303098B425FD3030A8B4244D35C
:10049000030B8B4228D3030C8B420DD3FF2209029E
:1004A00012BA030C8B4202D31212090265D0030B5D
:1004B0008B4219D300E0090AC30B8B4201D3CB0353
:1004C000C01A5241830B8B4201D38B03C01A524195
:1004D000430B8B4201D34B03C01A5241030B8B4297
:1004E00001D30B03C01A5241C30A8B4201D3CB0282
:1004F000C01A5241830A8B4201D38B02C01A524167
:10050000430A8B4201D34B02C01A5241030A8B4269
:1005100001D30B02C01A5241CDD2C3098B4201D381
:10052000CB01C01A524183098B4201D38B01C01AFF
:10053000524143098B4201D34B01C01A5241030976
:100540008B4201D30B01C01A5241C3088B4201D325
:10055000CB00C01A524183088B4201D38B00C01AD2
:10056000524143088B4201D34B00C01A5241411AF9
:1005700000D20146524110467047FFE701B5002006
:1005800000F0F0F802BDC0460029F7D076E77047CA
:1005900003460B437FD4002243088B4274D30309E4
:1005A0008B425FD3030A8B4244D3030B8B4228D385
:1005B000030C8B420DD3FF22090212BA030C8B42AB
:1005C00002D31212090265D0030B8B4219D300E04B
:1005D000090AC30B8B4201D3CB03C01A5241830BD0
:1005E0008B4201D38B03C01A5241430B8B4201D380
:1005F0004B03C01A5241030B8B4201D30B03C01AA9
:100600005241C30A8B4201D3CB02C01A5241830A22
:100610008B4201D38B02C01A5241430A8B4201D351
:100620004B02C01A5241030A8B4201D30B02C01A7B
:100630005241CDD2C3098B4201D3CB01C01A5241E2
:1006400083098B4201D38B01C01A524143098B426B
:1006500001D34B01C01A524103098B4201D30B0154
:10066000C01A5241C3088B4201D3CB00C01A524179
:1006700083088B4201D38B00C01A524143088B423E
:1006800001D34B00C01A5241411A00D201465241D7
:10069000104670475DE0CA0F00D04942031000D3F6
:1006A0004042534000229C4603098B422DD3030A4B
:1006B0008B4212D3FC22890112BA030A8B420CD35B
:1006C000890192118B4208D3890192118B4204D384
:1006D00089013AD0921100E08909C3098B4201D304
:1006E000CB01C01A524183098B4201D38B01C01A3E
:1006F000524143098B4201D34B01C01A52410309B5
:100700008B4201D30B01C01A5241C3088B4201D363
:10071000CB00C01A524183088B4201D38B00C01A10
:100720005241D9D243088B4201D34B00C01A5241E7
:10073000411A00D20146634652415B10104601D374
:100740004042002B00D54942704763465B1000D3FE
:10075000404201B5002000F005F802BD0029F8D0A4
:1007600016E770477047C046D0400B1CD1409C46EE
:10077000203AD3401843524263469340184370478F
:100780009140031C90409C46203A934019435242AA
:100790006346D340194370478446101C62468C461A
:1007A000191C634600E0C0461FB501F07DFE00281D
:1007B00001D40021C8421FBD10B501F0D5FD404253
:1007C000013010BD10B501F06FFE002801DB0020E4
:1007D00010BD012010BDC04610B501F065FE002817
:1007E00001DD002010BD012010BDC04610B501F094
:1007F000F7FD002801DC002010BD012010BDC0461F
:1008000010B501F0EDFD002801DA002010BD012037
:1008100010BDC0468446081C6146FFE71FB500F0C6
:1008200095FB002801D40021C8421FBD10B500F07F
:1008300017FB4042013010BD10B500F087FB0028C7
:1008400001DB002010BD012010BDC04610B500F036
:100850007DFB002801DD002010BD012010BDC04639
:1008600010B500F025FB002801DC002010BD0120A0
:1008700010BDC04610B500F01BFB002801DA0020B7
:1008800010BD012010BDC0461C2101231B0498424D
:1008900001D3000C10391B0A984201D3000A083911
:1008A0001B09984201D30009043902A2105C4018C8
:1008B0007047C0460403020201010101000000006C
:1008C00000000000002B15D1002A13D1002906DBFF
:1008D00001DC002806D00020C043410802E080214E
:1008E0000906002007B4024801A14018029003BD88
:1008F00075FEFFFF03B4684601B5029800F082F967
:10090000019B9E4602B00CBC7047C046002B11D123
:10091000002A0FD1002900D1002802D00021C943AC
:10092000081C07B4024802A14018029003BDC0464B
:1009300035FEFFFF03B4684601B5029800F0A0F849
:10094000019B9E4602B00CBC7047C046F0B5CE4637
:10095000474615042D0C2E0080B50704140C3F0CDF
:100960009946030C7E435D43674363437F19340C10
:10097000E4199C46A54203D980235B029846C444EF
:100980004B4643435143250C36046544360C24043E
:10099000A4195B19591820000CBC90469946F0BD6B
:1009A0009E2110B5C905041CFFF764FF002803D180
:1009B000201C00F011FE10BD9E21201CC90500F076
:1009C00047FC00F009FE80231B069C466044F2E7CA
:1009D00070B500220C4B04000D00FFF711FF00283A
:1009E00004D12000290002F09DFB70BD064B0022BF
:1009F0002000290002F032F802F094FB80231B064D
:100A00009C466044F1E7C0460000E04170B5050037
:100A10000C000022002328002100FFF7D3FE00284D
:100A200004D12800210000F00DF870BD80231B06C2
:100A3000E118280000F006F802000B0000215042E7
:100A40009941F2E770B500220B4B0D00040001F054
:100A500093FDFFF7BDFF060002F0D4FB0022074B19
:100A600001F08AFD02000B002000290001F0F6FFD2
:100A7000FFF7AEFF310070BD0000F03D0000F04117
:100A8000F0B54F464646D646C0B5040082B00D00CC
:100A9000914698468B422FD82CD04146484602F0CA
:100AA000B9FC29000600200002F0B4FC331A9C4671
:100AB000203B9A4600D576E04B46524693401F00B5
:100AC0004B46624693401E00AF4228D825D053467D
:100AD000A41BBD41002B00DA7BE000220023009222
:100AE00001930123524693400193012362469340B0
:100AF000009318E08242D0D9002200230092019393
:100B00000A9B002B01D01C605D600098019902B027
:100B10001CBC90469946A246F0BDA342D7D90022FC
:100B20000023009201936346002BE9D0FB0798460F
:100B3000414672080A437B0866460EE0AB4201D18B
:100B4000A2420CD8A41A9D41012024196D41002114
:100B5000013E24184D41002E06D0AB42EED9013E95
:100B600024196D41002EF8D10098019953460019BF
:100B70006941002B23DB2B005246D3402A006446F8
:100B8000E2401C0053461500002B2DDB2600574683
:100B9000BE40330026006746BE403200801A9941AD
:100BA00000900191ACE7624620239B1A4A46DA4046
:100BB0006146130042468A4017001F4380E76246A1
:100BC00020239B1A2A0066469A402300F3401343D1
:100BD000D4E76246202300219B1A00220091019253
:100BE0000122DA40019280E72023624626009B1A08
:100BF000DE402F00B0466646B74046463B003343D2
:100C0000C8E7C046F0B583B016001F000090019100
:100C100002F00CFC04000D0002000B003000390053
:100C2000FFF794FE009A019B121A8B41089920004D
:100C30000A604B60290003B0F0BDC046F8B55746C6
:100C40004E464546DE464402E0B546008846640A04
:100C5000360EC70F002E63D0FF2E24D08023E40071
:100C6000DB041C43002399469B467F3E4346424695
:100C70005D02D20F5B006D0A1B0E9046924665D056
:100C8000FF2B55D080220021ED00D2047F3B15437D
:100C9000F61A43464A467B400F2A00D98DE06D483C
:100CA000920082589746002C54D108239946063B5F
:100CB000FF269B46DAE70025534602291BD003296D
:100CC00000D1BFE0012928D030007F30002820DD8E
:100CD0006A0704D00F222A40042A00D004352A01D2
:100CE00003D530005C4A80301540FE2803DCAC019F
:100CF000640AC2B201E0FF2200246402D205600A45
:100D0000DB07104318433CBC90469946A246AB46CD
:100D1000F8BD0122101A1B287CDD00220024ECE71C
:100D2000002C1DD104239946033B00269B469DE7DA
:100D3000FF3E002D20D1022143464A467B400A4314
:100D40000F2AD8D84548920082589746002D19D1CD
:100D50000121F1E70C239946093BFF269B4685E7D5
:100D60002000FFF791FD7626431F9C40002376422A
:100D7000361A99469B4679E74A4603231A43914619
:100D8000032186E72800FFF77FFD431F36189D40AB
:100D9000763600217DE780240023E403FF22ACE7C0
:100DA00000258023DB031C4228D01D4226D12B4383
:100DB0005C02640A4346FF229FE762016C01A24283
:100DC00024D21B210025013E012710006D00520096
:100DD000002801DB944201D8121B3D430139002950
:100DE000F3D11400621E944125436DE7BA4659467B
:100DF00025005346022900D061E77CE78023DB030E
:100E00001C436402640A3B00FF2276E7121B1A218E
:100E10000125D9E79E362A00B5402C00C240651E48
:100E2000AC411443620704D00F222240042A00D0B0
:100E30000434620103D4A401640A00225DE70122A4
:100E400000245AE78024E4032C436402640AFF224E
:100E500053E7C04614980110FFFFFFF754980110A4
:100E600070B542004E024C0045026D0A120EC30FCF
:100E7000760A240EC90FFF2A0FD0FF2C11D00120B3
:100E8000A24200D070BDB542FCD18B420DD0002AE9
:100E9000F8D12800451EA841F4E70120002DF1D12A
:100EA000EBE70120002EEDD1E9E70020EAE7C0469C
:100EB00070B54A004E02450244006D0A240EC30F6D
:100EC000760A120EC90FFF2C15D0FF2A0ED0002C67
:100ED00015D1002A01D1002E1CD0002D14D08B4238
:100EE00027D00220013B1840013870BD002EEED003
:100EF00002204042F9E7002DFAD1FF2A0ED0002A45
:100F00000ED1002EEDD00BE00123013999430800EA
:100F10000130EAE70020002DE7D0E2E7002EE7D11C
:100F20008B42DED1944205DD0221581E0840013873
:100F3000DBE70024A24204DCB542D2D80020B5424F
:100F4000D3D2581E012398430130CEE730B542007A
:100F500044024D02C30F4800640A120E6D0A000ECF
:100F6000C90FFF2A12D0FF280CD0002A12D1002866
:100F700019D1002D17D1002C2BD00220013B184095
:100F8000013826E0002DF0D0022022E0002CFBD119
:100F9000FF281FD000281FD1002D1DD10220013BAA
:100FA0001840013815E0002C0ED08B42E5D100220C
:100FB000904204DCAC42E0D80020AC4209D2581E7A
:100FC00001239843013004E00123013999430800CB
:100FD000013030BD002DD7D18B42CED18242E7DD2A
:100FE0000221581E08400138F3E7C046F0B54E46CE
:100FF00057464546DE46E0B543025B0A450083B0EE
:101000000F1C99462D0EC60F002D57D0FF2D24D052
:101010008020DB00C0041843002381469A469B468B
:101020007F3D7C027A00FB0F640A120E984623D0A3
:10103000FF2A4BD0E30080240020E4047F3A1C43C5
:10104000AD186B1C47460193534677403A000F2B6F
:1010500048D87D499B00CB589F46002B00D085E0A7
:1010600008339A46063B9B467C027A00FB0FFF251D
:10107000640A120E9846DBD1002C00D090E0524654
:1010800001231A4392460120DBE74C4658461700DD
:10109000022824D0032800D1CFE000220023012819
:1010A0004DD15802D205400AFF071043384303B020
:1010B0003CBC90469946A246AB46F0BD002B5BD1A6
:1010C00004239A46033B00259B46AAE7FF35002CE4
:1010D00060D1524602231A4392460220B1E7FF2212
:1010E0000023DEE74B461B0C9C464B462604360C81
:1010F000180461463300220C6446000C43434E43FF
:101100005043544380191A0C1218964203D9802177
:1011100049028C4664441B041B0C1004C018830154
:101120005E1EB341800E1843130C1B199B01034331
:101130001C00230179D5012362081C401443019A45
:101140007F32002A4DDD630704D00F232340042B98
:1011500000D00434230103D53C4B019A1C4080325B
:10116000FE2ABCDCA3015B0AD2B29AE70C239A46A2
:10117000093BFF259B4654E71800FFF785FB4A46CD
:10118000431F76259A4000236D4291462D1A9A46B8
:101190009B4646E7524603231A439246032050E7F4
:1011A0002000FFF771FB431F2D1A9C40763D002065
:1011B00047E780230027DB03FF2272E7424666E70A
:1011C0004C463200584662E780234A46DB031A4207
:1011D00022D01C4220D123435B025B0A4746FF22F8
:1011E0005FE701239A1A1B2A21DC23000199D340CF
:1011F0009E318C401A0023005C1EA34113435A0702
:1012000004D00F221A40042A00D004335A0111D40A
:101210009B015B0A002244E780234A46DB03134319
:101220005B025B0A3700FF223BE7019587E700225C
:10123000002336E70122002333E78023DB03234327
:101240005B025B0AFF222CE794980110FFFFFFF777
:10125000F8B54746CE464400C20F80B54702480263
:10126000400A8446664648007F0A240EF6002500A0
:101270009046FB00000EC90FB146FF2800D185E063
:1012800001267140261A914257D0002E43DD0028D6
:1012900000D07FE04946002900D1AAE0013E002E9F
:1012A00000D0F7E05B1A5A0100D48BE09B019C0947
:1012B0002000FFF7E9FA05388440854200DDD3E0DD
:1012C000451B230020200135EB40451BAC40621E2E
:1012D00094412343072400251C40012241460A4033
:1012E000002C04D00F211940042900D004335901E7
:1012F00000D480E00135ECB2FF2D00D0A3E0FF2444
:1013000000235B02E405580AD207204310430CBCBB
:1013100090469946F8BD002E74D1601CC0B20128D9
:1013200000DCA7E04A469C1A620100D5B6E0002C1A
:10133000BED1002200240023E3E7002E00DC85E07C
:10134000002846D0FF2C49D080224846D2041043C2
:10135000814601221B2E09DC20204C46801B844044
:101360004A462000F240441EA04102439B185A0105
:1013700028D50135FF2D00D1A8E00122072494498A
:101380001A405B080B4013431C40A6E7002E00D018
:1013900078E775E7FF2C54D080224946D2041143E8
:1013A000894601221B2E09DC20214846891B8840E2
:1013B0004A460100F240481E81410A439B1A5A01E5
:1013C00000D573E7012241460A40590700D089E75A
:1013D00011E04846002858D1FF2C0CD1DB08002B27
:1013E00000D18CE78020C00303435B025B0AFF242B
:1013F00087E7FF2C25D0DB08FF2DF0D05B025B0ACE
:10140000ECB27EE7002C4DD0FF2818D08024E404F5
:10141000724223431B2A00DDC4E01C002025D44077
:10142000AA1A93405A1E934123434A460500D31AF1
:10143000884638E7721CF8D0F243FF28EAD10A0048
:101440004B46FF25D7E79B015B0A5AE7002E41D1A7
:10145000651CE9B2012945DDFF2D00D14FE70724C6
:101460004B445B081C4038E707225A4B2D1A234097
:10147000144032E7002C1DD1002B7AD14B46002BB3
:1014800000D191E00A000025B5E7013E002E19D1F8
:101490004B446CE7FF2C84D1FF25ACE74A468846D5
:1014A000D41A05E7002BC5D10A00FF28C8D00500D3
:1014B0004B46A0E7002B49D14B46002B77D00A00C2
:1014C000FF2598E7FF2C00D043E787E70A00FF24B9
:1014D000002316E7002C15D1002B57D1FF28E6D1A9
:1014E0004B467BE7002C20D1002B57D049460029E2
:1014F00053D04B445A0168D50724364A1C40012575
:101500001340EAE6FF28EBD08022D2047642134350
:101510001B2E53DC2025AD1B1A00AB40F2405C1E95
:10152000A34113434B44050021E7002BD8D0494683
:10153000002900D152E78021C9030F4200D14DE7B5
:101540006046084200D049E74B4647E74846FF253A
:10155000002800D14FE78022D203174204D0604612
:10156000104201D14B46884601224146FF250A40E0
:1015700041E7484600281FD01A1A500120D54A4694
:101580000724D31A1C4088460025A6E6741CC9D03F
:10159000F643FF28BCD14B4620E799464B46002531
:1015A000DB082BE7012340E700220023A9E6802384
:1015B0000022DB03FF24A4E600251CE70123B1E79A
:1015C000002AF1D013000025FCE60025FAE6C0460B
:1015D000FFFFFF7DFFFFFFFB41024200C30F490AEF
:1015E000120E00207E2A0DD99D2A0CD880200004DE
:1015F0000143952A0ADC9620821AD1404842002BEA
:1016000000D108007047034A9818FBE7963A9140CA
:10161000F4E7C046FFFFFF7F70B500283DD0C31739
:10162000C5185D40C40F2800FFF72EF99E22121A3C
:10163000962A07DCD2B2082833DD083885406802D4
:10164000400A23E0992A0BDD052329001B1AD94003
:1016500003001B339D402B005D1EAB4119430D0061
:10166000052801DD431F9D402B000F490B406E07ED
:1016700009D00F263540042D05D004335D0102D575
:101680009F220B40121A9B01580AD2B24002D20587
:10169000400AE4071043204370BD002400220020CC
:1016A000F4E76802400AF1E7FFFFFFFB70B5041E94
:1016B00034D0FFF7E9F89E22121A962A07DCD2B23C
:1016C00008282EDD083884406002400A21E0992A6B
:1016D00009DD030021001B3399404B1E994105236E
:1016E0001B1ADC400C43052801DD431F9C402300EE
:1016F0000D490B40650709D00F252C40042C05D05F
:1017000004335C0102D59F220B40121A9B01580A38
:10171000D2B24002D205400A104370BD0022002020
:10172000F7E76002400AF4E7FFFFFFFBF0B54F4622
:101730004646D6460C000903C0B5490A470F5E006D
:1017400039431F03DB0F9C4665007B0A570F1F437D
:101750006D0DE40F760DA146C000B846D200AB1B5C
:1017600064457BD0002B5FDD002E00D0A4E03E005E
:10177000164300D112E15E1E002E00D09EE1871AB2
:101780004346B84280410125C91A4042091A0B025A
:1017900000D431E149024E0A002E00D16EE1300042
:1017A000FFF772F80300083B1F2B00DD61E12022E8
:1017B0003900D21A9E40D1409F400E439D4200DD29
:1017C00051E15D1B6B1C1F2B00DD7CE12021C91A40
:1017D0003D0030008F408840DD40791E8F41310050
:1017E00007222843D940002507433A40002A09D060
:1017F0000F233B40042B05D03B1DBB42BF417F4222
:10180000C9191F000B0200D426E26A1CC64B5505FD
:101810006D0D9A4200D106E1C44AFF080A40530701
:1018200052023B43120B8EE0002B00D0B8E06B1C41
:101830005B055B0D012B00DC30E1871A4346B842A3
:10184000B641CB1A76429E1B330200D54CE13B00D9
:101850003343A1D100220024002570E0002B00DCDE
:10186000E5E0002E00D183E0AF4EB54260D0802687
:1018700036043743B846382B00DC3EE14346134379
:101880001F007A1E97413F18874280414042091845
:101890000B0200D4B0E0A44B01359D4200D1C3E05F
:1018A000A24A7B080A4001210F401F435108D30779
:1018B00007221F433A4099E79B4EB54238D0802615
:1018C00036043743B846382B00DDDCE01F2B00DC44
:1018D00030E11E004746203EF740BC46202B04D096
:1018E0004026F31A46469E403243170063467A1E4E
:1018F00097411F43CCE0002B00D104E24346134341
:1019000000D159E14B07C00818438023C9081B03C5
:10191000194208D04546ED081D4204D14346D0087F
:10192000590708432900420FC9007F4D1143C000E9
:101930004B07CA087C49C00803438D4268D0120394
:101940006D05120B6D0D002112031800130B0A0D0B
:1019500012051A43764B2D0513402B435B00E40719
:101960005B08234319001CBC90469946A246F0BD73
:101970003E00164312D05E1E002E00D000E18718F4
:101980008742804141444042091801250B0233D56A
:10199000022585E764463300414610001D00C7E775
:1019A000002D00D0DAE00C000443F3D05C1C00D121
:1019B0009FE15D4CA64200D12FE1DB43382B00DDD7
:1019C00066E11F2B00DD83E120240500E41A0F00EF
:1019D000DD40D940A0404346A7405B1A441EA041C9
:1019E00098462F433843171ABA429241434652420F
:1019F000991A64463500CAE607223A40002A00D008
:101A0000F6E64B07CA084849FF083B438D4296D18A
:101A10001900114300D19EE1802109030A431203FA
:101A2000120B414D8FE71500002200238BE7002B9E
:101A300000D0C7E06B1C5F057F0D012F00DCF1E0DB
:101A4000394DAB4200D1B9E085180A008542894181
:101A50004244494251180722CF076D082F434908D5
:101A60003A401D00C2E607223049ED1A31403A40A3
:101A7000BCE63E002838864000279FE63800FEF787
:101A800003FF20308EE6434613431F007A1E974122
:101A9000C71BB84280414042091A78E60E003B005D
:101AA00006431343002D61D1002E00D0F4E0002B3B
:101AB00000D11BE164463900100039E71A4FBB42E0
:101AC0007AD03300FFE630001F3DE840202B03D0E2
:101AD0004021CB1A9E4037437B1E9F41072207437C
:101AE0003A400021002589E7171A4346BA42B64119
:101AF000591A76428E1B64464EE61F2B00DDADE080
:101B000020264746F61AB740B9461700B246DF40CE
:101B10004E463E4337005646B240561EB24117432A
:101B20004246DA408918AEE6FF070000FFFF7FFF5C
:101B3000FFFF0F8020264746F61AB740B946170028
:101B4000B246DF404E463E4337005646B240561E30
:101B5000B24117434246DA40891A99E77F4CA642C0
:101B60005BD0802424045B42214327E7002E0CD164
:101B7000002B00D1CBE0644639001000774DD7E64A
:101B8000764FBB4218D0330075E6002B14D04B07BC
:101B9000C00818438023C9081B03194207D0FC085A
:101BA0001C4204D17907D0080843E14621004C4685
:101BB000420FC9001143C000684DB9E61D00002264
:101BC0000023C0E6002D5BD10D00054300D1E2E605
:101BD0005D1C00D1B0E0614DAE421FD0DB43382B1D
:101BE00071DC1F2B00DD96E020250F00ED1AAF40C1
:101BF000B9460700AA46DF404D463D432F005546F3
:101C0000A840D940451EA84188440743BF189742C1
:101C100092415142414435003AE66446350041461E
:101C2000100085E60B000343002D00D063E6002B77
:101C3000F5D04346134300D17AE6871887428041A6
:101C400007224144404209183A400B0200D4D5E62D
:101C5000434B01351940C9E5380069E61E00474687
:101C6000203EF740BC46202B04D04026F31A4646BF
:101C70009E403243170063467A1E97411F4302E697
:101C8000364DAE42CAD080252D045B422943A6E7DB
:101C90000843411E8841A6E6002B00D148E6871A7A
:101CA0004346B842B641CB1A76429E1B33024BD50F
:101CB000171A4346BA429241591A5242891A0722C8
:101CC00064463A4092E501430F00791E8F419DE73B
:101CD0001C000F00203CE740202B03D04024E31AD7
:101CE00099400843411E884138437CE60022002485
:101CF00025E6171A4346BA429241591A5242891AA6
:101D00006446350043E541461000144D10E680223C
:101D10000024120380E61D000F00203DEF40BC466A
:101D2000202B03D04025EB1A994008430700634657
:101D3000781E87411F4369E7871897429B414144BA
:101D40005B42C9183500A3E53B003343CED00722E0
:101D500031003A4052E600231A00F4E5FF07000084
:101D6000FFFF7FFFF0B55746DE464E464546E0B5DD
:101D7000834607000E03480085B092461C00360BD0
:101D8000400DCD0F002800D19DE0954B984239D0F1
:101D90008023F6001B041E43924A7B0F334399466F
:101DA000944603006344009300230026FF0002933F
:101DB00023031B0B98466300E40F52465B0D01940E
:101DC00000D1B3E086498B4200D19EE04246D1006B
:101DD000802212040A435146490F11438B46814920
:101DE00052468C4600996344CB1A0021D2000093DE
:101DF0002B0063409A460F2E00D905E17A4BB600BE
:101E00009B599F465B463343994600D0B8E0022376
:101E10000826002700900293CAE7CB463A000299B1
:101E20000195019B9A46022927D0032900D180E21F
:101E3000012944D06D49009B8C4663441C00002C52
:101E400038DD530700D013E2D2085B46DB0109D529
:101E50005946674B19408B468021C9008C46009B30
:101E600063441C00634B9C4207DC5B4664055F07D0
:101E70005B0217431B0B620D02E000230027584A48
:101E800000211B031C0B0B0D1B05234314055A4A91
:101E9000380013401C4353466400DB0764081C43AE
:101EA000210005B03CBC90469946A246AB46F0BD29
:101EB0000122524201231B1B382B00DCADE1002222
:101EC00000230027DCE75B46334399465ED0002EB3
:101ED00000D18AE13000FEF7D7FC03000B3B1C2B3E
:101EE00000DD7BE11D22D31A5A460100DA40083991
:101EF0008E4013005F46334399468F403F4B002688
:101F00001B1A00930023029352E7414653460B43AA
:101F10003B499B468C46009B634400935B46002BE9
:101F20003BD1022300221E43022161E743461343B3
:101F30009B4637D04346002B00D162E14046FEF776
:101F4000A3FC03000B3B1C2B00DD53E102004146C8
:101F5000083A914088461D21CB1A5146D9400B00C2
:101F600041460B439B46534693401A00009B25492C
:101F70009C46604403008C4663440093002137E78D
:101F80000323B14600900C26029311E7002300932F
:101F900001330426002702930AE70323C3461E43A6
:101FA000032125E701331E430022012120E70023FE
:101FB0009A46802300271B03094A61E7802349468C
:101FC0001B03194200D1E2E05946194200D0DEE07D
:101FD0000B431B0317001B0BA246014A50E7C046E8
:101FE000FF07000001FCFFFFD4980110FF03000071
:101FF000FFFFFFFEFE070000FFFF0F800DFCFFFF4D
:1020000001F8FFFFF3030000D94500D9CBE000D170
:10201000C6E03C0048460027009B013B00935B461E
:10202000160E1B021E431302984633041B0C9946DE
:10203000310C0191FEF7A8FA4A4642430B04210CE9
:10204000050019438A4207D98919013D8E4203D8F8
:102050008A4201D9851E8919881A0199FEF794FAD6
:1020600009048C464A46210464464243090C030095
:1020700021438A4204D98919013B8E4200D8F1E0FC
:102080002D041D43AB464346891A4246280C1204D0
:102090001D0C5B46140C22001B041B0C5A430394BA
:1020A0006B434443029568431B19150CEB189C4283
:1020B00003D980246402A44660441C0C15041B044C
:1020C0002D0C20185D19814277D373D00C1AA24AC7
:1020D0007D1BAF42BF419446009B7F426344E01B9F
:1020E0001C00864200D1DBE00199FEF74DFA4A461A
:1020F00042430B04290C070019438A4207D9891966
:10210000013F8E4203D88A4201D9871E8919881A55
:102110000199FEF739FA09044A46894629044D46D1
:102120004243090C030029438A4207D98919013B1C
:102130008E4203D88A4201D9831E89193F04891A25
:102140003A00039F1A43380013041B0C584381467E
:102150000298150C6F43434345434846000C8446A0
:10216000DB1963449F4203D98020400284466544C2
:1021700048461F0C00041B04000C7D191818A942C6
:1021800000D284E000D17FE001231A4357E6802388
:102190004A461B0313431B031B0BAA466F4A6FE6F9
:1021A000BA4200D935E74B46DC0758087B081C4388
:1021B000FF0734E70024AF4289D247444745A44192
:1021C0005B466442A4196418013BA6421ED2A04299
:1021D0006DD800D1B6E0241A9B4678E703005A4632
:1021E000283B9A400027914688E65846FEF74CFB6C
:1021F000203072E603005246283B9A409346002264
:10220000B4E65046FEF740FB20309AE6A642E2D103
:10221000B845DCD9341A9B4659E71F2B65DC504C76
:102220000099A4465C46614408008C40110082403D
:10223000D940501E82410C4314435A46DA401300E1
:10224000620709D00F222240042A05D02200141D63
:102250009442894149425B181A0262D50122002347
:1022600000270DE68A4200D80AE7831E891907E78E
:102270000F231340042B00D1E6E5171D974292412E
:1022800053429B44FA08E0E5002800D1D7E57118D5
:10229000531EB14227D3A94215D358D01A0073E771
:1022A000002B00DC04E6012300229B44CDE5022341
:1022B0004744474589415B429C46494289190C196C
:1022C000E344241A03E743465F0047459B41B84671
:1022D0005B429E19023A8919A94200D054E7404551
:1022E00000D051E7ABE51A00F6E71F215F464942EF
:1022F0000C1BE740202B07D01A49009B8C466344F7
:1023000018005B4683401A43501E82413A43072718
:102310000023174009D00F21002311401400042985
:1023200095D122005F075B021B0BD20817430022E6
:10233000A6E5802359461B030B431B0317001B0B09
:10234000064A9DE5BD42B2D89B460024BFE68045C3
:10235000B9D31A00C3E7C046FF030000FF0700001F
:102360001E0400003E040000F0B54F464646D64627
:102370008446C0B58046194E18030F034D00000B6C
:102380005C0082463F0B6D0DC90F9146640DDB0F5B
:102390000120B5420AD0B44203D0A54201D157452D
:1023A0000CD01CBC90469946A246F0BD66463E4302
:1023B000F7D1AC42F5D154461443F2D10120C845BF
:1023C000EFD1994207D0002DEBD163461F4338006F
:1023D000471EB841E5E70020E3E7C046FF070000DD
:1023E000F0B54F464646D6464D00C0B50E03C90F60
:1023F0008A462C491F035C008046360B6D0D9146C2
:102400003F0B640DDB0F8D421ED08C4216D0002D89
:102410001ED130438446002C01D13A4323D062467A
:10242000002A1AD09A4529D0514602200139084085
:1024300001381CBC90469946A246F0BD39001143B4
:10244000E5D002204042F4E73043FAD1AC420FD04D
:10245000002C0FD13A43E7D00CE00122013B93431B
:1024600018000130E5E763460020002BE1D0DBE7F0
:102470003A43E6D19A45D7D1A542D5DCA54205DB42
:10248000BE42D1D808D00020BE42D2D2504601234D
:10249000013898430130CCE7C845C5D80020C8456D
:1024A000F4D3C6E7FF070000F0B54F464646D646D0
:1024B0004D00C0B50E03C90F8A462E491F035C00AC
:1024C0008046360B6D0D91463F0B640DDB0F8D4240
:1024D00018D08C4211D0002D18D130438446002CE6
:1024E0001ED13A431CD163460020002B30D0514608
:1024F00002200139084001382AE039001143EAD0AE
:10250000022025E03043FBD1AC4226D0002C26D15E
:102510003A4324D15146022001390840013817E0DE
:102520006246002A0FD09A45E1D1A54205DBBE42A2
:10253000DDD819D00020BE420AD25046012301380E
:102540009843013004E00122013B9343180001301D
:102550001CBC90469946A246F0BD3A43D0D19A455C
:10256000C5D1A542C3DCE0E7C845C0D80020C845B6
:10257000E3D3EDE7FF070000F0B55746DE464E46D1
:102580004546E0B5834606000F03480087B09246F3
:102590001D003F0B400DCC0F002800D16FE0DE4B3B
:1025A000984238D08023FF001B041F43730F3B4326
:1025B0000193DA4B0027994600239B46F60081449D
:1025C0002B0369001B0B52469846490DED0F00295D
:1025D00000D185E0D04B994200D173E04346DA0048
:1025E00080231B0413435246CC48520F84461343A6
:1025F000524600206144D200894421006940009184
:102600008C46012149448A460F2F00D990E0C449E5
:10261000BF00CF59BF465B463B43019300D06AE100
:1026200002230827002681469B46C9E73200584608
:10263000019B61460091022800D175E0032800D17A
:10264000FEE1012800D02CE1002300270026002510
:102650003F032A0D3F0BB34812053A4302401B05C6
:102660001343009A5B00D1075B080B43300019004D
:1026700007B03CBC90469946A246AB46F0BD5B46CF
:102680003B43019300D12FE1002F00D1A5E1380099
:10269000FEF7FAF803000B3B1C2B00DD96E11D2230
:1026A000D31A5A460100DA405E4608398F401300BB
:1026B0008E403B4301939C4B00271B1A99460023F5
:1026C0009B467DE7414653460B4393498C46E14484
:1026D000002B00D01AE102220220174300228CE7CF
:1026E000134300D10DE14346002B00D181E1404668
:1026F000FEF7CAF802000B3A1C2A00DD72E1010065
:10270000434608398B4098461D239A1A5346D340B6
:102710001A004346134352468A404946081A8249E2
:1027200089468144002068E77B4B002700268EE71E
:10273000140C1204120C1100370C3604350C7943BA
:1027400028008C462E006043604483465643210097
:10275000300C80465846794340440291844506D95E
:102760008846802149028C46E04441460291360465
:10277000010C360C00048B4681191E0C1B041B0C2B
:102780000391190079438C46280075436544A84697
:102790005843050C45447743A94203D98021490297
:1027A0008C466744290C8C4639000004000C2D042B
:1027B0002D186144AB4405915946049101990F04C9
:1027C0003F0C080C390051434243904602008C46AE
:1027D000090C8B4662437C4344445C44A04503D9C6
:1027E0008021490288464244210C884661460904FA
:1027F000090C8C4639005943434370437E430F0C08
:10280000F6182404BE19644442448C46B34203D9EA
:1028100080235B0298464044029B61469846049B95
:10282000370443449B46AB45AD416B420D040599CB
:102830002D0C8C467F196744FD18A8465D462D195E
:10284000A542A44193466442A446C344DC448F425B
:10285000BF4198459B4193459241A445A4415B42A9
:102860007F421F43360C52426442BF192243BF18B5
:10287000624638184302D20D039913436A020A4391
:10288000501E82416146ED0D2A434E023243D9016A
:1028900000D4B3E00126500832400243DE07324341
:1028A0005B08224C5444002C62DD510709D00F20F4
:1028B0001040042805D0101D9042924152429B18AE
:1028C0000200D90104D580241948E400034054448F
:1028D0001848844200DD27E75E075B02D2081F0B21
:1028E000630516435B0DB2E60023994601330427C6
:1028F00000269B4664E60323019781460C279B46EE
:102900005EE6012201201743002276E6032303201E
:102910001F43434671E6C046FF07000001FCFFFF6E
:1029200014990110FFFF0F800DFCFFFFFF03000053
:10293000FFFFFFFEFE0700000023802700933F03F8
:102940000026434B83E6019B3200A446584670E6BE
:10295000AC466EE6802701993F0339422DD03B42B9
:102960002BD11F433F033F0B00951600384B6EE6FB
:1029700001252D1B382D00DD66E61F2D40DC354876
:102980001C005044160082408440EE40501E82419C
:1029900034431443EB40620709D00F222240042A3B
:1029A00005D02200141D9442804140421B181A0297
:1029B0003ED501230027002649E68027019B3F03DF
:1029C0001F433F033F0B0094214B40E603005A4650
:1029D000283B9A40002601926DE65846FDF754FFC9
:1029E000203057E603005246283B9A40130000224D
:1029F00093E65046FDF748FF20307BE6CA4650E795
:102A00001F201E004042041BE640202D03D0124C24
:102A10005444A3401A43501E8241324307260027E4
:102A2000164009D00F200023104014000428B9D10B
:102A300022005E075B021F0BD2081643002306E646
:102A400080273F031F433F033F0B1600004BFEE56B
:102A5000FF0700001E0400003E040000F8B55746C2
:102A60004E464546DE460C000903E0B5490A460FCE
:102A70005F0031431E03DB0F760A9B46530F33433F
:102A8000C84E6500C000E40FD2006D0DA24681461D
:102A90007F0D9C469046B74200D1B9E05B460126C7
:102AA00073409B46EE1BA34500D183E0002E63DDFF
:102AB000002F00D0B1E06346134300D123E1731E21
:102AC000002B00D0BAE1861A6346B042804101254E
:102AD000C91A4042091A0B0200D447E149024B0AC5
:102AE00098464346002B00D189E14046FDF7CCFED5
:102AF0000300083B1F2B00DD7CE120223000D21AAE
:102B00004146D040994002009E400A439D4200DD6C
:102B10006AE15D1B6B1C1F2B00DD94E1202110007E
:102B20003500C91A8E40DA408840DD40711E8E4162
:102B3000110007222843002506433240002A09D00D
:102B40000F233340042B05D0331DB342B6417642E8
:102B500089191E000B0200D43DE26A1C914B5505F9
:102B60006D0D9A4200D119E18F4AF6080A405707C5
:102B700052023743120B9BE0002E00D0C5E06E1CC2
:102B80007605760D012E00DC48E16746861ACB1BE0
:102B9000B042BF417F42B8461F004346FF1A3B0088
:102BA000B8461B0200D55FE137439AD100220024CA
:102BB000002579E0002E00DCFAE0002F00D18DE046
:102BC000784B9D4267D0802367461B041F43BC4659
:102BD000382E00DC52E1634613435A1E93411E18FF
:102BE00086428041404209180B0200D4BEE06D4B82
:102BF00001359D4200D1D2E06B4A73080A400121A1
:102C00000E401E435108D30707221E43324095E76A
:102C10001E00164300D045E740E7624B9D423AD084
:102C2000802367461B041F43BC46382E00DDEBE0C3
:102C30001F2E00DC3AE133006746203BDF403B00BB
:102C4000202E05D04027BF1B6646BE40324390462B
:102C50004646721E96413343DAE0002B00D114E25F
:102C60006346134300D168E180234E07C008C908BA
:102C70001B030643194208D06046C008184204D11D
:102C800063460100D2085E071643F3009946C90067
:102C9000720F444D11434B46DE08424B4F073743FA
:102CA000CA089D4200D16EE012036D05120B6D0D36
:102CB00000211203130B0A0D12051A433B4B2D057D
:102CC00013402B435B00E4075B08234338001900E3
:102CD0003CBC90469946A246AB46F8BD63461343BA
:102CE00011D0731E002B00D007E186188642804168
:102CF00061444042091801250B0237D502257BE7C4
:102D00003E00614691463500C5E75C46002D00D087
:102D1000E1E00B000343F3D0731C00D1ACE1214B85
:102D20009F4200D13AE1F343382B00DD6FE11F2BC6
:102D300000DD8CE120250E00ED1AAE40B046060005
:102D4000AA46DE40454635432E005546D940A840A8
:102D50006346451EA8415B1A9C463043161AB24290
:102D6000924163465242991A3D00B4E6072232402E
:102D7000002A00D0E4E60B4BF6084F073743CA0899
:102D80009D4200D090E73B00134300D1A6E1802391
:102D90001B031A431203120B024D89E71500002290
:102DA000002785E7FF070000FFFF7FFFFFFF0F8081
:102DB000002E00D0C7E06B1C5E05760D012E00DCF6
:102DC000F0E0C84DAB4200D1B9E085180A00854259
:102DD00089416244494251180722CE076D082E43AB
:102DE000490832401D00A9E6BF49ED1A11400722EB
:102DF0003240A3E6320028388240002686E63000C2
:102E0000FDF742FD203073E6634613435A1E93419B
:102E1000C61AB04280414042091A5CE60E0067467D
:102E200006431743002D5ED1002E00D0F3E0002FA3
:102E300000D11EE15C46614691462CE7A94FBE4297
:102E40007BD01E00F1E610001F3DE840202B03D090
:102E50004021CB1A9A401643731E9E410722064317
:102E600032400021002583E7161A6346B2428041B2
:102E7000591A40420B1A98465C4632E61F2E00DD76
:102E8000ABE02027BB1B9A4663465746BB4099469A
:102E900013004F46F3401F433B005746BA40571EAE
:102EA000BA4113436246F240891898E62027BB1BBB
:102EB0009A4663465746BB40994613004F46F34037
:102EC0001F433B005746BA40571EBA411343624660
:102ED000F240891A9CE7834B9F425FD080252D04E6
:102EE0007342294320E7002E0CD1002F00D1D0E0FF
:102EF0005C46614691467B4DCDE67A4FBE421CD082
:102F00001E0065E6002F18D0C0084E07064380203B
:102F1000C9080003014208D06346DC08044204D11A
:102F20002100DA46D2085E071643F30099460124D1
:102F30005346C900720F11431C406A4DABE61D0099
:102F400000220027B4E6002D59D10B00034300D125
:102F5000D6E6731C00D1B2E0624B9F421ED0F34311
:102F6000382B6FDC1F2B00DD97E020250E00ED1ABB
:102F7000AE40B0460600AA46DE40454635432E0028
:102F80005546A840D940451EA8418C440643B61872
:102F900096429241514261443D0025E63D00614622
:102FA000914678E60B000343002D00D055E6002B38
:102FB000F5D06346134300D16DE686188642804102
:102FC00061444042091800220B0200D4D0E6464B6F
:102FD00001351940B2E5B1465DE633006746203B56
:102FE000DF403B00202E05D04027BF1B6646BE4079
:102FF000324390464646721E96413343EFE5394BC5
:103000009F42CBD080252D0473422943A8E7084373
:10301000411E8841A2E6002F00D13CE66346861A95
:10302000CF1AB0429B415B42FB1A98461B024ED519
:10303000161A6346B2429241591A5242891A5C46A4
:1030400000227BE501430E00711E8E419FE71D00AB
:103050000E00203DEE40B046202B04D04025EB1A58
:1030600099400843814648464346411E88411843DB
:1030700074E60022002417E6161A6346B242924113
:10308000591A5242891A3D0025E561469146154D6F
:1030900001E680220024120379E61D000E00203D87
:1030A000EE40B046202B04D04025EB1A994008434F
:1030B00081464E464346711E8E411E4367E7861881
:1030C00096429B4161445B42C9183D008CE54746EE
:1030D0003743CED007224146324049E600273A0026
:1030E000E6E5C046FF070000FFFF7FFF70B50C4E0E
:1030F0000D031C0349005B002D0B490D240B5B0DD8
:10310000B14208D0064900208B4203D1144320006D
:10311000441EA04170BD05430120002DFAD1F1E706
:10312000FF07000030B5144D0A034B00120B5B0D76
:10313000C90F0024AB4211DD104CA34210DC8024E7
:10314000640322430E4CE41A1F2C0CDD0D48C31AF5
:10315000DA4013005C42002900D11C00200030BD81
:10316000094BCC18FAE7094DE040AC4663449A405D
:1031700013000343EEE7C046FE0300001D040000F9
:103180003304000013040000FFFFFF7FEDFBFFFF8F
:1031900070B500282DD0C317C5185D40C40F280096
:1031A000FDF772FB154B1B1A5B055B0D0A2815DD3D
:1031B0000B38854000222D032D0B002110002D031C
:1031C0000A0D2D0B12052A430D4D1B052A401343F2
:1031D0005B00E4075B082343190070BD020029006F
:1031E000153291400A000B21081AC5402D032D0B02
:1031F000E3E70024002300250022DEE71E04000090
:10320000FFFF0F8010B5041E25D0FDF73DFB144BCA
:103210001B1A5B055B0D0A2812DD0B388440002267
:103220002403240B0021100024030A0D240B120593
:1032300022430C4C1B05224013435B00590810BD70
:1032400002002100153291400A000B21081AC440E7
:103250002403240BE6E7002300240022E2E7C04613
:103260001E040000FFFF0F804100090E4B1C70B5CB
:10327000DBB24602750AC40F012B14DDE0239B006C
:103280006D07360BCB1800210A0D280012051C4DC6
:1032900032435B052A405B0813435B00E4075B088D
:1032A0002343190070BD002914D1002D1ED0280021
:1032B000FDF7EAFA0A281CDC0B232A001B1ADA4065
:1032C000030015339D400F4B12031B1A5B05160BB1
:1032D0005B0DD8E7002D06D0320B802636036D0734
:1032E0001643094BCFE7084B0026CCE70023002606
:1032F000C9E703002A000B3B9A400025E3E7C046DC
:10330000FFFF0F8089030000FF070000F0B54C00AD
:10331000640D0B03621C5B0A460F5205C90F1E4366
:10332000C500520D012A29DD374BE718FE2F1CDCA2
:10333000002F3BDD8001431E98410722F3006D0FF3
:1033400003432B431A40002A04D00F221A40042AB8
:1033500000D004338022D2041A4024D00137FAB2BC
:10336000FF2F02D09B01580A01E0FF2200204002FB
:10337000D205400AC90710430843F0BD3543002C6D
:1033800004D1002D0AD100220020F0E7002DECD05E
:103390008020C0033043FF22E9E7002400235B02C2
:1033A000580AE2B2E3E7DB083C00F8E73B001733DA
:1033B000F3DB80231B0433431E26F61B1F2E14DD74
:1033C00002225242D71B1A00FA401700202E04D0C6
:1033D0000E4A94466444A3401D432B005D1EAB413E
:1033E00007223B431A400027ADE7094A2800A218EC
:1033F000954093406C1EA541F04007222B430343A8
:103400001A4000279FE7C04680FCFFFFA2FCFFFF99
:1034100082FCFFFF10B5002903D1FDF735FA2030FB
:1034200002E0081CFDF730FA10BDC046F0B54E466C
:103430005746DE464546E0B50F00002183B0060042
:103440008946002F06DA3900002746428F410121C4
:1034500049428946002B07DA4946C943100089468C
:103460001900002342428B4134003D0092469846A9
:10347000BB4269D866D041465046FFF7CBFF834632
:1034800039003000FFF7C6FF5B461B1A9C46203B05
:103490009B4600D575E05146584681400B00514689
:1034A000604681400A00BB4261D85ED034003D00D6
:1034B0005946A41A9D41002900DA7AE00021002033
:1034C00001260090019159468E40019661460126E1
:1034D0008E4061460096002950D0D90756085F08F3
:1034E0000E4363460EE0AF4201D1A6420CD8A41BA6
:1034F000BD41012124196D410022013B6418554151
:10350000002B06D0AF42EED9013B24196D41002BB0
:10351000F8D1009801995B4600196941002B3DDB09
:103520002E00DE4063462C00DC405B46002B4BDB6C
:1035300034005D46AC4023006446A6403200801A49
:10354000994103E0B24296D9002000214B46002B5E
:1035500004D003000C0000215842A14103B03CBC40
:1035600090469946A246AB46F0BDB1429ED9002195
:1035700000200090019161460029AED10098019988
:10358000E4E72023624651469B1AD9404046009109
:1035900061468840030000990B4380E76246202380
:1035A0009B1A2A009A40260013006246D6401E430A
:1035B000B8E7614620260127761A00200021F7404F
:1035C00000900191019781E767462023624635000C
:1035D000BC409B1ADD4023002B43ADE7024670B58B
:1035E0000A4392072AD11E4DEE0104C808C9541B94
:1035F0009443344017D0D0B2D9B2401A21060143C7
:1036000010D190B299B2401A210401430AD110029C
:103610001902000A090A401A2102014302D1100EC0
:10362000190E401A70BD9A42DFD010BA19BA8842FA
:1036300001D9012070BD0020C04370BD02780B7815
:1036400001300131002A09D09A4207D102780B7863
:1036500001300131002A01D09A42EFD0D01A70BD5A
:043660000101010162
:10366400074A80211300490010680842FCD08022D8
:1036740052009968114201D1D968FAE77047C046EF
:0436840000C004403E
:02368800704789
:10368A0070B505000C00081E07D011F0E4F92B688C
:0C369A0002005B6821002800984770BD0A
:1036A80010B5040002490CF087FC200010BDC0468C
:0436B800140C0000EE
:1036BC000123344A5B4212184B4130B51400002BE5
:1036CC0002D1314B9C424DD90123304A5B42121836
:1036DC004B411400002B02D12D4B9C4244D90123A9
:1036EC002C4A5B4212184B411400002B02D1284B80
:1036FC009C423BD90123284A5B4212184B411400CF
:10370C00002B02D1224B9C4232D90123234A5B422B
:10371C0012184B411400002B02D11D4B9C4229D98D
:10372C0001231F4A5B4212184B411400002B02D19B
:10373C00174B9C4220D901231A4A5B4212184B4169
:10374C001400002B02D1124B9C4217D90123164AAC
:10375C005B4280185941002902D10D4B98420FD978
:10376C000A2030BDA020FCE75020FAE72820F8E71B
:10377C001E20F6E71420F4E71120F2E70F20F0E703
:10378C000C20EEE7C088E4FFA08601002098CAFF59
:10379C00E0930400403095FF806967FF80602AFF4A
:0C37AC008057EDFEC090BFFE00CA91FEE9
:1037B800F0B516000D000C4F85B0039001213800BC
:1037C8001C0004F085FA0A2006F0DEFA33002A000D
:1037D800012003990090234022402140380004F042
:0C37E8008BFA05B0F0BDC0463C2A002062
:1037F40010B5040006F054FB03000120002B0DD18A
:10380400FA21074B89009A6A5218996A8A42FCD8AD
:10381400200006F045FB431E9841C0B210BDC046CF
:04382400004005401B
:1038280000231800034A590001338852302BFAD17B
:083838007047C046BC3A0020B5
:10384000F8B5154CC0222100144801F0C1FF144DF9
:103850002870002802D100232B70F8BD21003020F1
:103860000024104E4F780A78CB783F02D7198A7817
:103870001B02D21812B23FB2BF18FB0F4200DB1975
:10388000B21A5B1060320138E4181380043100284A
:10389000E8D1002CDFD0E0E7A53C00204C2600203A
:0838A000A43C0020BC3A00200A
:1038A800F7B50F4C0700238801910E4E0E4DBF2B24
:1038B80007D9C02231000D4802F002F800232B80FE
:1038C800238068462B8821885A00B7525A1C808862
:1038D80092B2520002330431B0522B802180F7BDDE
:1038E8001C3B0020223B0020E23B00204C2600200D
:1038F800002110B5034BFF221B780800FFF758FF83
:0839080010BDC04610020020B2
:1039100030B5802418230020064964008A682242BA
:10392000FCD1CA68044D013B5219101800B2002B9B
:0C393000F4D130BD00C0044017FDFFFFC3
:10393C00002330B5174C87B000930122164B102191
:10394C00200004F0B5F9154D15492A0020000CF0A3
:10395C00DBF86021134802F07BFE134B134C9A6A80
:10396C00134B01211A6080235B000593114B124A03
:10397C000493124B009203930A230293083B019386
:10398C00200002F07BFD2A000D4920000CF0BCF851
:10399C0007B030BD3C2A002000002050000200205F
:1039AC008936001068150020004005404C26002088
:1039BC00AC3A00201111000080BB0000B87B000065
:0439CC004D61001039
:1039D00037B500200CF078FC02000B001F4920488E
:1039E0000C684D68121BAB411E4C02604360210005
:1039F0000FF082FF23681C4D00936368A2681B4987
:103A0000280010F08FFF1A4C2900200011F020F838
:103A10001849200010F0F4FF200011F021F8164A98
:103A20001649001910F07EFF200011F019F8144B10
:103A300000191A68134910F075FF134D2100280072
:103A4000FFF723FE280004F0FFF900220F4B1100BE
:103A50001B78FF20FFF7B0FE37BDC046F0150020F1
:103A600060100020883A0020EF3F0020E69A011005
:103A7000EA3D0020F89A0110439C0110FA9A0110C7
:103A8000D4280020B99A01105C1C002010020020EC
:103A900037B500200CF018FC02000B001F4920482D
:103AA0000C684D68121BAB411E4C02604360210044
:103AB0000FF022FF23681C4D00936368A2681B4926
:103AC000280010F02FFF1A4C2900200010F0C0FF32
:103AD0001849200010F094FF200010F0C1FF164A92
:103AE0001649001910F01EFF200010F0B9FF144B0A
:103AF00000191A68134910F015FF134D2100280012
:103B0000FFF7C3FD280004F09FF9FF210F4B0022AF
:103B10001B780800FFF750FE37BDC046F0150020A7
:103B200060100020883A0020EF3F0020E69A011044
:103B3000EA3D0020F89A01103C9C0110FA9A01100D
:103B4000D4280020A39A01105C1C00201002002041
:103B500073B500200CF0B8FB02000B002749284881
:103B60000C684D68121BAB41264C0260436021007B
:103B70000FF0C2FE2368244D00936368A2682349B6
:103B8000280010F0CFFE224C2900200010F060FF2A
:103B90002049200010F034FF200010F061FF1E4A81
:103BA0001E49001910F0BEFE200010F059FF1C4EF7
:103BB000001932781B4910F0B5FE1B4D210028007A
:103BC000FFF763FD280004F03FF90A25FF2433784E
:103BD000002221002000FFF7EFFD642006F0D8F856
:103BE0003378220021000020FFF7E6FD013D64202C
:103BF00006F0CEF8002DEAD173BDC046F0150020C6
:103C000060100020883A0020EF3F0020E69A011063
:103C1000EA3D0020F89A0110899C0110FA9A0110DF
:0C3C200010020020F79B01105C1C00202B
:103C2C00F0B50A2385B00600032802D8464B4200A3
:103C3C00D35A464A464F13800023464A00203A6026
:103C4C007B600CF03BFB444B5C681B68C01AA141C9
:103C5C0002930394414C424B1860596021001800A8
:103C6C000FF044FE23683F4900936368A2683E4806
:103C7C0010F052FE3D4D3C49280010F0E3FE3C494B
:103C8C00280010F0B7FE280010F0E4FE394A3A493B
:103C9C00401910F041FE280010F0DCFE39687A68FB
:103CAC002A4B40191B88009101923200334910F0C5
:103CBC0033FE334E29003000FFF7E1FC300004F0F6
:103CCC00BDF80320FFF712FE00200CF0F7FA224B90
:103CDC001A685B68801A9941214B18605960210061
:103CEC0018000FF003FE23681E4900936368A26856
:103CFC001D4810F011FE1C49280010F0A3FE1C49B1
:103D0C00280010F077FE280010F0A4FE194A1A497A
:103D1C00401910F001FE280010F09CFE39687A68FA
:103D2C000A4B40191B8800910192164A16491268D9
:103D3C0010F0F2FD29003000FFF7A1FC300004F078
:103D4C007DF805B0F0BDC04654990110B43A00207E
:103D5C00080200201060AC01F0150020883A002009
:103D6C0060100020E69A0110EF3F0020EA3D002091
:103D7C00F89A01105A9C0110FA9A0110629B0110DA
:0C3D8C005C1C002004020020819B011040
:103D9800F7B5060000200F000CF092FA02000B00A5
:103DA800334934480C684D68121BAB41324C0260F1
:103DB800436021000FF09CFD2368304D0093636839
:103DC800A2682F49280010F0A9FD2E4C29002000D8
:103DD80010F03AFE2C49200010F00EFE200010F0E2
:103DE8003BFE2A4A2A49001910F098FD200010F0DD
:103DF80033FE284D00192A686B6827490092019301
:103E080032003B0010F08AFD21002448FFF739FCFE
:103E1800224804F015F83000390064220023FCF72A
:103E280091FD0B0000211E4C02000091200003F0C0
:103E3800C5FA2A686B6830003900801A99416422F3
:103E48000023FCF77FFD0B000121020000912000F8
:103E580003F0B4FA2868696864220023FCF772FD4D
:103E68000B00022102000091200003F0A7FAF7BD21
:103E7800F015002060100020883A0020EF3F002055
:103E8800E69A0110EA3D0020F89A0110279C0110DB
:103E9800FA9A0110001000208F9A01105C1C002073
:043EA8006815002079
:103EAC000023F0B51A0085B080216D4803F03AF973
:103EBC006C4E03906C4C002800D0A2E00CF0FEF984
:103ECC0022686368801A9941684D306071602900DE
:103EDC0030000FF00BFD2B68654F00936B68AA68E0
:103EEC006449380010F018FD634D3900280010F0BB
:103EFC00A9FD6249280010F07DFD280010F0AAFDF4
:103F0C005F49604A401910F007FD280010F0A2FD2F
:103F1C005D49401910F096FD290000255B4F3800D3
:103F2C00FFF7ADFB380003F089FF594900224C48DC
:103F3C0002F092FF12230095564A494802F02AFFDC
:103F4C0029000322464802F0FDFF2A0029004448BC
:103F5C0002F0E2FF2A000121414802F0F3FF0122A6
:103F6C003F48110002F0D8FF2A0002213C4802F021
:103F7C00E9FF012202213A4802F0CEFF464B1868B5
:103F8C005968FFF703FF28000CF098F92268636862
:103F9C00801A9941354C30607160210030000FF06F
:103FAC00A5FC2368324D00936368A2683149280050
:103FBC0010F0B2FC304C2900200010F043FD2F49CA
:103FCC00200010F017FD200010F044FD2D4A2C4964
:103FDC00001910F0A1FC200010F03CFD039B00190F
:103FEC002E4A002B00D12E4A2E4910F095FC274D5D
:103FFC0021002800FFF743FB280003F01FFF05B04A
:10400C00F0BD00200CF05AF922686368801A9941BF
:10401C00164D30607160290030000FF067FC2B6882
:10402C00134F00936B68AA681249380010F074FCA7
:10403C00114D3900280010F005FD1049280010F032
:10404C00D9FC280010F006FD0D490E4A401910F05D
:10405C0063FC280010F0FEFC134940195AE7C046D7
:10406C006815002060100020F0150020883A002010
:10407C00EF3F0020E69A0110EA3D0020F89A01106B
:10408C00FA9A01100E9C01100A9A01105C1C002077
:10409C00E8D1FFFF00205FA008020020FF9901106B
:0C40AC00049A0110549A01102D9A011082
:1040B80037B500211A2005F08DFE0221082005F0F1
:1040C80089FE0121022005F085FE0021022005F06D
:1040D800BFFE00200CF0F4F802000B001A491B4840
:1040E8000C684D68121BAB41194C026043602100FB
:1040F8000FF0FEFB2368174D00936368A26816490A
:10410800280010F00BFC154C2900200010F09CFC36
:104118001349200010F070FC200010F09DFC114A9B
:104128001149001910F0FAFB200010F095FC0F4916
:10413800001910F089FC0E4D21002800FFF7A1FAA4
:10414800280003F07DFE37BDF01500206010002028
:10415800883A0020EF3F0020E69A0110EA3D00204F
:10416800F89A01104A9C0110FA9A0110CF9A01108E
:044178005C1C0020AB
:10417C0037B50CF011FFE021274AC9011368002064
:10418C000B4026490B60F9231B021361244B1A6860
:10419C0001235340234A1340234A13600822234B24
:1041AC001A600CF08BF802000B00214921480C68B6
:1041BC004D68121BAB41204C0260436021000FF094
:1041CC0095FB23681D4D00936368A2681C49280069
:1041DC0010F0A2FB1B4C2900200010F033FC1A49F4
:1041EC00200010F007FC200010F034FC174A18498E
:1041FC00001910F091FB200010F02CFC154900194F
:10420C0010F020FC144D21002800FFF738FA28008C
:10421C0003F014FE37BDC04600C0044000D004407B
:10422C0008C004400F00000F08D0044000E0044018
:10423C00F015002060100020883A0020EF3F00208D
:10424C00E69A0110EA3D0020F89A0110759C0110C5
:0C425C00FA9A0110D49B01105C1C002099
:1042680037B5FFF7E9FA294B1B78002B3FD001221D
:104278000020274B1A60274B18600CF021F8020029
:104288000B00254925480C684D68121BAB41244C8E
:104298000260436021000FF02BFB2368214D00933F
:1042A8006368A2682049280010F038FB1F4C2900D9
:1042B800200010F0C9FB1E49200010F09DFB2000D3
:1042C80010F0CAFB1B4A1C49001910F027FB2000FC
:1042D80010F0C2FB1949001910F0B6FB184D210067
:1042E8002800FFF7CEF9280003F0AAFD37BDFFF735
:1042F8000BFB0625134B1C88041B24B2210020004D
:10430800013DFFF7CDFA002DF8D1EFE7A43C0020DE
:104318001C160020D0380020F01500206010002066
:10432800883A0020EF3F0020E69A0110EA3D00207D
:10433800F89A01107F9C0110FA9A0110E99B01106C
:084348005C1C0020B23A0020C9
:104350007FB5364E029003913468354D002C54D110
:104360000121022005F078FDFFF732FB2200280032
:10437000012102F0D7FD22002800022102F0D2FD27
:1043800001222100280002F0CDFD0123200033602E
:104390000BF09AFF02000B00264927480C684D6875
:1043A000121BAB41254C0260436021000FF0A4FAC0
:1043B0002368234D00936368A2682249280010F007
:1043C000B1FA214C2900200010F042FB1F492000C7
:1043D00010F016FB200010F043FB1D4A1D49001988
:1043E00010F0A0FA200010F03BFB1B49001910F060
:1043F0002FFB1A4D21002800FFF747F9280003F092
:1044000023FD0822164B1A607FBD164964220868F6
:1044100049680023FCF79AFA029A039B12184B4151
:1044200000212800009102F0CDFFEDE720160020CA
:1044300068150020F015002060100020883A002048
:10444000EF3F0020E69A0110EA3D0020F89A0110A3
:10445000629C0110FA9A0110A89B01105C1C0020BC
:0844600000F0044008020020F6
:10446800F0B5002085B00BF02BFF7B4B5C681B6818
:10447800C01AA14102930394784C794B1860596093
:10448800210018000FF034FA236876490093636816
:10449800A268754810F042FA744E7349300010F063
:1044A800D3FA7349300010F0A7FA300010F0D4FAAC
:1044B800704A7149801910F031FA300010F0CCFAC6
:1044C8006E4D6F492A68801910F028FA31006D483E
:1044D800FFF7D7F86B4803F0B3FC2B68002B65D0C7
:1044E80000226948110002F019FD684F64223868FB
:1044F80079680023FCF726FA0B00002102000091DE
:10450800614802F05BFF38687968614B01271A68D7
:104518005B68801A994164220023FCF713FA00971C
:104528000B000200584802F049FF3A00390056488B
:1045380002F0F4FC3A000221534802F0EFFC00219B
:10454800080029600BF0BCFE434B1A685B68801AB0
:104558009941434B18605960210018000FF0C8F9C1
:104568002368404900936368A2683F4810F0D6F971
:104578003D49300010F068FA3D49300010F03CFA2F
:10458800300010F069FA3B4A3B49801910F0C6F92F
:10459800300010F061FA3F49801910F055FA3100E7
:1045A8003848FFF76EF8374803F04AFC00200BF054
:1045B80087FE02000B00284929480C684D68121B29
:1045C800AB41264C0260436021000FF091F923684B
:1045D800254D00936368A2682249280010F09EF9CF
:1045E800224C2900200010F02FFA2149200010F059
:1045F80003FA200010F030FA1E4A1F49001910F083
:104608008DF9200010F028FA204B23491A685B68BE
:10461800001910F083F91B4D21002800FFF731F82D
:10462800280003F00DFCFFF72FFA0021022005F007
:104638000FFC00231A001949580001334252302B4D
:10464800FAD1174B1A80174B1A80FFF707F8082280
:10465800154B1A6005B0F0BDF0150020883A00200F
:1046680060100020E69A0110EF3F0020EA3D00208C
:10467800F89A0110529C0110FA9A01102016002095
:10468800369B01105C1C00206815002008020020E1
:1046980000100020449B0110499B0110BC3A0020E7
:0C46A8001E3B00201C3B002000E00440F2
:1046B4000B4B10B51B68012B11D00820FFF798F89D
:1046C40000280CD1074B002118600748FFF73EFE75
:1046D4000820FFF78DF80028FAD0FFF7C3FE10BDBD
:0C46E400D428002020160020F04902001D
:1046F000F0B5B14B93B01B780493002B00D185E14A
:1047000000242600AD4B089400229B5E099403937D
:10471000AB4B1B681193AB4B00255D5FAA4B00228E
:104720009B5E0793A94B1F68A94B00229B5E0593D4
:10473000099B5A00A74BD35E0693039B002B00DB1B
:10474000D2E0069B002B00DAF4E00398FCF764FF4C
:10475000069B1090002B5AD1FEF786FD0A900B9114
:104760000798FCF759FFFEF77FFD9B4A0C900D91CF
:104770000A980B99994BFDF7FFFE0C9A0D9BFEF7DB
:104780006DF900220023FCF71DF800282FD0089BAC
:10479000002B03D06A468E4B928A1A80002E00D1DD
:1047A0007DE16A46884B928B1A80002C03D0874BA0
:1047B0001F60002E05D06A46824B92891D807F4B78
:1047C0001A80002200200021854B1A60854B18605A
:1047D0005960834B7E4C1B68002B00D0ADE02380DA
:1047E000FFF742FE13B0F0BD069B0393A0E77E4A9D
:1047F0007E4B0A980B99FDF7BFFE0C9A0D9BFEF7B6
:104800002DF900220023FBF7F1FF0028BFD1069B02
:10481000039A981A00B2FCF7FFFE011C1098FCF7EF
:104820000DFA0790381CFEF71FFD0022704BFCF7B5
:104830007DFF060028000F00FCF7EEFEFEF714FDDA
:1048400002000B0030003900FCF770FF04000798ED
:104850000D00FEF709FD02000B0020002900FEF705
:10486000FDF8FEF753FDFEF7FFFC02000B000020F1
:104870006049FDF777FAFCF7C9F801235E4A5B420D
:1048800012184B411400002B0CD15C4B9C4209D8F0
:10489000059B9A005A4BD050059B01331BB20593E0
:1048A000049B08930025049C079F099B049E0133E9
:1048B0000993039B0793099B302B95D1089B002BF1
:1048C00003D06A46424B928A1A806A463E4B9289CE
:1048D0001A80002C01D03D4B1F606A46394B128B69
:1048E0001D80364B1A8074E7119B012B22D1069B49
:1048F000039A13431BB2002B1CD1089B002B03D03F
:104900006A46334B928A1A80002E0FD06A462E4B8D
:10491000928B1A80002C04D02C4B1F60002E00D1EB
:104920004FE7284B00221D80244B49E7002C00D183
:1049300047E7F1E701352DB2B7E70022A35E002B70
:104940002FDD05F015FA2F4B1B68C01A052828D952
:104950000023E25E002000230021294F9A420ADD55
:104960009D007D5901330E95ED170F950E9D0F9EFD
:1049700040197141F2E7D317FBF7A4FF194D060068
:104980002B680F00C31ADA179B1853400A2B01DD5E
:10499000FFF7DEFC0023238005F0EAF9194BC0C5C0
:1049A00018600122064B1A6005F0E2F9164B1860F8
:1049B000FEF746FF16E7C046A43C0020BA3A0020A6
:1049C000D0380020203B0020B83A00208C2900205D
:1049D000B63A0020BC3A0020CDCCCCCCCCCCFC3FAD
:1049E0001C16002058100020295C8FC2F5280040BA
:1049F0000000F03F804F5241DFB1FFFFBE45040091
:104A000004290020241600202816002005F0B0F903
:104A1000254B1B68C01A3228CAD9049A234B049824
:104A20001A606A46224B128A1A800BF04DFC020073
:104A30000B00204920480C684D68121BAB411F4CED
:104A40000260436021000EF057FF23681C4D009365
:104A50006368A2681B4928000FF064FF1A4C290004
:104A600020000FF0F5FF194920000FF0C9FF2000CA
:104A70000FF0F6FF164A174900190FF053FF2000F8
:104A80000FF0EEFF144900190FF0E2FF134D210063
:104A90002800FEF7FAFD280003F0D6F9A0E6002C66
:104AA00000D18EE683E6C046281600201C160020A2
:104AB000B63A0020F015002060100020883A00204F
:104AC000EF3F0020E69A0110EA3D0020F89A01101D
:104AD0001A9C0110FA9A0110449B01105C1C0020E2
:104AE000F0B51E001400C94F99B002900D001000DF
:104AF00039000FF0ADFF390030000FF0A9FF029B25
:104B000020001B782370029B5B7863700023A370E6
:104B10000FF0A6FF039002980FF0A2FF039B39004D
:104B2000834201D0029B991C30000FF091FF2000BE
:104B30000FF096FF01283BD800200BF0C5FB0200C8
:104B40000B00B349B3480C684D68121BAB41B24C23
:104B50000260436021000EF0CFFE2368AF4D00934A
:104B60006368A268AE4928000FF0DCFEAD4C290056
:104B700020000FF06DFFAC4920000FF041FF200036
:104B80000FF06EFFA949AA4A00190FF0CBFE2000D2
:104B90000FF066FFA74900190FF05AFFA64D21003C
:104BA0002800FEF772FD280003F04EF9002087E090
:104BB000A2492000FEF712FD071E6BD13378002BAF
:104BC00025D005A90A22300010F036F8390004007B
:104BD000FEF774FD002872D00322994B39001A6049
:104BE000984B1880984B200090C3FFF7D5F8FEF73C
:104BF00039FDFEF78DFE954B188005F0B9F8944B02
:104C0000186005F0B5F8934B1860FFF72DFC8E4B3C
:104C10008A491C6812A804F04AFF8F4909A804F0C9
:104C200046FF0A2221000CA804F072FF0B230E9A03
:104C300009A99B1A0FA8002204F0E6FF0FA912A8E9
:104C400004F0C6FF06000A22210015A804F060FF48
:104C500015A9300004F0BCFF804904F0C6FF010034
:104C600006A804F077FF15A804F0D2FE0FA804F000
:104C7000CFFE0CA804F0CCFE09A804F0C9FE12A8CF
:104C800004F0C6FE069928000FF0E2FE06A804F024
:104C9000BFFE14E072492000FEF7A0FC7149002815
:104CA0002BD071492000FEF799FC00280AD16F49EA
:104CB00028000FF0CDFE6E480021FFF749FB0120D0
:104CC00019B0F0BD6B492000FEF788FC002806D122
:104CD000694928000FF0BCFEFFF7C6FBEFE7674904
:104CE0002000FEF77BFC6649002806D065492000BD
:104CF000FEF774FC002804D1634928000FF0A8FED9
:104D0000DDE7624E20003100FEF768FC071E00D090
:104D1000D0E05F4B31001C6812A8012C3CD104F09C
:104D2000C6FE4D4909A804F0C2FE474E0A2231686A
:104D30000CA804F0DBFE0B230E9A09A99B1A0FA8FE
:104D40003A0004F061FF0FA912A804F041FF070028
:104D50000A22316815A804F0C9FE15A9380004F02C
:104D600037FF4C4904F041FF4B4904F03EFF4B49EB
:104D700004F03BFF4A4E310004F037FF310004F0ED
:104D800034FF310004F031FF464904F02EFF46495C
:104D900004F02BFF454960E704F089FE2E4909A87D
:104DA00004F085FE284C0A2221680CA804F09EFE1F
:104DB0000B230E9A09A99B1A0FA83A0004F024FFAE
:104DC0000FA912A804F004FF06000A22216815A802
:104DD00004F08CFE15A9300004F0FAFE2D4904F011
:104DE00004FF2D4904F001FF2C4904F0FEFE2C4C79
:104DF000210004F0FAFE210004F0F7FE210004F087
:104E0000F4FE284904F0F1FE2949C1E7FE9901109A
:104E1000F015002060100020883A0020EF3F0020AD
:104E2000E69A0110EA3D0020F89A0110FA9A011062
:104E3000029C01105C9901105C1C00207899011003
:104E400004020020B43A002008020020B23A0020F8
:104E500014160020181600207B990110C09901102B
:104E6000879901108A9901108F9901109299011068
:104E7000F0490200979901109A9901109F99011029
:104E8000A2990110A9990110AC990110B1990110D2
:104E90002016002082990110B49901108199011007
:104EA0008599011084990110B6990110B9990110E2
:104EB000C299011020492000FEF790FB1F490028ED
:104EC00000D11AE71E4928000FF0C2FD00200BF0A8
:104ED000FBF906000F001B4B1B4C1A685B68B61AE7
:104EE0009F411A482100066047600EF005FD2368C7
:104EF000174E00936368A268164930000FF012FD48
:104F0000154C310020000FF0A3FD144920000FF0D4
:104F100077FD20000FF0A4FD114A124900190FF08F
:104F200001FD20000FF09CFD2B000019029A0E4994
:104F30000FF0F8FC32E6C046C5990110C89901107F
:104F4000A2990110F0150020883A0020601000207E
:104F5000EF3F0020E69A0110EA3D0020F89A011088
:0C4F6000029C0110FA9A0110CD9901107A
:104F6C00F7B5E1217C48490203F0AEF964217A4897
:104F7C0004F034FD784802F061FF00200BF09EF93C
:104F8C00764E774F33687468C01AA141754C3860FF
:104F9C007960210038000EF0A9FC23687249009357
:104FAC006368A26871480FF0B7FC714D6F49280017
:104FBC000FF048FD6F4928000FF01CFD28000FF082
:104FCC0049FD6D4A40196D490FF0A6FC28000FF001
:104FDC0041FD6B4A6B4B40196B490FF09DFC29004E
:104FEC005D48FEF74CFB5C4802F028FFFFF75EF8CB
:104FFC00FEF7A8FD654B186880B2FEF711FEFFF7AF
:10500C00B7F8FEF74DFF00200BF058F932687368C3
:10501C00801A994138607960210038000EF066FCE6
:10502C002368514900936368A26850480FF074FCE0
:10503C0028004E490FF006FD4E4928000FF0DAFC0F
:10504C0028000FF007FD4C4A40194C490FF064FC46
:10505C0028000FF0FFFC4E4940190FF0F3FC29001B
:10506C003D48FEF70CFB3C4802F0E8FEFEF7D6FB91
:10507C0000200BF023F932687368801A994138606C
:10508C007960210038000EF031FC2368364900931A
:10509C006368A26835480FF03FFC280033490FF0D5
:1050AC00D1FC344928000FF0A5FC28000FF0D2FCED
:1050BC00314A401931490FF02FFC28000FF0CAFC7F
:1050CC00344940190FF0BEFC29002348FEF7D7FAEB
:1050DC00214802F0B3FEFA20400004F053FEFEF724
:1050EC00BBFAFEF70FFC2C4B1880FFF7B7F900202A
:1050FC000BF0E4F832687368801A99413860796073
:10510C00210038000EF0F2FB236817490093636806
:10511C00A26816480FF000FC280014490FF092FC0E
:10512C00144928000FF066FC28000FF093FC124A7B
:10513C00401912490FF0F0FB28000FF08BFC1749B7
:10514C0040190FF07FFC29000348FEF798FA02483B
:10515C0002F074FEF7BDC0465C1C0020F015002068
:10516C0060100020883A0020E69A0110EF3F0020E2
:10517C00EA3D0020F89A0110369C0110FA9A0110B1
:10518C00939C011084990110979C0110040200203B
:10519C00C69C0110DF9C0110B23A0020019D011049
:1051AC00F0B5C74D8BB0280002F09EFF041E00DC4A
:1051BC0090E0C44B1A68002A03D101321A60FFF741
:1051CC004DF9022C00DC85E0BF4F2200390028008D
:1051DC0004F006FC01287DDD0023BC4C3B54200070
:1051EC000FF038FC00230600380003930FF032FC5C
:1051FC00039B984209D9FB5C1A00203A3F2A01D83C
:10520C00A3550136039B0133EEE700272000A75579
:10521C000FF020FC2018013803783B2B5AD1AC49F5
:10522C002000FEF7D5F90600B84255D1A948002157
:10523C00FFF788F8A849A9480FF004FCA7492800F3
:10524C0004F07AFB30000BF039F806000F00A44B89
:10525C00A4481A685B68B61A9F4106604760A24E64
:10526C0031000EF043FB3368A04F00937368B268B3
:10527C009F4938000FF050FB9E4E390030000FF064
:10528C00E1FB9D4930000FF0B5FB30000FF0E2FB65
:10529C009A4A9B4980190FF03FFB30000FF0DAFB64
:1052AC0007008E480FF0D6FB8C4A03009549B819BD
:1052BC000FF032FB31002800FEF7E1F9280002F074
:1052CC00BDFD914D854829000FF0BCFB2900200045
:1052DC000FF0B8FB0BB0F0BD8C492000FEF778F94D
:1052EC00061E02D1FFF7BAF8A4E7874C88482100C4
:1052FC000FF0A8FB210087480FF0A4FB3E003C00F8
:10530C00724D28000FF0A6FBB84200D808E1EA5D08
:10531C003B2A00D0CEE07C4905A80FF093FB7A49DC
:10532C0006A80FF08FFB06AB05AA6C497848FFF76F
:10533C00D1FB041E4DD1624F6849380004F0FCFAD1
:10534C0020000AF0BBFF664B674C1A685B68801A3A
:10535C009941644E30607160210030000EF0C6FA45
:10536C002368624E00936368A268614930000FF0B5
:10537C00D3FA604C310020000FF064FB5E49200032
:10538C000FF038FB20000FF065FB5C4A5C490019FC
:10539C000FF0C2FA20000FF05DFB06004F480FF033
:1053AC0059FB4E4A0300574930190FF0B5FA21004A
:1053BC003800FEF764F9380002F040FD524928002D
:1053CC000FF040FB504952480FF03CFB4E4943480C
:1053DC007EE7514905A8FEF7FBF8504E002863D133
:1053EC003478002C16D03070474949480FF02AFB0E
:1053FC0045493A480FF026FB434C454821000FF035
:10540C0021FB210035480FF01DFB3E000023013726
:10541C001C0075E731492A4804F08EFA20000AF086
:10542C004DFF04000D002E4B2E481A685B68A41A21
:10543C009D41046045602C4C21000EF057FA236806
:10544C002A4D00936368A268294928000FF064FA7A
:10545C00284C290020000FF0F5FA274920000FF006
:10546C00C9FA20000FF0F6FA244A254900190FF06A
:10547C0053FA20000FF0EEFA050018480FF0EAFA84
:10548C00164A03001F4928190FF046FA21000C4850
:10549C00FEF7F5F80A4802F0D1FC1B491D480FF045
:1054AC00D1FA01233370A7E70C491A480FF0A2FA7E
:1054BC000023F7E71649631C0A550022CA54A6E7D5
:1054CC005C1C0020D4280020643C00206D3F002090
:1054DC00AD9B0110F0490200A2990110243C002060
:1054EC00F015002060100020883A0020EF3F0020CB
:1054FC00E69A0110EA3D0020F89A01106B9C01100D
:10550C00FA9A0110B49B0110FE990110CD9B011069
:10551C00E43B0020ED3E002078990110EA3E00208B
:10552C00344C2100B04201D0711C491928000FF0F5
:10553C0089FA314D2B78002B51D029002F4804F0DB
:10554C00FBF900200AF0BAFE02000B002C492D4892
:10555C000E684F68921BBB412B4E026043603100BA
:10556C000EF0C4F93368294F00937368B268284968
:10557C0038000FF0D1F9274E390030000FF062FAE5
:10558C00254930000FF036FA30000FF063FA234A49
:10559C00234980190FF0C0F930000FF05BFA0700B7
:1055AC0028000FF057FA2A0003001E49B8190FF013
:1055BC00B3F931001148FEF762F8104802F03EFCD6
:1055CC00194905A8FEF704F8002805D0174905A8C5
:1055DC00FDF7FEFF002802D1322004F0D3FB21009E
:1055EC0005480FF02FFA210011480FF02BFA21007B
:1055FC00EDE6C046FE990110ED3E00205C1C00203B
:10560C00F015002060100020883A0020EF3F0020A9
:10561C00E69A0110EA3D0020F89A01106B9C0110EB
:10562C00FA9A0110B49B0110979901108F990110EF
:04563C00E43B00202B
:1056400010B5FFF737F8FFF7B1FD054B1B68002BCE
:1056500002D1FEF709FE10BDFFF74AF8FBE7C0468E
:045660001C160020F4
:0256640070478D
:0256660070478B
:02566800704789
:0E566A000023994201D10300C6331800704797
:045678000220704755
:08567C0000487047C29E0110B6
:0856840000487047AC9E0110C4
:0A568C0010B50C220EF004FE10BD54
:1056980010B50400024B036007F084FB200010BD26
:0456A800489D011008
:1056AC0010B50400FFF7F2FF200038210AF082FC4D
:0456BC00200010BDFD
:1056C00010B50400024B036007F070FB200010BD12
:0456D000309D0110F8
:1056D40010B50400FFF7F2FF200034210AF06EFC3D
:0456E400200010BDD5
:1056E800F8B504000F0015001E0003F097F8042316
:1056F800FF212B70FA88237911409C46002099429B
:1057080013D36379634499420FDA797801290CD16C
:1057180080239B009A4208D1FF22BB88134204D100
:105728001B12012B02D0022B10D0F8BDFA78012AE7
:1057380006D0812AF9D1143434602B701800F4E7AC
:105748008634FF34346028701000EEE7F878C2B26F
:10575800812A10D004D80138032814D90020E4E79E
:10576800832A0ED00BD31C34842AF7D1012334604A
:105778002B700220D9E7163434602970DEE718341C
:10578800F4E71A34F2E78634FF3434600023EFE795
:0457980000687047EE
:06579C000023C36070470A
:0457A2000C30704710
:0C57A60010B5FFF7FBFF0023036010BDEF
:1057B200CB6810B5C360002B01D05B68984710BD61
:0E57C200C36810B5002B01D09B68984710BD3E
:1057D00070B5040015000E0090B003F015F802A893
:1057E00007F0D2FA0D9520003D2501220C960026E7
:1057F0000E4B02A9029301AB0E936D440FABA43084
:105800001A700B942E7007F095FC200003F003F83B
:10581000074B31001A6802A807F07AFA2C7802A820
:10582000FFF73AFF200010B070BDC046489D011040
:045830007C9D01104A
:10583400F7B505002E00883600911700019302F099
:10584400E1FF300007F018FB0400B84200D93C0027
:1058540030002200009907F019FB019B28001C600E
:0658640002F0D7FFF7BDC2
:10586A0013B50400406A030099331A780023022A08
:10587A0003D001203534237016BD0193E26A01ABCF
:10588A00A16AFFF7D2FF019BA26AD218A262226B19
:10589A001168CB181360E36A01995B1A2100E3626D
:1058AA0034310978002902D11268002A02D1002075
:0C58BA008342E1D1012035342070DDE78D
:1058C80070B504000E008EB0150002F099FF01A813
:1058D80007F056FA20000B9600260D4B01A90C95EF
:1058E8009C300DAD01930A942E7007F01FFC200028
:1058F80002F08DFF074B31001A6801A807F004FA7F
:105908002C7801A8FFF7D8FE20000EB070BDC04665
:08591800309D01107C9D01107F
:10592000F0B50400B9B0BF22002108A80EF048FD70
:10593000227908A8931CDBB20193230060331B7803
:1059400008AE02932300C2331D88613B1B783700E9
:1059500003932300C4331B88511C9C462300C0338F
:105960001B78C9B2069323006C331B880493230071
:10597000C1331B78079323006A331B88F2720593A7
:10598000BF4BFA7403800300BF209870042308A85B
:10599000FF3383808020F0714E3830722A38707265
:1059A0000330B0720920B381033BFF3B70740220C7
:1059B000B3730426B34AFF307A83B34A3B77BE748D
:1059C000F882FA830222BE1CF2776A4608AFFE1CF8
:1059D0001779F17709AEF777AC4F08AA119708AF9E
:1059E00038852B27BF186A46127A3A7013AF3D707C
:1059F0002D2708AABF182D0A3D70A54D36271495EE
:105A00000325BF183D7039279086BF1809223A70C8
:105A10003A2708AABF1824223A703B2708AABF18C1
:105A20003D7017AF3D703D27BF183B703E27BF1834
:105A300002223D7018AD2A70964D08AFF587964E3C
:105A4000BD1D964FEE870AADEF87492508AAAD1810
:105A50006A46167B08AA2E704A256646AD182E7037
:105A600065464B262D0AB61835704E258C4EAD185E
