:020000041000EA
:1000000000B5324B212058609868022188439860DF
:10001000D860186158612E4B002199600221596106
:100020000121F02299502B49196001219960352056
:1000300000F044F80222904214D00621196600F024
:1000400034F8196E01211966002018661A6600F04E
:100050002CF8196E196E196E052000F02FF8012189
:100060000842F9D1002199601B49196000215960AB
:100070001A491B48016001219960EB211966A021F2
:10008000196600F012F800219960164914480160C1
:100090000121996001BC002800D000471248134993
:1000A000086003C880F30888084703B5996A0420EC
:1000B0000142FBD001200142F8D103BD02B5186610
:1000C0001866FFF7F2FF186E186E02BD00000240BE
:1000D000000000180000070000035F00212200005C
:1000E000F4000018222000A00001001008ED00E03C
:1000F00000000000000000000000000074B24E7A12
:1001000000000420E3010010C3010010E903001007
:10011000C1010010C1010010C1010010C101001097
:10012000C1010010C1010010C10100104503001001
:10013000C1010010C1010010C9030010D503001057
:10014000CD010010CD010010CD010010CD01001037
:10015000CD010010CD010010CD010010CD01001027
:10016000CD010010CD010010CD010010CD01001017
:10017000CD010010CD010010CD010010CD01001007
:10018000CD010010CD010010CD010010CD010010F7
:10019000CD010010CD010010CD010010CD010010E7
:1001A000CD010010CD010010CD010010CD010010D7
:1001B000CD010010CD010010CD010010CD010010C7
:1001C00000BE00BE00BE00BE00BE00BE00F03FF894
:1001D000103800BE00202049086006C881F3088856
:1001E00010471E48006800282DD10CA40ECC002911
:1001F00002D000F010F8F9E719491A4A002000E08F
:1002000001C19142FCD1184988471849884700BE6E
:10021000FDE701C901C29A42FBD37047ECB6011059
:10022000C0000020F40F00202CC6011000000420A4
:10023000000004202CC6011000100420001004202F
:100240000000000070470A4811F036F80047EFF34D
:100250000580C0B27047000008ED00E0000000D04B
:100260000010002014BF0020CD020010D1EA0010C1
:1002700057560000F8B5C046F8BC08BC9E4670470B
:10028000F8B5C04610B5064C2378002B07D1054BB6
:10029000002B02D0044800E000BF0123237010BDF2
:1002A000F81500200000000084020010044B10B577
:1002B000002B03D00349044800E000BF10BDC04636
:1002C00000000000FC15002084020010164B002BDB
:1002D00000D1144B9D46402292029A1A9246002168
:1002E0008B460F461348144A121A13F041F80F4B6D
:1002F000002B00D098470E4B002B00D098470020D1
:10030000002104000D000D48002802D00C480EF01A
:10031000E2FB12F0AFFB200029000AF0D1FD0EF045
:10032000D7FBC046000008000000042000000000C9
:1003300021AE00100010002014BF0020D7EA0010EA
:10034000000000007046C0082CD3EFF309808169DB
:1003500002390978002929D101B50FC8B8470CBC6A
:1003600003C29E461E4B06CB91421ED0083B1A602C
:10037000002909D0EFF3098020388863F0C0444693
:100380004D4656465F46F0C0906B1030F0C8A04610
:10039000A946B246BB4680F309882038F0C802203F
:1003A000C0430047EFF30880D1E770470D4A136858
:1003B0009942FAD801B5890053589C460FC8E047C6
:1003C0000CBC10609E46704701B509F0EFFF03BCFE
:1003D0008E46C7E701B509F0A7FF03BC8E46C1E70B
:1003E0000804002008920110102304E0202302E0FA
:1003F000302300E040239C46F0B404AE7546E80884
:1004000001D3EFF309860E4F0FCE0FC70FBC0FC7F6
:100410004046494652465B460FC71DCE3100A60AEC
:1004200000D304316E0900D248311FC7EFF30980B1
:100430006946EFF3148663C7604601490DF014FE68
:1004400084BE002001480421014B184710060020FB
:10045000C912011002B47146490849000956490001
:100460008E4402BC7047C04602B471464908490038
:10047000095C49008E4402BC7047C0460022430814
:100480008B4274D303098B425FD3030A8B4244D35C
:10049000030B8B4228D3030C8B420DD3FF2209029E
:1004A00012BA030C8B4202D31212090265D0030B5D
:1004B0008B4219D300E0090AC30B8B4201D3CB0353
:1004C000C01A5241830B8B4201D38B03C01A524195
:1004D000430B8B4201D34B03C01A5241030B8B4297
:1004E00001D30B03C01A5241C30A8B4201D3CB0282
:1004F000C01A5241830A8B4201D38B02C01A524167
:10050000430A8B4201D34B02C01A5241030A8B4269
:1005100001D30B02C01A5241CDD2C3098B4201D381
:10052000CB01C01A524183098B4201D38B01C01AFF
:10053000524143098B4201D34B01C01A5241030976
:100540008B4201D30B01C01A5241C3088B4201D325
:10055000CB00C01A524183088B4201D38B00C01AD2
:10056000524143088B4201D34B00C01A5241411AF9
:1005700000D20146524110467047FFE701B5002006
:1005800000F0F0F802BDC0460029F7D076E77047CA
:1005900003460B437FD4002243088B4274D30309E4
:1005A0008B425FD3030A8B4244D3030B8B4228D385
:1005B000030C8B420DD3FF22090212BA030C8B42AB
:1005C00002D31212090265D0030B8B4219D300E04B
:1005D000090AC30B8B4201D3CB03C01A5241830BD0
:1005E0008B4201D38B03C01A5241430B8B4201D380
:1005F0004B03C01A5241030B8B4201D30B03C01AA9
:100600005241C30A8B4201D3CB02C01A5241830A22
:100610008B4201D38B02C01A5241430A8B4201D351
:100620004B02C01A5241030A8B4201D30B02C01A7B
:100630005241CDD2C3098B4201D3CB01C01A5241E2
:1006400083098B4201D38B01C01A524143098B426B
:1006500001D34B01C01A524103098B4201D30B0154
:10066000C01A5241C3088B4201D3CB00C01A524179
:1006700083088B4201D38B00C01A524143088B423E
:1006800001D34B00C01A5241411A00D201465241D7
:10069000104670475DE0CA0F00D04942031000D3F6
:1006A0004042534000229C4603098B422DD3030A4B
:1006B0008B4212D3FC22890112BA030A8B420CD35B
:1006C000890192118B4208D3890192118B4204D384
:1006D00089013AD0921100E08909C3098B4201D304
:1006E000CB01C01A524183098B4201D38B01C01A3E
:1006F000524143098B4201D34B01C01A52410309B5
:100700008B4201D30B01C01A5241C3088B4201D363
:10071000CB00C01A524183088B4201D38B00C01A10
:100720005241D9D243088B4201D34B00C01A5241E7
:10073000411A00D20146634652415B10104601D374
:100740004042002B00D54942704763465B1000D3FE
:10075000404201B5002000F005F802BD0029F8D0A4
:1007600016E770477047C046D0400B1CD1409C46EE
:10077000203AD3401843524263469340184370478F
:100780009140031C90409C46203A934019435242AA
:100790006346D340194370478446101C62468C461A
:1007A000191C634600E0C0461FB501F07DFE00281D
:1007B00001D40021C8421FBD10B501F0D5FD404253
:1007C000013010BD10B501F06FFE002801DB0020E4
:1007D00010BD012010BDC04610B501F065FE002817
:1007E00001DD002010BD012010BDC04610B501F094
:1007F000F7FD002801DC002010BD012010BDC0461F
:1008000010B501F0EDFD002801DA002010BD012037
:1008100010BDC0468446081C6146FFE71FB500F0C6
:1008200095FB002801D40021C8421FBD10B500F07F
:1008300017FB4042013010BD10B500F087FB0028C7
:1008400001DB002010BD012010BDC04610B500F036
:100850007DFB002801DD002010BD012010BDC04639
:1008600010B500F025FB002801DC002010BD0120A0
:1008700010BDC04610B500F01BFB002801DA0020B7
:1008800010BD012010BDC0461C2101231B0498424D
:1008900001D3000C10391B0A984201D3000A083911
:1008A0001B09984201D30009043902A2105C4018C8
:1008B0007047C0460403020201010101000000006C
:1008C00000000000002B15D1002A13D1002906DBFF
:1008D00001DC002806D00020C043410802E080214E
:1008E0000906002007B4024801A14018029003BD88
:1008F00075FEFFFF03B4684601B5029800F082F967
:10090000019B9E4602B00CBC7047C046002B11D123
:10091000002A0FD1002900D1002802D00021C943AC
:10092000081C07B4024802A14018029003BDC0464B
:1009300035FEFFFF03B4684601B5029800F0A0F849
:10094000019B9E4602B00CBC7047C046F0B5CE4637
:10095000474615042D0C2E0080B50704140C3F0CDF
:100960009946030C7E435D43674363437F19340C10
:10097000E4199C46A54203D980235B029846C444EF
:100980004B4643435143250C36046544360C24043E
:10099000A4195B19591820000CBC90469946F0BD6B
:1009A0009E2110B5C905041CFFF764FF002803D180
:1009B000201C00F011FE10BD9E21201CC90500F076
:1009C00047FC00F009FE80231B069C466044F2E7CA
:1009D00070B500220C4B04000D00FFF711FF00283A
:1009E00004D12000290002F09DFB70BD064B0022BF
:1009F0002000290002F032F802F094FB80231B064D
:100A00009C466044F1E7C0460000E04170B5050037
:100A10000C000022002328002100FFF7D3FE00284D
:100A200004D12800210000F00DF870BD80231B06C2
:100A3000E118280000F006F802000B0000215042E7
:100A40009941F2E770B500220B4B0D00040001F054
:100A500093FDFFF7BDFF060002F0D4FB0022074B19
:100A600001F08AFD02000B002000290001F0F6FFD2
:100A7000FFF7AEFF310070BD0000F03D0000F04117
:100A8000F0B54F464646D646C0B5040082B00D00CC
:100A9000914698468B422FD82CD04146484602F0CA
:100AA000B9FC29000600200002F0B4FC331A9C4671
:100AB000203B9A4600D576E04B46524693401F00B5
:100AC0004B46624693401E00AF4228D825D053467D
:100AD000A41BBD41002B00DA7BE000220023009222
:100AE00001930123524693400193012362469340B0
:100AF000009318E08242D0D9002200230092019393
:100B00000A9B002B01D01C605D600098019902B027
:100B10001CBC90469946A246F0BDA342D7D90022FC
:100B20000023009201936346002BE9D0FB0798460F
:100B3000414672080A437B0866460EE0AB4201D18B
:100B4000A2420CD8A41A9D41012024196D41002114
:100B5000013E24184D41002E06D0AB42EED9013E95
:100B600024196D41002EF8D10098019953460019BF
:100B70006941002B23DB2B005246D3402A006446F8
:100B8000E2401C0053461500002B2DDB2600574683
:100B9000BE40330026006746BE403200801A9941AD
:100BA00000900191ACE7624620239B1A4A46DA4046
:100BB0006146130042468A4017001F4380E76246A1
:100BC00020239B1A2A0066469A402300F3401343D1
:100BD000D4E76246202300219B1A00220091019253
:100BE0000122DA40019280E72023624626009B1A08
:100BF000DE402F00B0466646B74046463B003343D2
:100C0000C8E7C046F0B583B016001F000090019100
:100C100002F00CFC04000D0002000B003000390053
:100C2000FFF794FE009A019B121A8B41089920004D
:100C30000A604B60290003B0F0BDC046F8B55746C6
:100C40004E464546DE464402E0B546008846640A04
:100C5000360EC70F002E63D0FF2E24D08023E40071
:100C6000DB041C43002399469B467F3E4346424695
:100C70005D02D20F5B006D0A1B0E9046924665D056
:100C8000FF2B55D080220021ED00D2047F3B15437D
:100C9000F61A43464A467B400F2A00D98DE06D483C
:100CA000920082589746002C54D108239946063B5F
:100CB000FF269B46DAE70025534602291BD003296D
:100CC00000D1BFE0012928D030007F30002820DD8E
:100CD0006A0704D00F222A40042A00D004352A01D2
:100CE00003D530005C4A80301540FE2803DCAC019F
:100CF000640AC2B201E0FF2200246402D205600A45
:100D0000DB07104318433CBC90469946A246AB46CD
:100D1000F8BD0122101A1B287CDD00220024ECE71C
:100D2000002C1DD104239946033B00269B469DE7DA
:100D3000FF3E002D20D1022143464A467B400A4314
:100D40000F2AD8D84548920082589746002D19D1CD
:100D50000121F1E70C239946093BFF269B4685E7D5
:100D60002000FFF791FD7626431F9C40002376422A
:100D7000361A99469B4679E74A4603231A43914619
:100D8000032186E72800FFF77FFD431F36189D40AB
:100D9000763600217DE780240023E403FF22ACE7C0
:100DA00000258023DB031C4228D01D4226D12B4383
:100DB0005C02640A4346FF229FE762016C01A24283
:100DC00024D21B210025013E012710006D00520096
:100DD000002801DB944201D8121B3D430139002950
:100DE000F3D11400621E944125436DE7BA4659467B
:100DF00025005346022900D061E77CE78023DB030E
:100E00001C436402640A3B00FF2276E7121B1A218E
:100E10000125D9E79E362A00B5402C00C240651E48
:100E2000AC411443620704D00F222240042A00D0B0
:100E30000434620103D4A401640A00225DE70122A4
:100E400000245AE78024E4032C436402640AFF224E
:100E500053E7C04644860110FFFFFFF78486011068
:100E600070B542004E024C0045026D0A120EC30FCF
:100E7000760A240EC90FFF2A0FD0FF2C11D00120B3
:100E8000A24200D070BDB542FCD18B420DD0002AE9
:100E9000F8D12800451EA841F4E70120002DF1D12A
:100EA000EBE70120002EEDD1E9E70020EAE7C0469C
:100EB00070B54A004E02450244006D0A240EC30F6D
:100EC000760A120EC90FFF2C15D0FF2A0ED0002C67
:100ED00015D1002A01D1002E1CD0002D14D08B4238
:100EE00027D00220013B1840013870BD002EEED003
:100EF00002204042F9E7002DFAD1FF2A0ED0002A45
:100F00000ED1002EEDD00BE00123013999430800EA
:100F10000130EAE70020002DE7D0E2E7002EE7D11C
:100F20008B42DED1944205DD0221581E0840013873
:100F3000DBE70024A24204DCB542D2D80020B5424F
:100F4000D3D2581E012398430130CEE730B542007A
:100F500044024D02C30F4800640A120E6D0A000ECF
:100F6000C90FFF2A12D0FF280CD0002A12D1002866
:100F700019D1002D17D1002C2BD00220013B184095
:100F8000013826E0002DF0D0022022E0002CFBD119
:100F9000FF281FD000281FD1002D1DD10220013BAA
:100FA0001840013815E0002C0ED08B42E5D100220C
:100FB000904204DCAC42E0D80020AC4209D2581E7A
:100FC00001239843013004E00123013999430800CB
:100FD000013030BD002DD7D18B42CED18242E7DD2A
:100FE0000221581E08400138F3E7C046F0B54E46CE
:100FF00057464546DE46E0B543025B0A450083B0EE
:101000000F1C99462D0EC60F002D57D0FF2D24D052
:101010008020DB00C0041843002381469A469B468B
:101020007F3D7C027A00FB0F640A120E984623D0A3
:10103000FF2A4BD0E30080240020E4047F3A1C43C5
:10104000AD186B1C47460193534677403A000F2B6F
:1010500048D87D499B00CB589F46002B00D085E0A7
:1010600008339A46063B9B467C027A00FB0FFF251D
:10107000640A120E9846DBD1002C00D090E0524654
:1010800001231A4392460120DBE74C4658461700DD
:10109000022824D0032800D1CFE000220023012819
:1010A0004DD15802D205400AFF071043384303B020
:1010B0003CBC90469946A246AB46F0BD002B5BD1A6
:1010C00004239A46033B00259B46AAE7FF35002CE4
:1010D00060D1524602231A4392460220B1E7FF2212
:1010E0000023DEE74B461B0C9C464B462604360C81
:1010F000180461463300220C6446000C43434E43FF
:101100005043544380191A0C1218964203D9802177
:1011100049028C4664441B041B0C1004C018830154
:101120005E1EB341800E1843130C1B199B01034331
:101130001C00230179D5012362081C401443019A45
:101140007F32002A4DDD630704D00F232340042B98
:1011500000D00434230103D53C4B019A1C4080325B
:10116000FE2ABCDCA3015B0AD2B29AE70C239A46A2
:10117000093BFF259B4654E71800FFF785FB4A46CD
:10118000431F76259A4000236D4291462D1A9A46B8
:101190009B4646E7524603231A439246032050E7F4
:1011A0002000FFF771FB431F2D1A9C40763D002065
:1011B00047E780230027DB03FF2272E7424666E70A
:1011C0004C463200584662E780234A46DB031A4207
:1011D00022D01C4220D123435B025B0A4746FF22F8
:1011E0005FE701239A1A1B2A21DC23000199D340CF
:1011F0009E318C401A0023005C1EA34113435A0702
:1012000004D00F221A40042A00D004335A0111D40A
:101210009B015B0A002244E780234A46DB03134319
:101220005B025B0A3700FF223BE7019587E700225C
:10123000002336E70122002333E78023DB03234327
:101240005B025B0AFF222CE7C4860110FFFFFFF759
:10125000F8B54746CE464400C20F80B54702480263
:10126000400A8446664648007F0A240EF6002500A0
:101270009046FB00000EC90FB146FF2800D185E063
:1012800001267140261A914257D0002E43DD0028D6
:1012900000D07FE04946002900D1AAE0013E002E9F
:1012A00000D0F7E05B1A5A0100D48BE09B019C0947
:1012B0002000FFF7E9FA05388440854200DDD3E0DD
:1012C000451B230020200135EB40451BAC40621E2E
:1012D00094412343072400251C40012241460A4033
:1012E000002C04D00F211940042900D004335901E7
:1012F00000D480E00135ECB2FF2D00D0A3E0FF2444
:1013000000235B02E405580AD207204310430CBCBB
:1013100090469946F8BD002E74D1601CC0B20128D9
:1013200000DCA7E04A469C1A620100D5B6E0002C1A
:10133000BED1002200240023E3E7002E00DC85E07C
:10134000002846D0FF2C49D080224846D2041043C2
:10135000814601221B2E09DC20204C46801B844044
:101360004A462000F240441EA04102439B185A0105
:1013700028D50135FF2D00D1A8E00122072494498A
:101380001A405B080B4013431C40A6E7002E00D018
:1013900078E775E7FF2C54D080224946D2041143E8
:1013A000894601221B2E09DC20214846891B8840E2
:1013B0004A460100F240481E81410A439B1A5A01E5
:1013C00000D573E7012241460A40590700D089E75A
:1013D00011E04846002858D1FF2C0CD1DB08002B27
:1013E00000D18CE78020C00303435B025B0AFF242B
:1013F00087E7FF2C25D0DB08FF2DF0D05B025B0ACE
:10140000ECB27EE7002C4DD0FF2818D08024E404F5
:10141000724223431B2A00DDC4E01C002025D44077
:10142000AA1A93405A1E934123434A460500D31AF1
:10143000884638E7721CF8D0F243FF28EAD10A0048
:101440004B46FF25D7E79B015B0A5AE7002E41D1A7
:10145000651CE9B2012945DDFF2D00D14FE70724C6
:101460004B445B081C4038E707225A4B2D1A234097
:10147000144032E7002C1DD1002B7AD14B46002BB3
:1014800000D191E00A000025B5E7013E002E19D1F8
:101490004B446CE7FF2C84D1FF25ACE74A468846D5
:1014A000D41A05E7002BC5D10A00FF28C8D00500D3
:1014B0004B46A0E7002B49D14B46002B77D00A00C2
:1014C000FF2598E7FF2C00D043E787E70A00FF24B9
:1014D000002316E7002C15D1002B57D1FF28E6D1A9
:1014E0004B467BE7002C20D1002B57D049460029E2
:1014F00053D04B445A0168D50724364A1C40012575
:101500001340EAE6FF28EBD08022D2047642134350
:101510001B2E53DC2025AD1B1A00AB40F2405C1E95
:10152000A34113434B44050021E7002BD8D0494683
:10153000002900D152E78021C9030F4200D14DE7B5
:101540006046084200D049E74B4647E74846FF253A
:10155000002800D14FE78022D203174204D0604612
:10156000104201D14B46884601224146FF250A40E0
:1015700041E7484600281FD01A1A500120D54A4694
:101580000724D31A1C4088460025A6E6741CC9D03F
:10159000F643FF28BCD14B4620E799464B46002531
:1015A000DB082BE7012340E700220023A9E6802384
:1015B0000022DB03FF24A4E600251CE70123B1E79A
:1015C000002AF1D013000025FCE60025FAE6C0460B
:1015D000FFFFFF7DFFFFFFFB41024200C30F490AEF
:1015E000120E00207E2A0DD99D2A0CD880200004DE
:1015F0000143952A0ADC9620821AD1404842002BEA
:1016000000D108007047034A9818FBE7963A9140CA
:10161000F4E7C046FFFFFF7F70B500283DD0C31739
:10162000C5185D40C40F2800FFF72EF99E22121A3C
:10163000962A07DCD2B2082833DD083885406802D4
:10164000400A23E0992A0BDD052329001B1AD94003
:1016500003001B339D402B005D1EAB4119430D0061
:10166000052801DD431F9D402B000F490B406E07ED
:1016700009D00F263540042D05D004335D0102D575
:101680009F220B40121A9B01580AD2B24002D20587
:10169000400AE4071043204370BD002400220020CC
:1016A000F4E76802400AF1E7FFFFFFFB70B5041E94
:1016B00034D0FFF7E9F89E22121A962A07DCD2B23C
:1016C00008282EDD083884406002400A21E0992A6B
:1016D00009DD030021001B3399404B1E994105236E
:1016E0001B1ADC400C43052801DD431F9C402300EE
:1016F0000D490B40650709D00F252C40042C05D05F
:1017000004335C0102D59F220B40121A9B01580A38
:10171000D2B24002D205400A104370BD0022002020
:10172000F7E76002400AF4E7FFFFFFFBF0B54F4622
:101730004646D6460C000903C0B5490A470F5E006D
:1017400039431F03DB0F9C4665007B0A570F1F437D
:101750006D0DE40F760DA146C000B846D200AB1B5C
:1017600064457BD0002B5FDD002E00D0A4E03E005E
:10177000164300D112E15E1E002E00D09EE1871AB2
:101780004346B84280410125C91A4042091A0B025A
:1017900000D431E149024E0A002E00D16EE1300042
:1017A000FFF772F80300083B1F2B00DD61E12022E8
:1017B0003900D21A9E40D1409F400E439D4200DD29
:1017C00051E15D1B6B1C1F2B00DD7CE12021C91A40
:1017D0003D0030008F408840DD40791E8F41310050
:1017E00007222843D940002507433A40002A09D060
:1017F0000F233B40042B05D03B1DBB42BF417F4222
:10180000C9191F000B0200D426E26A1CC64B5505FD
:101810006D0D9A4200D106E1C44AFF080A40530701
:1018200052023B43120B8EE0002B00D0B8E06B1C41
:101830005B055B0D012B00DC30E1871A4346B842A3
:10184000B641CB1A76429E1B330200D54CE13B00D9
:101850003343A1D100220024002570E0002B00DCDE
:10186000E5E0002E00D183E0AF4EB54260D0802687
:1018700036043743B846382B00DC3EE14346134379
:101880001F007A1E97413F18874280414042091845
:101890000B0200D4B0E0A44B01359D4200D1C3E05F
:1018A000A24A7B080A4001210F401F435108D30779
:1018B00007221F433A4099E79B4EB54238D0802615
:1018C00036043743B846382B00DDDCE01F2B00DC44
:1018D00030E11E004746203EF740BC46202B04D096
:1018E0004026F31A46469E403243170063467A1E4E
:1018F00097411F43CCE0002B00D104E24346134341
:1019000000D159E14B07C00818438023C9081B03C5
:10191000194208D04546ED081D4204D14346D0087F
:10192000590708432900420FC9007F4D1143C000E9
:101930004B07CA087C49C00803438D4268D0120394
:101940006D05120B6D0D002112031800130B0A0D0B
:1019500012051A43764B2D0513402B435B00E40719
:101960005B08234319001CBC90469946A246F0BD73
:101970003E00164312D05E1E002E00D000E18718F4
:101980008742804141444042091801250B0233D56A
:10199000022585E764463300414610001D00C7E775
:1019A000002D00D0DAE00C000443F3D05C1C00D121
:1019B0009FE15D4CA64200D12FE1DB43382B00DDD7
:1019C00066E11F2B00DD83E120240500E41A0F00EF
:1019D000DD40D940A0404346A7405B1A441EA041C9
:1019E00098462F433843171ABA429241434652420F
:1019F000991A64463500CAE607223A40002A00D008
:101A0000F6E64B07CA084849FF083B438D4296D18A
:101A10001900114300D19EE1802109030A431203FA
:101A2000120B414D8FE71500002200238BE7002B9E
:101A300000D0C7E06B1C5F057F0D012F00DCF1E0DB
:101A4000394DAB4200D1B9E085180A008542894181
:101A50004244494251180722CF076D082F434908D5
:101A60003A401D00C2E607223049ED1A31403A40A3
:101A7000BCE63E002838864000279FE63800FEF787
:101A800003FF20308EE6434613431F007A1E974122
:101A9000C71BB84280414042091A78E60E003B005D
:101AA00006431343002D61D1002E00D0F4E0002B3B
:101AB00000D11BE164463900100039E71A4FBB42E0
:101AC0007AD03300FFE630001F3DE840202B03D0E2
:101AD0004021CB1A9E4037437B1E9F41072207437C
:101AE0003A400021002589E7171A4346BA42B64119
:101AF000591A76428E1B64464EE61F2B00DDADE080
:101B000020264746F61AB740B9461700B246DF40CE
:101B10004E463E4337005646B240561EB24117432A
:101B20004246DA408918AEE6FF070000FFFF7FFF5C
:101B3000FFFF0F8020264746F61AB740B946170028
:101B4000B246DF404E463E4337005646B240561E30
:101B5000B24117434246DA40891A99E77F4CA642C0
:101B60005BD0802424045B42214327E7002E0CD164
:101B7000002B00D1CBE0644639001000774DD7E64A
:101B8000764FBB4218D0330075E6002B14D04B07BC
:101B9000C00818438023C9081B03194207D0FC085A
:101BA0001C4204D17907D0080843E14621004C4685
:101BB000420FC9001143C000684DB9E61D00002264
:101BC0000023C0E6002D5BD10D00054300D1E2E605
:101BD0005D1C00D1B0E0614DAE421FD0DB43382B1D
:101BE00071DC1F2B00DD96E020250F00ED1AAF40C1
:101BF000B9460700AA46DF404D463D432F005546F3
:101C0000A840D940451EA84188440743BF189742C1
:101C100092415142414435003AE66446350041461E
:101C2000100085E60B000343002D00D063E6002B77
:101C3000F5D04346134300D17AE6871887428041A6
:101C400007224144404209183A400B0200D4D5E62D
:101C5000434B01351940C9E5380069E61E00474687
:101C6000203EF740BC46202B04D04026F31A4646BF
:101C70009E403243170063467A1E97411F4302E697
:101C8000364DAE42CAD080252D045B422943A6E7DB
:101C90000843411E8841A6E6002B00D148E6871A7A
:101CA0004346B842B641CB1A76429E1B33024BD50F
:101CB000171A4346BA429241591A5242891A0722C8
:101CC00064463A4092E501430F00791E8F419DE73B
:101CD0001C000F00203CE740202B03D04024E31AD7
:101CE00099400843411E884138437CE60022002485
:101CF00025E6171A4346BA429241591A5242891AA6
:101D00006446350043E541461000144D10E680223C
:101D10000024120380E61D000F00203DEF40BC466A
:101D2000202B03D04025EB1A994008430700634657
:101D3000781E87411F4369E7871897429B414144BA
:101D40005B42C9183500A3E53B003343CED00722E0
:101D500031003A4052E600231A00F4E5FF07000084
:101D6000FFFF7FFFF0B55746DE464E464546E0B5DD
:101D7000834607000E03480085B092461C00360BD0
:101D8000400DCD0F002800D19DE0954B984239D0F1
:101D90008023F6001B041E43924A7B0F334399466F
:101DA000944603006344009300230026FF0002933F
:101DB00023031B0B98466300E40F52465B0D01940E
:101DC00000D1B3E086498B4200D19EE04246D1006B
:101DD000802212040A435146490F11438B46814920
:101DE00052468C4600996344CB1A0021D2000093DE
:101DF0002B0063409A460F2E00D905E17A4BB600BE
:101E00009B599F465B463343994600D0B8E0022376
:101E10000826002700900293CAE7CB463A000299B1
:101E20000195019B9A46022927D0032900D180E21F
:101E3000012944D06D49009B8C4663441C00002C52
:101E400038DD530700D013E2D2085B46DB0109D529
:101E50005946674B19408B468021C9008C46009B30
:101E600063441C00634B9C4207DC5B4664055F07D0
:101E70005B0217431B0B620D02E000230027584A48
:101E800000211B031C0B0B0D1B05234314055A4A91
:101E9000380013401C4353466400DB0764081C43AE
:101EA000210005B03CBC90469946A246AB46F0BD29
:101EB0000122524201231B1B382B00DCADE1002222
:101EC00000230027DCE75B46334399465ED0002EB3
:101ED00000D18AE13000FEF7D7FC03000B3B1C2B3E
:101EE00000DD7BE11D22D31A5A460100DA40083991
:101EF0008E4013005F46334399468F403F4B002688
:101F00001B1A00930023029352E7414653460B43AA
:101F10003B499B468C46009B634400935B46002BE9
:101F20003BD1022300221E43022161E743461343B3
:101F30009B4637D04346002B00D162E14046FEF776
:101F4000A3FC03000B3B1C2B00DD53E102004146C8
:101F5000083A914088461D21CB1A5146D9400B00C2
:101F600041460B439B46534693401A00009B25492C
:101F70009C46604403008C4663440093002137E78D
:101F80000323B14600900C26029311E7002300932F
:101F900001330426002702930AE70323C3461E43A6
:101FA000032125E701331E430022012120E70023FE
:101FB0009A46802300271B03094A61E7802349468C
:101FC0001B03194200D1E2E05946194200D0DEE07D
:101FD0000B431B0317001B0BA246014A50E7C046E8
:101FE000FF07000001FCFFFF04870110FF03000052
:101FF000FFFFFFFEFE070000FFFF0F800DFCFFFF4D
:1020000001F8FFFFF3030000D94500D9CBE000D170
:10201000C6E03C0048460027009B013B00935B461E
:10202000160E1B021E431302984633041B0C9946DE
:10203000310C0191FEF7A8FA4A4642430B04210CE9
:10204000050019438A4207D98919013D8E4203D8F8
:102050008A4201D9851E8919881A0199FEF794FAD6
:1020600009048C464A46210464464243090C030095
:1020700021438A4204D98919013B8E4200D8F1E0FC
:102080002D041D43AB464346891A4246280C1204D0
:102090001D0C5B46140C22001B041B0C5A430394BA
:1020A0006B434443029568431B19150CEB189C4283
:1020B00003D980246402A44660441C0C15041B044C
:1020C0002D0C20185D19814277D373D00C1AA24AC7
:1020D0007D1BAF42BF419446009B7F426344E01B9F
:1020E0001C00864200D1DBE00199FEF74DFA4A461A
:1020F00042430B04290C070019438A4207D9891966
:10210000013F8E4203D88A4201D9871E8919881A55
:102110000199FEF739FA09044A46894629044D46D1
:102120004243090C030029438A4207D98919013B1C
:102130008E4203D88A4201D9831E89193F04891A25
:102140003A00039F1A43380013041B0C584381467E
:102150000298150C6F43434345434846000C8446A0
:10216000DB1963449F4203D98020400284466544C2
:1021700048461F0C00041B04000C7D191818A942C6
:1021800000D284E000D17FE001231A4357E6802388
:102190004A461B0313431B031B0BAA466F4A6FE6F9
:1021A000BA4200D935E74B46DC0758087B081C4388
:1021B000FF0734E70024AF4289D247444745A44192
:1021C0005B466442A4196418013BA6421ED2A04299
:1021D0006DD800D1B6E0241A9B4678E703005A4632
:1021E000283B9A400027914688E65846FEF74CFB6C
:1021F000203072E603005246283B9A409346002264
:10220000B4E65046FEF740FB20309AE6A642E2D103
:10221000B845DCD9341A9B4659E71F2B65DC504C76
:102220000099A4465C46614408008C40110082403D
:10223000D940501E82410C4314435A46DA401300E1
:10224000620709D00F222240042A05D02200141D63
:102250009442894149425B181A0262D50122002347
:1022600000270DE68A4200D80AE7831E891907E78E
:102270000F231340042B00D1E6E5171D974292412E
:1022800053429B44FA08E0E5002800D1D7E57118D5
:10229000531EB14227D3A94215D358D01A0073E771
:1022A000002B00DC04E6012300229B44CDE5022341
:1022B0004744474589415B429C46494289190C196C
:1022C000E344241A03E743465F0047459B41B84671
:1022D0005B429E19023A8919A94200D054E7404551
:1022E00000D051E7ABE51A00F6E71F215F464942EF
:1022F0000C1BE740202B07D01A49009B8C466344F7
:1023000018005B4683401A43501E82413A43072718
:102310000023174009D00F21002311401400042985
:1023200095D122005F075B021B0BD20817430022E6
:10233000A6E5802359461B030B431B0317001B0B09
:10234000064A9DE5BD42B2D89B460024BFE68045C3
:10235000B9D31A00C3E7C046FF030000FF0700001F
:102360001E0400003E040000F0B54F464646D64627
:102370008446C0B58046194E18030F034D00000B6C
:102380005C0082463F0B6D0DC90F9146640DDB0F5B
:102390000120B5420AD0B44203D0A54201D157452D
:1023A0000CD01CBC90469946A246F0BD66463E4302
:1023B000F7D1AC42F5D154461443F2D10120C845BF
:1023C000EFD1994207D0002DEBD163461F4338006F
:1023D000471EB841E5E70020E3E7C046FF070000DD
:1023E000F0B54F464646D6464D00C0B50E03C90F60
:1023F0008A462C491F035C008046360B6D0D9146C2
:102400003F0B640DDB0F8D421ED08C4216D0002D89
:102410001ED130438446002C01D13A4323D062467A
:10242000002A1AD09A4529D0514602200139084085
:1024300001381CBC90469946A246F0BD39001143B4
:10244000E5D002204042F4E73043FAD1AC420FD04D
:10245000002C0FD13A43E7D00CE00122013B93431B
:1024600018000130E5E763460020002BE1D0DBE7F0
:102470003A43E6D19A45D7D1A542D5DCA54205DB42
:10248000BE42D1D808D00020BE42D2D2504601234D
:10249000013898430130CCE7C845C5D80020C8456D
:1024A000F4D3C6E7FF070000F0B54F464646D646D0
:1024B0004D00C0B50E03C90F8A462E491F035C00AC
:1024C0008046360B6D0D91463F0B640DDB0F8D4240
:1024D00018D08C4211D0002D18D130438446002CE6
:1024E0001ED13A431CD163460020002B30D0514608
:1024F00002200139084001382AE039001143EAD0AE
:10250000022025E03043FBD1AC4226D0002C26D15E
:102510003A4324D15146022001390840013817E0DE
:102520006246002A0FD09A45E1D1A54205DBBE42A2
:10253000DDD819D00020BE420AD25046012301380E
:102540009843013004E00122013B9343180001301D
:102550001CBC90469946A246F0BD3A43D0D19A455C
:10256000C5D1A542C3DCE0E7C845C0D80020C845B6
:10257000E3D3EDE7FF070000F0B55746DE464E46D1
:102580004546E0B5834606000F03480087B09246F3
:102590001D003F0B400DCC0F002800D16FE0DE4B3B
:1025A000984238D08023FF001B041F43730F3B4326
:1025B0000193DA4B0027994600239B46F60081449D
:1025C0002B0369001B0B52469846490DED0F00295D
:1025D00000D185E0D04B994200D173E04346DA0048
:1025E00080231B0413435246CC48520F84461343A6
:1025F000524600206144D200894421006940009184
:102600008C46012149448A460F2F00D990E0C449E5
:10261000BF00CF59BF465B463B43019300D06AE100
:1026200002230827002681469B46C9E73200584608
:10263000019B61460091022800D175E0032800D17A
:10264000FEE1012800D02CE1002300270026002510
:102650003F032A0D3F0BB34812053A4302401B05C6
:102660001343009A5B00D1075B080B43300019004D
:1026700007B03CBC90469946A246AB46F0BD5B46CF
:102680003B43019300D12FE1002F00D1A5E1380099
:10269000FEF7FAF803000B3B1C2B00DD96E11D2230
:1026A000D31A5A460100DA405E4608398F401300BB
:1026B0008E403B4301939C4B00271B1A99460023F5
:1026C0009B467DE7414653460B4393498C46E14484
:1026D000002B00D01AE102220220174300228CE7CF
:1026E000134300D10DE14346002B00D181E1404668
:1026F000FEF7CAF802000B3A1C2A00DD72E1010065
:10270000434608398B4098461D239A1A5346D340B6
:102710001A004346134352468A404946081A8249E2
:1027200089468144002068E77B4B002700268EE71E
:10273000140C1204120C1100370C3604350C7943BA
:1027400028008C462E006043604483465643210097
:10275000300C80465846794340440291844506D95E
:102760008846802149028C46E04441460291360465
:10277000010C360C00048B4681191E0C1B041B0C2B
:102780000391190079438C46280075436544A84697
:102790005843050C45447743A94203D98021490297
:1027A0008C466744290C8C4639000004000C2D042B
:1027B0002D186144AB4405915946049101990F04C9
:1027C0003F0C080C390051434243904602008C46AE
:1027D000090C8B4662437C4344445C44A04503D9C6
:1027E0008021490288464244210C884661460904FA
:1027F000090C8C4639005943434370437E430F0C08
:10280000F6182404BE19644442448C46B34203D9EA
:1028100080235B0298464044029B61469846049B95
:10282000370443449B46AB45AD416B420D040599CB
:102830002D0C8C467F196744FD18A8465D462D195E
:10284000A542A44193466442A446C344DC448F425B
:10285000BF4198459B4193459241A445A4415B42A9
:102860007F421F43360C52426442BF192243BF18B5
:10287000624638184302D20D039913436A020A4391
:10288000501E82416146ED0D2A434E023243D9016A
:1028900000D4B3E00126500832400243DE07324341
:1028A0005B08224C5444002C62DD510709D00F20F4
:1028B0001040042805D0101D9042924152429B18AE
:1028C0000200D90104D580241948E400034054448F
:1028D0001848844200DD27E75E075B02D2081F0B21
:1028E000630516435B0DB2E60023994601330427C6
:1028F00000269B4664E60323019781460C279B46EE
:102900005EE6012201201743002276E6032303201E
:102910001F43434671E6C046FF07000001FCFFFF6E
:1029200044870110FFFF0F800DFCFFFFFF03000035
:10293000FFFFFFFEFE0700000023802700933F03F8
:102940000026434B83E6019B3200A446584670E6BE
:10295000AC466EE6802701993F0339422DD03B42B9
:102960002BD11F433F033F0B00951600384B6EE6FB
:1029700001252D1B382D00DD66E61F2D40DC354876
:102980001C005044160082408440EE40501E82419C
:1029900034431443EB40620709D00F222240042A3B
:1029A00005D02200141D9442804140421B181A0297
:1029B0003ED501230027002649E68027019B3F03DF
:1029C0001F433F033F0B0094214B40E603005A4650
:1029D000283B9A40002601926DE65846FDF754FFC9
:1029E000203057E603005246283B9A40130000224D
:1029F00093E65046FDF748FF20307BE6CA4650E795
:102A00001F201E004042041BE640202D03D0124C24
:102A10005444A3401A43501E8241324307260027E4
:102A2000164009D00F200023104014000428B9D10B
:102A300022005E075B021F0BD2081643002306E646
:102A400080273F031F433F033F0B1600004BFEE56B
:102A5000FF0700001E0400003E040000F8B55746C2
:102A60004E464546DE460C000903E0B5490A460FCE
:102A70005F0031431E03DB0F760A9B46530F33433F
:102A8000C84E6500C000E40FD2006D0DA24681461D
:102A90007F0D9C469046B74200D1B9E05B460126C7
:102AA00073409B46EE1BA34500D183E0002E63DDFF
:102AB000002F00D0B1E06346134300D123E1731E21
:102AC000002B00D0BAE1861A6346B042804101254E
:102AD000C91A4042091A0B0200D447E149024B0AC5
:102AE00098464346002B00D189E14046FDF7CCFED5
:102AF0000300083B1F2B00DD7CE120223000D21AAE
:102B00004146D040994002009E400A439D4200DD6C
:102B10006AE15D1B6B1C1F2B00DD94E1202110007E
:102B20003500C91A8E40DA408840DD40711E8E4162
:102B3000110007222843002506433240002A09D00D
:102B40000F233340042B05D0331DB342B6417642E8
:102B500089191E000B0200D43DE26A1C914B5505F9
:102B60006D0D9A4200D119E18F4AF6080A405707C5
:102B700052023743120B9BE0002E00D0C5E06E1CC2
:102B80007605760D012E00DC48E16746861ACB1BE0
:102B9000B042BF417F42B8461F004346FF1A3B0088
:102BA000B8461B0200D55FE137439AD100220024CA
:102BB000002579E0002E00DCFAE0002F00D18DE046
:102BC000784B9D4267D0802367461B041F43BC4659
:102BD000382E00DC52E1634613435A1E93411E18FF
:102BE00086428041404209180B0200D4BEE06D4B82
:102BF00001359D4200D1D2E06B4A73080A400121A1
:102C00000E401E435108D30707221E43324095E76A
:102C10001E00164300D045E740E7624B9D423AD084
:102C2000802367461B041F43BC46382E00DDEBE0C3
:102C30001F2E00DC3AE133006746203BDF403B00BB
:102C4000202E05D04027BF1B6646BE40324390462B
:102C50004646721E96413343DAE0002B00D114E25F
:102C60006346134300D168E180234E07C008C908BA
:102C70001B030643194208D06046C008184204D11D
:102C800063460100D2085E071643F3009946C90067
:102C9000720F444D11434B46DE08424B4F073743FA
:102CA000CA089D4200D16EE012036D05120B6D0D36
:102CB00000211203130B0A0D12051A433B4B2D057D
:102CC00013402B435B00E4075B08234338001900E3
:102CD0003CBC90469946A246AB46F8BD63461343BA
:102CE00011D0731E002B00D007E186188642804168
:102CF00061444042091801250B0237D502257BE7C4
:102D00003E00614691463500C5E75C46002D00D087
:102D1000E1E00B000343F3D0731C00D1ACE1214B85
:102D20009F4200D13AE1F343382B00DD6FE11F2BC6
:102D300000DD8CE120250E00ED1AAE40B046060005
:102D4000AA46DE40454635432E005546D940A840A8
:102D50006346451EA8415B1A9C463043161AB24290
:102D6000924163465242991A3D00B4E6072232402E
:102D7000002A00D0E4E60B4BF6084F073743CA0899
:102D80009D4200D090E73B00134300D1A6E1802391
:102D90001B031A431203120B024D89E71500002290
:102DA000002785E7FF070000FFFF7FFFFFFF0F8081
:102DB000002E00D0C7E06B1C5E05760D012E00DCF6
:102DC000F0E0C84DAB4200D1B9E085180A00854259
:102DD00089416244494251180722CE076D082E43AB
:102DE000490832401D00A9E6BF49ED1A11400722EB
:102DF0003240A3E6320028388240002686E63000C2
:102E0000FDF742FD203073E6634613435A1E93419B
:102E1000C61AB04280414042091A5CE60E0067467D
:102E200006431743002D5ED1002E00D0F3E0002FA3
:102E300000D11EE15C46614691462CE7A94FBE4297
:102E40007BD01E00F1E610001F3DE840202B03D090
:102E50004021CB1A9A401643731E9E410722064317
:102E600032400021002583E7161A6346B2428041B2
:102E7000591A40420B1A98465C4632E61F2E00DD76
:102E8000ABE02027BB1B9A4663465746BB4099469A
:102E900013004F46F3401F433B005746BA40571EAE
:102EA000BA4113436246F240891898E62027BB1BBB
:102EB0009A4663465746BB40994613004F46F34037
:102EC0001F433B005746BA40571EBA411343624660
:102ED000F240891A9CE7834B9F425FD080252D04E6
:102EE0007342294320E7002E0CD1002F00D1D0E0FF
:102EF0005C46614691467B4DCDE67A4FBE421CD082
:102F00001E0065E6002F18D0C0084E07064380203B
:102F1000C9080003014208D06346DC08044204D11A
:102F20002100DA46D2085E071643F30099460124D1
:102F30005346C900720F11431C406A4DABE61D0099
:102F400000220027B4E6002D59D10B00034300D125
:102F5000D6E6731C00D1B2E0624B9F421ED0F34311
:102F6000382B6FDC1F2B00DD97E020250E00ED1ABB
:102F7000AE40B0460600AA46DE40454635432E0028
:102F80005546A840D940451EA8418C440643B61872
:102F900096429241514261443D0025E63D00614622
:102FA000914678E60B000343002D00D055E6002B38
:102FB000F5D06346134300D16DE686188642804102
:102FC00061444042091800220B0200D4D0E6464B6F
:102FD00001351940B2E5B1465DE633006746203B56
:102FE000DF403B00202E05D04027BF1B6646BE4079
:102FF000324390464646721E96413343EFE5394BC5
:103000009F42CBD080252D0473422943A8E7084373
:10301000411E8841A2E6002F00D13CE66346861A95
:10302000CF1AB0429B415B42FB1A98461B024ED519
:10303000161A6346B2429241591A5242891A5C46A4
:1030400000227BE501430E00711E8E419FE71D00AB
:103050000E00203DEE40B046202B04D04025EB1A58
:1030600099400843814648464346411E88411843DB
:1030700074E60022002417E6161A6346B242924113
:10308000591A5242891A3D0025E561469146154D6F
:1030900001E680220024120379E61D000E00203D87
:1030A000EE40B046202B04D04025EB1A994008434F
:1030B00081464E464346711E8E411E4367E7861881
:1030C00096429B4161445B42C9183D008CE54746EE
:1030D0003743CED007224146324049E600273A0026
:1030E000E6E5C046FF070000FFFF7FFF70B50C4E0E
:1030F0000D031C0349005B002D0B490D240B5B0DD8
:10310000B14208D0064900208B4203D1144320006D
:10311000441EA04170BD05430120002DFAD1F1E706
:10312000FF07000030B5144D0A034B00120B5B0D76
:10313000C90F0024AB4211DD104CA34210DC8024E7
:10314000640322430E4CE41A1F2C0CDD0D48C31AF5
:10315000DA4013005C42002900D11C00200030BD81
:10316000094BCC18FAE7094DE040AC4663449A405D
:1031700013000343EEE7C046FE0300001D040000F9
:103180003304000013040000FFFFFF7FEDFBFFFF8F
:1031900070B500282DD0C317C5185D40C40F280096
:1031A000FDF772FB154B1B1A5B055B0D0A2815DD3D
:1031B0000B38854000222D032D0B002110002D031C
:1031C0000A0D2D0B12052A430D4D1B052A401343F2
:1031D0005B00E4075B082343190070BD020029006F
:1031E000153291400A000B21081AC5402D032D0B02
:1031F000E3E70024002300250022DEE71E04000090
:10320000FFFF0F8010B5041E25D0FDF73DFB144BCA
:103210001B1A5B055B0D0A2812DD0B388440002267
:103220002403240B0021100024030A0D240B120593
:1032300022430C4C1B05224013435B00590810BD70
:1032400002002100153291400A000B21081AC440E7
:103250002403240BE6E7002300240022E2E7C04613
:103260001E040000FFFF0F804100090E4B1C70B5CB
:10327000DBB24602750AC40F012B14DDE0239B006C
:103280006D07360BCB1800210A0D280012051C4DC6
:1032900032435B052A405B0813435B00E4075B088D
:1032A0002343190070BD002914D1002D1ED0280021
:1032B000FDF7EAFA0A281CDC0B232A001B1ADA4065
:1032C000030015339D400F4B12031B1A5B05160BB1
:1032D0005B0DD8E7002D06D0320B802636036D0734
:1032E0001643094BCFE7084B0026CCE70023002606
:1032F000C9E703002A000B3B9A400025E3E7C046DC
:10330000FFFF0F8089030000FF070000F0B54C00AD
:10331000640D0B03621C5B0A460F5205C90F1E4366
:10332000C500520D012A29DD374BE718FE2F1CDCA2
:10333000002F3BDD8001431E98410722F3006D0FF3
:1033400003432B431A40002A04D00F221A40042AB8
:1033500000D004338022D2041A4024D00137FAB2BC
:10336000FF2F02D09B01580A01E0FF2200204002FB
:10337000D205400AC90710430843F0BD3543002C6D
:1033800004D1002D0AD100220020F0E7002DECD05E
:103390008020C0033043FF22E9E7002400235B02C2
:1033A000580AE2B2E3E7DB083C00F8E73B001733DA
:1033B000F3DB80231B0433431E26F61B1F2E14DD74
:1033C00002225242D71B1A00FA401700202E04D0C6
:1033D0000E4A94466444A3401D432B005D1EAB413E
:1033E00007223B431A400027ADE7094A2800A218EC
:1033F000954093406C1EA541F04007222B430343A8
:103400001A4000279FE7C04680FCFFFFA2FCFFFF99
:1034100082FCFFFF10B5002903D1FDF735FA2030FB
:1034200002E0081CFDF730FA10BDC046F0B54E466C
:103430005746DE464546E0B50F00002183B0060042
:103440008946002F06DA3900002746428F410121C4
:1034500049428946002B07DA4946C943100089468C
:103460001900002342428B4134003D0092469846A9
:10347000BB4269D866D041465046FFF7CBFF834632
:1034800039003000FFF7C6FF5B461B1A9C46203B05
:103490009B4600D575E05146584681400B00514689
:1034A000604681400A00BB4261D85ED034003D00D6
:1034B0005946A41A9D41002900DA7AE00021002033
:1034C00001260090019159468E40019661460126E1
:1034D0008E4061460096002950D0D90756085F08F3
:1034E0000E4363460EE0AF4201D1A6420CD8A41BA6
:1034F000BD41012124196D410022013B6418554151
:10350000002B06D0AF42EED9013B24196D41002BB0
:10351000F8D1009801995B4600196941002B3DDB09
:103520002E00DE4063462C00DC405B46002B4BDB6C
:1035300034005D46AC4023006446A6403200801A49
:10354000994103E0B24296D9002000214B46002B5E
:1035500004D003000C0000215842A14103B03CBC40
:1035600090469946A246AB46F0BDB1429ED9002195
:1035700000200090019161460029AED10098019988
:10358000E4E72023624651469B1AD9404046009109
:1035900061468840030000990B4380E76246202380
:1035A0009B1A2A009A40260013006246D6401E430A
:1035B000B8E7614620260127761A00200021F7404F
:1035C00000900191019781E767462023624635000C
:1035D000BC409B1ADD4023002B43ADE7024670B58B
:1035E0000A4392072AD11E4DEE0104C808C9541B94
:1035F0009443344017D0D0B2D9B2401A21060143C7
:1036000010D190B299B2401A210401430AD110029C
:103610001902000A090A401A2102014302D1100EC0
:10362000190E401A70BD9A42DFD010BA19BA8842FA
:1036300001D9012070BD0020C04370BD02780B7815
:1036400001300131002A09D09A4207D102780B7863
:1036500001300131002A01D09A42EFD0D01A70BD5A
:043660000101010162
:10366400074A80211300490010680842FCD08022D8
:1036740052009968114201D1D968FAE77047C046EF
:0436840000C004403E
:02368800704789
:10368A0070B505000C00081E07D010F0B0F92B68C1
:0C369A0002005B6821002800984770BD0A
:1036A80010B5040002490BF063FC200010BDC046B1
:0436B800140C0000EE
:1036BC00F0B516000D000C4F85B0039001213800B9
:1036CC001C0003F087FC0A2005F038FB33002A00AD
:1036DC00012003990090234022402140380003F040
:0C36EC008DFC05B0F0BDC046342A002063
:1036F800002110B5034BFF221B780800FFF7DAFF03
:0837080010BDC04610020020B4
:10371000002210B5034B11001B78FF20FFF7CEFFEE
:0837200010BDC046100200209C
:1037280070B50A25FF240B4E0022337821002000B3
:10373800FFF7C0FF642005F003FB33782200210067
:103748000020FFF7B7FF013D642005F0F9FA002DCE
:08375800E9D170BD1002002050
:1037600010B5040005F07AFB03000120002B0DD1F9
:10377000FA21074B89009A6A5218996A8A42FCD842
:10378000200005F06BFB431E9841C0B210BDC0463F
:0437900000400540B0
:1037940000231800034A590001338852302BFAD110
:0837A4007047C046B43A002052
:1037AC00F8B5154CC0222100144801F08FF9144DC6
:1037BC002870002802D100232B70F8BD2100302086
:1037CC000024104E4F780A78CB783F02D7198A78AC
:1037DC001B02D21812B23FB2BF18FB0F4200DB190A
:1037EC00B21A5B1060320138E418138004310028DF
:1037FC00E8D1002CDFD0E0E7DD3B002044260020A0
:08380C00DC3B0020B43A00206F
:10381400F7B50F4C0700238801910E4E0E4DBF2BB8
:1038240007D9C02231000D4801F0D0F900232B80C4
:10383400238068462B8821885A00B7525A1C8088F6
:1038440092B2520002330431B0522B802180F7BD72
:10385400143B00201A3B0020DA3B002044260020C1
:10386400002110B5034BFF221B780800FFF724FF4B
:0838740010BDC0461002002047
:10387C0010B50CF06DFBE0210A4AC90113680B402E
:10388C0009490B60F9231B021361084B1A680123C9
:10389C005340074A1340074A13600822064B1A602C
:1038AC0010BDC04600C0044000D0044008C0044015
:0C38BC000F00000F08D0044000E00440A2
:1038C80030B5802418230020064964008A68224203
:1038D800FCD1CA68044D013B5219101800B2002BE4
:0C38E800F4D130BD00C0044017FDFFFF0C
:1038F400002330B5174C87B000930122164B1021DA
:10390400200003F05DFB154D15492A0020000BF043
:10391400DBF86021134802F023F8134B134C9A6A26
:10392400134B01211A6080235B000593114B124A4B
:103934000493124B009203930A230293083B0193CE
:10394400200001F023FF2A000D4920000BF0BCF8F1
:1039540007B030BD342A00200000205000020020AF
:1039640089360010681500200040054044260020D8
:10397400A43A00201111000080BB0000B87B0000B5
:043984005554001086
:10398800F0B50A2385B00600032802D8464B42004A
:10399800D35A464A464F13800023464A00203A60CD
:1039A8007B600BF069FC444B5C681B68C01AA14142
:1039B80002930394414C424B18605960210018004F
:1039C8000EF072FF23683F4900936368A2683E487F
:1039D8000FF070FF3D4D3C49280010F001F83C49BC
:1039E80028000FF0D5FF280010F002F8394A3A49AC
:1039F80040190FF05FFF28000FF0FAFF39687A6866
:103A08002A4B40191B8800910192320033490FF06C
:103A180051FF334E29003000FFF733FE300003F02A
:103A280093FB0320FFF71AFF00200BF025FC224B25
:103A38001A685B68801A9941214B18605960210007
:103A480018000EF031FF23681E4900936368A268CE
:103A58001D480FF02FFF1C4928000FF0C1FF1C491B
:103A680028000FF095FF28000FF0C2FF194A1A49E5
:103A780040190FF01FFF28000FF0BAFF39687A6865
:103A88000A4B40191B8800910192164A1649126880
:103A98000FF010FF29003000FFF7F3FD300003F0AE
:103AA80053FB05B0F0BDC04684870110AC3A002036
:103AB800080200201060AC01F0150020803A0020B8
:103AC8006010002047880110263E0020223D00207B
:103AD80059880110428901105B8801109C880110E7
:0C3AE800541C002004020020BB880110C8
:103AF400F7B5060000200F000BF0C0FB02000B001E
:103B0400334934480C684D68121BAB41324C026097
:103B1400436021000EF0CAFE2368304D00936368B1
:103B2400A2682F4928000FF0C7FE2E4C2900200060
:103B34000FF058FF2C4920000FF02CFF20000FF04D
:103B440059FF2A4A2A4900190FF0B6FE20000FF047
:103B540051FF284D00192A686B6827490092019388
:103B640032003B000FF0A8FE21002448FFF78BFD34
:103B7400224803F0EBFA3000390064220023FCF7FA
:103B8400E3FE0B0000211E4C02000091200002F015
:103B94009BFD2A686B6830003900801A99416422C1
:103BA4000023FCF7D1FE0B0001210200009120004C
:103BB40002F08AFD2868696864220023FCF7C4FEC9
:103BC4000B00022102000091200002F07DFDF7BDF0
:103BD400F015002060100020803A0020263E0020CE
:103BE40047880110223D0020598801101D890110C9
:103BF4005B880110001000201C880110541C002058
:043C0400681500201F
:103C08000023F0B51A0085B080216D4802F010FC41
:103C18006C4E03906C4C002800D0A2E00BF02CFBFB
:103C280022686368801A9941684D30607160290084
:103C380030000EF039FE2B68654F00936B68AA6858
:103C4800644938000FF036FE634D390028000FF044
:103C5800C7FE624928000FF09BFE28000FF0C8FE3F
:103C68005F49604A40190FF025FE28000FF0C0FE9A
:103C78005D4940190FF0B4FE290000255B4F38005C
:103C8800FFF7FFFC380003F05FFA594900224C485F
:103C980002F068FA12230095564A494802F000FAE1
:103CA80029000322464802F0D3FA2A002900444892
:103CB80002F0B8FA2A000121414802F0C9FA0122AB
:103CC8003F48110002F0AEFA2A0002213C4802F0F7
:103CD800BFFA012202213A4802F0A4FA464B1868BA
:103CE8005968FFF703FF28000BF0C6FA22686368DB
:103CF800801A9941354C30607160210030000EF017
:103D0800D3FD2368324D00936368A26831492800C7
:103D18000FF0D0FD304C290020000FF061FE2F4934
:103D280020000FF035FE20000FF062FE2D4A2C49CE
:103D380000190FF0BFFD20000FF05AFE039B001979
:103D48002E4A002B00D12E4A2E490FF0B3FD274DE5
:103D580021002800FFF795FC280003F0F5F905B0CD
:103D6800F0BD00200BF088FA22686368801A994138
:103D7800164D30607160290030000EF095FD2B68FB
:103D8800134F00936B68AA68124938000FF092FD30
:103D9800114D390028000FF023FE104928000FF0BC
:103DA800F7FD28000FF024FE0D490E4A40190FF0C8
:103DB80081FD28000FF01CFE134940195AE7C04640
:103DC8006815002060100020F0150020803A0020BF
:103DD800263E002047880110223D00205988011006
:103DE8005B8801100489011097870110541C00207A
:103DF800E8D1FFFF00205FA0080200208C87011097
:0C3E080091870110E1870110BA870110BA
:103E140037B500211A2004F0BBFF0221082004F06A
:103E2400B7FF0121022004F0B3FF0121022004F0B6
:103E3400EDFF00200BF022FA02000B001A491B4888
:103E44000C684D68121BAB41194C026043602100A1
:103E54000EF02CFD2368174D00936368A268164981
:103E640028000FF029FD154C290020000FF0BAFDA1
:103E7400134920000FF08EFD20000FF0BBFD114A06
:103E8400114900190FF018FD20000FF0B3FD0F4980
:103E940000190FF0A7FD0E4D21002800FFF7F3FBDA
:103EA400280003F053F937BDF015002060100020FE
:103EB400803A0020263E002047880110223D002041
:103EC40059880110328901105B8801103088011073
:043ED400541C00205A
:103ED80037B5FFF767FC294B1B78002B3FD0012231
:103EE8000020274B1A60274B18600BF0C5F9020019
:103EF8000B00254925480C684D68121BAB41244C22
:103F08000260436021000EF0CFFC2368214D00932E
:103F18006368A268204928000FF0CCFC1F4C2900D8
:103F280020000FF05DFD1E4920000FF031FD20003C
:103F38000FF05EFD1B4A1C4900190FF0BBFC200066
:103F48000FF056FD194900190FF04AFD184D2100D0
:103F58002800FFF796FB280003F0F6F837BDFFF7B7
:103F6800AFFC0625134B1C88041B24B2210020003B
:103F7800013DFFF74BFC002DF8D1EFE7DC3B0020BB
:103F880014160020C8380020F0150020601000200A
:103F9800803A0020263E002047880110223D00205C
:103FA800598801105C8901105B880110F68801109E
:083FB800541C0020AA3A00206D
:103FC0007FB5364E029003913468354D002C54D1A4
:103FD0002100022004F01CFFFFF78EFB22002800C6
:103FE000012102F023F922002800022102F01EF92B
:103FF00001222100280002F019F90123200033607A
:104000000BF03EF902000B00264927480C684D686A
:10401000121BAB41254C0260436021000EF048FCAE
:104020002368234D00936368A268224928000FF09B
:1040300045FC214C290020000FF0D6FC1F49200030
:104040000FF0AAFC20000FF0D7FC1D4A1D490019F3
:104050000FF034FC20000FF0CFFC1B4900190FF0CB
:10406000C3FC1A4D21002800FFF70FFB280003F0C6
:104070006FF80822164B1A607FBD16496422086843
:1040800049680023FCF762FC029A039B12184B411B
:1040900000212800009102F019FBEDE7181600201E
:1040A00068150020F015002060100020803A0020E4
:1040B000263E002047880110223D0020598801102B
:1040C000538901105B880110F1880110541C0020F5
:0840D00000F00440080200208A
:1040D800F7B5434E3368002B70D00022414C1100D5
:1040E800200002F09FF8404F642238687968002366
:1040F800FCF728FC002502000B000095200002F0C8
:10410800E1FA38687968394B01271A685B68801AC0
:10411800994164220023FCF715FC00970B0002006C
:10412800200002F0CFFA20003A00390002F07AF8B5
:104138003A002000022102F075F8FFF7E5FA39008D
:10414800022004F061FE280035600BF095F80200AB
:104158000B00274927480C684D68121BAB41264CB9
:104168000260436021000EF09FFB2368234D0093FB
:104178006368A268224928000FF09CFB214C2900A3
:1041880020000FF02DFC204920000FF001FC20003A
:104198000FF02EFC1D4A1E4900190FF08BFB200062
:1041A8000FF026FC1B4900190FF01AFC1A4D2100CC
:1041B8002800FFF766FA280002F0C6FF00231A005D
:1041C8001649580001334252302BFAD1144B1A8049
:1041D800144B1A80FFF742FA0822134B1A60F7BDF6
:1041E8001816002068150020080200200010002082
:1041F800F015002060100020803A0020263E0020A4
:1042080047880110223D0020598801103A89011081
:104218005B88011097880110541C0020B43A0020D4
:0C422800163B0020143B002000E0044086
:10423400294B37B51B68012B3AD100200BF01EF82F
:1042440002000B00254926480C684D68121BAB413F
:10425400244C0260436021000EF028FB2368224DA9
:1042640000936368A268214928000FF025FB204CC5
:10427400290020000FF0B6FB1E4920000FF08AFB36
:1042840020000FF0B7FB1C4A1C4900190FF014FB67
:1042940020000FF0AFFB1A4900190FF0A3FB194DD2
:1042A40021002800FFF7EFF9280002F04FFF37BD87
:1042B4000820FFF753FA0028F9D1134B00211860A6
:1042C4001248FFF77BFE0820FFF748FA0028FAD0CF
:1042D400FFF700FFEBE7C046CC280020F0150020D4
:1042E40060100020803A0020263E002047880110FC
:1042F400223D0020598801104A8901105B88011071
:10430400E2880110541C002018160020F049020015
:10431400F0B5B14B93B01B780493002B00D185E129
:1043240000242600AD4B089400229B5E099403935D
:10433400AB4B1B681193AB4B00255D5FAA4B00226E
:104344009B5E0793A94B1F68A94B00229B5E0593B4
:10435400099B5A00A74BD35E0693039B002B00DBFB
:10436400D2E0069B002B00DAF4E00398FDF752F943
:10437400069B1090002B5AD1FEF774FF0A900B9104
:104384000798FDF747F9FEF76DFF9B4A0C900D91D6
:104394000A980B99994BFEF7EDF80C9A0D9BFEF7D2
:1043A4005BFB00220023FCF70BFA00282FD0089BAC
:1043B400002B03D06A468E4B928A1A80002E00D1BD
:1043C4007DE16A46884B928B1A80002C03D0874B80
:1043D4001F60002E05D06A46824B92891D807F4B58
:1043E4001A80002200200021854B1A60854B18603A
:1043F4005960834B7E4C1B68002B00D0ADE02380BA
:10440400FFF768FE13B0F0BD069B0393A0E77E4A56
:104414007E4B0A980B99FEF7ADF80C9A0D9BFEF7AC
:104424001BFB00220023FCF7DFF90028BFD1069B09
:10443400039A981A00B2FDF7EDF8011C1098FCF7E6
:10444400FBFB0790381CFEF70DFF0022704BFDF7B5
:104454006BF9060028000F00FDF7DCF8FEF702FFF9
:1044640002000B0030003900FDF75EF904000798E4
:104474000D00FEF7F7FE02000B0020002900FEF7F6
:10448400EBFAFEF741FFFEF7EDFE02000B00002001
:104494006049FDF765FCFCF7B7FA01235E4A5B420D
:1044A40012184B411400002B0CD15C4B9C4209D8D0
:1044B400059B9A005A4BD050059B01331BB20593C0
:1044C400049B08930025049C079F099B049E0133C9
:1044D4000993039B0793099B302B95D1089B002BD1
:1044E40003D06A46424B928A1A806A463E4B9289AE
:1044F4001A80002C01D03D4B1F606A46394B128B49
:104504001D80364B1A8074E7119B012B22D1069B28
:10451400039A13431BB2002B1CD1089B002B03D01E
:104524006A46334B928A1A80002E0FD06A462E4B6D
:10453400928B1A80002C04D02C4B1F60002E00D1CB
:104544004FE7284B00221D80244B49E7002C00D163
:1045540047E7F1E701352DB2B7E70022A35E002B50
:104564002FDD04F0DFFB2F4B1B68C01A052828D968
:104574000023E25E002000230021294F9A420ADD35
:104584009D007D5901330E95ED170F950E9D0F9EDD
:1045940040197141F2E7D317FCF792F9194D06005F
:1045A4002B680F00C31ADA179B1853400A2B01DD3E
:1045B400FFF704FD0023238004F0B4FB194BC0C5AE
:1045C40018600122064B1A6004F0ACFB164B18600D
:1045D400FFF7EAF816E7C046DC3B0020B23A0020B9
:1045E400C8380020183B0020B03A0020842900205D
:1045F400AE3A0020B43A0020CDCCCCCCCCCCFC3F9D
:104604001416002058100020295C8FC2F5280040A1
:104614000000F03F804F5241DFB1FFFFBE45040070
:10462400FC2800201C1600202016002004F07AFB31
:10463400254B1B68C01A3228CAD9049A234B049804
:104644001A606A46224B128A1A800AF017FE020088
:104654000B00204920480C684D68121BAB411F4CCD
:104664000260436021000EF021F923681C4D009381
:104674006368A2681B4928000FF01EF91A4C290030
:1046840020000FF0AFF9194920000FF083F9200042
:104694000FF0B0F9164A174900190FF00DF9200070
:1046A4000FF0A8F9144900190FF09CF9134D2100DB
:1046B4002800FEF7E8FF280002F048FDA0E6002CE1
:1046C40000D18EE683E6C046201600201416002092
:1046D400AE3A0020F015002060100020803A00203F
:1046E400263E002047880110223D002059880110F1
:1046F400108901105B88011097880110541C002058
:1047040010B5FFF795FD054B1B68002B02D1FFF791
:10471400E1FB10BDFFF7FCFDFBE7C04614160020CB
:10472400F7B5E1217E48490202F056FF7C4802F0C9
:104734006BFD0028FAD06421794804F0BEFA784869
:1047440002F004FD00200AF099FD764E764F33689E
:104754007468C01AA141754C386079602100380032
:104764000EF0A4F82368724900936368A268714844
:104774000FF0A2F8704D6F4928000FF033F96F491C
:1047840028000FF007F928000FF034F96C4A40199B
:104794006C490FF091F828000FF02CF96A4A6B4B22
:1047A40040196B490FF088F829005D48FEF76BFF4C
:1047B4005B4802F0CBFCFFF72BFBFEF7B3FF654B26
:1047C400186880B2FFF7DEF8FFF756F8FFF71AFA19
:1047D40000200AF053FD32687368801A99413860EA
:1047E4007960210038000EF061F823685049009385
:1047F4006368A2684F480FF05FF828004D490FF036
:10480400F1F84E4928000FF0C5F828000FF0F2F82F
:104814004B4A40194B490FF04FF828000FF0EAF8C3
:104824004D4940190FF0DEF829003D48FEF72BFFF3
:104834003B4802F08BFCFEF7ABFF00200AF01EFDA4
:1048440032687368801A99413860796021003800B1
:104854000EF02CF82368364900936368A268354843
:104864000FF02AF8280033490FF0BCF83349280028
:104874000FF090F828000FF0BDF8314A4019314983
:104884000FF01AF828000FF0B5F8344940190FF06A
:10489400A9F829002248FEF7F6FE214802F056FC4A
:1048A400FA20400004F04EFAFEF7DAFEFFF70AF8A9
:1048B4002B4B1880FFF70EFC00200AF0DFFC326857
:1048C4007368801A994138607960210038000DF0CE
:1048D400EDFF2368164900936368A26815480EF03B
:1048E400EBFF280013490FF07DF8144928000FF05E
:1048F40051F828000FF07EF8114A401911490EF0C2
:10490400DBFF28000FF076F8164940190FF06AF81B
:1049140029000348FEF7B7FE014802F017FCF7BD73
:10492400541C0020F015002060100020803A002064
:1049340047880110263E0020223D0020598801109E
:104944002C8901105B8801106989011066890110A6
:104954006D890110040200209C890110AC890110AA
:08496400AA3A0020CE890110DF
:02496C00704792
:02496E00704790
:0249700070478E
:0E4972000023994201D10300C633180070479C
:04498000022070475A
:08498400004870478E8B011002
:08498C0000487047788B011010
:0A49940010B50C220EF058FC10BD07
:1049A00010B50400024B036007F0DCF9200010BDD5
:0449B000148A011054
:1049B40010B50400FFF7F2FF200038210AF0DAFAFC
:0449C400200010BD02
:1049C80010B50400024B036007F0C8F9200010BDC1
:0449D800FC89011045
:1049DC0010B50400FFF7F2FF200034210AF0C6FAEC
:0449EC00200010BDDA
:1049F000F8B504000F0015001E0003F097F804231B
:104A0000FF212B70FA88237911409C46002099429F
:104A100013D36379634499420FDA797801290CD171
:104A200080239B009A4208D1FF22BB88134204D105
:104A30001B12012B02D0022B10D0F8BDFA78012AEC
:104A400006D0812AF9D1143434602B701800F4E7B1
:104A50008634FF34346028701000EEE7F878C2B274
:104A6000812A10D004D80138032814D90020E4E7A3
:104A7000832A0ED00BD31C34842AF7D1012334604F
:104A80002B700220D9E7163434602970DEE7183421
:104A9000F4E71A34F2E78634FF3434600023EFE79A
:044AA00000687047F3
:064AA4000023C36070470F
:044AAA000C30704715
:0C4AAE0010B5FFF7FBFF0023036010BDF4
:104ABA00CB6810B5C360002B01D05B68984710BD66
:0E4ACA00C36810B5002B01D09B68984710BD43
:104AD80070B5040015000E0090B003F015F802A898
:104AE80007F02AF90D9520003D2501220C96002695
:104AF8000E4B02A9029301AB0E936D440FABA43089
:104B08001A700B942E7007F0EDFA200003F003F8EA
:104B1800074B31001A6802A807F0D2F82C7802A8CF
:104B2800FFF73AFF200010B070BDC046148A01108C
:044B3800488A011096
:104B3C00F7B505002E00883600911700019302F09E
:104B4C00E1FF300007F070F90400B84200D93C00D6
:104B5C0030002200009907F071F9019B28001C60BD
:064B6C0002F0D7FFF7BDC7
:104B720013B50400406A030099331A780023022A0D
:104B820003D001203534237016BD0193E26A01ABD4
:104B9200A16AFFF7D2FF019BA26AD218A262226B1E
:104BA2001168CB181360E36A01995B1A2100E36272
:104BB20034310978002902D11268002A02D100207A
:0C4BC2008342E1D1012035342070DDE792
:104BD00070B504000E008EB0150002F099FF01A818
:104BE00007F0AEF820000B9600260D4B01A90C959E
:104BF0009C300DAD01930A942E7007F077FA2000D7
:104C000002F08DFF074B31001A6801A807F05CF82D
:104C10002C7801A8FFF7D8FE20000EB070BDC0466A
:084C2000FC890110488A011013
:104C2800F0B50400B9B0BF22002108A80EF09CFB23
:104C3800227908A8931CDBB20193230060331B7808
:104C480008AE02932300C2331D88613B1B783700EE
:104C580003932300C4331B88511C9C462300C03394
:104C68001B78C9B2069323006C331B880493230076
:104C7800C1331B78079323006A331B88F2720593AC
:104C8800BF4BFA7403800300BF209870042308A860
:104C9800FF3383808020F0714E3830722A3870726A
:104CA8000330B0720920B381033BFF3B70740220CC
:104CB800B3730426B34AFF307A83B34A3B77BE7492
:104CC800F882FA830222BE1CF2776A4608AFFE1CFD
:104CD8001779F17709AEF777AC4F08AA119708AFA3
:104CE80038852B27BF186A46127A3A7013AF3D7081
:104CF8002D2708AABF182D0A3D70A54D36271495F3
:104D08000325BF183D7039279086BF1809223A70CD
:104D18003A2708AABF1824223A703B2708AABF18C6
:104D28003D7017AF3D703D27BF183B703E27BF1839
:104D380002223D7018AD2A70964D08AFF587964E41
:104D4800BD1D964FEE870AADEF87492508AAAD1815
:104D58006A46167B08AA2E704A256646AD182E703C
:104D680065464B262D0AB61835704E258C4EAD1863
:104D78002E808C4E1CAD2E805225AD18288004251F
:104D8800AC388018057057208018092200920270EC
:104D98001EA80570592008AA80180170824E1FA805
:104DA800078020A806806220801801706321891876
:104DB8000B7021A90B70652189180B7066210225DB
:104DC80089180D7069210720891808706A2124261E
:104DD80089180E706B2189180B7023A90B706E212E
:104DE80089186A46107A0B7025A90870752108AAD7
:104DF80089180D7076210E3589180D707721E06DB0
:104E080089180B7026A90870792184468918000A28
:104E1800087061467A20E940801801707B21891862
:104E2800092205200A7027A908707D2108AA891877
:104E38006A46127E5D4E0A707E2108AA89180B7098
:104E48007F2189186A46127C24960A70049928AA38
:104E5800090A1170812108AA89180B70544929AAD6
:104E68001180862208A9521813708B22521811003B
:104E780009220A7004222BA90A708D2208A9521847
:104E880011006A46127931960A702CA90F80464F94
:104E98002DA90F80962708AABF186A4639001779E6
:104EA80008AA0F709727BF183B709927BF183B7047
:104EB8009A272EA9BF180B70022239009D270A7065
:104EC80008AABF18390007270F709E27BF18242289
:104ED8003A709F2708AABF183B7030AF3870A127D7
:104EE800BF183B70A227BF186A46117B32AE3170DB
:104EF800A92608AAB61802223270AA2608AAB61845
:104F08003570AB2608AAB6183370AD26A16D33AA42
:104F18001170A16D08AA0D0AB6183570AE25AF2616
:104F28000A0C08A96D1876182A70320009253B70FA
:104F3800157034AA1070B12208A952186946097F61
:104F480035A81170B22208A952181370B32252184A
:104F58006946097D1170059A08A9120A0270B522DE
:104F680052181349137036AA1180BA22200008A9D2
:104F780052181370C630BF220EF064F939B0F0BD74
:104F8800090200000A240000013D00000C2402016F
:104F9800092406020C24000002040000010200009B
:104FA8000924000003050000090400000B24020185
:044FB80007250000C9
:104FBC00F7B503000500663364351F88224A2B8839
:104FCC000400934203D9214A01379B182B802300FC
:104FDC00260061331B78623601933378002B15D190
:104FEC00230098331B78022B0DD1019B5B005F4390
:104FFC00230078331800019306F016FFB8420CD248
:10500C00636D013363650123337005E02000783054
:10501C0006F078FF0028E3D1F7BD216F3A00019824
:10502C0006F00CFF02F048FD2300C133226F197803
:10503C003B0007F0C7FF0023683433702B882288AD
:10504C009B182B80E8E7C046E703000018FCFFFF25
:10505C0010B5040002F064FD230062331B78002BB2
:0A506C0002D02000FFF7A4FF10BDE2
:10507600F7B504002600783600911700019302F078
:1050860044FD300006F00BFF0500B84200D93D0094
:105096002A000099300006F00AFF019B20001D60DF
:0C50A600FFF7D9FF200002F037FDF7BD36
:1050B20037B50400406A0025030098331B78022BA1
:1050C20003D00120303425703EBD01ABE26AA16AF3
:1050D2000195FFF7CFFF019AE36AA16A9B1A8A182A
:1050E200E362A2622800002BEED10120303420704E
:0250F200EAE7EB
:0E50F40010B504000021FFF7D3FC200010BD12
:0C51020010B50400FFF7E0FC200010BD19
:0E510E0010B504000021FFF7C6FC200010BD04
:0C511C0010B50400FFF7D3FC200010BD0C
:1051280070B504000D00884205D0FFF7CAFC2900BD
:0A5138002000FFF7BEFC200070BD50
:1051420010B5FFF7B1FC0068431E9841C0B210BD14
:1051520070B504000D00884205D0FFF7B5FC2900A8
:0A5162002000FFF7A9FC200070BD3B
:10516C0010B5FFF79CFC0068431E9841C0B210BDFF
:10517C0010B50400FFF7DFFF002804D1054A0649EB
:10518C00064809F0A1F8E068FFF784FC0300200052
:10519C00984710BD02020000258B0110308B0110C6
:1051AC0070B50E000500140002F0BAFCB279297932
:1051BC008A4242D36B795B189A423EDA002C3CD17E
:1051CC003378012B18D03289531E012B33D8C323CB
:1051DC0086215B00EB5CFF31685C1B0203431BB256
:1051EC00FF20012A01D00138FF38B488184024125E
:1051FC00012C03D0022C0AD001241CE0F678012EDD
:10520C0019D1287528002030FFF7B2FFF4E7F478A5
:10521C00012CF1D180B2E882FCF742FA061C688BB3
:10522C00FCF73EFA011C301CFBF702FD286128003C
:0E523C002030FFF79DFF200070BD0024FBE72F
:10524C0070B504000D00FFF78BFF002804D1064A4F
:10525C000649074809F038F8E068FFF71BFC2900FD
:10526C0003002000984770BD02020000258B01103E
:04527C00308B011062
:1052800070B504000D0002F051FC230099331E7824
:105290001D70AE4222D0022E08D12000A43006F0AC
:1052A0000EFF200031004030FFF7D0FF2600AC3663
:1052B000022D0DD12000A43006F001FF20000021B6
:1052C0004030FFF7C3FF022130000AF043F805E049
:0E52D000012DF8D1022130000AF041F870BD26
:1052DE00F8B504002500C03502F021FC260029781F
:1052EE00200002F023FC88360700300006F0D3FDC4
:1052FE00B8420CD2236D0133236502F0DCFB230090
:10530E006C3329781B88626F07F0B9FDF8BD300049
:10531E003A00616F06F0C7FD260020004036A4302B
:10532E0006F0C6FE3000FFF71AFF0028E5D0012177
:08533E003000FFF784FFE0E7F7
:1053460070B504000D0002F0EEFB230098331E78C2
:105356001D70AE4222D0022E08D120009C3006F0ED
:10536600ABFE200031003030FFF76DFF2600AC3673
:10537600022D0DD120009C3006F09EFE200000215B
:105386003030FFF760FF0121300009F0E0FF05E053
:0E539600012DF8D12900300009F0DEFF70BDB6
:1053A40070B5040002F0B2FB237B002B09D1012568
:1053B400200029002573FFF761FF29002000FFF773
:0A53C400C0FF200002F0A9FB70BD3D
:1053D000030070B50D0004006A331A88012128000B
:1053E00006F015FE2300C0331870543B1A880121C3
:1053F000280006F005FE2300C1331870280006F0CF
:105400009BFD002804D196220549064808F062FF5A
:105410002000FFF709FC2000FFF7C4FF70BDC04665
:085420008E8A01109B8A011025
:1054280070B5040002F070FB237B002B09D0002527
:10543800200029002573FFF71FFF29002000FFF730
:0A5448007EFF200002F067FB70BD3C
:1054540010B504001A4B08330360FFF7E3FF02F0B2
:105464002FFB07F09BFF206F002801D009F093FD6C
:10547400606F002801D009F08EFD2000AC3009F0E7
:1054840071FF2000A43006F060FE20009C3006F07E
:105494005CFE2000883006F09FFC2000783006F087
:1054A4009BFC20004030FFF737FE20003030FFF730
:1054B40033FE20002030FFF722FE200010BDC0463E
:0454C4003C8B01100C
:1054C80010B50400FFF7C2FFC4212000490009F00D
:0654D8004FFD200010BD95
:1054DE0070B504000D0002F022FB237B002B09D0D7
:1054EE00042D07D001212000FFF7C3FE012120006B
:0654FE00FFF722FF70BD64
:1055040070B50E000500140002F00EFB012E09D147
:10551400012C06D8013C6142614128000131FFF7AA
:10552400ADFE70BD022EFCD1012CFAD8013C6142C3
:0C553400614128000131FFF704FFF2E79D
:1055400010B5040002F0F2FA2300C13319782000EC
:1055500002F0FBFA2000FFF731FD200030349C30D0
:1055600006F0ADFD2000FFF701FE002803D0012169
:085570002000FFF76BFE10BDE7
:1055780010B5044B0822C3600B68002108C00DF069
:08558800F3FE10BD3C8A011086
:1055900013B504000191002903D1FFF788FA200018
:0A55A00016BD01A9FFF7E8FFF9E7C7
:0C55AA0010B50400FFF7EFFF200010BD5B
:1055B80010B5044B0822C3600B68002108C00DF029
:0855C800D3FE10BD308A011072
:1055D00013B504000191002903D1FFF768FA2000F8
:0A55E00016BD01A9FFF7E8FFF9E787
:0C55EA0010B50400FFF7EFFF200010BD1B
:1055F800F0B58BB01D0010AB1B7800270593002376
:10560800036180230400C382DB184383FC3B83834C
:105618000391077307750783584906A80492FFF793
:10562800C0FF200006A92030FFF77AFD06A8FFF783
:1056380064FD534E06A83100FFF7D3FF200006A9EA
:105648003030FFF782FD06A8FFF764FD310006A899
:10565800FFF7C7FF200006A94030FFF776FD06A830
:10566800FFF758FD039B6A46E3652300127D61330B
:10567800A565276567651A706A46127C0193013B28
:105688001A70FA2101229F809A70890028000293DB
:10569800FAF7F0FE2300FA21663306001880890025
:1056A8002800FAF76DFF230068331980B5B24E1E43
:1056B800B141059B334A5E00230094466D18FA21D8
:1056C80075436A33ADB21D80039B8900634418009B
:1056D800FAF7D0FE2600049B6C365B004343280093
:1056E800338009F029FC030045199D4202D01F7040
:1056F8000133FAE720673588280009F01DFC0022ED
:10570800030045199D4202D01A700133FAE7FA21C5
:10571800119B019A5D00A36D60676B431078890047
:105728005843FAF7A7FE01002000783006F05BFB2B
:10573800FA21E36D89005D43029B18786843FAF704
:1057480099FE01002000883006F04DFB230001225D
:1057580098331A705A70029B1A780323012A00D1D1
:1057680000232200C2321380019B1A780323012AE6
:1057780000D10023C43423800BB0F0BD6F49001062
:0857880071490010E703000065
:10579000F0B585B01F000AAB160004CB00251B78BE
:1057A00004000393032343711B4B8560083303609C
:1057B00020300292FFF79EFC20003030FFF7A7FC5C
:1057C00020004030FFF7A3FC20002900783006F0CD
:1057D00026FB20002900883006F021FB20009C30A9
:1057E00006F060FC2000A43006F05CFC2000AC3029
:1057F00009F0A6FD0C9B3A000193039B3100009336
:105800002000029BFFF7F8FE02F05CF9210002F095
:0C58100013F9200005B0F0BD3C8B011026
:10581C0010B542680368086854100019D20701D506
:08582C000268D358984710BD33
:0C58340010B501000430FFF7EFFF10BDBD
:1058400010B5024BC3601CC91CC010BD248A0110D6
:1058500010B586B00400684603910092436004AB23
:1058600006C806C3200003A9FFF7EAFF200006B020
:0258700010BD69
:0C58720013B50400FFF7EBFF200016BD8B
:10588000F0B591B004000F00002602F04FF9012F8F
:1058900042D102F017F92300C033059003931B781F
:1058A0000CAD069323006C3304931B881C4A0793AA
:1058B000210033002800FFF7DCFF3B00079A069920
:1058C0000095059807F0DAFD2800FFF71AFC02F0B2
:1058D000F9F823000590C1331B78124A0693230080
:1058E0006A331B882100079328003300FFF7C1FFAC
:1058F0003B00079A06990095059807F0BFFD280020
:10590000FFF7FFFB02F0DEF8039A049B11781B8877
:10591000626F07F0BBFA3E00300011B0F0BDC04628
:08592000DF5200104155001098
:0859280010B50368984710BD9B
:0859300010B5FFF7F9FF10BDEF
:0C59380010B50A7803681000984710BDF5
:1059440007B56B46D97107331900FFF7F3FF07BD9D
:0859540010B5FFF76DFF10BD57
:08595C0010B5FFF7F9FF10BDC3
:1059640070B504000D00052200210DF0FFFC601D40
:10597400042200210DF0FAFC23007D331D70054B39
:105984002200E366002368322000137053701375FD
:0859940070BDC04640787D01A2
:10599C00174B10B599420AD813001A339B00C31841
:1059AC005960012A02D100237C30037010BD114BC9
:1059BC00114CCB18A3420AD813001A339B00C318FE
:1059CC0049085960012AF1D17C304023EDE70B4B9B
:1059DC000B4CCB18A342E9D813001A339B00C31805
:1059EC0089085960012AE1D17C308023DDE7C0466B
:1059FC0080C3C9017F3C36FE7FC3C901FF786CFCB4
:045A0C00FF596202DA
:105A1000F0B587B01C000EAB1B7815000393030094
:105A2000002900D08AE068331B7864221A339B0077
