:020000041000EA
:1000000000B5324B212058609868022188439860DF
:10001000D860186158612E4B002199600221596106
:100020000121F02299502B49196001219960352056
:1000300000F044F80222904214D00621196600F024
:1000400034F8196E01211966002018661A6600F04E
:100050002CF8196E196E196E052000F02FF8012189
:100060000842F9D1002199601B49196000215960AB
:100070001A491B48016001219960EB211966A021F2
:10008000196600F012F800219960164914480160C1
:100090000121996001BC002800D000471248134993
:1000A000086003C880F30888084703B5996A0420EC
:1000B0000142FBD001200142F8D103BD02B5186610
:1000C0001866FFF7F2FF186E186E02BD00000240BE
:1000D000000000180000070000035F00212200005C
:1000E000F4000018222000A00001001008ED00E03C
:1000F00000000000000000000000000074B24E7A12
:1001000000000420E3010010C3010010E903001007
:10011000C1010010C1010010C1010010C101001097
:10012000C1010010C1010010C10100104503001001
:10013000C1010010C1010010C9030010D503001057
:10014000CD010010CD010010CD010010CD01001037
:10015000CD010010CD010010CD010010CD01001027
:10016000CD010010CD010010CD010010CD01001017
:10017000CD010010CD010010CD010010CD01001007
:10018000CD010010CD010010CD010010CD010010F7
:10019000CD010010CD010010CD010010CD010010E7
:1001A000CD010010CD010010CD010010CD010010D7
:1001B000CD010010CD010010CD010010CD010010C7
:1001C00000BE00BE00BE00BE00BE00BE00F03FF894
:1001D000103800BE00202049086006C881F3088856
:1001E00010471E48006800282DD10CA40ECC002911
:1001F00002D000F010F8F9E719491A4A002000E08F
:1002000001C19142FCD1184988471849884700BE6E
:10021000FDE701C901C29A42FBD370475C77011028
:10022000C0000020CC0F00207486011000000420C4
:100230000000042074860110001004200010042027
:100240000000000070470A480DF054FB0047EFF330
:100250000580C0B27047000008ED00E0000000D04B
:10026000D80F00205CAC0020CD020010C9B70010F0
:1002700057560000F8B5C046F8BC08BC9E4670470B
:10028000F8B5C04610B5064C2378002B07D1054BB6
:10029000002B02D0044800E000BF0123237010BDF2
:1002A000381500200000000084020010044B10B537
:1002B000002B03D00349044800E000BF10BDC04636
:1002C000000000003C15002084020010164B002B9B
:1002D00000D1144B9D46402292029A1A9246002168
:1002E0008B460F461348144A121A0FF05FFB0F4B50
:1002F000002B00D098470E4B002B00D098470020D1
:10030000002104000D000D48002802D00C480BF01D
:100310005EFA0EF0CDFE2000290007F027FE0BF05C
:1003200053FAC0460000080000000420000000004E
:10033000CD7E0010D80F00205CAC0020CFB700109D
:10034000000000007046C0082CD3EFF309808169DB
:1003500002390978002929D101B50FC8B8470CBC6A
:1003600003C29E461E4B06CB91421ED0083B1A602C
:10037000002909D0EFF3098020388863F0C0444693
:100380004D4656465F46F0C0906B1030F0C8A04610
:10039000A946B246BB4680F309882038F0C802203F
:1003A000C0430047EFF30880D1E770470D4A136858
:1003B0009942FAD801B5890053589C460FC8E047C6
:1003C0000CBC10609E46704701B507F079F803BC7D
:1003D0008E46C7E701B507F031F803BC8E46C1E78A
:1003E000F80300207C550110102304E0202302E0D4
:1003F000302300E040239C46F0B404AE7546E80884
:1004000001D3EFF309860E4F0FCE0FC70FBC0FC7F6
:100410004046494652465B460FC71DCE3100A60AEC
:1004200000D304316E0900D248311FC7EFF30980B1
:100430006946EFF3148663C7604601490AF09CFCE5
:10044000CCAB002001480421014B1847F0050020E7
:1004500005D9001002B471464908490009564900FF
:100460008E4402BC7047C04602B471464908490038
:10047000095C49008E4402BC7047C0460022430814
:100480008B4274D303098B425FD3030A8B4244D35C
:10049000030B8B4228D3030C8B420DD3FF2209029E
:1004A00012BA030C8B4202D31212090265D0030B5D
:1004B0008B4219D300E0090AC30B8B4201D3CB0353
:1004C000C01A5241830B8B4201D38B03C01A524195
:1004D000430B8B4201D34B03C01A5241030B8B4297
:1004E00001D30B03C01A5241C30A8B4201D3CB0282
:1004F000C01A5241830A8B4201D38B02C01A524167
:10050000430A8B4201D34B02C01A5241030A8B4269
:1005100001D30B02C01A5241CDD2C3098B4201D381
:10052000CB01C01A524183098B4201D38B01C01AFF
:10053000524143098B4201D34B01C01A5241030976
:100540008B4201D30B01C01A5241C3088B4201D325
:10055000CB00C01A524183088B4201D38B00C01AD2
:10056000524143088B4201D34B00C01A5241411AF9
:1005700000D20146524110467047FFE701B5002006
:1005800000F0F0F802BDC0460029F7D076E77047CA
:1005900003460B437FD4002243088B4274D30309E4
:1005A0008B425FD3030A8B4244D3030B8B4228D385
:1005B000030C8B420DD3FF22090212BA030C8B42AB
:1005C00002D31212090265D0030B8B4219D300E04B
:1005D000090AC30B8B4201D3CB03C01A5241830BD0
:1005E0008B4201D38B03C01A5241430B8B4201D380
:1005F0004B03C01A5241030B8B4201D30B03C01AA9
:100600005241C30A8B4201D3CB02C01A5241830A22
:100610008B4201D38B02C01A5241430A8B4201D351
:100620004B02C01A5241030A8B4201D30B02C01A7B
:100630005241CDD2C3098B4201D3CB01C01A5241E2
:1006400083098B4201D38B01C01A524143098B426B
:1006500001D34B01C01A524103098B4201D30B0154
:10066000C01A5241C3088B4201D3CB00C01A524179
:1006700083088B4201D38B00C01A524143088B423E
:1006800001D34B00C01A5241411A00D201465241D7
:10069000104670475DE0CA0F00D04942031000D3F6
:1006A0004042534000229C4603098B422DD3030A4B
:1006B0008B4212D3FC22890112BA030A8B420CD35B
:1006C000890192118B4208D3890192118B4204D384
:1006D00089013AD0921100E08909C3098B4201D304
:1006E000CB01C01A524183098B4201D38B01C01A3E
:1006F000524143098B4201D34B01C01A52410309B5
:100700008B4201D30B01C01A5241C3088B4201D363
:10071000CB00C01A524183088B4201D38B00C01A10
:100720005241D9D243088B4201D34B00C01A5241E7
:10073000411A00D20146634652415B10104601D374
:100740004042002B00D54942704763465B1000D3FE
:10075000404201B5002000F005F802BD0029F8D0A4
:1007600016E770477047C046D0400B1CD1409C46EE
:10077000203AD3401843524263469340184370478F
:100780009140031C90409C46203A934019435242AA
:100790006346D340194370478446101C62468C461A
:1007A000191C634600E0C0461FB501F04FFA00284F
:1007B00001D40021C8421FBD10B501F0A7F9404285
:1007C000013010BD10B501F041FA002801DB002016
:1007D00010BD012010BDC04610B501F037FA002849
:1007E00001DD002010BD012010BDC04610B501F094
:1007F000C9F9002801DC002010BD012010BDC04651
:1008000010B501F0BFF9002801DA002010BD012069
:1008100010BDC0461C2101231B04984201D3000CCB
:1008200010391B0A984201D3000A08391B09984263
:1008300001D30009043902A2105C40187047C04679
:100840000403020201010101000000000000000099
:10085000002B15D1002A13D1002906DB01DC00286A
:1008600006D00020C043410802E080210906002094
:1008700007B4024801A14018029003BDE9FEFFFF42
:1008800003B4684601B5029800F06AF9019B9E46E0
:1008900002B00CBC7047C046002B11D1002A0FD10A
:1008A000002900D1002802D00021C943081C07B448
:1008B000024802A14018029003BDC046A9FEFFFFF6
:1008C00003B4684601B5029800F088F8019B9E4683
:1008D00002B00CBC7047C046F0B5CE464746150482
:1008E0002D0C2E0080B50704140C3F0C9946030C08
:1008F0007E435D43674363437F19340CE4199C4690
:10090000A54203D980235B029846C4444B46434327
:100910005143250C36046544360C2404A4195B1994
:10092000591820000CBC90469946F0BD70B50022C5
:100930000C4B04000D00FFF763FF002804D12000DA
:10094000290001F0C1FF70BD064B002220002900E4
:1009500001F056FC01F0B8FF80231B069C46604462
:10096000F1E7C0460000E04170B505000C00002230
:10097000002328002100FFF725FF002804D12800CC
:10098000210000F00DF870BD80231B06E11828003F
:1009900000F006F802000B00002150429941F2E7F6
:1009A00070B500220B4B0D00040001F0B7F9FFF702
:1009B000BDFF060001F0F8FF0022074B01F0AEF981
:1009C00002000B002000290001F01AFCFFF7AEFF27
:1009D000310070BD0000F03D0000F041F0B54F4621
:1009E0004646D646C0B5040082B00D0091469846F2
:1009F0008B422FD82CD04146484602F0DDF8290022
:100A00000600200002F0D8F8331A9C46203B9A4694
:100A100000D576E04B46524693401F004B46624657
:100A200093401E00AF4228D825D05346A41BBD4199
:100A3000002B00DA7BE000220023009201930123C7
:100A4000524693400193012362469340009318E07D
:100A50008242D0D900220023009201930A9B002BEE
:100A600001D01C605D600098019902B01CBC9046EA
:100A70009946A246F0BDA342D7D900220023009296
:100A800001936346002BE9D0FB0798464146720864
:100A90000A437B0866460EE0AB4201D1A2420CD865
:100AA000A41A9D41012024196D410021013E241802
:100AB0004D41002E06D0AB42EED9013E24196D41C6
:100AC000002EF8D100980199534600196941002B76
:100AD00023DB2B005246D3402A006446E2401C0030
:100AE00053461500002B2DDB26005746BE40330031
:100AF00026006746BE403200801A9941009001915D
:100B0000ACE7624620239B1A4A46DA40614613004E
:100B100042468A4017001F4380E7624620239B1A03
:100B20002A0066469A402300F3401343D4E7624606
:100B3000202300219B1A0022009101920122DA4019
:100B4000019280E72023624626009B1ADE402F0098
:100B5000B0466646B74046463B003343C8E7C0460A
:100B6000F0B583B016001F000090019102F030F83C
:100B700004000D0002000B0030003900FFF7ACFE4E
:100B8000009A019B121A8B41089920000A604B6061
:100B9000290003B0F0BDC046F8B557464E4645465D
:100BA000DE464402E0B546008846640A360EC70FAA
:100BB000002E63D0FF2E24D08023E400DB041C43EE
:100BC000002399469B467F3E434642465D02D20F34
:100BD0005B006D0A1B0E9046924665D0FF2B55D0E8
:100BE00080220021ED00D2047F3B1543F61A4346D4
:100BF0004A467B400F2A00D98DE06D48920082580A
:100C00009746002C54D108239946063BFF269B4665
:100C1000DAE70025534602291BD0032900D1BFE0A3
:100C2000012928D030007F30002820DD6A0704D059
:100C30000F222A40042A00D004352A0103D53000AF
:100C40005C4A80301540FE2803DCAC01640AC2B265
:100C500001E0FF2200246402D205600ADB07104392
:100C600018433CBC90469946A246AB46F8BD0122CB
:100C7000101A1B287CDD00220024ECE7002C1DD17B
:100C800004239946033B00269B469DE7FF3E002D2B
:100C900020D1022143464A467B400A430F2AD8D836
:100CA0004548920082589746002D19D10121F1E75D
:100CB0000C239946093BFF269B4685E72000FFF75A
:100CC000A9FD7626431F9C4000237642361A99469A
:100CD0009B4679E74A4603231A439146032186E758
:100CE0002800FFF797FD431F36189D4076360021F8
:100CF0007DE780240023E403FF22ACE70025802366
:100D0000DB031C4228D01D4226D12B435C02640A1F
:100D10004346FF229FE762016C01A24224D21B21BD
:100D20000025013E012710006D005200002801DB64
:100D3000944201D8121B3D4301390029F3D114001C
:100D4000621E944125436DE7BA4659462500534635
:100D5000022900D061E77CE78023DB031C436402A7
:100D6000640A3B00FF2276E7121B1A210125D9E70E
:100D70009E362A00B5402C00C240651EAC4114438B
:100D8000620704D00F222240042A00D004346201FA
:100D900003D4A401640A00225DE7012200245AE77B
:100DA0008024E4032C436402640AFF2253E7C04614
:100DB000804C0110FFFFFFF7C04C011070B50028F8
:100DC0003DD0C317C5185D40C40F2800FFF722FDB2
:100DD0009E22121A962A07DCD2B2082833DD083880
:100DE00085406802400A23E0992A0BDD052329008B
:100DF0001B1AD94003001B339D402B005D1EAB41E5
:100E000019430D00052801DD431F9D402B000F49AC
:100E10000B406E0709D00F263540042D05D0043352
:100E20005D0102D59F220B40121A9B01580AD2B2D3
:100E30004002D205400AE4071043204370BD00245D
:100E400000220020F4E76802400AF1E7FFFFFFFB01
:100E500070B5041E34D0FFF7DDFC9E22121A962ACC
:100E600007DCD2B208282EDD083884406002400A30
:100E700021E0992A09DD030021001B3399404B1E14
:100E8000994105231B1ADC400C43052801DD431F53
:100E90009C4023000D490B40650709D00F252C40CD
:100EA000042C05D004335C0102D59F220B40121A9A
:100EB0009B01580AD2B24002D205400A104370BDCD
:100EC00000220020F7E76002400AF4E7FFFFFFFB83
:100ED000F0B54F464646D6460C000903C0B5490A50
:100EE000470F5E0039431F03DB0F9C4665007B0AFA
:100EF000570F1F436D0DE40F760DA146C000B84695
:100F0000D200AB1B64457BD0002B5FDD002E00D0F0
:100F1000A4E03E00164300D112E15E1E002E00D078
:100F20009EE1871A4346B84280410125C91A4042D2
:100F3000091A0B0200D431E149024E0A002E00D1F9
:100F40006EE13000FFF766FC0300083B1F2B00DD5D
:100F500061E120223900D21A9E40D1409F400E43C9
:100F60009D4200DD51E15D1B6B1C1F2B00DD7CE110
:100F70002021C91A3D0030008F408840DD40791E95
:100F80008F41310007222843D940002507433A40CA
:100F9000002A09D00F233B40042B05D03B1DBB4248
:100FA000BF417F42C9191F000B0200D426E26A1C10
:100FB000C64B55056D0D9A4200D106E1C44AFF08A3
:100FC0000A40530752023B43120B8EE0002B00D025
:100FD000B8E06B1C5B055B0D012B00DC30E1871A70
:100FE0004346B842B641CB1A76429E1B330200D527
:100FF0004CE13B003343A1D100220024002570E0E6
:10100000002B00DCE5E0002E00D183E0AF4EB542BE
:1010100060D0802636043743B846382B00DC3EE1EA
:10102000434613431F007A1E97413F188742804171
:10103000404209180B0200D4B0E0A44B01359D4298
:1010400000D1C3E0A24A7B080A4001210F401F43A0
:101050005108D30707221F433A4099E79B4EB542F8
:1010600038D0802636043743B846382B00DDDCE024
:101070001F2B00DC30E11E004746203EF740BC46F7
:10108000202B04D04026F31A46469E4032431700D8
:1010900063467A1E97411F43CCE0002B00D104E247
:1010A0004346134300D159E14B07C008184380233E
:1010B000C9081B03194208D04546ED081D4204D15A
:1010C0004346D008590708432900420FC9007F4D05
:1010D0001143C0004B07CA087C49C00803438D4236
:1010E00068D012036D05120B6D0D0021120318005C
:1010F000130B0A0D12051A43764B2D0513402B4393
:101100005B00E4075B08234319001CBC904699462A
:10111000A246F0BD3E00164312D05E1E002E00D047
:1011200000E1871887428041414440420918012567
:101130000B0233D5022585E7644633004146100093
:101140001D00C7E7002D00D0DAE00C000443F3D007
:101150005C1C00D19FE15D4CA64200D12FE1DB4336
:10116000382B00DD66E11F2B00DD83E12024050024
:10117000E41A0F00DD40D940A0404346A7405B1A67
:10118000441EA04198462F433843171ABA42924151
:1011900043465242991A64463500CAE607223A404D
:1011A000002A00D0F6E64B07CA084849FF083B432F
:1011B0008D4296D11900114300D19EE1802109038F
:1011C0000A431203120B414D8FE715000022002342
:1011D0008BE7002B00D0C7E06B1C5F057F0D012F54
:1011E00000DCF1E0394DAB4200D1B9E085180A00CE
:1011F000854289414244494251180722CF076D0870
:101200002F4349083A401D00C2E607223049ED1A33
:1012100031403A40BCE63E002838864000279FE631
:101220003800FFF7F7FA20308EE6434613431F00DD
:101230007A1E9741C71BB84280414042091A78E69E
:101240000E003B0006431343002D61D1002E00D059
:10125000F4E0002B00D11BE164463900100039E7AF
:101260001A4FBB427AD03300FFE630001F3DE84002
:10127000202B03D04021CB1A9E4037437B1E9F4139
:10128000072207433A400021002589E7171A434601
:10129000BA42B641591A76428E1B64464EE61F2B5F
:1012A00000DDADE020264746F61AB740B9461700E4
:1012B000B246DF404E463E4337005646B240561EC9
:1012C000B24117434246DA408918AEE6FF070000F4
:1012D000FFFF7FFFFFFF0F8020264746F61AB7402B
:1012E000B9461700B246DF404E463E4337005646E9
:1012F000B240561EB24117434246DA40891A99E776
:101300007F4CA6425BD0802424045B42214327E724
:10131000002E0CD1002B00D1CBE064463900100028
:10132000774DD7E6764FBB4218D0330075E6002BD9
:1013300014D04B07C00818438023C9081B03194267
:1013400007D0FC081C4204D17907D0080843E146C5
:1013500021004C46420FC9001143C000684DB9E658
:101360001D0000220023C0E6002D5BD10D000543C7
:1013700000D1E2E65D1C00D1B0E0614DAE421FD06D
:10138000DB43382B71DC1F2B00DD96E020250F009E
:10139000ED1AAF40B9460700AA46DF404D463D432F
:1013A0002F005546A840D940451EA8418844074310
:1013B000BF18974292415142414435003AE6644693
:1013C00035004146100085E60B000343002D00D098
:1013D00063E6002BF5D04346134300D17AE6871825
:1013E0008742804107224144404209183A400B029B
:1013F00000D4D5E6434B01351940C9E5380069E60C
:101400001E004746203EF740BC46202B04D0402615
:10141000F31A46469E403243170063467A1E9741B0
:101420001F4302E6364DAE42CAD080252D045B42F2
:101430002943A6E70843411E8841A6E6002B00D1B8
:1014400048E6871A4346B842B641CB1A76429E1BFD
:1014500033024BD5171A4346BA429241591A5242A7
:10146000891A072264463A4092E501430F00791E2B
:101470008F419DE71C000F00203CE740202B03D04C
:101480004024E31A99400843411E884138437CE6D2
:101490000022002425E6171A4346BA429241591AFF
:1014A0005242891A6446350043E541461000144D06
:1014B00010E680220024120380E61D000F00203D6C
:1014C000EF40BC46202B03D04025EB1A994008433F
:1014D00007006346781E87411F4369E787189742D4
:1014E0009B4141445B42C9183500A3E53B003343AF
:1014F000CED0072231003A4052E600231A00F4E52C
:10150000FF070000FFFF7FFFF0B55746DE464E465F
:101510004546E0B5834607000E03480085B0924675
:101520001C00360B400DCD0F002800D19DE0954BDF
:10153000984239D08023F6001B041E43924A7B0F49
:1015400033439946944603006344009300230026E6
:10155000FF00029323031B0B98466300E40F5246DF
:101560005B0D019400D1B3E086498B4200D19EE02F
:101570004246D100802212040A435146490F1143CA
:101580008B46814952468C4600996344CB1A002110
:10159000D20000932B0063409A460F2E00D905E13C
:1015A0007A4BB6009B599F465B463343994600D021
:1015B000B8E002230826002700900293CAE7CB4632
:1015C0003A0002990195019B9A46022927D00329E6
:1015D00000D180E2012944D06D49009B8C466344D0
:1015E0001C00002C38DD530700D013E2D2085B4604
:1015F000DB0109D55946674B19408B468021C9004C
:101600008C46009B63441C00634B9C4207DC5B469A
:1016100064055F075B0217431B0B620D02E00023AA
:101620000027584A00211B031C0B0B0D1B052343ED
:1016300014055A4A380013401C4353466400DB0724
:1016400064081C43210005B03CBC90469946A24664
:10165000AB46F0BD0122524201231B1B382B00DC9C
:10166000ADE1002200230027DCE75B4633439946C7
:101670005ED0002E00D18AE13000FFF7CBF80300E6
:101680000B3B1C2B00DD7BE11D22D31A5A460100C7
:10169000DA4008398E4013005F46334399468F4045
:1016A0003F4B00261B1A00930023029352E741464A
:1016B00053460B433B499B468C46009B6344009337
:1016C0005B46002B3BD1022300221E43022161E72F
:1016D000434613439B4637D04346002B00D162E17B
:1016E0004046FFF797F803000B3B1C2B00DD53E14E
:1016F00002004146083A914088461D21CB1A5146C6
:10170000D9400B0041460B439B46534693401A0079
:10171000009B25499C46604403008C46634400932B
:10172000002137E70323B14600900C26029311E70E
:101730000023009301330426002702930AE70323C2
:10174000C3461E43032125E701331E430022012126
:1017500020E700239A46802300271B03094A61E7FC
:10176000802349461B03194200D1E2E05946194241
:1017700000D0DEE00B431B0317001B0BA246014AFF
:1017800050E7C046FF07000001FCFFFF004D0110BD
:10179000FF030000FFFFFFFEFE070000FFFF0F80BA
:1017A0000DFCFFFF01F8FFFFF3030000D94500D94E
:1017B000CBE000D1C6E03C0048460027009B013B3F
:1017C00000935B46160E1B021E4313029846330419
:1017D0001B0C9946310C0191FEF7D6FE4A46424356
:1017E0000B04210C050019438A4207D98919013DD0
:1017F0008E4203D88A4201D9851E8919881A019917
:10180000FEF7C2FE09048C464A4621046446424360
:10181000090C030021438A4204D98919013B8E42F5
:1018200000D8F1E02D041D43AB464346891A4246D9
:10183000280C12041D0C5B46140C22001B041B0C0C
:101840005A4303946B434443029568431B19150C98
:10185000EB189C4203D980246402A44660441C0C0B
:1018600015041B042D0C20185D19814277D373D009
:101870000C1AA24A7D1BAF42BF419446009B7F4297
:101880006344E01B1C00864200D1DBE00199FEF7B7
:101890007BFE4A4642430B04290C070019438A4247
:1018A00007D98919013F8E4203D88A4201D9871E80
:1018B0008919881A0199FEF767FE09044A46894684
:1018C00029044D464243090C030029438A4207D9A3
:1018D0008919013B8E4203D88A4201D9831E891996
:1018E0003F04891A3A00039F1A43380013041B0C63
:1018F000584381460298150C6F434343454348467D
:10190000000C8446DB1963449F4203D980204002C7
:101910008446654448461F0C00041B04000C7D19D6
:101920001818A94200D284E000D17FE001231A43B5
:1019300057E680234A461B0313431B031B0BAA468F
:101940006F4A6FE6BA4200D935E74B46DC075808C4
:101950007B081C43FF0734E70024AF4289D2474489
:101960004745A4415B466442A4196418013BA64262
:101970001ED2A0426DD800D1B6E0241A9B4678E76B
:1019800003005A46283B9A400027914688E658466D
:10199000FEF740FF203072E603005246283B9A4093
:1019A00093460022B4E65046FEF734FF20309AE614
:1019B000A642E2D1B845DCD9341A9B4659E71F2B21
:1019C00065DC504C0099A4465C46614408008C409C
:1019D00011008240D940501E82410C4314435A46A4
:1019E000DA401300620709D00F222240042A05D0F2
:1019F0002200141D9442894149425B181A0262D5A3
:101A00000122002300270DE68A4200D80AE7831E40
:101A1000891907E70F231340042B00D1E6E5171DB2
:101A20009742924153429B44FA08E0E5002800D1D6
:101A3000D7E57118531EB14227D3A94215D358D008
:101A40001A0073E7002B00DC04E6012300229B440C
:101A5000CDE502234744474589415B429C464942C4
:101A600089190C19E344241A03E743465F004745EC
:101A70009B41B8465B429E19023A8919A94200D09F
:101A800054E7404500D051E7ABE51A00F6E71F21C7
:101A90005F4649420C1BE740202B07D01A49009BA8
:101AA0008C46634418005B4683401A43501E8241B3
:101AB0003A4307270023174009D00F210023114084
:101AC0001400042995D122005F075B021B0BD2088A
:101AD00017430022A6E5802359461B030B431B0333
:101AE00017001B0B064A9DE5BD42B2D89B46002459
:101AF000BFE68045B9D31A00C3E7C046FF03000024
:101B0000FF0700001E0400003E040000F0B54F4631
:101B10004646D6468446C0B58046194E18030F0384
:101B20004D00000B5C0082463F0B6D0DC90F9146C6
:101B3000640DDB0F0120B5420AD0B44203D0A542A8
:101B400001D157450CD01CBC90469946A246F0BD29
:101B500066463E43F7D1AC42F5D154461443F2D128
:101B60000120C845EFD1994207D0002DEBD1634643
:101B70001F433800471EB841E5E70020E3E7C046B1
:101B8000FF070000F0B54F464646D6464D00C0B5AB
:101B90000E03C90F8A462C491F035C008046360B92
:101BA0006D0D91463F0B640DDB0F8D421ED08C42B4
:101BB00016D0002D1ED130438446002C01D13A436B
:101BC00023D06246002A1AD09A4529D051460220D5
:101BD0000139084001381CBC90469946A246F0BD28
:101BE00039001143E5D002204042F4E73043FAD1F6
:101BF000AC420FD0002C0FD13A43E7D00CE00122C9
:101C0000013B934318000130E5E763460020002BB9
:101C1000E1D0DBE73A43E6D19A45D7D1A542D5DCFE
:101C2000A54205DBBE42D1D808D00020BE42D2D2A8
:101C300050460123013898430130CCE7C845C5D848
:101C40000020C845F4D3C6E7FF070000F0B54F46B3
:101C50004646D6464D00C0B50E03C90F8A462E49EA
:101C60001F035C008046360B6D0D91463F0B640DE3
:101C7000DB0F8D4218D08C4211D0002D18D130438B
:101C80008446002C1ED13A431CD163460020002B11
:101C900030D0514602200139084001382AE039008D
:101CA0001143EAD0022025E03043FBD1AC4226D0DC
:101CB000002C26D13A4324D1514602200139084054
:101CC000013817E06246002A0FD09A45E1D1A542BB
:101CD00005DBBE42DDD819D00020BE420AD25046F4
:101CE000012301389843013004E00122013B934372
:101CF000180001301CBC90469946A246F0BD3A43FC
:101D0000D0D19A45C5D1A542C3DCE0E7C845C0D8CB
:101D10000020C845E3D3EDE7FF070000F0B55746C4
:101D2000DE464E464546E0B5834606000F034800B2
:101D300087B092461D003F0B400DCC0F002800D10C
:101D40006FE0DE4B984238D08023FF001B041F4316
:101D5000730F3B430193DA4B0027994600239B46C0
:101D6000F60081442B0369001B0B52469846490D2F
:101D7000ED0F002900D185E0D04B994200D173E0EE
:101D80004346DA0080231B0413435246CC48520FCB
:101D900084461343524600206144D2008944210006
:101DA000694000918C46012149448A460F2F00D991
:101DB00090E0C449BF00CF59BF465B463B43019307
:101DC00000D06AE102230827002681469B46C9E726
:101DD00032005846019B61460091022800D175E00F
:101DE000032800D1FEE1012800D02CE100230027C8
:101DF000002600253F032A0D3F0BB34812053A4346
:101E000002401B051343009A5B00D1075B080B439C
:101E10003000190007B03CBC90469946A246AB463C
:101E2000F0BD5B463B43019300D12FE1002F00D171
:101E3000A5E13800FEF7EEFC03000B3B1C2B00DD98
:101E400096E11D22D31A5A460100DA405E4608394F
:101E50008F4013008E403B4301939C4B00271B1A7D
:101E6000994600239B467DE7414653460B439349E1
:101E70008C46E144002B00D01AE1022202201743D5
:101E800000228CE7134300D10DE14346002B00D123
:101E900081E14046FEF7BEFC02000B3A1C2A00DD41
:101EA00072E10100434608398B4098461D239A1A77
:101EB0005346D3401A004346134352468A4049468C
:101EC000081A824989468144002068E77B4B002735
:101ED00000268EE7140C1204120C1100370C360485
:101EE000350C794328008C462E00604360448346BD
:101EF00056432100300C80465846794340440291B5
:101F0000844506D98846802149028C46E0444146F2
:101F100002913604010C360C00048B4681191E0C0C
:101F20001B041B0C0391190079438C462800754350
:101F30006544A8465843050C45447743A94203D954
:101F4000802149028C466744290C8C4639000004E4
:101F5000000C2D042D186144AB44059159460491A1
:101F600001990F043F0C080C39005143424390463D
:101F700002008C46090C8B4662437C4344445C441B
:101F8000A04503D98021490288464244210C884655
:101F900061460904090C8C46390059434343704398
:101FA0007E430F0CF6182404BE19644442448C4648
:101FB000B34203D980235B0298464044029B6146AA
:101FC0009846049B370443449B46AB45AD416B4266
:101FD0000D0405992D0C8C467F196744FD18A84601
:101FE0005D462D19A542A44193466442A446C344CC
:101FF000DC448F42BF4198459B4193459241A445A3
:10200000A4415B427F421F43360C52426442BF19D7
:102010002243BF18624638184302D20D0399134376
:102020006A020A43501E82416146ED0D2A434E0268
:102030003243D90100D4B3E00126500832400243B4
:10204000DE0732435B08224C5444002C62DD51070A
:1020500009D00F201040042805D0101D9042924155
:1020600052429B180200D90104D580241948E4008B
:10207000034054441848844200DD27E75E075B02B2
:10208000D2081F0B630516435B0DB2E60023994689
:102090000133042700269B4664E60323019781460B
:1020A0000C279B465EE6012201201743002276E6BC
:1020B000032303201F43434671E6C046FF07000089
:1020C00001FCFFFF404D0110FFFF0F800DFCFFFFE3
:1020D000FF030000FFFFFFFEFE0700000023802734
:1020E00000933F030026434B83E6019B3200A44646
:1020F000584670E6AC466EE6802701993F033942A8
:102100002DD03B422BD11F433F033F0B00951600C0
:10211000384B6EE601252D1B382D00DD66E61F2DA0
:1021200040DC35481C005044160082408440EE409C
:10213000501E824134431443EB40620709D00F2202
:102140002240042A05D02200141D944280414042BE
:102150001B181A023ED501230027002649E68027D6
:10216000019B3F031F433F033F0B0094214B40E67D
:1021700003005A46283B9A40002601926DE65846D5
:10218000FEF748FB203057E603005246283B9A40B2
:102190001300002293E65046FEF73CFB20307BE61E
:1021A000CA4650E71F201E004042041BE640202D77
:1021B00003D0124C5444A3401A43501E8241324370
:1021C00007260027164009D00F20002310401400D6
:1021D0000428B9D122005E075B021F0BD208164308
:1021E000002306E680273F031F433F033F0B1600F3
:1021F000004BFEE5FF0700001E0400003E04000047
:10220000F8B557464E464546DE460C000903E0B594
:10221000490A460F5F0031431E03DB0F760A9B46D7
:10222000530F3343C84E6500C000E40FD2006D0D5C
:10223000A24681467F0D9C469046B74200D1B9E048
:102240005B46012673409B46EE1BA34500D183E00D
:10225000002E63DD002F00D0B1E06346134300D1B0
:1022600023E1731E002B00D0BAE1861A6346B04208
:1022700080410125C91A4042091A0B0200D447E1E6
:1022800049024B0A98464346002B00D189E140465B
:10229000FEF7C0FA0300083B1F2B00DD7CE1202283
:1022A0003000D21A4146D040994002009E400A4375
:1022B0009D4200DD6AE15D1B6B1C1F2B00DD94E17C
:1022C000202110003500C91A8E40DA408840DD40D8
:1022D000711E8E411100072228430025064332401B
:1022E000002A09D00F233340042B05D0331DB342FD
:1022F000B641764289191E000B0200D43DE26A1CE9
:10230000914B55056D0D9A4200D119E18F4AF6089F
:102310000A40570752023743120B9BE0002E00D0B1
:10232000C5E06E1C7605760D012E00DC48E167469F
:10233000861ACB1BB042BF417F42B8461F004346BE
:10234000FF1A3B00B8461B0200D55FE137439AD124
:1023500000220024002579E0002E00DCFAE0002FA6
:1023600000D18DE0784B9D4267D0802367461B04E7
:102370001F43BC46382E00DC52E1634613435A1E0D
:1023800093411E1886428041404209180B0200D436
:10239000BEE06D4B01359D4200D1D2E06B4A73081F
:1023A0000A4001210E401E435108D30707221E4355
:1023B000324095E71E00164300D045E740E7624BE8
:1023C0009D423AD0802367461B041F43BC46382EEB
:1023D00000DDEBE01F2E00DC3AE133006746203BD6
:1023E000DF403B00202E05D04027BF1B6646BE4085
:1023F000324390464646721E96413343DAE0002B44
:1024000000D114E26346134300D168E180234E07F4
:10241000C008C9081B030643194208D06046C0081B
:10242000184204D163460100D2085E071643F30048
:102430009946C900720F444D11434B46DE08424B8A
:102440004F073743CA089D4200D16EE012036D0565
:10245000120B6D0D00211203130B0A0D12051A4306
:102460003B4B2D0513402B435B00E4075B082343E4
:10247000380019003CBC90469946A246AB46F8BDD0
:102480006346134311D0731E002B00D007E186185A
:102490008642804161444042091801250B0237D52C
:1024A00002257BE73E00614691463500C5E75C4664
:1024B000002D00D0E1E00B000343F3D0731C00D1EA
:1024C000ACE1214B9F4200D13AE1F343382B00DDD0
:1024D0006FE11F2B00DD8CE120250E00ED1AAE40D0
:1024E000B0460600AA46DE40454635432E00554616
:1024F000D940A8406346451EA8415B1A9C4630431C
:10250000161AB242924163465242991A3D00B4E60D
:1025100007223240002A00D0E4E60B4BF6084F07B2
:102520003743CA089D4200D090E73B00134300D1D7
:10253000A6E180231B031A431203120B024D89E705
:1025400015000022002785E7FF070000FFFF7FFF3F
:10255000FFFF0F80002E00D0C7E06B1C5E05760DDC
:10256000012E00DCF0E0C84DAB4200D1B9E0851887
:102570000A00854289416244494251180722CE0728
:102580006D082E43490832401D00A9E6BF49ED1AE7
:10259000114007223240A3E632002838824000264C
:1025A00086E63000FEF736F9203073E663461343C3
:1025B0005A1E9341C61AB04280414042091A5CE655
:1025C0000E00674606431743002D5ED1002E00D053
:1025D000F3E0002F00D11EE15C46614691462CE7F6
:1025E000A94FBE427BD01E00F1E610001F3DE8401F
:1025F000202B03D04021CB1A9A401643731E9E41D4
:102600000722064332400021002583E7161A63465D
:10261000B2428041591A40420B1A98465C4632E653
:102620001F2E00DDABE02027BB1B9A4663465746B2
:10263000BB40994613004F46F3401F433B005746AB
:10264000BA40571EBA4113436246F240891898E6D1
:102650002027BB1B9A4663465746BB40994613004A
:102660004F46F3401F433B005746BA40571EBA41FE
:1026700013436246F240891A9CE7834B9F425FD026
:1026800080252D047342294320E7002E0CD1002F12
:1026900000D1D0E05C46614691467B4DCDE67A4F55
:1026A000BE421CD01E0065E6002F18D0C0084E07A1
:1026B00006438020C9080003014208D06346DC08B5
:1026C000044204D12100DA46D2085E071643F30023
:1026D000994601245346C900720F11431C406A4DAC
:1026E000ABE61D0000220027B4E6002D59D10B00F7
:1026F000034300D1D6E6731C00D1B2E0624B9F4287
:102700001ED0F343382B6FDC1F2B00DD97E0202514
:102710000E00ED1AAE40B0460600AA46DE40454621
:1027200035432E005546A840D940451EA8418C444B
:102730000643B61896429241514261443D0025E657
:102740003D006146914678E60B000343002D00D022
:1027500055E6002BF5D06346134300D16DE686188D
:102760008642804161444042091800220B0200D495
:10277000D0E6464B01351940B2E5B1465DE633007F
:102780006746203BDF403B00202E05D04027BF1B83
:102790006646BE40324390464646721E96413343DB
:1027A000EFE5394B9F42CBD080252D04734229435E
:1027B000A8E70843411E8841A2E6002F00D13CE66D
:1027C0006346861ACF1AB0429B415B42FB1A984679
:1027D0001B024ED5161A6346B2429241591A524212
:1027E000891A5C4600227BE501430E00711E8E4172
:1027F0009FE71D000E00203DEE40B046202B04D088
:102800004025EB1A99400843814648464346411EFD
:102810008841184374E60022002417E6161A63461E
:10282000B2429241591A5242891A3D0025E5614649
:102830009146154D01E680220024120379E61D0021
:102840000E00203DEE40B046202B04D04025EB1A70
:102850009940084381464E464346711E8E411E43B1
:1028600067E7861896429B4161445B42C9183D0068
:102870008CE547463743CED007224146324049E6F1
:1028800000273A00E6E5C046FF070000FFFF7FFF94
:1028900070B50C4E0D031C0349005B002D0B490D58
:1028A000240B5B0DB14208D0064900208B4203D1B6
:1028B00014432000441EA04170BD05430120002D9B
:1028C000FAD1F1E7FF07000030B5144D0A034B00C1
:1028D000120B5B0DC90F0024AB4211DD104CA3425B
:1028E00010DC8024640322430E4CE41A1F2C0CDD00
:1028F0000D48C31ADA4013005C42002900D11C00C5
:10290000200030BD094BCC18FAE7094DE040AC4639
:1029100063449A4013000343EEE7C046FE03000001
:102920001D0400003304000013040000FFFFFF7FBC
:10293000EDFBFFFF70B500282DD0C317C5185D4013
:10294000C40F2800FDF766FF154B1B1A5B055B0DD6
:102950000A2815DD0B38854000222D032D0B0021A0
:1029600010002D030A0D2D0B12052A430D4D1B05DA
:102970002A4013435B00E4075B082343190070BD42
:1029800002002900153291400A000B21081AC540A7
:102990002D032D0BE3E70024002300250022DEE7B2
:1029A0001E040000FFFF0F8010B5041E25D0FDF7A8
:1029B00031FF144B1B1A5B055B0D0A2812DD0B3827
:1029C000844000222403240B0021100024030A0D5C
:1029D000240B120522430C4C1B05224013435B00C1
:1029E000590810BD02002100153291400A000B2148
:1029F000081AC4402403240BE6E700230024002225
:102A0000E2E7C0461E040000FFFF0F804100090EF0
:102A10004B1C70B5DBB24602750AC40F012B14DDE6
:102A2000E0239B006D07360BCB1800210A0D280010
:102A300012051C4D32435B052A405B0813435B00C3
:102A4000E4075B082343190070BD002914D1002D51
:102A50001ED02800FDF7DEFE0A281CDC0B232A000E
:102A60001B1ADA40030015339D400F4B12031B1A4B
:102A70005B05160B5B0DD8E7002D06D0320B8026C8
:102A800036036D071643094BCFE7084B0026CCE70A
:102A900000230026C9E703002A000B3B9A400025CB
:102AA000E3E7C046FFFF0F8089030000FF07000037
:102AB000F0B54C00640D0B03621C5B0A460F520517
:102AC000C90F1E43C500520D012A29DD374BE718F7
:102AD000FE2F1CDC002F3BDD8001431E98410722A6
:102AE000F3006D0F03432B431A40002A04D00F223A
:102AF0001A40042A00D004338022D2041A4024D081
:102B00000137FAB2FF2F02D09B01580A01E0FF22E1
:102B100000204002D205400AC90710430843F0BD17
:102B20003543002C04D1002D0AD100220020F0E70B
:102B3000002DECD08020C0033043FF22E9E70024C1
:102B400000235B02580AE2B2E3E7DB083C00F8E747
:102B50003B001733F3DB80231B0433431E26F61B95
:102B60001F2E14DD02225242D71B1A00FA40170012
:102B7000202E04D00E4A94466444A3401D432B00EB
:102B80005D1EAB4107223B431A400027ADE7094ACF
:102B90002800A218954093406C1EA541F0400722E2
:102BA0002B4303431A4000279FE7C04680FCFFFFEA
:102BB000A2FCFFFF82FCFFFF10B5002903D1FDF747
:102BC00029FE203002E0081CFDF724FE10BDC0469F
:102BD000F0B54E465746DE464546E0B50F000021AB
:102BE00083B006008946002F06DA390000274642E6
:102BF0008F41012149428946002B07DA4946C943E2
:102C0000100089461900002342428B4134003D00E8
:102C100092469846BB4269D866D041465046FFF777
:102C2000CBFF834639003000FFF7C6FF5B461B1A17
:102C30009C46203B9B4600D575E051465846814056
:102C40000B005146604681400A00BB4261D85ED00D
:102C500034003D005946A41A9D41002900DA7AE06B
:102C60000021002001260090019159468E400196D6
:102C7000614601268E4061460096002950D0D90752
:102C800056085F080E4363460EE0AF4201D1A642EC
:102C90000CD8A41BBD41012124196D410022013B28
:102CA00064185541002B06D0AF42EED9013B2419E0
:102CB0006D41002BF8D1009801995B4600196941DC
:102CC000002B3DDB2E00DE4063462C00DC405B46E3
:102CD000002B4BDB34005D46AC4023006446A6402D
:102CE0003200801A994103E0B24296D900200021B7
:102CF0004B46002B04D003000C0000215842A14198
:102D000003B03CBC90469946A246AB46F0BDB142EA
:102D10009ED9002100200090019161460029AED18A
:102D200000980199E4E72023624651469B1AD94056
:102D30004046009161468840030000990B4380E7BC
:102D4000624620239B1A2A009A40260013006246FE
:102D5000D6401E43B8E7614620260127761A002098
:102D60000021F74000900191019781E767462023F9
:102D700062463500BC409B1ADD4023002B43ADE783
:102D8000024670B50A4392072AD11E4DEE0104C8CF
:102D900008C9541B9443344017D0D0B2D9B2401A5A
:102DA0002106014310D190B299B2401A2104014387
:102DB0000AD110021902000A090A401A210201432D
:102DC00002D1100E190E401A70BD9A42DFD010BA0F
:102DD00019BA884201D9012070BD0020C04370BDDE
:102DE00002780B7801300131002A09D09A4207D1CC
:102DF00002780B7801300131002A01D09A42EFD0DD
:082E0000D01A70BD01010101AF
:102E080070B5040008000D000DF010F923680200E9
:0A2E180029005B682000984770BD98
:102E240000231800034A590001338852182BFAD1A1
:082E34007047C046562900203A
:102E3C0070B50E4C602221000D4800F0DBFC0D4BF0
:102E4C001880002810D000230B4899006118002628
:102E5C008A5F0226895F5D005118CA0F5218521002
:102E6C0001332A52182BF0D170BDC0460E2B002016
:0C2E7C00402300204C2900205629002093
:102E880010B5FFF7D7FF064B00229B5E002B05D03D
:102E98000122044B1A600022034B1A6010BDC04681
:0C2EA8004C290020541500207027002049
:102EB40000231800044A1360044A5900013388525D
:102EC400182BFAD17047C046581500205629002007
:102ED400802310B55B0086B005930B4B0B4C049319
:102EE4000B4B0C4A03930A230293083B0193009271
:102EF4000121200001F00CF8074A0849200008F0DD
:102F04005FFC06B010BDC046111100004023002034
:102F1400B87B000044AC00000002002045420010D1
:102F2400E121F0B53C4E85B04902300001F006FBCA
:102F3400300001F0A5FA002009F01CF8374B384F97
:102F44005C681B68C01AA14102930394354C386035
:102F54007960210038000BF0C7FF236832490093E1
:102F64006368A26831480CF0C5FF314D2F49280031
:102F74000DF056F82F4928000DF02AF828000DF01E
:102F840057F82D4A2D4940190CF0B4FF28000DF0D4
:102F94004FF82B4940190DF043F829003000FFF792
:102FA40031FF300001F06CFAFFF73AFF002008F01F
:102FB400E1FF1A4B1A685B68801A9941386079609E
:102FC400210038000BF090FF2368174900936368D1
:102FD400A26816480CF08EFF144928000DF020F862
:102FE400144928000CF0F4FF28000DF021F8124ACF
:102FF400124940190CF07EFF28000DF019F8114910
:1030040040190DF00DF829003000FFF7FBFE3000E9
:1030140001F036FA05B0F0BD581900203015002033
:103024002810002028290020CC4D0110712B0020ED
:103034000D2A0020DE4D0110BD4D0110E04D0110A0
:08304400E44D0110FA4D0110EA
:10304C00F7B5204D286800283AD108F08FFF020010
:10305C000B001D491D4C0E684F68921BBB411C4850
:10306C002100026043600BF03BFF2368194E009374
:10307C006368A268184930000CF038FF174C310017
:10308C0020000CF0C9FF164920000CF09DFF200019
:10309C000CF0CAFF134A144900190CF027FF20004A
:1030AC000CF0C2FF114900190CF0B6FF104E2100B4
:1030BC003000FFF7A3FE300001F0DEF901232B6096
:1030CC00F7BDC046581500203015002028290020D7
:1030DC0028100020712B0020CC4D01100D2A00204F
:1030EC00DE4D0110C34D0110E04D0110A94D011032
:0430FC00581900203F
:10310000F0B5C04B91B000255D5F002D00D109E204
:1031100000242600BC4B069400229B5E0794029379
:10312000BA4B1B680F93BA4B00255D5FB94B002269
:103130009B5E0593B84B1F68B84B00229B5E0393C0
:10314000079B5A00B64BD35E0493029B002B00DB17
:103150000DE1049B002B00DA30E10298FDF72EFE12
:10316000049B0E90002B00D094E0FFF74FFC0890DA
:1031700009910598FDF722FEFFF748FCA94A0A903D
:103180000B9108980999A84BFEF7C8FD0A9A0B9B6A
:10319000FFF736F800220023FDF714FB002800D1CA
:1031A00067E0069B002B03D06A469C4B92891A80ED
:1031B000002E00D1FCE16A46964B928A1A80002CC0
:1031C00003D0954B1F60002E05D06A46904B1289A4
:1031D0001D808D4B1A80954B1868002838D108F057
:1031E000CBFE02000B00924992480C684D68121BFE
:1031F000AB41914C0260436021000BF077FE2368E5
:103200008E4D00936368A2688D4928000CF074FE0F
:103210008C4C290020000CF005FF8B4920000CF09D
:10322000D9FE20000CF006FF884A894900190CF0ED
:1032300063FE20000CF0FEFE864900190CF0F2FE41
:10324000854D21002800FFF7DFFD280001F01AF965
:103250000022764B1A60754B704C1B68002B00D017
:10326000AFE02380FFF726FE11B0F0BD049B029370
:1032700066E77A4A7A4B08980999FEF74FFD0A9A51
:103280000B9BFEF7BDFF00220023FDF7AFFA0028DD
:1032900000D086E7049B029A981A00B2FDF78EFDD3
:1032A000011C0E98FDF778FC041C381CFFF7AEFBE0
:1032B00000226C4BFDF70CFE060028000F00FDF706
:1032C0007DFDFFF7A3FB02000B0030003900FDF786
:1032D000FFFD0600201C0F00FFF798FB02000B000B
:1032E00030003900FEF78CFFFFF7E2FBFFF78EFBA3
:1032F00002000B0000205C49FEF706F9FDF734FBE5
:1033000001235A4A5B4212184B411500002B0CD185
:10331000574B9D4209D8039B9A00564BD050039BB4
:1033200001331BB2039301230693271C00250124BC
:10333000079B012601330793029B0593079B182BDC
:1033400094D1069B002B03D06A46344B92891A8095
:103350006A46304B12891A80002C01D02E4B1F6018
:103360006A462B4B128A1D80274B1A8073E70F9BEE
:10337000012B23D1049B029A13431BB2002B1DD1B6
:10338000069B002B03D06A46244B92891A80002E9C
:1033900010D06A461F4B928A1A80002C04D01E4B14
:1033A0001F60002E00D153E70022194B1D80164BE1
:1033B0001A804DE7002C00D14AE7F0E701352DB225
:1033C000B6E70022A35E002B00DCA1E002F0C4FD02
:1033D000294B1B68C01A052800D899E00023E25E3B
:1033E000002000230021234F9A4247DD9D007D5994
:1033F00001330C95ED170D950C9D0D9E40197141F3
:10340000F2E7C0464C2900205429002070270020F4
:1034100086290020522900207C26002050290020E7
:1034200056290020CDCCCCCCCCCCFC3F5415002070
:10343000301500202810002028290020712B0020A2
:10344000CC4D01100D2A0020DE4D0110B04D0110B1
:10345000E04D0110804D011058190020295C8FC2E9
:10346000F52800400000F03FA4D25041DFB1FFFF3B
:10347000BE450400F42500205C150020D317FDF79D
:10348000E7F9060000200F0008F076FD4A4B4B4D8F
:103490009C464B4B1A685B68801A994163461860DA
:1034A0005960604629000BF021FD2B6845490093C7
:1034B0006B68AA6844480CF01FFD444D424928003F
:1034C0000CF0B0FD424928000CF084FD28000CF0FF
:1034D000B1FD404A404940190CF00EFD28000CF0A7
:1034E000A9FD32003B003D4940190CF005FD2900C3
:1034F0003B48FFF789FC3A4800F0C4FF3000390030
:10350000FFF7A4FD0023238002F026FD354B186051
:103510000122354B1A6002F01FFD344B1860FFF793
:103520008DFCA1E602F018FD304B1B68C01A322852
:10353000F5D92F4B28001D6008F01EFD02000B007E
:103540001F491E4C0E684F68921BBB411A48210050
:10355000026043600BF0CAFC23681B4E0093636853
:10356000A268184930000CF0C7FC184C310020004C
:103570000CF058FD164920000CF02CFD20000CF03A
:1035800059FD144A144900190CF0B6FC20000CF047
:1035900051FD184900190CF045FD114E2100300075
:1035A000FFF732FC300000F06DFF134B1D8059E631
:1035B000002C00D10FE604E6281000202829002066
:1035C00030150020CC4D0110712B00200D2A002059
:1035D000DE4D0110B04D0110E04D0110914D011074
:1035E000581900205C15002070270020601500206D
:0C35F00054150020A44D011050290020AB
:1035FC00054B10B51B68002B02D1FFF73FFC10BD2B
:0C360C00FFF778FDFBE7C04654150020D6
:023618007047F9
:02361A007047F7
:02361C007047F5
:02361E007047F3
:0E3620000023994201D10300C6331800704701
:04362E0002207047BF
:08363400004870479A4F011095
:08363C0000487047844F0110A3
:0836440010B50368984710BDA2
:0A364C0010B503680800984710BD90
:0A36560010B50C220CF015F910BDA0
:1036600010B50400024B036005F002FA200010BD03
:04367000184E0110DF
:1036740010B50400FFF7F2FF2000382108F0F6FA35
:04368400200010BD55
:10368800F8B504000F0015001E0001F0B7FB042375
:10369800FF212B70FA88237911409C46002099421B
:1036A80013D36379634499420FDA797801290CD1ED
:1036B80080239B009A4208D1FF22BB88134204D181
:1036C8001B12012B02D0022B10D0F8BDFA78012A68
:1036D80006D0812AF9D1143434602B701800F4E72D
:1036E8008634FF34346028701000EEE7F878C2B2F0
:1036F800812A10D004D80138032814D90020E4E71F
:10370800832A0ED00BD31C34842AF7D101233460CA
:103718002B700220D9E7163434602970DEE718349C
:10372800F4E71A34F2E78634FF3434600023EFE715
:1037380010B582684368006851104018D20701D557
:083748000268D358984710BD38
:10375000CB6810B5C360002B01D05B68984710BDE3
:0E376000C36810B5002B01D09B68984710BDC0
:10377000F0B589B004000F00002601F043FB012FD3
:1037800034D101F00BFB2300C03302931978543B72
:1037900003931A88174B04AD0793174B00950593B5
:1037A0003B000696049406F0DFF82800FFF7D8FFE8
:1037B00001F0F4FA2300C1331978573B1A880D4BF6
:1037C000EB600E4B009505933B000696049406F0C3
:1037D000CBF82800FFF7C4FF01F0E0FA029A039B40
:1037E00011781B88626F06F0E7FA3E00300009B0DE
:1037F000F0BDC046284E0110D740001031430010E4
:1038000070B5040015000E0090B001F0EDFA02A8AA
:1038100005F022F90D9520003D2501220C96002689
:103820000E4B02A9029301AB0E936D440FABA43073
:103830001A700B942E7005F027FB200001F0DBFAC4
:10384000074B31001A6802A805F05AF92C7802A833
:10385000FFF706FF200010B070BDC046184E0110E3
:043860004C4E0110B9
:10386400F7B505002E00883600911700019301F08A
:10387400B9FA300005F0AAF90400B84200D93C00B6
:1038840030002200009905F0ABF9019B28001C6070
:0638940001F0AFFAF7BDE0
:10389A0013B50400406A030099331A780023022AF8
:1038AA0003D001203534237016BD0193E26A01ABBF
:1038BA00A16AFFF7D2FF019BA26AD218A262226B09
:1038CA001168CB181360E36A01995B1A2100E3625D
:1038DA0034310978002902D11268002A02D1002065
:0C38EA008342E1D1012035342070DDE77D
:1038F800F0B50400B9B0BF22002108A80CF052F8B6
:10390800237908A89A1CD2B2019222006032127858
:1039180008AE02922200C2321588613A1278591C08
:1039280003922200C4321288C9B294462200C032DF
:103938001278069222006C32128804922200C13258
:103948001278079222006A321288F3720592C24AEC
:1039580002800200BF209070042208A8FF328280F3
:103968008020F0714E3830722A3870720330B0728D
:103978003000B2810600FA3A42740420F374B74B5F
:10398800B074B74A022073830123F2830222FF3006
:103998003377F0820236F2776A4608AE1779033633
:1039A800F17709AEF777AF4F08AA119708AF3885B6
:1039B8002B27BF186A46127A3A7013AF3D702D272D
:1039C80008AABF182D0A3D70A74D36271495032560
:1039D800BF183D7039279086BF1809223A703A27D8
:1039E80008AABF1824223A703B2708AABF183D70BE
:1039F80017AF3D703D27BF183B703E27BF18022206
:103A08003D7018AD2A70994D08AAF58708AEB51D06
:103A1800974E984FEE874926B6186A460AADEF8743
:103A28003500167B08AA2E704A26B6183500664659
:103A38002E706646350A4B26B61835704E26B618CF
:103A480035008D4E2E808D4E1CAD2E805226B61818
:103A580030805526B6183000042505705720801888
:103A6800092202701EA800920570592008AA801821
:103A78000170834E1FA8078020A806806220801846
:103A88000170632189180B7021A90B7065218918B1
:103A98000B70662102208918087069210530891881
:103AA80008706A211D30891808706B2189180B70FD
:103AB80023A90B706E2189186A46157A0B7025A9FF
:103AC8000D70752108AA89182238087076211025EA
:103AD80089180D707721E06D89180B7026A9087078
:103AE800792184468918000A087061467A20E940DD
:103AF800801801707B218918092205200A7027A9DE
:103B080008707D2108AA89186A46127E5D4E0A70DF
:103B18007E2108AA89180B707F2189186A46127CB1
:103B280024960A70049928AA090A1170812108AA02
:103B380089180B70544929AA1180862208A952189D
:103B480013708B225218110009220A7004222BA923
:103B58000A708D2208A9521811006A461279319606
:103B68000A702CA90F80464F2DA90F80962708AA06
:103B7800BF186A463900177908AA0F709727BF1827
:103B88003B709927BF183B709A272EA9BF180B7056
:103B9800022239009D270A7008AABF183900072792
:103BA8000F709E27BF1824223A709F2708AABF18B3
:103BB8003B7030AF3870A127BF183B70A227BF18E1
:103BC8006A46117B32AE3170A92608AAB6180222BD
:103BD8003270AA2608AAB6183570AB2608AAB618F5
:103BE8003370AD26A16D33AA1170A16D08AA0D0A14
:103BF800B6183570AE25AF260A0C08A96D187618C8
:103C08002A7032000925157034AA3B701070B12251
:103C180008A952186946097F35A81170B22208A967
:103C280052181370B32252186946097D1170059A0B
:103C380008A9120A0270B52252181349137036AA3D
:103C48001180BA22200008A952181370C630BF226A
:103C58000BF016FE39B0F0BD090200000A2400007E
:103C6800013D00000C240201092406020C24000076
:103C780002040000010200000924000003050000FE
:0C3C8800090400000B24020107250000C5
:103C9400F7B503000500663364351F88224A2B8874
:103CA4000400934203D9214A01379B182B80230037
:103CB400260061331B78623601933378002B15D1CB
:103CC400230098331B78022B0DD1019B5B005F43CB
:103CD400230078331800019304F078FFB8420CD223
:103CE400636D013363650123337005E02000783090
:103CF40004F0DAFF0028E3D1F7BD216F3A00019800
:103D040004F06EFF01F048F82300C133226F1978E4
:103D14003B0006F0F1F80023683433702B882288C6
:103D24009B182B80E8E7C046E703000018FCFFFF60
:103D340070B504000D00884205D0FFF70FFD29007F
:0A3D44002000FFF703FD200070BD12
:103D5000F0B58BB01F0010AB1B7804000593002357
:103D60000361802300262500C382DB184383FC3BCC
:103D70008383634B20350993624B03910492310096
:103D8000082206730675068307A806930BF00EFE3D
:103D90002800FFF7E5FC06A92800FFF7D9FC06A8D4
:103DA000FFF7DEFC584B594D0822310007A8099354
:103DB00006950BF0FBFD200006A93030FFF7BAFF97
:103DC00006A8FFF7CDFC504B0822310007A8099345
:103DD00006950BF0EBFD200006A94030FFF7AAFF87
:103DE00006A8FFF7BDFC039B6A46E3652300127D2E
:103DF0006133A765266566651A706A46127C019371
:103E0000013B1A70FA21012238009A709E808900C5
:103E10000293FCF733FB2300FA2166331880050078
:103E200089003800FCF7B0FB2300683319804F1E6F
:103E3000B941059B364A5F0023009446ADB26D1828
:103E4000FA217D436A33ADB21D80039B8900634430
:103E50001800FCF713FB2700049B6C375B004343FF
:103E600028003B8007F0E8FE030045199D4202D080
:103E70001E700133FAE720673D88280007F0DCFE5A
:103E80000022030045199D4202D01A700133FAE75F
:103E9000FA21119B019A5D00A36D60676B43107856
:103EA00089005843FCF7EAFA01002000783004F05A
:103EB0006CFEFA21E36D89005D43029B187868432C
:103EC000FCF7DCFA01002000883004F05EFE2300DD
:103ED000012298331A705A70029B1A780323012A20
:103EE00000D100232200C2321380019B1A780323E1
:103EF000012A00D10023C43423800BB0F0BDC0469A
:103F0000404E01101D360010344E01101F360010B7
:043F1000E7030000C3
:103F1400F0B585B01F000AAB160004CB00251B7852
:103F24000400039303234371174B85600833036034
:103F3400C562C563C56429007830029204F03BFE73
:103F440020002900883004F036FE20009C3004F064
:103F540075FF2000A43004F071FF2000AC3008F09D
:103F640069F80C9B3A000193039B310000932000F5
:103F7400029BFFF7EBFE00F00FFF210000F0C6FEEE
:0C3F8400200005B0F0BDC046484F011001
:103F9000C36810B5002B05D1FD2204495200044826
:103FA00007F020F81B68984710BDC0462E4F01103F
:043FB000394F011074
:103FB40070B50E000500140000F022FFB2792979D3
:103FC4008A4242D36B795B189A423EDA002C3CD188
:103FD4003378012B18D03289531E012B33D8C323D5
:103FE40086215B00EB5CFF31685C1B0203431BB260
:103FF400FF20012A01D00138FF38B4881840241268
:10400400012C03D0022C0AD001241CE0F678012EE6
:1040140019D1287528002030FFF7B8FFF4E7F478A9
:10402400012CF1D180B2E882FCF710FF061C688BEA
:10403400FCF70CFF011C301CFCF7ACFD28612800C8
:0E4044002030FFF7A3FF200070BD0024FBE733
:10405400C36810B5002B05D1FD2204495200044861
:1040640006F0BEFF1B68984710BDC0462E4F0110D6
:04407400394F0110AF
:1040780070B504000D0000F0C1FE230099331E78CE
:104088001D70AE4222D0022E08D12000A43004F0C8
:10409800E0FE200031004030FFF7D8FF2600AC36A4
:1040A800022D0DD12000A43004F0D3FE2000002101
:1040B8004030FFF7CBFF0221300007F0C3FF05E0D7
:0E40C800012DF8D10221300007F0C1FF70BDBC
:1040D600F8B504002500C03500F091FE26002978C9
:1040E600200000F093FE88360700300004F0A5FD9E
:1040F600B8420CD2236D0133236500F04CFE230039
:104106006C3329781B88626F05F053FEF8BD3A00C0
:10411600616F300004F099FD2000A43004F09AFE8F
:10412600E36C002BE9D0200001214030FFF78FFF20
:02413600E3E7BD
:1041380070B504000D0000F061FE230098331E786E
:104148001D70AE4222D0022E08D120009C3004F00F
:1041580080FE200031003030FFF778FF2600AC36B3
:10416800022D0DD120009C3004F073FE20000021A8
:104178003030FFF76BFF0121300007F063FF05E0E7
:0E418800012DF8D12900300007F061FF70BD55
:1041960070B5040000F025FE237B002B09D1012514
:1041A600200029002573FFF764FF29002000FFF790
:0A41B600C0FF200000F01CFE70BDE9
:1041C000030070B50D0004006A331A88012128002D
:1041D00004F0EBFD2300C0331870543B1A88012112
:1041E000280004F0DBFD2300C1331870280004F020
:1041F00071FD002804D18F220549064806F0F2FE21
:104200002000FFF779FB2000FFF7C5FF70BDC04617
:08421000974E0110A44E0110AD
:1042180070B5040000F0E4FD237B002B09D00025D5
:10422800200029002573FFF723FF29002000FFF74E
:0A4238007FFF200000F0DBFD70BDE9
:1042440010B504001A4B08330360FFF7E3FF00F0D6
:10425400A3FD06F039F8206F002801D007F017FD00
:10426400606F002801D007F012FD2000AC3007F089
:10427400F5FE2000A43004F036FE20009C3004F04B
:1042840032FE2000883004F075FC2000783004F001
:1042940071FC20004030FFF761FA20003030FFF756
:1042A4005DFA20002030FFF759FA200010BDC04607
:0442B400484F01105E
:1042B80010B50400FFF7C2FFC4212000490007F031
:0642C800D3FC200010BD34
:1042CE0070B504000D0000F096FD237B002B09D085
:1042DE00042D07D001212000FFF7C7FE0121200089
:0642EE00FFF723FF70BD85
:1042F40070B50E000500140000F082FD012E09D1F6
:10430400012C06D8013C6142614128000131FFF7CC
:10431400B1FE70BD022EFCD1012CFAD8013C6142E1
:0C432400614128000131FFF705FFF2E7BE
:1043300010B5040000F066FD2300C1331978200099
:1043400000F06FFD2000FFF7A5FC20009C3004F07A
:1043500084FDE36B002B04D0200001213030FFF7F7
:0443600079FE10BD15
:1043640070B5104C10492068104A114B88420FD187
:10437400606890420CD1A068984209D100250D488C
:10438400256009F0B5FA03008020290080049847CD
:10439400216009480021A360626009F017F9002335
:1043A400236070BDCC0F0020DE8116F0299B72BD06
:0C43B4007ABE59D355420000A0860100DB
:1043C0000B00F0B50F2700260E33023902003A40E9
:1043D000D5B22C0000093034092A00DD07341C70E6
:0A43E0005E70023B9942F1D1F0BD7E
:0443EA001E207047DA
:0243EE00704716
:1043F00013B50400684608F0CFFC21000098FFF7D1
:10440000DFFF210001981031FFF7DAFF202016BDF1
:1044100010B5192001F08AFD0400044809F06AFA79
:10442000030001200021A0409847C04655420000EB
:0444300000207047B1
:104434009C2370B55B00C35C05001400002B1CD1E9
:104444000368DB699847F0210C4B09012140C91826
:104454004B1E9941F0232340303B5A4253410F22D3
:104464000731144001330D3A012C02D0023C624260
:104474006241A869006803F0D4FF70BD00FDFFFF2E
:104484009C2310B55B00C35C0400002B05D1A36919
:0C449400186803F0F6FF0028F9D010BDF6
:1044A0009C2370B55B00C55C0400002D14D18369AA
:1044B000002B0CD01868002809D00368DB689847E7
:1044C000A36904211D60A06907F0D2FBA561002348
:0A44D000FC34E3622363636370BDF4
:1044DA009C23F7B55B00C35C0400002B2AD180251E
:1044EA00FF276D00A369186803F0ACFF002821D0EC
:1044FA0006F021FEA369012218686B46DE1D0368D7
:10450A0031005B6998472300FC335A6BAA420ED0EC
:10451A005A6BAA420BD02200D96A307828325054FA
:10452A00DA6A01323A40DA625A6B01325A6306F0A9
:06453A0018FED7E7F7BDF3
:104540007FB59C235B00C35C04000D00002B37D1BA
:104550008669002E04D1042007F056FBA061066096
:10456000A369186800282CD1783007F04DFB0600AD
:104570002223E25E2023E15E2B0004F029FAA369E6
:104580001E602423E25E531C06D0A0692621635ED0
:104590000068032104F02AFAA369186800280FD0E4
:1045A00000220A4B69460393094B0094019302923F
:1045B00003F0A1FF039B002B02D09B68684698473D
:1045C0007FBD290003F01EFFDBE7C046A84F0110A6
:0445D000DB440010B8
:1045D40010B582684368006851104018D20701D5AD
:0845E4000268D358984710BD8E
:1045EC009C2210B552000300805C002806D00120EC
:1045FC0001F0BCFC054801F009FB10BD9B69002BC8
:10460C00FBD01868431E9841C0B2F6E76415002031
:10461C0070B504000D0001F0F9FA0300002083428C
:10462C0004D0236829001B6C2000984770BD08B487
:10463C00024B9C46024BC01A08BC60471D4600103A
:04464C004001000029
:1046500037B56B46DC1D9C2321705B00C35C0500F5
:10466000002B04D0C9B20A48FFF7D8FF3EBDAB69A2
:10467000186803F008FF0028F9D0AB690122186818
:10468000210003681B6998470130431E9841EDE7FC
:04469000641500208D
:10469400F7B5060001911700002401F0BBFAA0420F
:1046A4000DD0A7420BD93D1B402D00D94025019BBD
:1046B4002A001919300000F017FF6419F1E72000EF
:1046C400FEBD08B4024B9C46024BC01A08BC6047AE
:0846D4009546001040010000B2
:1046DC009C2370B55B00C35C05000E001400002B1E
:1046EC0005D00F48FFF7D0FF0400200070BDAB6968
:1046FC00186803F0C2FE0028F9D0AB6901211B68D1
:10470C0018005B6F74301B6B9847AB6922001868FC
:10471C00310003681B699847431CE6D10024E4E789
:04472C0064150020F0
:10473000F0B5C3B0050001F0D7F9932380229B00A8
:10474000E918CB6852000400D31A984201DDCC6806
:10475000141B01AB220002A92800A82600F0C3FF09
:104760000021019802AB241A76001C1993238022A1
:104770009B00EB18DF685200974211D081420FD0A6
:10478000DF6897420AD05A68675CAA1897555A683A
:104790000132D2B25A60DA680132DA600131E5E7FB
:0447A00043B0F0BD75
:1047A40070B5040000F01EFB2000FFF7BFFF932349
:1047B4009B00E318DD68200000F01BFB280070BD9F
:1047C40008B4034B9C46034BC01A08BC6047C04660
:0847D400A547001040010000A0
:1047DC009C2310B55B00C35C0400002B05D006487D
:1047EC00FFF7DAFF0400200010BDFC3406F0A2FC39
:0C47FC00646B06F0B5FCF6E764150020C5
:1048080070B5040000F0ECFA2000FFF78DFF932349
:104818009B00E318DA68002A09D0A8229B68520096
:10482800E3189D5C200000F0E2FA280070BD012525
:104838006D42F7E708B4034B9C46034BC01A08BC0B
:0C4848006047C046094800104001000015
:104854009C2310B55B00C35C0400002B05D00B48FF
:10486400FFF7D0FF0400200010BD06F067FC230012
:10487400FC335A6B002A05D01B6B2834E45C06F029
:1048840073FCF0E701246442F9E7C0466415002094
:1048940070B5040000F0A6FA2000FFF747FF932349
:1048A4009B00E318DA68002A10D0A8219A6849000E
:1048B400A218555C9A680132D2B29A60DA68013A59
:1048C400DA60200000F095FA280070BD01256D42E1
:1048D400F7E708B4024B9C46024BC01A08BC604779
:0848E40095480010400100009E
:1048EC009C2310B55B00C35C0400002B05D00E4864
:1048FC00FFF7CAFF0400200010BD06F01BFC2300CC
:10490C00FC335A6B002A0CD01A6B2834A45C1A6B3B
:10491C000132D2B21A635A6B013A5A6306F020FC88
:0C492C00E9E701246442F9E7641500206B
:10493800802210B50400520000210BF033F8230048
:0E4948000022FC335A6020009A60DA6010BD35
:10495800F7B51A4B1A4DFA260024083300932B603A
:104968002023B600AE606C6016486B61AC61EC61E8
:10497800FFF7DEFF9C22012752002000AF5401F010
:10498800D1FA0190380001F0CDFA20230E4D00999C
:104998006B616B469B88AE602B84012368845B4205
:1049A8006C600A482960AC61EC61AB84EB84FFF76A
:1049B800BFFF9C225200AC54F7BDC046B44F011053
:1049C80058190020801900201C18002044180020C5
:0449D8000020704704
:0249DC00704722
:0249DE00704720
:1049E00010B5054BC458002C05D0236820005B6827
:0C49F0009847A468F7E710BD8C05000094
:1049FC0070B50D00054BC458002C06D02368200060
:104A0C009B6829009847A468F6E770BD8C050000E8
:084A1C000048704784500110AE
:104A240010B50400044B036005F04EFC200005F0B3
:0C4A340065FC200010BDC04604500110BD
:104A400010B50400FFF7EEFFB2212000C90007F007
:064A50000FF9200010BD6B
:104A5800F0B50F4B0500C458002385B0019102AA98
:104A6800D61C002C12D023680199DF68320003ABF2
:104A78002000B84731780300042905D0039A28009C
:104A880004F0FEFD05B0F0BDA468E8E73178F5E76D
:044A98008C05000089
:104A9C0070B50E0005000021002A0CD10A4BC45839
:104AAC00002C0ED0236800221B693100200098478F
:104ABC00002804D00121280004F0ACFB70BDA468D0
:0C4ACC00EEE72100F7E7C0468C05000073
:104AD80070B50E0005000021074BC458002C07D004
:104AE8002368310020005B699847A4680100F5E756
:0C4AF800280004F09BFC70BD8C05000041
:104B0400F8B505000E001700084BC458002C07D058
:104B1400236820009B693A0031009847A468F5E7B0
:104B24002800012104F0F0FCF8BDC0468C0500000B
:104B3400F0B5002187B0040004F0E4FF6B460022C6
:104B4400DA80238901A9A588E28889260B731B0AC8
:104B54004B730F4BEF27CB81042376000E80113E5D
:104B6400FF3ECE704E710D728A72FF330A34013EDD
:104B74002D0A120AC871CA720F718E714D720B829E
:104B8400122220000AF07EFE200007B0F0BDC046CD
:044B9400010200001A
:104B9800F8B506000C000500002730000BF046FAB7
:104BA800AB1B984205D92B78677023700135023406
:084BB800F3E74000C0B2F8BDB4
:104BC00070B504000C4BC558002D07D02B68280089
:104BD0001B6A9847002802D1AD68F5E72800A9258F
:104BE000064BED006353064BE118FFF7D5FF635DFD
:104BF000C0186055601970BD8C05000002030000EC
:044C00004A05000061
:104C040070B5A125064BED004353064B0400C118B3
:104C14000548FFF7BFFF635DC0186055601970BD9C
:0C4C2400020300000A050000E84F011028
:104C300070B59925064BED004353064B0400C01890
:104C4000FFF7D6FB635DC0186055601970BDC046A4
:084C500002030000CA04000089
:104C58000023F0B587B003A98B71B123DB00C35CD7
:104C680005000B7101234B71BF33CB713A330B72C3
:104C7800CE2309249B00154AC7180392380009223D
:104C88000AF0FEFD124BEE58002E17D033680021B3
:104C98001B6830009847C37882781B021343093B8E
:104CA8000193CE2301009B00E01828180931019ACE
:104CB8000AF0E6FD019BB668E418E5E73800054B05
:104CC800EC54054B2412EC5407B0F0BD0902FFFF69
:0C4CD8008C0500003A0300003B030000C4
:104CE40073B504000D00160007F050FE80235B002E
:104CF400010000932A003300200004F0BBFE024BA5
:0C4D04002000236076BDC0460450011062
:104D100010B50E4A04008358002B12D18150B123E4
:104D2000DB00E25C48790A71E25C1218E2540B681D
:104D300008005B6A9847238918182081012010BD5C
:104D400013009A68002AFBD19960E8E78C050000FF
:104D50001FB5040004F088FE0100684603F0B2FFAE
:104D60004021684604F028F8074BE458002C06D090
:104D700023682000DB6969469847A468F6E768461F
:0C4D800003F0A7FF1FBDC0468C0500001B
:104D8C0010B50400FFF7DEFF200004F0CBFD10BDD2
:104D9C0070B50D4D2B78BFF35B8F0C4CDB0711D42A
:104DAC00280006F01DFD00280CD0C0220849200068
:104DBC00FFF792FF280006F035FD064A0649200051
:104DCC0006F0FAFC200070BD981A0020681D002027
:0C4DDC008A2E000000020020254A001072
:0E4DE80010B5FFF7D7FF03685B6F984710BD4B
:0E4DF60010B5FFF7D0FF03689B6F984710BD04
:0E4E040010B5FFF7C9FF0368DB6F984710BDBC
:104E120010B50C00FFF7C1FF210005F02CF810BD02
:104E220010B50C00FFF7B9FF210005F0CEF810BD58
:084E320010B504F0CCF810BD2E
:084E3A0010B504F0DEF810BD14
:084E420010B504F0B2F810BD38
:024E4A007047AF
:024E4C007047AD
:024E4E007047AB
:084E5000436A783318787047BB
:064E5800FC30806A704787
:044E5E000120704778
:084E640000487047E451011001
:104E6C00F0B505009BB007AC4B220F0020000021D1
:104E7C000AF096FD2B00FC339B6A05215A1E9341C8
:104E8C0000202E795B421940731CDBB20193AB7B83
:104E9C0002932B7B03936B7B0493874200D0A5E09A
:104EAC006176534906A86183102161770B39E1774C
:104EBC002421471D0922F9772527627406A8053A93
:104ECC00C019A274033A027006A8C71D0320494BEF
:104EDC00F8772380BF3BFF3BA370812308AFFA77A1
:104EEC0004275B00A380823BE37162754E3B227604
:104EFC00A27706A80832121823722A3BD77763725E
:104F0C000A220333A3723C4B06A8A3810223121876
:104F1C00D1770591073706A97F18FB77062705215E
:104F2C0009A8C77711A801702D2006A940182421C3
:104F3C00E672A373E674A375E37501702E2006A9BF
:104F4C00401807702F204018694606700E7912A879
:104F5C0006703126072006A976183070322676188E
:104F6C0005213170332606A9761869460F7A06A9F1
:104F7C003770224E10272686372676183770092769
:104F8C0014AE377039260427761837703A267618FF
:104F9C0069460F7906A93770194E1D3526874126AB
:104FAC00761830703B30401805210170432106A85B
:104FBC00091868464426007B0870124906A8801917
:104FCC00018011492800D1874A2206A95218694646
:104FDC00097C11704B2206A952181370402219AB90
:104FEC001A7021000B320AF049FC28001BB0F0BDEE
:104FFC00052400000902000002020000034000002A
:0C500C00020A000002400000070500003E
:1050180010B504000A4B08330360FFF7BBFE05F028
:1050280051F92000D03003F05CFF20007C3003F001
:1050380058FF2000703003F054FF200010BDC04618
:045048009C51011066
:10504C0010B50400FFF7E2FF94212000490006F0A0
:06505C0009FE200010BD5A
:0850620010B5FFF7CEFE10BDF2
:10506C0010B50400024B036003F0FCFC200010BDE3
:04507C00CC50011003
:1050800010B50400FFF7F2FF2000282106F0F0FD24
:04509000200010BD2F
:1050940010B50400024B036003F0E8FC200010BDCF
:0450A4009C5001100B
:1050A80010B50400FFF7F2FF2000342106F0DCFD04
:0450B800200010BD07
:1050BC0010B50400024B036003F0D4FC200010BDBB
:0450CC00B4500110CB
:1050D00010B50400FFF7F2FF2000382106F0C8FDEC
:0450E000200010BDDF
:1050E40070B50D000400072217490F300AF0CAFBFF
:1050F40040220221280003F04FFE402220730221A7
:10510400280003F050FE402260730321280003F0BE
:1051140043FEA073280003F0DBFD002804D1AF2276
:105124000A490B4805F05CFF220021000023783275
:1051340085311165536513701373D9345032137468
:105144005465936570BDC046E85001107D5101104F
:04515400885101106D
:10515800F0B504000E0087B01500FFF74FFEF28887
:1051680023799A4236D1002D34D173780593012BD7
:105178002DD1F378202B26D13789072F23D123006F
:105188000F33039307333A001900039804930AF086
:1051980051FB059D002816D03A00049903980AF09F
:1051A8006FFB217CE07B09020918607CE77C000426
:1051B8000918A07C0097000609182068237D476B12
:1051C800627D2000B847F378212B00D10125280003
:0851D80007B0F0BD0025FAE765
:1051E00070B50400FFF70EFEFFF7D8FD217B04F039
:1051F000EDFE23002200C833853225001A6020000E
:1052000000234732843513607C302B7003F025FE79
:105210002B78002B03D123682000DB6B984770BDEF
:1052200070B504002500FC35FFF7ECFD6E6A002E1A
:1052300005D0DE220E49FF320E4805F0D3FE2300D2
:10524000D9332B62FFF7AAFD617B04F015FE68627B
:1052500025002000D8352E70D03003F0FEFD2B78CD
:10526000002B03D1236820009B6B984770BDC0467C
:085270007D510110EF50011007
:1052780010B582684368006851104018D20701D5FC
:085288000268D358984710BDDD
:10529000F0B50400002687B002ADFFF7B3FDFFF7BD
:1052A0007DFDA17B032340220095059604F05CFB65
:1052B0002800FEF755FAFFF771FD164F164B217BBC
:1052C0004022EF600393009502230294049604F0B9
:1052D0004BFB2800FEF744FAFFF760FD0F4B617BA4
:1052E0004022EF600393009502230294049604F099
:1052F0003BFB2800FEF734FAFFF750FD2200FC329A
:10530000617B4023126A04F057FD0120D8342070DD
:1053100007B0F0BDDC500110E15100102152001027
:10532000022370B543710023040083600C4B150009
:1053300008330360703003F083FD20007C3003F0FD
:105340007FFD2000D03003F07BFD2300FC339D6205
:10535000FFF724FD2100FFF7DBFC200070BDC046F5
:045360009C5101104B
:1053640070B504000D00FFF74BFD230078331D706A
:10537400002D42D1260084363378002B05D0FFF768
:105384000BFD217B04F0DAFB35702300220025009D
:105394000026C83385327C3528001A605E6003F02D
:1053A4005AFD280003F050FDB04205D1A222154950
:1053B4001548520005F014FE2500D8352B78002B33
:1053C40005D0FFF7E9FC217B04F0B8FB2E70230025
:1053D4002200FC33D93225001A620022D03528007D
:1053E4005A6203F038FD280003F02EFD002804D192
:1053F400A722044952000548DCE72000703003F07E
:105404002AFD70BD7D510110FD5001100E51011097
:1054140010B50400FFF7F4FC00212000FFF7A0FF03
:0254240010BDB9
:1054260070B50D000400FFF7EAFC042D03D000213F
:085436002000FFF794FF70BD98
:10543E00F8B5040016000D001F00FFF7DCFC042376
:10544E003370EA88237900209A4210D16A78012AB3
:10545E000DD1EB78212B06D0222B09D0202B19D180
:10546E003070163401E032700F3407203C60F8BD06
:10547E00A988114000D011002000FFF76CFF012217
:10548E00AB8800201340E366AB8892181340A366E6
:0A549E003270ECE703233370E9E7F6
:1054A80010B504008AB0FFF79BFC684603F0D0FAF9
:1054B80020000A4B694670300093099403F0E0FC21
:1054C8002000FFF794FC064B00211A68684603F099
:1054D80013FB6846FFF7C6FD0AB010BDCC5001109B
:0454E800504E011011
:1054EC0070B504000E008EB01500FFF777FC01A814
:1054FC0003F0ACFA20000B9600260D4B01A90C957D
:10550C007C300DAD01930A942E7003F0B7FC200093
:10551C00FFF76BFC074B31001A6801A803F0EAFA9D
:10552C002C7801A8FFF7B0FD20000EB070BDC0466E
:08553C009C500110504E0110BB
:1055440070B5040025008435FFF75AFC2B78002B36
:1055540010D12600CC363368002B0BD0FFF71CFC8F
:105564002200217B8532336804F0C6FC002801D078
:0655740001232B7070BD45
:10557A00F0B585B01F000AAB1B78040003930291B3
:10558A000192FFF72CFC00233B60230078331B7841
:10559A00002B21D0230084331B78002B1CD126003A
:1055AA004025CC363368ED1A019B9D4200D91D0077
:1055BA00019B002B06D02300C83318682A000299E1
:1055CA000AF05DF933685B193360039B3D60002B79
:1055DA0002D02000FFF7B1FF2000FFF707FC05B05B
:0255EA00F0BD12
:1055EC00F0B50400406A85B0030078331D780126BD
:1055FC00002D05D1303425703500280005B0F0BDE4
:10560C000027009603ABE26AA16A0397FFF7AFFF8E
:10561C00039AE36AA16A9B1A8A18E362A262BB42EC
:10562C0002D130342670E8E7606AFFF785FF3D0051
:02563C00E3E7A2
:10564000F0B51C0093B0019205000F00FFF7CCFBF2
:1056500063426341DBB20093002C00D103AC00260F
:1056600004A8266003F0F8F96A46109428003D2447
:105670000F4B12780493019B04A90F9311AB1A707E
:1056800002ABE418D03026700D950E9703F0FCFBAA
:105690002800FFF7B0FB074B31001A6804A803F09D
:1056A0002FFA247804A8FFF709FD200013B0F0BDFD
:0856B000B4500110504E01102E
:1056B800030070B5FC335B6A0400002B0ED10500B3
:1056C800D8352B78002B09D1FFF764FB2200402343
:0E56D800D932617B04F06CFB01232B7070BD96
:1056E600F8B506001F0000233B60330078331B78B3
:1056F6000800002B19D03300D8331B78002B14D1A7
:105706003400FC34656A954200D915002A00216AE6
:105716000AF0B7F83D60236A5B192362636A5D1B72
:0C572600656202D13000FFF7C4FFF8BD3F
:1057320037B50400406A030078331D78002D04D188
:1057420035342570013528003EBD0023E26A0193FD
:10575200A16A01ABFFF7C6FF019BA26AD218A2623F
:10576200226B1168CB181360E36A01995B1A21005E
:10577200E36234310978002902D11268002A01D18A
:10578200002B03D1012335342370DCE7606AFFF775
:0657920092FF0025D7E79D
:065798001620404270479C
:0A579E000020814200D11938704745
:0457A8000120704725
:0657AC0016204042704788
:0657B20016204042704782
:0457B8001120704705
:0257BC00704734
:0257BE00704732
:0257C000704730
:1057C40010B503689B6C984710BD08B4024B9C4607
:1057D400024BC01A08BC6047C557001040010000C6
:0457E4007047704753
:0457E800704770474F
:1057EC0010B504000120783400F0C0FB207810BD07
:1057FC0008B4034B9C46034BC01A08BC6047C04618
:08580C00ED57001040010000FF
:10581400012270B501235242FF210B4806F037FCE8
:1058240000F098FB0500094C78342378002B03D052
:10583400012000F09FFBF8E700F08CFB401BC72819
:10584400F6D9FEF7E3FD70BD381B00206415002077
:1058540007B50122019101A9FFF746FE002801D0F6
:0A58640001980EBD01204042FBE751
:1058700008B4034B9C46034BC01A08BC6047C046A3
:0858800055580010280100003A
:1058880013B56B46DC1D0023012221002370FFF7AE
:10589800D3FE002801D0207816BD01204042FBE746
:1058A80008B4034B9C46034BC01A08BC6047C0466B
:0858B8008958001028010000CE
:1058C000F7B5040001930E001500FFF79BFA9C2327
:1058D0009B00E758002F04D0089B019A2900300054
:1058E000B84798239B00E650019A0433E5500433EF
:0A58F000E250089A0433E250F7BDBD
:1058FA00F8B50600FFF781FA9D23AD2700259B0026
:10590A00F418BF00F359AB4209D920001034231F01
:10591A001B68002B03D01B6898470135F2E7F8BDD6
:10592C00962310B5DB00984203D10121014806F003
:08593C0087FB10BD381B0020A1
:1059440010B582684368006851104018D20701D529
:085954000268D358984710BD0A
:10595C00104B70B5036003000F4AFC33DA620F4A38
:10596C0004001A630E4A5A649D239B00C6184033E8
:10597C00C518AE4204D0103D2800FDF7EBFEF8E749
:10598C0020002930FF3005F089F92000FFF73EFB9D
:10599C00200070BD1852011090520110F0520110ED
