:020000041000EA
:1000000000B5324B212058609868022188439860DF
:10001000D860186158612E4B002199600221596106
:100020000121F02299502B49196001219960352056
:1000300000F044F80222904214D00621196600F024
:1000400034F8196E01211966002018661A6600F04E
:100050002CF8196E196E196E052000F02FF8012189
:100060000842F9D1002199601B49196000215960AB
:100070001A491B48016001219960EB211966A021F2
:10008000196600F012F800219960164914480160C1
:100090000121996001BC002800D000471248134993
:1000A000086003C880F30888084703B5996A0420EC
:1000B0000142FBD001200142F8D103BD02B5186610
:1000C0001866FFF7F2FF186E186E02BD00000240BE
:1000D000000000180000070000035F00212200005C
:1000E000F4000018222000A00001001008ED00E03C
:1000F00000000000000000000000000074B24E7A12
:1001000000000420E3010010C3010010E903001007
:10011000C1010010C1010010C1010010C101001097
:10012000C1010010C1010010C10100104503001001
:10013000C1010010C1010010C9030010D503001057
:10014000CD010010CD010010CD010010CD01001037
:10015000CD010010CD010010CD010010CD01001027
:10016000CD010010CD010010CD010010CD01001017
:10017000CD010010CD010010CD010010CD01001007
:10018000CD010010CD010010CD010010CD010010F7
:10019000CD010010CD010010CD010010CD010010E7
:1001A000CD010010CD010010CD010010CD010010D7
:1001B000CD010010CD010010CD010010CD010010C7
:1001C00000BE00BE00BE00BE00BE00BE00F03FF894
:1001D000103800BE00202049086006C881F3088856
:1001E00010471E48006800282DD10CA40ECC002911
:1001F00002D000F010F8F9E719491A4A002000E08F
:1002000001C19142FCD1184988471849884700BE6E
:10021000FDE701C901C29A42FBD370479C730110EC
:10022000C0000020D40F0020BC8201100000042078
:1002300000000420BC8201100010042000100420E3
:100240000000000070470A480DF022FB0047EFF362
:100250000580C0B27047000008ED00E0000000D04B
:10026000E00F00203CAD0020CD02001001B50010D1
:1002700057560000F8B5C046F8BC08BC9E4670470B
:10028000F8B5C04610B5064C2378002B07D1054BB6
:10029000002B02D0044800E000BF0123237010BDF2
:1002A000B81500200000000084020010044B10B5B7
:1002B000002B03D00349044800E000BF10BDC04636
:1002C00000000000BC15002084020010164B002B1B
:1002D00000D1144B9D46402292029A1A9246002168
:1002E0008B460F461348144A121A0FF0F1F90F4BC0
:1002F000002B00D098470E4B002B00D098470020D1
:10030000002104000D000D48002802D00C480BF01D
:10031000FAF80EF05FFD2000290007F073FC0BF0E7
:10032000EFF8C046000008000000042000000000B4
:10033000657B0010E00F00203CAD002007B50010E9
:10034000000000007046C0082CD3EFF309808169DB
:1003500002390978002929D101B50FC8B8470CBC6A
:1003600003C29E461E4B06CB91421ED0083B1A602C
:10037000002909D0EFF3098020388863F0C0444693
:100380004D4656465F46F0C0906B1030F0C8A04610
:10039000A946B246BB4680F309882038F0C802203F
:1003A000C0430047EFF30880D1E770470D4A136858
:1003B0009942FAD801B5890053589C460FC8E047C6
:1003C0000CBC10609E46704701B506F091FE03BC60
:1003D0008E46C7E701B506F049FE03BC8E46C1E76D
:1003E000F803002050500110102304E0202302E005
:1003F000302300E040239C46F0B404AE7546E80884
:1004000001D3EFF309860E4F0FCE0FC70FBC0FC7F6
:100410004046494652465B460FC71DCE3100A60AEC
:1004200000D304316E0900D248311FC7EFF30980B1
:100430006946EFF3148663C7604601490AF008FC79
:10044000ACAC002001480421014B1847F005002006
:10045000A1D8001002B47146490849000956490064
:100460008E4402BC7047C04602B471464908490038
:10047000095C49008E4402BC7047C0460022430814
:100480008B4274D303098B425FD3030A8B4244D35C
:10049000030B8B4228D3030C8B420DD3FF2209029E
:1004A00012BA030C8B4202D31212090265D0030B5D
:1004B0008B4219D300E0090AC30B8B4201D3CB0353
:1004C000C01A5241830B8B4201D38B03C01A524195
:1004D000430B8B4201D34B03C01A5241030B8B4297
:1004E00001D30B03C01A5241C30A8B4201D3CB0282
:1004F000C01A5241830A8B4201D38B02C01A524167
:10050000430A8B4201D34B02C01A5241030A8B4269
:1005100001D30B02C01A5241CDD2C3098B4201D381
:10052000CB01C01A524183098B4201D38B01C01AFF
:10053000524143098B4201D34B01C01A5241030976
:100540008B4201D30B01C01A5241C3088B4201D325
:10055000CB00C01A524183088B4201D38B00C01AD2
:10056000524143088B4201D34B00C01A5241411AF9
:1005700000D20146524110467047FFE701B5002006
:1005800000F0F0F802BDC0460029F7D076E77047CA
:1005900003460B437FD4002243088B4274D30309E4
:1005A0008B425FD3030A8B4244D3030B8B4228D385
:1005B000030C8B420DD3FF22090212BA030C8B42AB
:1005C00002D31212090265D0030B8B4219D300E04B
:1005D000090AC30B8B4201D3CB03C01A5241830BD0
:1005E0008B4201D38B03C01A5241430B8B4201D380
:1005F0004B03C01A5241030B8B4201D30B03C01AA9
:100600005241C30A8B4201D3CB02C01A5241830A22
:100610008B4201D38B02C01A5241430A8B4201D351
:100620004B02C01A5241030A8B4201D30B02C01A7B
:100630005241CDD2C3098B4201D3CB01C01A5241E2
:1006400083098B4201D38B01C01A524143098B426B
:1006500001D34B01C01A524103098B4201D30B0154
:10066000C01A5241C3088B4201D3CB00C01A524179
:1006700083088B4201D38B00C01A524143088B423E
:1006800001D34B00C01A5241411A00D201465241D7
:10069000104670475DE0CA0F00D04942031000D3F6
:1006A0004042534000229C4603098B422DD3030A4B
:1006B0008B4212D3FC22890112BA030A8B420CD35B
:1006C000890192118B4208D3890192118B4204D384
:1006D00089013AD0921100E08909C3098B4201D304
:1006E000CB01C01A524183098B4201D38B01C01A3E
:1006F000524143098B4201D34B01C01A52410309B5
:100700008B4201D30B01C01A5241C3088B4201D363
:10071000CB00C01A524183088B4201D38B00C01A10
:100720005241D9D243088B4201D34B00C01A5241E7
:10073000411A00D20146634652415B10104601D374
:100740004042002B00D54942704763465B1000D3FE
:10075000404201B5002000F005F802BD0029F8D0A4
:1007600016E770477047C046D0400B1CD1409C46EE
:10077000203AD3401843524263469340184370478F
:100780009140031C90409C46203A934019435242AA
:100790006346D340194370478446101C62468C461A
:1007A000191C634600E0C0461FB501F05BF8002845
:1007B00001D40021C8421FBD10B500F0B3FF404274
:1007C000013010BD10B501F04DF8002801DB00200C
:1007D00010BD012010BDC04610B501F043F800283F
:1007E00001DD002010BD012010BDC04610B500F095
:1007F000D5FF002801DC002010BD012010BDC0463F
:1008000010B500F0CBFF002801DA002010BD012058
:1008100010BDC0461C2101231B04984201D3000CCB
:1008200010391B0A984201D3000A08391B09984263
:1008300001D30009043902A2105C40187047C04679
:100840000403020201010101000000000000000099
:10085000002B15D1002A13D1002906DB01DC00286A
:1008600006D00020C043410802E080210906002094
:1008700007B4024801A14018029003BDE9FEFFFF42
:1008800003B4684601B5029800F012F9019B9E4638
:1008900002B00CBC7047C046002B11D1002A0FD10A
:1008A000002900D1002802D00021C943081C07B448
:1008B000024802A14018029003BDC046A9FEFFFFF6
:1008C00003B4684601B5029800F030F8019B9E46DB
:1008D00002B00CBC7047C046F0B5CE464746150482
:1008E0002D0C2E0080B50704140C3F0C9946030C08
:1008F0007E435D43674363437F19340CE4199C4690
:10090000A54203D980235B029846C4444B46434327
:100910005143250C36046544360C2404A4195B1994
:10092000591820000CBC90469946F0BDF0B54F46D2
:100930004646D646C0B5040082B00D0091469846A2
:100940008B422FD82CD04146484601F06BFE29003F
:100950000600200001F066FE331A9C46203B9A46B2
:1009600000D576E04B46524693401F004B46624608
:1009700093401E00AF4228D825D05346A41BBD414A
:10098000002B00DA7BE00022002300920193012378
:10099000524693400193012362469340009318E02E
:1009A0008242D0D900220023009201930A9B002B9F
:1009B00001D01C605D600098019902B01CBC90469B
:1009C0009946A246F0BDA342D7D900220023009247
:1009D00001936346002BE9D0FB0798464146720815
:1009E0000A437B0866460EE0AB4201D1A2420CD816
:1009F000A41A9D41012024196D410021013E2418B3
:100A00004D41002E06D0AB42EED9013E24196D4176
:100A1000002EF8D100980199534600196941002B26
:100A200023DB2B005246D3402A006446E2401C00E0
:100A300053461500002B2DDB26005746BE403300E1
:100A400026006746BE403200801A9941009001910D
:100A5000ACE7624620239B1A4A46DA4061461300FF
:100A600042468A4017001F4380E7624620239B1AB4
:100A70002A0066469A402300F3401343D4E76246B7
:100A8000202300219B1A0022009101920122DA40CA
:100A9000019280E72023624626009B1ADE402F0049
:100AA000B0466646B74046463B003343C8E7C046BB
:100AB000F0B583B016001F000090019101F0BEFD5B
:100AC00004000D0002000B0030003900FFF704FFA6
:100AD000009A019B121A8B41089920000A604B6012
:100AE000290003B0F0BDC046F0B54F464646D64695
:100AF0000C000903C0B5490A470F5E0039431F03C4
:100B0000DB0F9C4665007B0A570F1F436D0DE40FFA
:100B1000760DA146C000B846D200AB1B64457BD021
:100B2000002B5FDD002E00D0A4E03E00164300D174
:100B300012E15E1E002E00D09EE1871A4346B842A5
:100B400080410125C91A4042091A0B0200D431E143
:100B500049024E0A002E00D16EE13000FFF75AFE26
:100B60000300083B1F2B00DD61E120223900D21A6F
:100B70009E40D1409F400E439D4200DD51E15D1BF0
:100B80006B1C1F2B00DD7CE12021C91A3D003000C9
:100B90008F408840DD40791E8F4131000722284375
:100BA000D940002507433A40002A09D00F233B4093
:100BB000042B05D03B1DBB42BF417F42C9191F001A
:100BC0000B0200D426E26A1CC64B55056D0D9A42F5
:100BD00000D106E1C44AFF080A40530752023B43D2
:100BE000120B8EE0002B00D0B8E06B1C5B055B0D98
:100BF000012B00DC30E1871A4346B842B641CB1ADC
:100C000076429E1B330200D54CE13B003343A1D119
:100C100000220024002570E0002B00DCE5E0002E1F
:100C200000D183E0AF4EB54260D080263604374312
:100C3000B846382B00DC3EE1434613431F007A1EC2
:100C400097413F1887428041404209180B0200D467
:100C5000B0E0A44B01359D4200D1C3E0A24A7B081D
:100C60000A4001210F401F435108D30707221F43A9
:100C70003A4099E79B4EB54238D080263604374338
:100C8000B846382B00DDDCE01F2B00DC30E11E0015
:100C90004746203EF740BC46202B04D04026F31A9E
:100CA00046469E403243170063467A1E97411F43D3
:100CB000CCE0002B00D104E24346134300D159E1BC
:100CC0004B07C00818438023C9081B03194208D0EA
:100CD0004546ED081D4204D14346D0085907084354
:100CE0002900420FC9007F4D1143C0004B07CA08BD
:100CF0007C49C00803438D4268D012036D05120B76
:100D00006D0D002112031800130B0A0D12051A4372
:100D1000764B2D0513402B435B00E4075B08234310
:100D200019001CBC90469946A246F0BD3E001643F1
:100D300012D05E1E002E00D000E18718874280414D
:100D400041444042091801250B0233D5022585E7AD
:100D500064463300414610001D00C7E7002D00D057
:100D6000DAE00C000443F3D05C1C00D19FE15D4C41
:100D7000A64200D12FE1DB43382B00DD66E11F2BBB
:100D800000DD83E120240500E41A0F00DD40D94096
:100D9000A0404346A7405B1A441EA04198462F43FB
:100DA0003843171ABA42924143465242991A64464E
:100DB0003500CAE607223A40002A00D0F6E64B0783
:100DC000CA084849FF083B438D4296D11900114398
:100DD00000D19EE1802109030A431203120B414D09
:100DE0008FE71500002200238BE7002B00D0C7E01F
:100DF0006B1C5F057F0D012F00DCF1E0394DAB422C
:100E000000D1B9E085180A0085428941424449422F
:100E100051180722CF076D082F4349083A401D009B
:100E2000C2E607223049ED1A31403A40BCE63E00A6
:100E30002838864000279FE63800FFF7EBFC20307B
:100E40008EE6434613431F007A1E9741C71BB842E4
:100E500080414042091A78E60E003B0006431343E6
:100E6000002D61D1002E00D0F4E0002B00D11BE159
:100E700064463900100039E71A4FBB427AD033007C
:100E8000FFE630001F3DE840202B03D04021CB1A65
:100E90009E4037437B1E9F41072207433A40002173
:100EA000002589E7171A4346BA42B641591A7642D5
:100EB0008E1B64464EE61F2B00DDADE02026474624
:100EC000F61AB740B9461700B246DF404E463E43D9
:100ED00037005646B240561EB24117434246DA40EA
:100EE0008918AEE6FF070000FFFF7FFFFFFF0F80BE
:100EF00020264746F61AB740B9461700B246DF40EB
:100F00004E463E4337005646B240561EB241174346
:100F10004246DA40891A99E77F4CA6425BD080248A
:100F200024045B42214327E7002E0CD1002B00D183
:100F3000CBE0644639001000774DD7E6764FBB42D0
:100F400018D0330075E6002B14D04B07C0081843A7
:100F50008023C9081B03194207D0FC081C4204D196
:100F60007907D0080843E14621004C46420FC900EA
:100F70001143C000684DB9E61D0000220023C0E601
:100F8000002D5BD10D00054300D1E2E65D1C00D1D0
:100F9000B0E0614DAE421FD0DB43382B71DC1F2B1C
:100FA00000DD96E020250F00ED1AAF40B94607009E
:100FB000AA46DF404D463D432F005546A840D94044
:100FC000451EA84188440743BF18974292415142A9
:100FD000414435003AE6644635004146100085E656
:100FE0000B000343002D00D063E6002BF5D04346F1
:100FF000134300D17AE68718874280410722414493
:10100000404209183A400B0200D4D5E6434B013563
:101010001940C9E5380069E61E004746203EF74002
:10102000BC46202B04D04026F31A46469E4032434D
:10103000170063467A1E97411F4302E6364DAE42C3
:10104000CAD080252D045B422943A6E70843411EF0
:101050008841A6E6002B00D148E6871A4346B842ED
:10106000B641CB1A76429E1B33024BD5171A434624
:10107000BA429241591A5242891A072264463A40AA
:1010800092E501430F00791E8F419DE71C000F0080
:10109000203CE740202B03D04024E31A994008432A
:1010A000411E884138437CE60022002425E6171AB9
:1010B0004346BA429241591A5242891A644635004F
:1010C00043E541461000144D10E68022002412032F
:1010D00080E61D000F00203DEF40BC46202B03D0D2
:1010E0004025EB1A9940084307006346781E874164
:1010F0001F4369E7871897429B4141445B42C918E7
:101100003500A3E53B003343CED0072231003A40FF
:1011100052E600231A00F4E5FF070000FFFF7FFFFF
:10112000F0B55746DE464E464546E0B583460700D5
:101130000E03480085B092461C00360B400DCD0FC3
:10114000002800D19DE0954B984239D08023F600CD
:101150001B041E43924A7B0F334399469446030077
:101160006344009300230026FF00029323031B0B1C
:1011700098466300E40F52465B0D019400D1B3E042
:1011800086498B4200D19EE04246D1008022120463
:101190000A435146490F11438B46814952468C46BA
:1011A00000996344CB1A0021D20000932B006340C6
:1011B0009A460F2E00D905E17A4BB6009B599F46FF
:1011C0005B463343994600D0B8E002230826002747
:1011D00000900293CAE7CB463A0002990195019B21
:1011E0009A46022927D0032900D180E2012944D060
:1011F0006D49009B8C4663441C00002C38DD53076E
:1012000000D013E2D2085B46DB0109D55946674B93
:1012100019408B468021C9008C46009B63441C000A
:10122000634B9C4207DC5B4664055F075B02174328
:101230001B0B620D02E000230027584A00211B030C
:101240001C0B0B0D1B05234314055A4A3800134091
:101250001C4353466400DB0764081C43210005B0AF
:101260003CBC90469946A246AB46F0BD0122524294
:1012700001231B1B382B00DCADE1002200230027DB
:10128000DCE75B46334399465ED0002E00D18AE10D
:101290003000FFF7BFFA03000B3B1C2B00DD7BE1A6
:1012A0001D22D31A5A460100DA4008398E40130035
:1012B0005F46334399468F403F4B00261B1A0093ED
:1012C0000023029352E7414653460B433B499B465A
:1012D0008C46009B634400935B46002B3BD102236A
:1012E00000221E43022161E7434613439B4637D049
:1012F0004346002B00D162E14046FFF78BFA030022
:101300000B3B1C2B00DD53E102004146083A9140A3
:1013100088461D21CB1A5146D9400B0041460B434C
:101320009B46534693401A00009B25499C466044C7
:1013300003008C4663440093002137E70323B14642
:1013400000900C26029311E700230093013304263A
:10135000002702930AE70323C3461E43032125E720
:1013600001331E430022012120E700239A468023F7
:1013700000271B03094A61E7802349461B031942E2
:1013800000D1E2E05946194200D0DEE00B431B03D6
:1013900017001B0BA246014A50E7C046FF0700009A
:1013A00001FCFFFF04490110FF030000FFFFFFFEE7
:1013B000FE070000FFFF0F800DFCFFFF01F8FFFF9D
:1013C000F3030000D94500D9CBE000D1C6E03C00D2
:1013D00048460027009B013B00935B46160E1B020C
:1013E0001E431302984633041B0C9946310C01919D
:1013F000FFF7CAF84A4642430B04210C0500194383
:101400008A4207D98919013D8E4203D88A4201D9FF
:10141000851E8919881A0199FFF7B6F809048C46C8
:101420004A46210464464243090C030021438A4290
:1014300004D98919013B8E4200D8F1E02D041D43E7
:10144000AB464346891A4246280C12041D0C5B46E3
:10145000140C22001B041B0C5A4303946B4344439B
:10146000029568431B19150CEB189C4203D9802484
:101470006402A44660441C0C15041B042D0C2018A7
:101480005D19814277D373D00C1AA24A7D1BAF42FB
:10149000BF419446009B7F426344E01B1C00864290
:1014A00000D1DBE00199FFF76FF84A4642430B0495
:1014B000290C070019438A4207D98919013F8E4236
:1014C00003D88A4201D9871E8919881A0199FFF722
:1014D0005BF809044A46894629044D464243090CF3
:1014E000030029438A4207D98919013B8E4203D858
:1014F0008A4201D9831E89193F04891A3A00039F41
:101500001A43380013041B0C584381460298150CEB
:101510006F43434345434846000C8446DB1963440C
:101520009F4203D9802040028446654448461F0CF0
:1015300000041B04000C7D191818A94200D284E095
:1015400000D17FE001231A4357E680234A461B035C
:1015500013431B031B0BAA466F4A6FE6BA4200D91E
:1015600035E74B46DC0758087B081C43FF0734E788
:101570000024AF4289D247444745A4415B466442B8
:10158000A4196418013BA6421ED2A0426DD800D116
:10159000B6E0241A9B4678E703005A46283B9A4057
:1015A0000027914688E65846FFF734F9203072E666
:1015B00003005246283B9A4093460022B4E6504628
:1015C000FFF728F920309AE6A642E2D1B845DCD9E7
:1015D000341A9B4659E71F2B65DC504C0099A446F2
:1015E0005C46614408008C4011008240D940501E86
:1015F00082410C4314435A46DA401300620709D073
:101600000F222240042A05D02200141D9442894151
:1016100049425B181A0262D50122002300270DE619
:101620008A4200D80AE7831E891907E70F2313406F
:10163000042B00D1E6E5171D9742924153429B448B
:10164000FA08E0E5002800D1D7E57118531EB14231
:1016500027D3A94215D358D01A0073E7002B00DC1A
:1016600004E6012300229B44CDE50223474447457D
:1016700089415B429C46494289190C19E344241A6A
:1016800003E743465F0047459B41B8465B429E19CE
:10169000023A8919A94200D054E7404500D051E7E9
:1016A000ABE51A00F6E71F215F4649420C1BE740F5
:1016B000202B07D01A49009B8C46634418005B46D8
:1016C00083401A43501E82413A43072700231740A4
:1016D00009D00F21002311401400042995D12200C4
:1016E0005F075B021B0BD20817430022A6E580238D
:1016F00059461B030B431B0317001B0B064A9DE5B2
:10170000BD42B2D89B460024BFE68045B9D31A003B
:10171000C3E7C046FF030000FF0700001E040000EF
:101720003E040000F0B54F464646D6468446C0B556
:101730008046194E18030F034D00000B5C008246D3
:101740003F0B6D0DC90F9146640DDB0F0120B542B3
:101750000AD0B44203D0A54201D157450CD01CBCDD
:1017600090469946A246F0BD66463E43F7D1AC424C
:10177000F5D154461443F2D10120C845EFD1994226
:1017800007D0002DEBD163461F433800471EB841F8
:10179000E5E70020E3E7C046FF070000F0B54F464D
:1017A0004646D6464D00C0B50E03C90F8A462C49A1
:1017B0001F035C008046360B6D0D91463F0B640D98
:1017C000DB0F8D421ED08C4216D0002D1ED130432F
:1017D0008446002C01D13A4323D06246002A1AD015
:1017E0009A4529D0514602200139084001381CBCD5
:1017F00090469946A246F0BD39001143E5D002203B
:101800004042F4E73043FAD1AC420FD0002C0FD164
:101810003A43E7D00CE00122013B9343180001302A
:10182000E5E763460020002BE1D0DBE73A43E6D151
:101830009A45D7D1A542D5DCA54205DBBE42D1D819
:1018400008D00020BE42D2D250460123013898432E
:101850000130CCE7C845C5D80020C845F4D3C6E759
:10186000FF070000F0B54F464646D6464D00C0B5CE
:101870000E03C90F8A462E491F035C008046360BB3
:101880006D0D91463F0B640DDB0F8D4218D08C42DD
:1018900011D0002D18D130438446002C1ED13A437C
:1018A0001CD163460020002B30D051460220013964
:1018B000084001382AE039001143EAD0022025E02F
:1018C0003043FBD1AC4226D0002C26D13A4324D160
:1018D0005146022001390840013817E06246002ACB
:1018E0000FD09A45E1D1A54205DBBE42DDD819D023
:1018F0000020BE420AD250460123013898430130ED
:1019000004E00122013B9343180001301CBC9046C7
:101910009946A246F0BD3A43D0D19A45C5D1A542D9
:10192000C3DCE0E7C845C0D80020C845E3D3EDE7F5
:10193000FF070000F0B55746DE464E464546E0B587
:10194000834606000F03480087B092461D003F0BF8
:10195000400DCC0F002800D16FE0DE4B984238D00C
:101960008023FF001B041F43730F3B430193DA4B9B
:101970000027994600239B46F60081442B0369000B
:101980001B0B52469846490DED0F002900D185E00A
:10199000D04B994200D173E04346DA0080231B0408
:1019A00013435246CC48520F8446134352460020FC
:1019B0006144D20089442100694000918C46012194
:1019C00049448A460F2F00D990E0C449BF00CF593F
:1019D000BF465B463B43019300D06AE102230827E0
:1019E000002681469B46C9E732005846019B614666
:1019F0000091022800D175E0032800D1FEE1012802
:101A000000D02CE100230027002600253F032A0DEB
:101A10003F0BB34812053A4302401B051343009A9B
:101A20005B00D1075B080B433000190007B03CBCDA
:101A300090469946A246AB46F0BD5B463B430193B8
:101A400000D12FE1002F00D1A5E13800FEF7E2FE22
:101A500003000B3B1C2B00DD96E11D22D31A5A46D6
:101A60000100DA405E4608398F4013008E403B4348
:101A700001939C4B00271B1A994600239B467DE748
:101A8000414653460B4393498C46E144002B00D01A
:101A90001AE102220220174300228CE7134300D1EF
:101AA0000DE14346002B00D181E14046FEF7B2FE36
:101AB00002000B3A1C2A00DD72E10100434608399E
:101AC0008B4098461D239A1A5346D3401A0043462A
:101AD000134352468A404946081A8249894681443E
:101AE000002068E77B4B002700268EE7140C1204C9
:101AF000120C1100370C3604350C794328008C4643
:101B00002E0060436044834656432100300C8046DB
:101B10005846794340440291844506D9884680213D
:101B200049028C46E044414602913604010C360CD1
:101B300000048B4681191E0C1B041B0C0391190019
:101B400079438C46280075436544A8465843050CE4
:101B500045447743A94203D9802149028C46674412
:101B6000290C8C4639000004000C2D042D1861440A
:101B7000AB4405915946049101990F043F0C080CA0
:101B8000390051434243904602008C46090C8B4673
:101B900062437C4344445C44A04503D9802149020C
:101BA00088464244210C884661460904090C8C464B
:101BB00039005943434370437E430F0CF618240405
:101BC000BE19644442448C46B34203D980235B026D
:101BD00098464044029B61469846049B3704434420
:101BE0009B46AB45AD416B420D0405992D0C8C46CF
:101BF0007F196744FD18A8465D462D19A542A441EA
:101C000093466442A446C344DC448F42BF41984596
:101C10009B4193459241A445A4415B427F421F43AF
:101C2000360C52426442BF192243BF18624638182C
:101C30004302D20D039913436A020A43501E8241A4
:101C40006146ED0D2A434E023243D90100D4B3E080
:101C50000126500832400243DE0732435B08224C23
:101C60005444002C62DD510709D00F201040042895
:101C700005D0101D9042924152429B180200D9019A
:101C800004D580241948E400034054441848844291
:101C900000DD27E75E075B02D2081F0B63051643D2
:101CA0005B0DB2E6002399460133042700269B46CC
:101CB00064E60323019781460C279B465EE60122DA
:101CC00001201743002276E6032303201F434346E7
:101CD00071E6C046FF07000001FCFFFF4449011008
:101CE000FFFF0F800DFCFFFFFF030000FFFFFFFE63
:101CF000FE0700000023802700933F030026434B8C
:101D000083E6019B3200A446584670E6AC466EE678
:101D1000802701993F0339422DD03B422BD11F43ED
:101D20003F033F0B00951600384B6EE601252D1B37
:101D3000382D00DD66E61F2D40DC35481C00504480
:101D4000160082408440EE40501E824134431443CA
:101D5000EB40620709D00F222240042A05D022005E
:101D6000141D9442804140421B181A023ED50123A3
:101D70000027002649E68027019B3F031F433F03BE
:101D80003F0B0094214B40E603005A46283B9A4003
:101D9000002601926DE65846FEF73CFD203057E6DE
:101DA00003005246283B9A401300002293E6504617
:101DB000FEF730FD20307BE6CA4650E71F201E00AC
:101DC0004042041BE640202D03D0124C5444A34053
:101DD0001A43501E8241324307260027164009D07D
:101DE0000F200023104014000428B9D122005E0700
:101DF0005B021F0BD2081643002306E680273F0331
:101E00001F433F033F0B1600004BFEE5FF0700009A
:101E10001E0400003E040000F8B557464E464546F5
:101E2000DE460C000903E0B5490A460F5F00314366
:101E30001E03DB0F760A9B46530F3343C84E6500E3
:101E4000C000E40FD2006D0DA24681467F0D9C4676
:101E50009046B74200D1B9E05B46012673409B46ED
:101E6000EE1BA34500D183E0002E63DD002F00D0E0
:101E7000B1E06346134300D123E1731E002B00D071
:101E8000BAE1861A6346B04280410125C91A404230
:101E9000091A0B0200D447E149024B0A984643460F
:101EA000002B00D189E14046FEF7B4FC0300083B5B
:101EB0001F2B00DD7CE120223000D21A4146D040A9
:101EC000994002009E400A439D4200DD6AE15D1B8D
:101ED0006B1C1F2B00DD94E1202110003500C91A76
:101EE0008E40DA408840DD40711E8E41110007228D
:101EF0002843002506433240002A09D00F233340EF
:101F0000042B05D0331DB342B641764289191E0019
:101F10000B0200D43DE26A1C914B55056D0D9A42AF
:101F200000D119E18F4AF6080A4057075202374399
:101F3000120B9BE0002E00D0C5E06E1C7605760DDE
:101F4000012E00DC48E16746861ACB1BB042BF4138
:101F50007F42B8461F004346FF1A3B00B8461B02AB
:101F600000D55FE137439AD100220024002579E0B3
:101F7000002E00DCFAE0002F00D18DE0784B9D426E
:101F800067D0802367461B041F43BC46382E00DC05
:101F900052E1634613435A1E93411E188642804104
:101FA000404209180B0200D4BEE06D4B01359D4242
:101FB00000D1D2E06B4A73080A4001210E401E4353
:101FC0005108D30707221E43324095E71E001643EF
:101FD00000D045E740E7624B9D423AD080236746F8
:101FE0001B041F43BC46382E00DDEBE01F2E00DC37
:101FF0003AE133006746203BDF403B00202E05D00E
:102000004027BF1B6646BE40324390464646721E7E
:1020100096413343DAE0002B00D114E263461343C8
:1020200000D168E180234E07C008C9081B0306439E
:10203000194208D06046C008184204D16346010026
:10204000D2085E071643F3009946C900720F444D4B
:1020500011434B46DE08424B4F073743CA089D42A7
:1020600000D16EE012036D05120B6D0D00211203FD
:10207000130B0A0D12051A433B4B2D0513402B433E
:102080005B00E4075B082343380019003CBC904622
:102090009946A246AB46F8BD6346134311D0731E62
:1020A000002B00D007E186188642804161444042FF
:1020B000091801250B0237D502257BE73E00614652
:1020C00091463500C5E75C46002D00D0E1E00B00ED
:1020D0000343F3D0731C00D1ACE1214B9F4200D1EC
:1020E0003AE1F343382B00DD6FE11F2B00DD8CE17B
:1020F00020250E00ED1AAE40B0460600AA46DE408E
:10210000454635432E005546D940A8406346451EF6
:10211000A8415B1A9C463043161AB242924163466C
:102120005242991A3D00B4E607223240002A00D0FC
:10213000E4E60B4BF6084F073743CA089D4200D030
:1021400090E73B00134300D1A6E180231B031A4311
:102150001203120B024D89E715000022002785E7C4
:10216000FF070000FFFF7FFFFFFF0F80002E00D062
:10217000C7E06B1C5E05760D012E00DCF0E0C84D5B
:10218000AB4200D1B9E085180A008542894162441A
:10219000494251180722CE076D082E4349083240A4
:1021A0001D00A9E6BF49ED1A114007223240A3E6FF
:1021B000320028388240002686E63000FEF72AFBEF
:1021C000203073E6634613435A1E9341C61AB04249
:1021D00080414042091A5CE60E00674606431743F9
:1021E000002D5ED1002E00D0F3E0002F00D11EE1C3
:1021F0005C46614691462CE7A94FBE427BD01E004B
:10220000F1E610001F3DE840202B03D04021CB1AFF
:102210009A401643731E9E41072206433240002116
:10222000002583E7161A6346B2428041591A40429C
:102230000B1A98465C4632E61F2E00DDABE02027E5
:10224000BB1B9A4663465746BB40994613004F4610
:10225000F3401F433B005746BA40571EBA41134351
:102260006246F240891898E62027BB1B9A466346CF
:102270005746BB40994613004F46F3401F433B006F
:102280005746BA40571EBA4113436246F240891A74
:102290009CE7834B9F425FD080252D0473422943E6
:1022A00020E7002E0CD1002F00D1D0E05C46614623
:1022B00091467B4DCDE67A4FBE421CD01E0065E6AE
:1022C000002F18D0C0084E0706438020C90800031D
:1022D000014208D06346DC08044204D12100DA46FA
:1022E000D2085E071643F300994601245346C900FD
:1022F000720F11431C406A4DABE61D0000220027FF
:10230000B4E6002D59D10B00034300D1D6E6731C6F
:1023100000D1B2E0624B9F421ED0F343382B6FDCFA
:102320001F2B00DD97E020250E00ED1AAE40B046D1
:102330000600AA46DE40454635432E005546A840D5
:10234000D940451EA8418C440643B6189642924196
:10235000514261443D0025E63D006146914678E6E4
:102360000B000343002D00D055E6002BF5D063464B
:10237000134300D16DE68618864280416144404295
:10238000091800220B0200D4D0E6464B0135194053
:10239000B2E5B1465DE633006746203BDF403B00D7
:1023A000202E05D04027BF1B6646BE4032439046D4
:1023B0004646721E96413343EFE5394B9F42CBD0E0
:1023C00080252D0473422943A8E70843411E884114
:1023D000A2E6002F00D13CE66346861ACF1AB0422F
:1023E0009B415B42FB1A98461B024ED5161A634668
:1023F000B2429241591A5242891A5C4600227BE548
:1024000001430E00711E8E419FE71D000E00203D0E
:10241000EE40B046202B04D04025EB1A99400843EB
:10242000814648464346411E8841184374E60022CF
:10243000002417E6161A6346B2429241591A5242D4
:10244000891A3D0025E561469146154D01E6802239
:102450000024120379E61D000E00203DEE40B04638
:10246000202B04D04025EB1A9940084381464E4664
:102470004346711E8E411E4367E7861896429B4174
:1024800061445B42C9183D008CE547463743CED0D6
:1024900007224146324049E600273A00E6E5C046B9
:1024A000FF070000FFFF7FFF70B50C4E0D031C03FC
:1024B00049005B002D0B490D240B5B0DB14208D088
:1024C000064900208B4203D114432000441EA04142
:1024D00070BD05430120002DFAD1F1E7FF07000090
:1024E00030B5144D0A034B00120B5B0DC90F0024CD
:1024F000AB4211DD104CA34210DC80246403224364
:102500000E4CE41A1F2C0CDD0D48C31ADA401300E0
:102510005C42002900D11C00200030BD094BCC18C2
:10252000FAE7094DE040AC4663449A401300034388
:10253000EEE7C046FE0300001D0400003304000067
:1025400013040000FFFFFF7FEDFBFFFF70B50028C5
:102550002DD0C317C5185D40C40F2800FEF75AF9E7
:10256000154B1B1A5B055B0D0A2815DD0B388540E2
:1025700000222D032D0B002110002D030A0D2D0B21
:1025800012052A430D4D1B052A4013435B00E40747
:102590005B082343190070BD0200290015329140E9
:1025A0000A000B21081AC5402D032D0BE3E7002478
:1025B000002300250022DEE71E040000FFFF0F803D
:1025C00010B5041E25D0FEF725F9144B1B1A5B0528
:1025D0005B0D0A2812DD0B38844000222403240BF3
:1025E0000021100024030A0D240B120522430C4C79
:1025F0001B05224013435B00590810BD0200210057
:10260000153291400A000B21081AC4402403240B00
:10261000E6E7002300240022E2E7C0461E04000093
:10262000FFFF0F8010B5002903D1FEF7F3F820302B
:1026300002E0081CFEF7EEF810BDC046F0B54E46AD
:102640005746DE464546E0B50F00002183B0060040
:102650008946002F06DA3900002746428F410121C2
:1026600049428946002B07DA4946C943100089468A
:102670001900002342428B4134003D0092469846A7
:10268000BB4269D866D041465046FFF7CBFF834630
:1026900039003000FFF7C6FF5B461B1A9C46203B03
:1026A0009B4600D575E05146584681400B00514687
:1026B000604681400A00BB4261D85ED034003D00D4
:1026C0005946A41A9D41002900DA7AE00021002031
:1026D00001260090019159468E40019661460126DF
:1026E0008E4061460096002950D0D90756085F08F1
:1026F0000E4363460EE0AF4201D1A6420CD8A41BA4
:10270000BD41012124196D410022013B641855414E
:10271000002B06D0AF42EED9013B24196D41002BAE
:10272000F8D1009801995B4600196941002B3DDB07
:102730002E00DE4063462C00DC405B46002B4BDB6A
:1027400034005D46AC4023006446A6403200801A47
:10275000994103E0B24296D9002000214B46002B5C
:1027600004D003000C0000215842A14103B03CBC3E
:1027700090469946A246AB46F0BDB1429ED9002193
:1027800000200090019161460029AED10098019986
:10279000E4E72023624651469B1AD9404046009107
:1027A00061468840030000990B4380E7624620237E
:1027B0009B1A2A009A40260013006246D6401E4308
:1027C000B8E7614620260127761A00200021F7404D
:1027D00000900191019781E767462023624635000A
:1027E000BC409B1ADD4023002B43ADE7024670B589
:1027F0000A4392072AD11E4DEE0104C808C9541B92
:102800009443344017D0D0B2D9B2401A21060143C4
:1028100010D190B299B2401A210401430AD110029A
:102820001902000A090A401A2102014302D1100EBE
:10283000190E401A70BD9A42DFD010BA19BA8842F8
:1028400001D9012070BD0020C04370BD02780B7813
:1028500001300131002A09D09A4207D102780B7861
:1028600001300131002A01D09A42EFD0D01A70BD58
:042870000101010160
:1028740070B504000D00052200210CF027FF601D37
:10288400042200210CF022FF23007D331D70054B30
:102894002200E3660023683220001370537013751E
:0828A40070BDC04640787D01C3
:1028AC00174B10B599420AD813001A339B00C31862
:1028BC005960012A02D100237C30037010BD114BEA
:1028CC00114CCB18A3420AD813001A339B00C3181F
:1028DC0049085960012AF1D17C304023EDE70B4BBC
:1028EC000B4CCB18A342E9D813001A339B00C31826
:1028FC0089085960012AE1D17C308023DDE7C0468C
:10290C0080C3C9017F3C36FE7FC3C901FF786CFCD4
:04291C00FF596202FB
:10292000F0B587B01C000EAB1B78150003930300B5
:10293000002900D08AE068331B7864221A339B0098
:10294000C01800234068FDF7C7FF06000F000D9B6D
:102950004A4AD917C9075B0819430D9BD8070023BA
:10296000FDF776FF32003B00FDF7B6FF4900C00FD0
:1029700008430200C317B6185F41142C03D804D1D2
:102980003F4B9D4201D914243D4D0D2C03D304D15E
:102990003C4B9D4201D20D243A4D32003B002800B1
:1029A0002100FDF779FF0F2204900E2802D95A2842
:1029B00007D95A22002330003900FDF78DFF0500AA
:1029C0000C002800210032003B00FDF765FF1000DD
:1029D00019002D4A0023FDF77FFF3B003200FDF771
:1029E0005BFF039B05000400002B39D163425C416F
:1029F000264B64421C40244BE418049BE801DB0195
:102A000021000593FDF7C0FD0023214A0193059B9A
:102A100000959B1818180C9B13C3039B002B21D106
:102A2000009A019B30003900FDF756FF2200039BFE
:102A3000FDF732FF320004000D003B0004980399BB
:102A4000FDF74AFF0019694107B0F0BD69331B78F3
:102A500064221A339B00C01840680023002172E7EB
:102A6000094CCAE70023084A05980199FDF734FF8D
:102A7000009B019CC0186141E6E7C04600CA9A3B32
:102A800000046BF4005847F840420F00C1BDF0FF4E
:042A900000FEFFFF46
:102A9400F0B585B01C000A9B150000930B9B0C9E9F
:102AA4000193019A009B1343052C54D83FD14B4A00
:102AB400954250D8002B00D181E0012303932A00D2
:102AC400230000980199FDF7E5FE062202900528EF
:102AD40006D9E123029ADB009A4208D9E122D20006
:102AE400002300980199FDF7D5FE05000C002A008B
:102AF400230000980199FDF7CDFE10001900384A13
:102B04000023FDF7E7FE23002A00FDF7C3FE0700BC
:102B14007B1E9F41334B7F421F40039B0137012B98
:102B240052D1002333607360039BB3603EE0002CFA
:102B340007D12D4A95420AD82C4D002B3CD0039442
:102B4400BDE7032CB6D802D1294A9542B2D8002B4E
:102B540004D00023B2E7214D0524ABE72A0023006B
:102B640024481421FDF796FE072802D1002900D13C
:102B7400013800230290039323002A0002980021C5
:102B8400FDF7A8FE039B00900191012B1FD00127A4
:102B94000020C0013900FDF7F5FC029B164ADB0159
:102BA4009B181818039B83C6002B01D00095019431
:102BB4000098019905B0F0BDE120C000D9E70123D8
:102BC400039303330293D7E701230393E1E700233D
:102BD40033607360039BB360EAE7C04600C11A3DEB
:102BE40040420F003F420F007FF0FA0280F0FA02E9
:0C2BF400FFD5117E00046BF400FEFFFF13
:102C0000F8B506981E00030007991500089F0B43AE
:102C1000032E45D812D12E4A954241D8002B43D1DC
:102C200033002A002B481421FDF736FEC30710D5C8
:102C300001300400FE280FD9FE240DE0002EEDD156
:102C4000254A9542EAD8254D002BF5D02CE00520E9
:102C5000EEE706240528ECD12A00330020000021ED
:102C6000FDF73AFE142903D80FD11D4B984206D91F
:102C7000023C2A00330020000021FDF72DFE002336
:102C8000E4B23C607B60BB60F8BD0D29F7D802D18F
:102C9000144B9842F3D80234EBE700200100F3E72D
:102CA0000B4D0326002BD2D02A003300FDF7F4FD94
:102CB0000400190010001343EFD1A21FF82AE3D833
:102CC000E4B23C607B60BB6001201900DCE7C046D9
:102CD00000D6117E002375EE7FF0FA0280F0FA0232
:082CE00000046BF4FF5747F8F4
:102CE800F0B50E684F6801253F4C6D42A4197D412F
:102CF800002D0AD13D48844207D8700EFB010343DA
:102D08000720F2014B600A60F0BD0125384C6D4286
:102D1800A4197D41002D0AD13648844207D8B00E47
:102D2800BB010343B2014B600A600620ECE70125B2
:102D3800314C6D42A4197D41002D0AD12F4884429F
:102D480007D8F00E7B01034372014B600A6005202F
:102D5800DAE701252A4C6D42A4197D41002D0AD1DC
:102D68002848844207D8300F3B01034332014B60A7
:102D78000A600420C8E70125234C6D42A4197D414F
:102D8800002D0AD12148844207D8700FFB00034365
:102D9800F2004B600A600320B6E701251C4C6D4227
:102DA800A4197D41002D0AD11A48844207D8B00FD2
:102DB800BB000343B2004B600A600220A4E7012570
:102DC800154C6D42A4197D41002D0AD11348844247
:102DD80007D832003B0092197B4101200A604B6002
:102DE80092E7002090E7C04680E5F9FF7F1A0600C9
:102DF80000CBF3FFFF340C000096E7FFFF691800D3
:102E0800002CCFFFFFD3300000589EFFFFA76100C2
:102E180000B03CFFFF4FC300006079FEFF9F8601B2
:102E2800F0B50E684F6801253F4C6D42A4197D41ED
:102E3800002D0AD13D48844207D8700EFB01034398
:102E48000720F2014B600A60F0BD0125384C6D4245
:102E5800A4197D41002D0AD13648844207D8B00E06
:102E6800BB010343B2014B600A600620ECE7012571
:102E7800314C6D42A4197D41002D0AD12F4884425E
:102E880007D8F00E7B01034372014B600A600520EE
:102E9800DAE701252A4C6D42A4197D41002D0AD19B
:102EA8002848844207D8300F3B01034332014B6066
:102EB8000A600420C8E70125234C6D42A4197D410E
:102EC800002D0AD12148844207D8700FFB00034324
:102ED800F2004B600A600320B6E701251C4C6D42E6
:102EE800A4197D41002D0AD11A48844207D8B00F91
:102EF800BB000343B2004B600A600220A4E701252F
:102F0800154C6D42A4197D41002D0AD11348844205
:102F180007D832003B0092197B4101200A604B60C0
:102F280092E7002090E7C04668D7E3FF97281C0087
:102F3800D0AEC7FF2F513800A05D8FFF5FA2700091
:102F480040BB1EFFBF44E10080763DFE7F89C20181
:102F580000ED7AFCFF12850300DAF5F8FF250A0771
:102F680010B511221021024800F0ACFF10BDC04678
:042F7800E02700202E
:102F7C00F8B50D001E000C4C7D30017820001700B8
:102F8C0000F0F1FD2900200000F000FE3500AB1B25
:102F9C009F4205DD2978200000F0F8FD0135F6E7A9
:0C2FAC00200000F0E7FDF8BDE027002049
:102FB800F0B58BB00492059310AB1E78050007AFEF
:102FC800002E3BD103003100029668331B781C3376
:102FD8009B00C3185B6800970193049A059B28001F
:102FE800FFF79AFC142008F0BFFCBB6804001A0A1B
:102FF8000270079A43709103890F8170110AC1709A
:1030080002710F207A681B0B110C834301400B439C
:103018006371130AA371E271002E1ED123000822E6
:103028001A212800FFF7A6FF049A059BAA65EB65FD
:103038000121200008F0B4FC0BB0F0BD002302937E
:10304800030069331B7801211C339B00C3185B689C
:1030580000970193049A059BC1E7012EE8D123004C
:10306800082222212800FFF785FF049A059B2A667B
:043078006B66DDE7BF
:10307C00002313B51C329200821851600093826DAC
:10308C00C36D0400FFF792FF012320000093226E12
:08309C00636EFFF78BFF13BD0B
:1030A40070B50E001500094C7D300178200000F049
:1030B4005EFD3100200000F06DFD2900200000F0CD
:1030C40069FD200000F05AFD70BDC046E0270020D5
:1030D40010B5002904D12022B131FFF7E1FF10BD62
:0A30E4000129FCD18022B031F7E78A
:1030F00070B50E007D3005000F4C0178200000F007
:1031000038FD3100200000F047FD200000F038FDC0
:10311000297800230122200000F04AFE002520002B
:1031200000F04CFD002804D0200000F053FDC5B293
:0C313000F5E7280070BDC046E027002035
:10313C0070B50E00032115000400FFF7D3FF012327
:10314C00B3405BB21A000243D2B2012D01D19843B5
:0C315C00C2B203212000FFF79FFF70BDEE
:10316800F8B50D001035EDB20F0029001600040067
:10317800FFF7BAFF0200002E08D1DF231A4029000A
:103188002000E419FFF78AFF6672F8BD012EF6D118
:0831980020200243D2B2F2E74D
:1031A000F7B504000025012680221021FFF77AFFE1
:1031B000802211212000FFF775FF802212212000BC
:1031C000FFF770FF802213212000FFF76BFF8022A2
:1031D00014212000FFF766FF802215212000FFF751
:1031E00061FF802216212000FFF75CFF802217215B
:1031F0002000FFF757FF0C2210212000FFF752FF9D
:103200000C2211212000FFF74DFF0C22122120007B
:10321000FFF748FF0C2213212000FFF743FF0C2289
:1032200014212000FFF73EFF0C2215212000FFF79C
:1032300039FF0C2216212000FFF734FF17210C2242
:103240002000FFF72FFF344A122320000095FFF7DC
:10325000B3FE12230096304A2000FFF7ADFEE6735E
:1032600026742A00290020006572A572E572257374
:103270006573A573FFF778FF31002A002000FFF780
:1032800073FF2A0002212000FFF76EFF2A000321AE
:103290002000FFF769FF2A0004212000FFF764FFE8
:1032A0002A0005212000FFF75FFF320006212000E1
:1032B000FFF75AFF320007212000FFF755FF2A00D1
:1032C000A2212000FFF7EEFE2A00A3212000FFF735
:1032D000E9FE2A00A4212000FFF7E4FE29002000D7
:1032E000FFF7F8FE8022B1212000FFF7DBFE002669
:1032F0000027EB00E3189E61DF61E9B200222000A5
:10330000FFF71CFF2B0000227E33E31801351A70F3
:0C331000082DEED1F7BDC04600205FA0E4
:10331C00F7B504001B4E170030000D00019300F0B0
:10332C0077FC23007D331978300000F01CFC300052
:10333C0000F020FC002398421ED100212000FFF752
:10334C00D1FEC0110128F8D03F2312229D432A43FD
:10335C00B7212000FFF7A0FE002F0FD0002239006C
:10336C002000FFF79DFA002201992000FFF780FE54
:10337C002000FFF70FFF01231800FEBD024BE36690
:0C338C00F1E7C046E027002040787D01FA
:10339800103170B5CCB2210016000500FFF7A4FE6D
:1033A800402102008A43D2B2012E01D10143CAB2A0
:0A33B80028002100FFF772FE70BD2F
:1033C20010B50C000021FFF792FE0122C309237001
:1033D20083111340637043111340A3700311134010
:0A33E200E37003231840207110BDB2
:1033EC0010B50C000121FFF77DFEC30923700123EA
:1033FC0082111A406270421100111A401840A270DA
:04340C00E07010BD9F
:1034100010B504000100FFF7D4FF611D2000FFF785
:04342000E5FF10BDF7
:10342400F7B507000D00140001930026072901D801
:10343400114B5E5C31003800FFF758FE0200052D89
:103444000AD88320019B0240002B01D00C231A438D
:1034540024012243D2B204E0062D07D1F820024011
:10346400224331003800FFF71BFEF7BD072DF8D1CA
:0C347400702324019A43ECE78449011006
:1034800082B0F0B587B002910C9211001A000D9332
:103490000FAB1B780400009310AB1E7811AB1F78A4
:1034A0000E9B142004920393059108F061FA6B4679
:1034B0001B7D05000193029B0022052B2CD8039B4A
:1034C0001B0A03706B461B7B4370029B2000D900D4
:1034D0002C31C9B2FFF70CFE0322059B90431B0C55
:1034E00013401843059B0F211B0AEB706B461B7999
:1034F000049A2B71039B120C1B0B0A408B43134342
:103500006B71049B08221B0AAB716B461B7CA87075
:1035100001936B461B79EB71029B072B16D81800A1
:10352000FCF7A2FF041D2B394755636C2B002A21A1
:103530002000FFF723FD009A00212000FFF72CFF59
:103540003B00320000212000FFF76CFF0121280022
:1035500008F02AFA07B0F0BC08BC02B018472B00EC
:1035600032212000FFF70AFD009A01212000FFF719
:1035700013FF3B0032000121E5E72B003A21200038
:10358000FFF7FCFC009A02212000FFF705FF3B003B
:1035900032000221D7E72B0042212000FFF7EEFC8A
:1035A000009A03212000FFF7F7FE3B0032000321C1
:1035B000C9E72B004A212000FFF7E0FC009A042114
:1035C0002000FFF7E9FE3B0032000421BBE72B009F
:1035D00052212000FFF7D2FC009A05212000FFF7BE
:1035E000DBFE3B0032000521ADE7019A5A212000A5
:1035F000FFF758FD3B0032000621A4E7019A5B214A
:0E3600002000FFF74FFD3B00320007219BE743
:10361000F0B591B019000692079316AB1B78040021
:103620000493100001225242D31712184B4111008B
:103630001A00049B052B00D9DFE0002A06D1BB4B02
:10364000994203D80023BA4A06920793079B052B99
:1036500004D807D1B74B069A9A4203D90523B54A35
:1036600006920793079A0699022A05D800D08EE0A1
:10367000B14B994200D88AE0220000230499AE4D54
:10368000183260185168022903D80ED11168A94276
:103690000BD9049ED9B28E4207D0E1184E7A417AF6
:1036A0008E4202D1012011B0F0BD01330832062B49
:1036B000E8D1049BE5182E007E363378002B06D126
:1036C000012204992000FFF739FD01233370049B88
:1036D0000699079A0333DB00E31819605A600AABB6
:1036E000029300220023200000920193069A079B78
:1036F000FFF7D0F96B7A0200009306000B00200060
:103700000F000025FFF758FCEBB20593EB00E31820
:103710009969D8690B0003432ED0049B6219E31802
:10372000527A5B7A9A4227D10891099008A9200021
:10373000FFF7DAFA0DAB0590029300960197089A0D
:10374000099B2000FFF7A6F9099A0123032A05D84F
:1037500003D17A4A0899914200D80023DBB2059A36
:10376000039301930F9B0292059300930D9A0E9B76
:10377000E9B22000FFF784FE0135062DC4D1049B79
:103780002000E318597AFFF7A5FC00208BE7049B83
:103790000333DB00E31806C3049BE5182E007E36D6
:1037A0003378002B06D1012204992000FFF7C6FCD4
:1037B0000123337006A92000FFF796FA069A079BAB
:1037C000697A0AAE07000296002913D1A06DE16D57
:1037D0000025009001912000FFF75CF90395029706
:1037E0000195B3680A9A0093736804992000FFF763
:1037F00047FECAE7206E616EEAE7002A06D1504B09
:10380000994203D800234A4A06920793079B032B49
:1038100004D807D1494B069A9A4203D90323474A51
:1038200006920793069E079F049B062B4AD1236DA1
:10383000626D13432CD0206E616E32003B00FDF7A9
:103840002BF81A4300D02DE7C30700D52AE7A6645A
:10385000E76406A92000FFF7E7FA0AAB0600029327
:103860002000226E636E00920193069A079BFFF779
:10387000C7F900250C9B2000059300930395029641
:1038800001950A9A0B9B0499FFF7FAFD28000AE7B5
:10389000A664E76406A92000FFF7C6FA0AAB029304
:1038A00000220023060000920193069A079B200045
:1038B000FFF7A6F90B000200012100912000FFF79D
:1038C0007BFBD6E7A36CE26C134312D0206E616ED3
:1038D00032003B00FCF7E0FF1A4300D0E2E6C307EA
:1038E00000D5DFE6049B0333DB00E3181E605F6056
:1038F000AFE7049B06A90333DB00E3181E605F609B
:103900002000FFF791FA0AAB029300220023060081
:1039100000920193069A079B2000FFF771F90B00B4
:10392000049902006118497AC7E7C0467E1A06006A
:10393000801A060000C11A3D00E40B54FFD5117E29
:0439400096281C00A9
:10394400F0B58DB019000692079312AB60CB04005A
:103954000495059610001D7801225242D3171218BF
:103964004B411100002B06D1274B994203D8002369
:10397400264A06920793079B052B04D807D1244BAC
:10398400069A9A4203D90523214A06920793069977
:10399400079AEB1CDB00E31819605A6063195B7A21
:1039A40020000093049A059BFFF704FB01222900E1
:1039B4002000FFF7C1FB06A92000FFF793F9049A42
:1039C400059B09AE00920193069A079B0700029695
:1039D4002000FFF75DF8079A0123032A05D803D1D5
:1039E4000C4A0699914200D80023DBB20393029754
:1039F4000193B36820000093099A73682900FFF7C4
:103A04003DFD00200DB0F0BD7E1A0600801A0600B0
:083A140000C11A3DFFD5117E2F
:103A1C0010B560210148FEF727FF10BD30150020BE
:103A2C00E12130B51F4C85B04902200000F09CFB11
:103A3C00200000F0EFFB0028FAD0200000F036FB4D
:103A4C000023194D80211A002800FFF761FC17494B
:103A5C00002800D01649200002F040F8200000F0A9
:103A6C0025FB0023134A009328000023FFF7CAFD0F
:103A7C00012228001100FFF771FB01230293102390
:103A8C000D4A2800009201930C4A0023FFF754FFC3
:103A9C002800FFF7B7FCFA20400002F0A9F805B0A7
:103AAC0030BDC046041C002030150020BD4901105B
:103ABC00DA490110004E7253003C534C0027B929CF
:103ACC0070B51C4D2800FFF79DFC1B4C1B492000BA
:103ADC0001F0F3FF29780A22200002F039F8184986
:103AEC00200001F0EAFFA9780A22200002F030F849
:103AFC001449200001F0E1FF69780A22200002F04D
:103B0C0027F81149200001F0D8FFE9780A2220009B
:103B1C0002F01EF80D49200001F0CFFF29790A228E
:103B2C00200002F019F8200000F0C0FA084802F05A
:103B3C005FF870BD30150020041C00208C4901106A
:103B4C0097490110A1490110AB490110B34901106B
:043B5C00102700002E
:043B6000002070478A
:023B64007047A8
:0C3B660010B50368C9B21B68984710BD79
:0E3B72008B23002249009B00C161C2507047A6
:0C3B800010B5036801211B6B984710BDB5
:0C3B8C0010B503689C6B0123A04710BD1E
:103B980030B58B248025A400025903006D00002055
:103BA800AA4206D0501C185101209B182D33FF3310
:043BB800197030BD93
:063BBC00FC30C06A7047F6
:023BC20070474A
:083BC4008C239B00C1507047E7
:083BCC008D239B00C1507047DE
:103BD4000300FC33DA6A002A0ED0DA6A002A0BD01A
:103BE4009A6A013080189A6AC07F0132D2B29A620E
:0E3BF400DA6A013ADA62704701204042FBE7CC
:103C02000300FC33DA6A002A04D09B6A0130C01830
:0A3C1200C07F704701204042FBE72D
:103C1C0070B5036804005B6A9847402007F08AFE81
:103C2C0005001A23E25E1823E15E04F07DFA65615B
:023C3C0070BD59
:103C400070B5036886B05B6A05000E0098470C20CB
:103C500007F076FE04001A23EA5E1823E95E04F0FA
:103C600097FA710020002C6104F0B0FABC2007F034
:103C700067FE00260400144B3100036006614030EB
:103C800008F0BAF82000543008F052F880220F4BA8
:103C90001201009318213300200008F04DF98E2303
:103CA0009B00EC500A4B02A905930A4B200003939A
:103CB0000295049608F04AF9059BB34202D09B682E
:103CC00002A8984706B070BDFC610110084A0110B7
:083CD000FC490110213E001027
:0A3CD80010B50C220BF066FC10BDC5
:103CE20070B58B25AD00435906001400D018802210
:103CF2005200904200D9D41A30002D30FF30C01843
:103D020022000BF052FC735920001B19735170BD35
:103D120070B5050040690C00002801D004F02FF9AD
:0E3D22002869002802D0210004F04BFA70BD81
:103D300070B504004069002804D00368DB68984728
:103D4000002363612369002B13D08E25AD006059D9
:103D500008F072F9605908F0BDF96059002802D0E6
:103D600003685B6898470C21206907F01DFE00235B
:043D7000236170BD9E
:103D74008B2330B502000C0001259B00C35885B08D
:103D84004069D1696C40002B07D100942B0003AA31
:103D940004F024F9C0B205B030BD2D32FF320094D6
:0C3DA40004F0FCF8431E98414000F4E7D6
:103DB000F0B515000122C3B05340009302AE0400D9
:103DC00049002B003200406904F00AF9002817D19D
:103DD0002300FF27FC330134A84212D08021DA6A85
:103DE00049008A420AD05A6A315CA218D1775A6ACD
:103DF00001323A405A62DA6A0132DA620130EBE7A4
:083E00000025280043B0F0BDCD
:103E080010B582684368006851104018D20701D580
:083E18000268D358984710BD61
:103E2000F0B580270500BDB07F00286904F0D7F900
:103E30000328FAD8FCF718FB470219198D239B00B9
:103E4000EB58002B00D098478B24A4002A59002A55
:103E500007D029002D31FF31286904F0C8F900236B
:103E60002B51286904F0CBF9DFE72C000026FC3445
:103E70006662A662E662F0226946286904F0B3F938
:103E80006A1C864214DAE36ABB4211D0E36ABB4281
:103E90000CD06946636A895DD318D977FF21636ABC
:103EA00001330B406362E36A0133E3620136E8E702
:103EB000E36A002BB9DD8C239B00EB58002BB4D0B8
:0C3EC000E06A9847B1E701F0A9FEAEE708
:103ECC00FA2370B500259B008360124B0400083365
:103EDC000360456005614561C8B2160001F062FEE1
:103EEC002083F0B201F05EFE802260832000290066
:103EFC00520020300BF0E6FB2300FC335D629D6228
:103F0C00DD628B239B00E5500433E5500433E55010
:083F1C00200070BD144A0110E1
:103F2400FA2370B500254283802204009B0083603D
:103F34000C4B456008330561456103600183520001
:103F4400290020300BF0C2FB2300FC335D629D622C
:103F5400DD628B239B00E5500433E5500433E550C8
:083F6400200070BD144A011099
:103F6C0010B5102001F01EFE0400112001F01AFE05
:103F7C00210002000148FFF7CFFF10BDD41500202F
:103F8C0070B5104C10492068104A114B88420FD163
:103F9C00606890420CD1A068984209D100250D4868
:103FAC00256009F06FFC03008020290080049847ED
:103FBC00216009480021A360626009F0D1FA002356
:103FCC00236070BDD40F0020DE8116F0299B72BDDA
:0C3FDC007ABE59D355420000A0860100B7
:103FE8000B00F0B50F2700260E33023902003A40C5
:103FF800D5B22C0000093034092A00DD07341C70C2
:0A4008005E70023B9942F1D1F0BD59
:044012001E207047B5
:024016007047F1
:1040180013B50400684608F0AFFD21000098FFF7CB
:10402800DFFF210001981031FFF7DAFF202016BDCD
:1040380010B5192001F0B8FD0400044809F024FC6B
:10404800030001200021A0409847C04655420000C7
:0E405800C36810B5002B01D09B68984710BDBF
:104068009C2370B55B00C35C05001400002B1CD1B9
:104078000368DB699847F0210C4B09012140C918F6
:104088004B1E9941F0232340303B5A4253410F22A3
:104098000731144001330D3A012C02D0023C624230
:1040A8006241A869006804F08CF970BD00FDFFFF4B
:1040B8009C2310B55B00C35C0400002B05D1A369E9
:0C40C800186804F0AEF90028F9D010BD13
:1040D4009C2370B55B00C55C0400002D14D183697A
:1040E400002B0CD01868002809D00368DB689847B7
:1040F400A36904211D60A06907F054FCA561002395
:0A410400FC34E3622363636370BDC3
:10410E009C23F7B55B00C35C0400002B2AD18025ED
:10411E00FF276D00A369186804F064F9002821D008
:10412E0006F073FFA369012218686B46DE1D036853
:10413E0031005B6998472300FC335A6BAA420ED0BC
:10414E005A6BAA420BD02200D96A307828325054CA
:10415E00DA6A01323A40DA625A6B01325A6306F079
:06416E006AFFD7E7F7BD70
:104174007FB59C235B00C35C04000D00002B37D18A
:104184008669002E04D1042007F0D8FBA0610660E4
:10419400A369186800282CD1783007F0CFFB0600FB
:1041A4002223E25E2023E15E2B0004F0E1FBA369FD
:1041B4001E602423E25E531C06D0A0692621635EA0
:1041C4000068032104F0E2FBA369186800280FD0FB
:1041D40000220A4B69460393094B0094019302920F
:1041E40004F059F9039B002B02D09B68684698475A
:1041F4007FBD290004F0D6F8DBE7C0466C4A011005
:044204000F41001056
:1042080010B582684368006851104018D20701D57C
:084218000268D358984710BD5D
:104220009C2210B552000300805C002806D00120BB
:1042300001F0E4FC054801F0FDFA10BD9B69002B7C
:10424000FBD01868431E9841C0B2F6E71018002052
:1042500070B504000D0001F0EDFA03000020834268
:1042600004D0236829001B6C2000984770BD08B457
:10427000024B9C46024BC01A08BC604751420010DA
:0442800040010000F9
:1042840037B56B46DC1D9C2321705B00C35C0500C5
:10429400002B04D0C9B20A48FFF7D8FF3EBDAB6972
:1042A400186804F0C0F80028F9D0AB690122186836
:1042B400210003681B6998470130431E9841EDE7CC
:0442C40010180020AE
:1042C800F7B5060001911700002401F0AFFAA042EB
:1042D8000DD0A7420BD93D1B402D00D94025019B8D
:1042E8002A001919300000F007FF6419F1E72000CF
:1042F800FEBD08B4024B9C46024BC01A08BC60477E
:08430800C94200104001000051
:104310009C2370B55B00C35C05000E001400002BED
:1043200005D00F48FFF7D0FF0400200070BDAB6937
:10433000186804F07AF80028F9D0AB6901211B68ED
:1043400018005B6F74301B6B9847AB6922001868CC
:10435000310003681B699847431CE6D10024E4E759
:044360001018002011
:10436400F0B5C3B0050001F0CBF9932380229B0084
:10437400E918CB6852000400D31A984201DDCC68D6
:10438400141B01AB220002A92800A82600F0B3FFE9
:104394000021019802AB241A76001C199323802271
:1043A4009B00EB18DF685200974211D081420FD076
:1043B400DF6897420AD05A68675CAA1897555A680A
:1043C4000132D2B25A60DA680132DA600131E5E7CB
:0443D40043B0F0BD45
:1043D80070B5040000F01EFB2000FFF7BFFF932319
:1043E8009B00E318DD68200000F01BFB280070BD6F
:1043F80008B4034B9C46034BC01A08BC6047C04630
:08440800D9430010400100003F
:104410009C2310B55B00C35C0400002B05D006484C
:10442000FFF7DAFF0400200010BDFC3406F0F4FDB5
:0C443000646B06F007FEF6E71018002091
:10443C0070B5040000F0ECFA2000FFF78DFF932319
:10444C009B00E318DA68002A09D0A8229B68520066
:10445C00E3189D5C200000F0E2FA280070BD0125F5
:10446C006D42F7E708B4034B9C46034BC01A08BCDB
:0C447C006047C0463D44001040010000B5
:104488009C2310B55B00C35C0400002B05D00B48CF
:10449800FFF7D0FF0400200010BD06F0B9FD23008F
:1044A800FC335A6B002A05D01B6B2834E45C06F0F9
:1044B800C5FDF0E701246442F9E7C0461018002062
:1044C80070B5040000F0A6FA2000FFF747FF932319
:1044D8009B00E318DA68002A10D0A8219A684900DE
:1044E800A218555C9A680132D2B29A60DA68013A29
:1044F800DA60200000F095FA280070BD01256D42B1
:10450800F7E708B4024B9C46024BC01A08BC604748
:08451800C9440010400100003D
:104520009C2310B55B00C35C0400002B05D00E4833
:10453000FFF7CAFF0400200010BD06F06DFD230048
:10454000FC335A6B002A0CD01A6B2834A45C1A6B0B
:104550000132D2B21A635A6B013A5A6306F072FD05
:0C456000E9E701246442F9E7101800208C
:10456C00802210B50400520000210BF0ABF82300A0
:0E457C000022FC335A6020009A60DA6010BD05
:10458C00F7B51A4B1A4DFA260024083300932B600A
:10459C002023B600AE606C6016486B61AC61EC61B8
:1045AC00FFF7DEFF9C22012752002000AF5401F0E0
:1045BC00F9FA0190380001F0F5FA20230E4D00991C
:1045CC006B616B469B88AE602B84012368845B42D5
:1045DC006C600A482960AC61EC61AB84EB84FFF73A
:1045EC00BFFF9C225200AC54F7BDC046784A011064
:1045FC00041C00202C1C0020C81A0020F01A0020DB
:04460C0000207047D3
:024610007047F1
:024612007047EF
:1046140010B5054BC458002C05D0236820005B68F6
:0C4624009847A468F7E710BD8C05000063
:1046300070B50D00054BC458002C06D0236820002F
:104640009B6829009847A468F6E770BD8C050000B8
:0846500000487047484B0110BF
:1046580010B50400044B036005F060FD200005F070
:0C46680077FD200010BDC046C84A0110BC
:1046740010B50400FFF7EEFFB2212000C90007F0D7
:0646840091F9200010BDB9
:10468C00F0B50F4B0500C458002385B0019102AA68
:10469C00D61C002C12D023680199DF68320003ABC2
:1046AC002000B84731780300042905D0039A28006C
:1046BC0004F010FF05B0F0BDA468E8E73178F5E729
:0446CC008C05000059
:1046D00070B50E0005000021002A0CD10A4BC45809
:1046E000002C0ED0236800221B693100200098475F
:1046F000002804D00121280004F0BEFC70BDA4688D
:0C470000EEE72100F7E7C0468C05000042
:10470C0070B50E0005000021074BC458002C07D0D3
:10471C002368310020005B699847A4680100F5E725
:0C472C00280004F0ADFD70BD8C050000FD
:10473800F8B505000E001700084BC458002C07D028
:10474800236820009B693A0031009847A468F5E780
:104758002800012104F002FEF8BDC0468C050000C7
:10476800F0B5002187B0040005F0F6F86B4600228A
:10477800DA80238901A9A588E28889260B731B0A98
:104788004B730F4BEF27CB81042376000E80113E2D
:10479800FF3ECE704E710D728A72FF330A34013EAD
:1047A8002D0A120AC871CA720F718E714D720B826E
:1047B800122220000AF0F6FE200007B0F0BDC04625
:0447C80001020000EA
:1047CC00F8B506000C000500002730000BF06EFA5F
:1047DC00AB1B984205D92B786770237001350234D6
:0847EC00F3E74000C0B2F8BD84
:1047F40070B504000C4BC558002D07D02B68280059
:104804001B6A9847002802D1AD68F5E72800A9255E
:10481400064BED006353064BE118FFF7D5FF635DCC
:10482400C0186055601970BD8C05000002030000BB
:044834004A05000031
:1048380070B5A125064BED004353064B0400C11883
:104848000548FFF7BFFF635DC0186055601970BD6C
:0C485800020300000A050000AC4A011039
:1048640070B59925064BED004353064B0400C01860
:10487400FFF7D0FB635DC0186055601970BDC0467A
:0848840002030000CA04000059
:10488C000023F0B587B003A98B71B123DB00C35CA7
:10489C0005000B7101234B71BF33CB713A330B7293
:1048AC00CE2309249B00154AC7180392380009220D
:1048BC000AF076FE124BEE58002E17D0336800210A
:1048CC001B6830009847C37882781B021343093B5E
:1048DC000193CE2301009B00E01828180931019A9E
:1048EC000AF05EFE019BB668E418E5E73800054B5C
:1048FC00EC54054B2412EC5407B0F0BD0902FFFF39
:0C490C008C0500003A0300003B03000093
:1049180073B504000D00160007F072FE80235B00DB
:10492800010000932A003300200004F0CDFF024B61
:0C4938002000236076BDC046C84A011074
:1049440010B50E4A04008358002B12D18150B123B4
:10495400DB00E25C48790A71E25C1218E2540B68ED
:1049640008005B6A9847238918182081012010BD2C
:1049740013009A68002AFBD19960E8E78C050000CF
:104984001FB5040004F09AFF0100684604F0C4F85F
:104994004021684604F03AF9074BE458002C06D04D
:1049A40023682000DB6969469847A468F6E76846EF
:0C49B40004F0B9F81FBDC0468C050000DF
:1049C00010B50400FFF7DEFF200004F0DDFE10BD8F
:1049D00070B50D4D2B78BFF35B8F0C4CDB0711D4FA
:1049E000280006F09FFD00280CD0C02208492000B6
:1049F000FFF792FF280006F0B7FD064A064920009F
:104A000006F07CFD200070BD441D0020EC1F00203E
:0C4A10008A2E0000000200205946001011
:0E4A1C0010B5FFF7D7FF03685B6F984710BD1A
:0E4A2A0010B5FFF7D0FF03689B6F984710BDD3
:0E4A380010B5FFF7C9FF0368DB6F984710BD8C
:084A460010B504F0EEF910BDFB
:084A4E0010B504F000FA10BDE0
:084A560010B504F0D4F910BD05
:024A5E0070479F
:024A600070479D
:024A620070479B
:084A6400436A783318787047AB
:064A6C00FC30806A704777
:044A72000120704768
:084A780000487047AC4C01102E
:104A8000F0B505009BB007AC4B220F0020000021C1
:104A90000AF01EFE2B00FC339B6A05215A1E93412F
:104AA00000202E795B421940731CDBB20193AB7B73
:104AB00002932B7B03936B7B0493874200D0A5E08A
:104AC0006176534906A86183102161770B39E1773C
:104AD0002421471D0922F9772527627406A8053A83
:104AE000C019A274033A027006A8C71D0320494BDF
:104AF000F8772380BF3BFF3BA370812308AFFA7791
:104B000004275B00A380823BE37162754E3B2276F3
:104B1000A27706A80832121823722A3BD77763724D
:104B20000A220333A3723C4B06A8A3810223121866
:104B3000D1770591073706A97F18FB77062705214E
:104B400009A8C77711A801702D2006A940182421B3
:104B5000E672A373E674A375E37501702E2006A9AF
:104B6000401807702F204018694606700E7912A869
:104B700006703126072006A976183070322676187E
:104B800005213170332606A9761869460F7A06A9E1
:104B90003770224E10272686372676183770092759
:104BA00014AE377039260427761837703A267618EF
:104BB00069460F7906A93770194E1D35268741269B
:104BC000761830703B30401805210170432106A84B
:104BD000091868464426007B0870124906A8801907
:104BE000018011492800D1874A2206A95218694636
:104BF000097C11704B2206A952181370402219AB80
:104C00001A7021000B320AF0D1FC28001BB0F0BD55
:104C10000524000009020000020200000340000019
:0C4C2000020A000002400000070500002E
:104C2C0010B504000A4B08330360FFF7CBFE05F008
:104C3C0073FA2000D03004F07EF820007C3004F0B1
:104C4C007AF82000703004F076F8200010BDC046D1
:044C5C00644C011093
:104C600010B50400FFF7E2FF94212000490006F090
:064C70009BFE200010BDB8
:084C760010B5FFF7DEFE10BDD2
:104C800010B50400024B036003F0C4FE200010BD09
:044C9000904B011034
:104C940010B50400FFF7F2FF2000282106F082FE81
:044CA400200010BD1F
:104CA80010B50400024B036003F0B0FE200010BDF5
:044CB800604B01103C
:104CBC0010B50400FFF7F2FF2000342106F06EFE61
:044CCC00200010BDF7
:104CD00010B50400024B036003F09CFE200010BDE1
:044CE000784B0110FC
:104CE40010B50400FFF7F2FF2000382106F05AFE49
:044CF400200010BDCF
:104CF80070B50D000400072217490F300AF052FC66
:104D080040220221280003F071FF40222073022173
:104D1800280003F072FF402260730321280003F08B
:104D280065FFA073280003F0FDFE002804D1AF2220
:104D38000A490B4806F0BEF8220021000023783209
:104D480085311165536513701373D9345032137458
:104D58005465936570BDC046AC4B0110464C0110BC
:044D6800514C011099
:104D6C00F0B504000E0087B01500FFF75FFEF28867
:104D7C0023799A4236D1002D34D173780593012BC7
:104D8C002DD1F378202B26D13789072F23D123005F
:104D9C000F33039307333A001900039804930AF076
:104DAC00D9FB059D002816D03A00049903980AF007
:104DBC00F7FB217CE07B09020918607CE77C00048E
:104DCC000918A07C0097000609182068237D476B02
:104DDC00627D2000B847F378212B00D101252800F3
:084DEC0007B0F0BD0025FAE755
:104DF40070B50400FFF71EFEFFF7E8FD217B05F008
:104E04000FF823002200C833853225001A602000E1
:104E140000234732843513607C302B7003F047FF46
:104E24002B78002B03D123682000DB6B984770BDDF
:104E340070B504002500FC35FFF7FCFD6E6A002EFA
:104E440005D0DE220E49FF320E4806F035F8230065
:104E5400D9332B62FFF7BAFD617B04F037FF686238
:104E640025002000D8352E70D03003F020FF2B7899
:104E7400002B03D1236820009B6B984770BDC0466C
:084E8400464C0110B84B01106F
:104E8C0010B582684368006851104018D20701D5EC
:084E9C000268D358984710BDCD
:104EA400F0B50400002687B002ADFFF7C3FDFFF79D
:104EB4008DFDA17B032340220095059604F07EFC22
:104EC4002800FFF7C7F8FFF781FD164F164B217B2B
:104ED4004022EF600393009502230294049604F0A9
:104EE4006DFC2800FFF7B6F8FFF770FD0F4B617BF0
:104EF4004022EF600393009502230294049604F089
:104F04005DFC2800FFF7A6F8FFF760FD2200FC32E5
:104F1400617B4023126A04F079FE0120D8342070AA
:104F240007B0F0BDA04B0110F54D0010354E001038
:104F3400022370B543710023040083600C4B1500F9
:104F440008330360703003F0A5FE20007C3003F0CA
:104F5400A1FE2000D03003F09DFE2300FC339D62AF
:104F6400FFF734FD2100FFF7EBFC200070BDC046C5
:044F7400644C011078
:104F780070B504000D00FFF75BFD230078331D704A
:104F8800002D42D1260084363378002B05D0FFF758
:104F98001BFD217B04F0FCFC35702300220025005A
:104FA8000026C83385327C3528001A605E6003F01D
:104FB8007CFE280003F072FEB04205D1A2221549FA
:104FC8001548520005F076FF2500D8352B78002BC0
:104FD80005D0FFF7F9FC217B04F0DAFC2E702300E2
:104FE8002200FC33D93225001A620022D03528006D
:104FF8005A6203F05AFE280003F050FE002804D13C
:10500800A722044952000548DCE72000703003F06D
:105018004CFE70BD464C0110C64B0110D74B011019
:1050280010B50400FFF704FD00212000FFF7A0FFE2
:0250380010BDA9
:10503A0070B50D000400FFF7FAFC042D03D000211F
:08504A002000FFF794FF70BD88
:10505200F8B5040016000D001F00FFF7ECFC042356
:105062003370EA88237900209A4210D16A78012AA3
:105072000DD1EB78212B06D0222B09D0202B19D170
:105082003070163401E032700F3407203C60F8BDF6
:10509200A988114000D011002000FFF76CFF012207
:1050A200AB8800201340E366AB8892181340A366D6
:0A50B2003270ECE703233370E9E7E6
:1050BC0010B504008AB0FFF7ABFC684603F098FC0F
:1050CC0020000A4B694670300093099403F002FEED
:1050DC002000FFF7A4FC064B00211A68684603F079
:1050EC00DBFC6846FFF7C6FD0AB010BD904B011003
:0450FC00B44B0110A0
:1051000070B504000E008EB01500FFF787FC01A8F3
:1051100003F074FC20000B9600260D4B01A90C95A2
:105120007C300DAD01930A942E7003F0D9FD200060
:10513000FFF77BFC074B31001A6801A803F0B2FCB3
:105140002C7801A8FFF7B0FD20000EB070BDC0465E
:08515000604B0110B44B01108B
:1051580070B5040025008435FFF76AFC2B78002B16
:1051680010D12600CC363368002B0BD0FFF72CFC6F
:105178002200217B8532336804F0E8FD002801D045
:0651880001232B7070BD35
:10518E00F0B585B01F000AAB1B78040003930291A3
:10519E000192FFF73CFC00233B60230078331B7821
:1051AE00002B21D0230084331B78002B1CD126002A
:1051BE004025CC363368ED1A019B9D4200D91D0067
:1051CE00019B002B06D02300C83318682A000299D1
:1051DE000AF0E5F933685B193360039B3D60002BE1
:1051EE0002D02000FFF7B1FF2000FFF717FC05B03B
:0251FE00F0BD02
:10520000F0B50400406A85B0030078331D780126AC
:10521000002D05D1303425703500280005B0F0BDD3
:105220000027009603ABE26AA16A0397FFF7AFFF7E
:10523000039AE36AA16A9B1A8A18E362A262BB42DC
:1052400002D130342670E8E7606AFFF785FF3D0041
:02525000E3E792
:10525400F0B51C0093B0019205000F00FFF7DCFBD2
:1052640063426341DBB20093002C00D103AC0026FF
:1052740004A8266003F0C0FB6A46109428003D246D
:105284000F4B12780493019B04A90F9311AB1A706E
:1052940002ABE418D03026700D950E9703F01EFD76
:1052A4002800FFF7C0FB074B31001A6804A803F07D
:1052B400F7FB247804A8FFF709FD200013B0F0BD24
:0852C400784B0110B44B0110FE
:1052CC00030070B5FC335B6A0400002B0ED10500A3
:1052DC00D8352B78002B09D1FFF774FB2200402323
:0E52EC00D932617B04F08EFC01232B7070BD63
:1052FA00F8B506001F0000233B60330078331B78A3
:10530A000800002B19D03300D8331B78002B14D196
:10531A003400FC34656A954200D915002A00216AD6
:10532A000AF03FF93D60236A5B192362636A5D1BD9
:0C533A00656202D13000FFF7C4FFF8BD2F
:1053460037B50400406A030078331D78002D04D178
:1053560035342570013528003EBD0023E26A0193ED
:10536600A16A01ABFFF7C6FF019BA26AD218A2622F
:10537600226B1168CB181360E36A01995B1A21004E
:10538600E36234310978002902D11268002A01D17A
:10539600002B03D1012335342370DCE7606AFFF765
:0653A60092FF0025D7E78D
:0653AC001620404270478C
:0A53B2000020814200D11938704735
:0453BC000120704715
:0653C00016204042704778
:0653C60016204042704772
:0453CC0011207047F5
:0253D000704724
:0253D200704722
:0253D400704720
:1053D80010B503689B6C984710BD08B4024B9C46F7
:1053E800024BC01A08BC6047D953001040010000A6
:0453F8007047704743
:0453FC00704770473F
:0854000010B50368984710BDC8
:1054080010B504000120783400F0F4FB207810BDBA
:1054180008B4034B9C46034BC01A08BC6047C046FF
:085428000954001040010000CE
:10543000012270B501235242FF210B4806F050FCB7
:1054400000F0CCFB0500094C78342378002B03D006
:10545000012000F0D3FBF8E700F0C0FB401BC72899
:10546000F6D9FEF7E9FD70BDE41D002010180020FC
:1054700007B50122019101A9FFF742FE002801D0E2
:0A54800001980EBD01204042FBE739
:10548C0008B4034B9C46034BC01A08BC6047C0468B
:08549C0071540010280100000A
:1054A40013B56B46DC1D0023012221002370FFF796
:1054B400CFFE002801D0207816BD01204042FBE732
:1054C40008B4034B9C46034BC01A08BC6047C04653
:0854D400A5540010280100009E
:1054DC00F7B5040001930E001500FFF7A7FA9C2303
:1054EC009B00E758002F04D0089B019A290030003C
:1054FC00B84798239B00E650019A0433E5500433D7
:0A550C00E250089A0433E250F7BDA4
:10551600F8B50600FFF78DFA9D23AD2700259B0001
:10552600F418BF00F359AB4209D920001034231FE9
:105536001B68002B03D01B6898470135F2E7F8BDBE
:10554800962310B5DB00984203D10121014806F0EB
:08555800A5FB10BDE41D0020BD
:1055600010B582684368006851104018D20701D511
:085570000268D358984710BDF2
:10557800104B70B5036003000F4AFC33DA620F4A20
:1055880004001A630E4A5A649D239B00C6184033D0
:10559800C518AE4204D0103D2800FEF759FDF8E7C3
:1055A80020002930FF3005F0E7FA2000FFF73AFB2A
:1055B800200070BDEC4C0110644D0110C44D011069
:0455C800D44D0110AD
:1055CC0008B4034B9C46034BC01A08BC6047C0464A
:0855DC007955001028010000C0
:1055E40008B4034B9C46034BC01A08BC6047C04632
:0855F400795500102C010000A4
:1055FC0010B50400FFF7BAFFAE212000890006F0B9
:06560C00CDF9200010BDE5
:1056140008B4034B9C46034BC01A08BC6047C04601
:08562400FD5500102C010000EF
:10562C0008B4034B9C46034BC01A08BC6047C046E9
:08563C00FD55001028010000DB
:10564400F0B585B003930AAB1E880BAB04001F882A
:105654000D00029206F0D6FF039B0100029A009609
:1056640001972000FFF764FC200029300021FF305F
:1056740005F058FA2300FA2200264133FF33920042
:105684009A605E601A4B1B4A23602300FC33DA6283
:10569400194A20001A63194A51305A648022FF3093
:1056A400520031000AF012F893239B00E3185E6065
:1056B4009E60DE609D239B00E318DE60A1239B00B7
:1056C400E318DE60A5239B00E318DE60A9239B009A
:1056D400E318DE60AD239B00E650443BE650B54240
:1056E40002D02000FFF7E8FC200005B0F0BDC04662
:1056F400EC4C0110644D0110C44D0110D44D011047
:1057040070B50500FFF788F92B000024D8331B7807
:10571400A34205D12B00FC335C6A402C00D9402401
:0A5724002800FFF780F9200070BD97
:1057300070B586B00400FFF771F99C23304A9B00D6
:10574000E2502000FFF771F92E4B200005932E4BFD
:105750000294039300230493FFF760F9AD239B00A9
:10576000E558032D15D86A1CE2502E01403BF6186F
:10577000A6193000FEF770FCA0222D01059B6519CB
:105780009200AD182B60002B03D05B6802A930009B
:1057900098472000FFF749F902A8FEF75DFCBC20FE
:1057A00006F0CEF800260500184B310003600661B4
:1057B000403006F021FB2800543006F0B9FA802270
:1057C000134B2800009352003300182106F0B4FB5D
:1057D00097239B00E5500F4B082205930E4B310099
:1057E00003A8029309F074FF02A9280006F0AEFB9B
:1057F00002A8FEF731FC2000FEF7B4FD06B070BD34
:1058000049550010C44C011065430010FC610110A3
:0C581000DC4C0110D04C01103154001091
:10581C0008B4034B9C46034BC01A08BC6047C046F7
:08582C0031570010400100009B
:0658340078300078704797
:10583C0037B50E4C200006F025FA0D4D0D492A0007
:10584C00200005F055FE012201920B4AF82300922C
:10585C0000220A4C5B0111002000FFF7EDFE2A002C
:10586C000749200005F044FE37BDC046E41D00206A
:10587C0000020020AFBC0010122000001018002005
:04588C00795500103A
:0658900010B508F041FB19
:10589600F0B589B00191037D0400012B00D08AE0A8
:1058A600021D0292100001220493002352421C00A2
:1058B6001500049E03920178002900D06EE041781D
:1058C600002900D06AE0511C65D001335BB204990F
:1058D6008B4201DD049303920134E1B202304CB2F3
:1058E6000829E8D100263700039BBB4204DC049B51
:1058F600039A9B18BB4253DC0F22029B1D782B1187
:105906001540029ADCB25278111107916946097F57
:1059160005910F2111400691002B08D02100573127
:10592600092B00DC2739019800F0CEF836182C43F5
:1059360008D029005731092D00D82739019800F0E1
:10594600C3F83618059B1C430AD01900079B57312C
:10595600092B01DC05993031019800F0B5F83618AD
:105966000699069B5731092B01D819003031019849
:1059760000F0AAF83618072F04D03A21019800F053
